{
  "_format": "hh-sol-artifact-1",
  "contractName": "SpacePool",
  "sourceName": "contracts/SpacePool.sol",
  "abi": [
    {
      "inputs": [
        {
          "internalType": "contract SpaceCoin",
          "name": "spaceCoin",
          "type": "address"
        },
        {
          "internalType": "contract SpacePoolCoin",
          "name": "spacePoolCoin",
          "type": "address"
        }
      ],
      "stateMutability": "nonpayable",
      "type": "constructor"
    },
    {
      "anonymous": false,
      "inputs": [
        {
          "indexed": true,
          "internalType": "address",
          "name": "sender",
          "type": "address"
        },
        {
          "indexed": false,
          "internalType": "uint256",
          "name": "amount0",
          "type": "uint256"
        },
        {
          "indexed": false,
          "internalType": "uint256",
          "name": "amount1",
          "type": "uint256"
        },
        {
          "indexed": true,
          "internalType": "address",
          "name": "to",
          "type": "address"
        }
      ],
      "name": "Burn",
      "type": "event"
    },
    {
      "anonymous": false,
      "inputs": [
        {
          "indexed": true,
          "internalType": "address",
          "name": "sender",
          "type": "address"
        },
        {
          "indexed": false,
          "internalType": "uint256",
          "name": "amount0",
          "type": "uint256"
        },
        {
          "indexed": false,
          "internalType": "uint256",
          "name": "amount1",
          "type": "uint256"
        }
      ],
      "name": "Mint",
      "type": "event"
    },
    {
      "anonymous": false,
      "inputs": [
        {
          "indexed": true,
          "internalType": "address",
          "name": "previousOwner",
          "type": "address"
        },
        {
          "indexed": true,
          "internalType": "address",
          "name": "newOwner",
          "type": "address"
        }
      ],
      "name": "OwnershipTransferred",
      "type": "event"
    },
    {
      "inputs": [],
      "name": "MINIMUM_LIQUIDITY",
      "outputs": [
        {
          "internalType": "uint256",
          "name": "",
          "type": "uint256"
        }
      ],
      "stateMutability": "view",
      "type": "function"
    },
    {
      "inputs": [],
      "name": "_spaceCoin",
      "outputs": [
        {
          "internalType": "contract SpaceCoin",
          "name": "",
          "type": "address"
        }
      ],
      "stateMutability": "view",
      "type": "function"
    },
    {
      "inputs": [],
      "name": "_spacePoolCoin",
      "outputs": [
        {
          "internalType": "contract SpacePoolCoin",
          "name": "",
          "type": "address"
        }
      ],
      "stateMutability": "view",
      "type": "function"
    },
    {
      "inputs": [
        {
          "internalType": "address",
          "name": "to",
          "type": "address"
        }
      ],
      "name": "burn",
      "outputs": [
        {
          "internalType": "uint256",
          "name": "amount0",
          "type": "uint256"
        },
        {
          "internalType": "uint256",
          "name": "amount1",
          "type": "uint256"
        }
      ],
      "stateMutability": "nonpayable",
      "type": "function"
    },
    {
      "inputs": [],
      "name": "getBalance",
      "outputs": [
        {
          "internalType": "uint256",
          "name": "",
          "type": "uint256"
        }
      ],
      "stateMutability": "view",
      "type": "function"
    },
    {
      "inputs": [],
      "name": "getReserves",
      "outputs": [
        {
          "internalType": "uint112",
          "name": "_reserve0",
          "type": "uint112"
        },
        {
          "internalType": "uint112",
          "name": "_reserve1",
          "type": "uint112"
        }
      ],
      "stateMutability": "view",
      "type": "function"
    },
    {
      "inputs": [
        {
          "internalType": "address",
          "name": "to",
          "type": "address"
        }
      ],
      "name": "mint",
      "outputs": [
        {
          "internalType": "uint256",
          "name": "liquidity",
          "type": "uint256"
        }
      ],
      "stateMutability": "nonpayable",
      "type": "function"
    },
    {
      "inputs": [],
      "name": "owner",
      "outputs": [
        {
          "internalType": "address",
          "name": "",
          "type": "address"
        }
      ],
      "stateMutability": "view",
      "type": "function"
    },
    {
      "inputs": [],
      "name": "renounceOwnership",
      "outputs": [],
      "stateMutability": "nonpayable",
      "type": "function"
    },
    {
      "inputs": [],
      "name": "swap",
      "outputs": [],
      "stateMutability": "nonpayable",
      "type": "function"
    },
    {
      "inputs": [],
      "name": "sync",
      "outputs": [],
      "stateMutability": "nonpayable",
      "type": "function"
    },
    {
      "inputs": [
        {
          "internalType": "address",
          "name": "newOwner",
          "type": "address"
        }
      ],
      "name": "transferOwnership",
      "outputs": [],
      "stateMutability": "nonpayable",
      "type": "function"
    },
    {
      "stateMutability": "payable",
      "type": "receive"
    }
  ],
  "bytecode": "0x608060405260016005553480156200001657600080fd5b5060405162001de038038062001de083398181016040528101906200003c9190620003c4565b6200005c620000506200026a60201b60201c565b6200027260201b60201c565b81600160006101000a81548173ffffffffffffffffffffffffffffffffffffffff021916908373ffffffffffffffffffffffffffffffffffffffff16021790555080600260006101000a81548173ffffffffffffffffffffffffffffffffffffffff021916908373ffffffffffffffffffffffffffffffffffffffff160217905550600260009054906101000a900473ffffffffffffffffffffffffffffffffffffffff1673ffffffffffffffffffffffffffffffffffffffff166318160ddd6040518163ffffffff1660e01b815260040160206040518083038186803b1580156200014757600080fd5b505afa1580156200015c573d6000803e3d6000fd5b505050506040513d601f19601f820116820180604052508101906200018291906200040b565b600381905550600060035414156200026257600260009054906101000a900473ffffffffffffffffffffffffffffffffffffffff1673ffffffffffffffffffffffffffffffffffffffff166340c10f1930670de0b6b3a76400006103e8620001eb91906200048c565b6040518363ffffffff1660e01b81526004016200020a9291906200045f565b602060405180830381600087803b1580156200022557600080fd5b505af11580156200023a573d6000803e3d6000fd5b505050506040513d601f19601f8201168201806040525081019062000260919062000392565b505b5050620005fb565b600033905090565b60008060009054906101000a900473ffffffffffffffffffffffffffffffffffffffff169050816000806101000a81548173ffffffffffffffffffffffffffffffffffffffff021916908373ffffffffffffffffffffffffffffffffffffffff1602179055508173ffffffffffffffffffffffffffffffffffffffff168173ffffffffffffffffffffffffffffffffffffffff167f8be0079c531659141344cd1fd0a4f28419497f9722a3daafe3b4186f6b6457e060405160405180910390a35050565b600081519050620003478162000593565b92915050565b6000815190506200035e81620005ad565b92915050565b6000815190506200037581620005c7565b92915050565b6000815190506200038c81620005e1565b92915050565b600060208284031215620003ab57620003aa6200058e565b5b6000620003bb8482850162000336565b91505092915050565b60008060408385031215620003de57620003dd6200058e565b5b6000620003ee858286016200034d565b9250506020620004018582860162000364565b9150509250929050565b6000602082840312156200042457620004236200058e565b5b600062000434848285016200037b565b91505092915050565b6200044881620004ed565b82525050565b620004598162000555565b82525050565b60006040820190506200047660008301856200043d565b6200048560208301846200044e565b9392505050565b6000620004998262000555565b9150620004a68362000555565b9250817fffffffffffffffffffffffffffffffffffffffffffffffffffffffffffffffff0483118215151615620004e257620004e16200055f565b5b828202905092915050565b6000620004fa8262000535565b9050919050565b60008115159050919050565b60006200051a82620004ed565b9050919050565b60006200052e82620004ed565b9050919050565b600073ffffffffffffffffffffffffffffffffffffffff82169050919050565b6000819050919050565b7f4e487b7100000000000000000000000000000000000000000000000000000000600052601160045260246000fd5b600080fd5b6200059e8162000501565b8114620005aa57600080fd5b50565b620005b8816200050d565b8114620005c457600080fd5b50565b620005d28162000521565b8114620005de57600080fd5b50565b620005ec8162000555565b8114620005f857600080fd5b50565b6117d5806200060b6000396000f3fe6080604052600436106100ab5760003560e01c80638a358bf5116100645780638a358bf5146101b75780638da5cb5b146101e2578063906c0ba71461020d578063ba9a7a5614610238578063f2fde38b14610263578063fff6cae91461028c576100b2565b80630902f1ac146100b757806312065fe0146100e35780636a6278421461010e578063715018a61461014b5780638119c0651461016257806389afcb4414610179576100b2565b366100b257005b600080fd5b3480156100c357600080fd5b506100cc6102a3565b6040516100da92919061139a565b60405180910390f35b3480156100ef57600080fd5b506100f86102e8565b60405161010591906113c3565b60405180910390f35b34801561011a57600080fd5b5061013560048036038101906101309190611084565b6102f0565b60405161014291906113c3565b60405180910390f35b34801561015757600080fd5b506101606106d2565b005b34801561016e57600080fd5b5061017761075a565b005b34801561018557600080fd5b506101a0600480360381019061019b9190611084565b6107b1565b6040516101ae9291906113de565b60405180910390f35b3480156101c357600080fd5b506101cc610c74565b6040516101d991906112bf565b60405180910390f35b3480156101ee57600080fd5b506101f7610c9a565b6040516102049190611260565b60405180910390f35b34801561021957600080fd5b50610222610cc3565b60405161022f91906112a4565b60405180910390f35b34801561024457600080fd5b5061024d610ce9565b60405161025a91906113c3565b60405180910390f35b34801561026f57600080fd5b5061028a60048036038101906102859190611084565b610cef565b005b34801561029857600080fd5b506102a1610de7565b005b600080600460009054906101000a90046dffffffffffffffffffffffffffff1691506004600e9054906101000a90046dffffffffffffffffffffffffffff1690509091565b600047905090565b6000600160055414610337576040517f08c379a000000000000000000000000000000000000000000000000000000000815260040161032e906112fa565b60405180910390fd5b600060058190555060008061034a6102a3565b91509150600260009054906101000a900473ffffffffffffffffffffffffffffffffffffffff1673ffffffffffffffffffffffffffffffffffffffff166318160ddd6040518163ffffffff1660e01b815260040160206040518083038186803b1580156103b657600080fd5b505afa1580156103ca573d6000803e3d6000fd5b505050506040513d601f19601f820116820180604052508101906103ee91906110de565b60038190555060004790506000600160009054906101000a900473ffffffffffffffffffffffffffffffffffffffff1673ffffffffffffffffffffffffffffffffffffffff166370a08231306040518263ffffffff1660e01b81526004016104569190611260565b60206040518083038186803b15801561046e57600080fd5b505afa158015610482573d6000803e3d6000fd5b505050506040513d601f19601f820116820180604052508101906104a691906110de565b90506000600460009054906101000a90046dffffffffffffffffffffffffffff166dffffffffffffffffffffffffffff16836104e291906114ae565b905060006004600e9054906101000a90046dffffffffffffffffffffffffffff166dffffffffffffffffffffffffffff168361051e91906114ae565b905061057a866dffffffffffffffffffffffffffff16600354846105429190611454565b61054c9190611423565b866dffffffffffffffffffffffffffff166003548461056b9190611454565b6105759190611423565b610ef2565b9650600087116105bf576040517f08c379a00000000000000000000000000000000000000000000000000000000081526004016105b69061135a565b60405180910390fd5b600260009054906101000a900473ffffffffffffffffffffffffffffffffffffffff1673ffffffffffffffffffffffffffffffffffffffff166340c10f1989896040518363ffffffff1660e01b815260040161061c92919061127b565b602060405180830381600087803b15801561063657600080fd5b505af115801561064a573d6000803e3d6000fd5b505050506040513d601f19601f8201168201806040525081019061066e91906110b1565b508773ffffffffffffffffffffffffffffffffffffffff167f4c209b5fc8ad50758f13e2e1088ba56a560dff690a1c6fef26394f4c03821c4f85836040516106b79291906113de565b60405180910390a25050505050506001600581905550919050565b6106da610f0b565b73ffffffffffffffffffffffffffffffffffffffff166106f8610c9a565b73ffffffffffffffffffffffffffffffffffffffff161461074e576040517f08c379a00000000000000000000000000000000000000000000000000000000081526004016107459061133a565b60405180910390fd5b6107586000610f13565b565b60016005541461079f576040517f08c379a0000000000000000000000000000000000000000000000000000000008152600401610796906112fa565b60405180910390fd5b60006005819055506001600581905550565b6000806001600554146107f9576040517f08c379a00000000000000000000000000000000000000000000000000000000081526004016107f0906112fa565b60405180910390fd5b600060058190555060008061080c6102a3565b9150915060004790506000600160009054906101000a900473ffffffffffffffffffffffffffffffffffffffff1673ffffffffffffffffffffffffffffffffffffffff166370a08231306040518263ffffffff1660e01b81526004016108729190611260565b60206040518083038186803b15801561088a57600080fd5b505afa15801561089e573d6000803e3d6000fd5b505050506040513d601f19601f820116820180604052508101906108c291906110de565b90506000600260009054906101000a900473ffffffffffffffffffffffffffffffffffffffff1673ffffffffffffffffffffffffffffffffffffffff166370a08231896040518263ffffffff1660e01b81526004016109219190611260565b60206040518083038186803b15801561093957600080fd5b505afa15801561094d573d6000803e3d6000fd5b505050506040513d601f19601f8201168201806040525081019061097191906110de565b9050600260009054906101000a900473ffffffffffffffffffffffffffffffffffffffff1673ffffffffffffffffffffffffffffffffffffffff166318160ddd6040518163ffffffff1660e01b815260040160206040518083038186803b1580156109db57600080fd5b505afa1580156109ef573d6000803e3d6000fd5b505050506040513d601f19601f82011682018060405250810190610a1391906110de565b6003819055506003548382610a289190611454565b610a329190611423565b96506003548282610a439190611454565b610a4d9190611423565b9550600087118015610a5f5750600086115b610a9e576040517f08c379a0000000000000000000000000000000000000000000000000000000008152600401610a959061131a565b60405180910390fd5b600260009054906101000a900473ffffffffffffffffffffffffffffffffffffffff1673ffffffffffffffffffffffffffffffffffffffff16639dc29fac89836040518363ffffffff1660e01b8152600401610afb92919061127b565b602060405180830381600087803b158015610b1557600080fd5b505af1158015610b29573d6000803e3d6000fd5b505050506040513d601f19601f82011682018060405250810190610b4d91906110b1565b5060008873ffffffffffffffffffffffffffffffffffffffff1688604051610b749061124b565b60006040518083038185875af1925050503d8060008114610bb1576040519150601f19603f3d011682016040523d82523d6000602084013e610bb6565b606091505b5050905080610bfa576040517f08c379a0000000000000000000000000000000000000000000000000000000008152600401610bf19061137a565b60405180910390fd5b8873ffffffffffffffffffffffffffffffffffffffff163373ffffffffffffffffffffffffffffffffffffffff167fdccd412f0b1252819cb1fd330b93224ca42612892bb3f4f789976e6d819364968a8a604051610c599291906113de565b60405180910390a35050505050506001600581905550915091565b600260009054906101000a900473ffffffffffffffffffffffffffffffffffffffff1681565b60008060009054906101000a900473ffffffffffffffffffffffffffffffffffffffff16905090565b600160009054906101000a900473ffffffffffffffffffffffffffffffffffffffff1681565b6103e881565b610cf7610f0b565b73ffffffffffffffffffffffffffffffffffffffff16610d15610c9a565b73ffffffffffffffffffffffffffffffffffffffff1614610d6b576040517f08c379a0000000000000000000000000000000000000000000000000000000008152600401610d629061133a565b60405180910390fd5b600073ffffffffffffffffffffffffffffffffffffffff168173ffffffffffffffffffffffffffffffffffffffff161415610ddb576040517f08c379a0000000000000000000000000000000000000000000000000000000008152600401610dd2906112da565b60405180910390fd5b610de481610f13565b50565b600160055414610e2c576040517f08c379a0000000000000000000000000000000000000000000000000000000008152600401610e23906112fa565b60405180910390fd5b6000600581905550610ee847600160009054906101000a900473ffffffffffffffffffffffffffffffffffffffff1673ffffffffffffffffffffffffffffffffffffffff166370a08231306040518263ffffffff1660e01b8152600401610e939190611260565b60206040518083038186803b158015610eab57600080fd5b505afa158015610ebf573d6000803e3d6000fd5b505050506040513d601f19601f82011682018060405250810190610ee391906110de565b610fd7565b6001600581905550565b6000818310610f015781610f03565b825b905092915050565b600033905090565b60008060009054906101000a900473ffffffffffffffffffffffffffffffffffffffff169050816000806101000a81548173ffffffffffffffffffffffffffffffffffffffff021916908373ffffffffffffffffffffffffffffffffffffffff1602179055508173ffffffffffffffffffffffffffffffffffffffff168173ffffffffffffffffffffffffffffffffffffffff167f8be0079c531659141344cd1fd0a4f28419497f9722a3daafe3b4186f6b6457e060405160405180910390a35050565b81600460006101000a8154816dffffffffffffffffffffffffffff02191690836dffffffffffffffffffffffffffff160217905550806004600e6101000a8154816dffffffffffffffffffffffffffff02191690836dffffffffffffffffffffffffffff1602179055505050565b6000813590506110548161175a565b92915050565b60008151905061106981611771565b92915050565b60008151905061107e81611788565b92915050565b60006020828403121561109a576110996115ea565b5b60006110a884828501611045565b91505092915050565b6000602082840312156110c7576110c66115ea565b5b60006110d58482850161105a565b91505092915050565b6000602082840312156110f4576110f36115ea565b5b60006111028482850161106f565b91505092915050565b611114816114e2565b82525050565b61112381611544565b82525050565b61113281611556565b82525050565b6000611145602683611412565b9150611150826115ef565b604082019050919050565b6000611168601183611412565b91506111738261163e565b602082019050919050565b600061118b602883611412565b915061119682611667565b604082019050919050565b60006111ae602083611412565b91506111b9826116b6565b602082019050919050565b60006111d1602883611412565b91506111dc826116df565b604082019050919050565b60006111f4600083611407565b91506111ff8261172e565b600082019050919050565b6000611217601383611412565b915061122282611731565b602082019050919050565b61123681611500565b82525050565b6112458161153a565b82525050565b6000611256826111e7565b9150819050919050565b6000602082019050611275600083018461110b565b92915050565b6000604082019050611290600083018561110b565b61129d602083018461123c565b9392505050565b60006020820190506112b9600083018461111a565b92915050565b60006020820190506112d46000830184611129565b92915050565b600060208201905081810360008301526112f381611138565b9050919050565b600060208201905081810360008301526113138161115b565b9050919050565b600060208201905081810360008301526113338161117e565b9050919050565b60006020820190508181036000830152611353816111a1565b9050919050565b60006020820190508181036000830152611373816111c4565b9050919050565b600060208201905081810360008301526113938161120a565b9050919050565b60006040820190506113af600083018561122d565b6113bc602083018461122d565b9392505050565b60006020820190506113d8600083018461123c565b92915050565b60006040820190506113f3600083018561123c565b611400602083018461123c565b9392505050565b600081905092915050565b600082825260208201905092915050565b600061142e8261153a565b91506114398361153a565b925082611449576114486115bb565b5b828204905092915050565b600061145f8261153a565b915061146a8361153a565b9250817fffffffffffffffffffffffffffffffffffffffffffffffffffffffffffffffff04831182151516156114a3576114a261158c565b5b828202905092915050565b60006114b98261153a565b91506114c48361153a565b9250828210156114d7576114d661158c565b5b828203905092915050565b60006114ed8261151a565b9050919050565b60008115159050919050565b60006dffffffffffffffffffffffffffff82169050919050565b600073ffffffffffffffffffffffffffffffffffffffff82169050919050565b6000819050919050565b600061154f82611568565b9050919050565b600061156182611568565b9050919050565b60006115738261157a565b9050919050565b60006115858261151a565b9050919050565b7f4e487b7100000000000000000000000000000000000000000000000000000000600052601160045260246000fd5b7f4e487b7100000000000000000000000000000000000000000000000000000000600052601260045260246000fd5b600080fd5b7f4f776e61626c653a206e6577206f776e657220697320746865207a65726f206160008201527f6464726573730000000000000000000000000000000000000000000000000000602082015250565b7f5370616365506f6f6c3a204c4f434b4544000000000000000000000000000000600082015250565b7f556e697377617056323a20494e53554646494349454e545f4c4951554944495460008201527f595f4255524e4544000000000000000000000000000000000000000000000000602082015250565b7f4f776e61626c653a2063616c6c6572206973206e6f7420746865206f776e6572600082015250565b7f5370616365506f6f6c3a20494e53554646494349454e545f4c4951554944495460008201527f595f4d494e544544000000000000000000000000000000000000000000000000602082015250565b50565b7f4554485f5452414e534645525f4641494c454400000000000000000000000000600082015250565b611763816114e2565b811461176e57600080fd5b50565b61177a816114f4565b811461178557600080fd5b50565b6117918161153a565b811461179c57600080fd5b5056fea26469706673582212204ac6e941be884eccc30bea58e2d345da325748dccdc2671fbfb8c199af8e2b9464736f6c63430008070033",
  "linkReferences": {},
  "deployedLinkReferences": {}
}