{
  "_format": "hh-sol-artifact-1",
  "contractName": "SpacePool",
  "sourceName": "contracts/SpacePool.sol",
  "abi": [
    {
      "inputs": [],
      "stateMutability": "nonpayable",
      "type": "constructor"
    },
    {
      "anonymous": false,
      "inputs": [
        {
          "indexed": true,
          "internalType": "address",
          "name": "previousOwner",
          "type": "address"
        },
        {
          "indexed": true,
          "internalType": "address",
          "name": "newOwner",
          "type": "address"
        }
      ],
      "name": "OwnershipTransferred",
      "type": "event"
    },
    {
      "inputs": [],
      "name": "MINIMUM_LIQUIDITY",
      "outputs": [
        {
          "internalType": "uint256",
          "name": "",
          "type": "uint256"
        }
      ],
      "stateMutability": "view",
      "type": "function"
    },
    {
      "inputs": [],
      "name": "burn",
      "outputs": [],
      "stateMutability": "nonpayable",
      "type": "function"
    },
    {
      "inputs": [],
      "name": "getBalance",
      "outputs": [
        {
          "internalType": "uint256",
          "name": "",
          "type": "uint256"
        }
      ],
      "stateMutability": "view",
      "type": "function"
    },
    {
      "inputs": [],
      "name": "getReserves",
      "outputs": [
        {
          "internalType": "uint112",
          "name": "_reserve0",
          "type": "uint112"
        },
        {
          "internalType": "uint112",
          "name": "_reserve1",
          "type": "uint112"
        },
        {
          "internalType": "uint32",
          "name": "_blockTimestampLast",
          "type": "uint32"
        }
      ],
      "stateMutability": "view",
      "type": "function"
    },
    {
      "inputs": [
        {
          "internalType": "address",
          "name": "_token0",
          "type": "address"
        },
        {
          "internalType": "address",
          "name": "_token1",
          "type": "address"
        }
      ],
      "name": "initialize",
      "outputs": [],
      "stateMutability": "nonpayable",
      "type": "function"
    },
    {
      "inputs": [],
      "name": "owner",
      "outputs": [
        {
          "internalType": "address",
          "name": "",
          "type": "address"
        }
      ],
      "stateMutability": "view",
      "type": "function"
    },
    {
      "inputs": [],
      "name": "renounceOwnership",
      "outputs": [],
      "stateMutability": "nonpayable",
      "type": "function"
    },
    {
      "inputs": [],
      "name": "swap",
      "outputs": [],
      "stateMutability": "nonpayable",
      "type": "function"
    },
    {
      "inputs": [],
      "name": "token0",
      "outputs": [
        {
          "internalType": "address",
          "name": "",
          "type": "address"
        }
      ],
      "stateMutability": "view",
      "type": "function"
    },
    {
      "inputs": [],
      "name": "token1",
      "outputs": [
        {
          "internalType": "address",
          "name": "",
          "type": "address"
        }
      ],
      "stateMutability": "view",
      "type": "function"
    },
    {
      "inputs": [
        {
          "internalType": "address",
          "name": "newOwner",
          "type": "address"
        }
      ],
      "name": "transferOwnership",
      "outputs": [],
      "stateMutability": "nonpayable",
      "type": "function"
    },
    {
      "stateMutability": "payable",
      "type": "receive"
    }
  ],
  "bytecode": "0x6080604052600160045534801561001557600080fd5b5061003261002761003760201b60201c565b61003f60201b60201c565b610103565b600033905090565b60008060009054906101000a900473ffffffffffffffffffffffffffffffffffffffff169050816000806101000a81548173ffffffffffffffffffffffffffffffffffffffff021916908373ffffffffffffffffffffffffffffffffffffffff1602179055508173ffffffffffffffffffffffffffffffffffffffff168173ffffffffffffffffffffffffffffffffffffffff167f8be0079c531659141344cd1fd0a4f28419497f9722a3daafe3b4186f6b6457e060405160405180910390a35050565b610a05806101126000396000f3fe6080604052600436106100a05760003560e01c8063715018a611610064578063715018a61461016f5780638119c065146101865780638da5cb5b1461019d578063ba9a7a56146101c8578063d21220a7146101f3578063f2fde38b1461021e576100a7565b80630902f1ac146100ac5780630dfe1681146100d957806312065fe01461010457806344df8e701461012f578063485cc95514610146576100a7565b366100a757005b600080fd5b3480156100b857600080fd5b506100c1610247565b6040516100d093929190610849565b60405180910390f35b3480156100e557600080fd5b506100ee6102a4565b6040516100fb91906107ce565b60405180910390f35b34801561011057600080fd5b506101196102ca565b6040516101269190610880565b60405180910390f35b34801561013b57600080fd5b506101446102d2565b005b34801561015257600080fd5b5061016d600480360381019061016891906106e9565b610329565b005b34801561017b57600080fd5b506101846103af565b005b34801561019257600080fd5b5061019b610437565b005b3480156101a957600080fd5b506101b261048e565b6040516101bf91906107ce565b60405180910390f35b3480156101d457600080fd5b506101dd6104b7565b6040516101ea9190610880565b60405180910390f35b3480156101ff57600080fd5b506102086104bd565b60405161021591906107ce565b60405180910390f35b34801561022a57600080fd5b50610245600480360381019061024091906106bc565b6104e3565b005b6000806000600360009054906101000a90046dffffffffffffffffffffffffffff1692506003600e9054906101000a90046dffffffffffffffffffffffffffff1691506003601c9054906101000a900463ffffffff169050909192565b600160009054906101000a900473ffffffffffffffffffffffffffffffffffffffff1681565b600047905090565b600160045414610317576040517f08c379a000000000000000000000000000000000000000000000000000000000815260040161030e90610809565b60405180910390fd5b60006004819055506001600481905550565b81600160006101000a81548173ffffffffffffffffffffffffffffffffffffffff021916908373ffffffffffffffffffffffffffffffffffffffff16021790555080600260006101000a81548173ffffffffffffffffffffffffffffffffffffffff021916908373ffffffffffffffffffffffffffffffffffffffff1602179055505050565b6103b76105db565b73ffffffffffffffffffffffffffffffffffffffff166103d561048e565b73ffffffffffffffffffffffffffffffffffffffff161461042b576040517f08c379a000000000000000000000000000000000000000000000000000000000815260040161042290610829565b60405180910390fd5b61043560006105e3565b565b60016004541461047c576040517f08c379a000000000000000000000000000000000000000000000000000000000815260040161047390610809565b60405180910390fd5b60006004819055506001600481905550565b60008060009054906101000a900473ffffffffffffffffffffffffffffffffffffffff16905090565b6103e881565b600260009054906101000a900473ffffffffffffffffffffffffffffffffffffffff1681565b6104eb6105db565b73ffffffffffffffffffffffffffffffffffffffff1661050961048e565b73ffffffffffffffffffffffffffffffffffffffff161461055f576040517f08c379a000000000000000000000000000000000000000000000000000000000815260040161055690610829565b60405180910390fd5b600073ffffffffffffffffffffffffffffffffffffffff168173ffffffffffffffffffffffffffffffffffffffff1614156105cf576040517f08c379a00000000000000000000000000000000000000000000000000000000081526004016105c6906107e9565b60405180910390fd5b6105d8816105e3565b50565b600033905090565b60008060009054906101000a900473ffffffffffffffffffffffffffffffffffffffff169050816000806101000a81548173ffffffffffffffffffffffffffffffffffffffff021916908373ffffffffffffffffffffffffffffffffffffffff1602179055508173ffffffffffffffffffffffffffffffffffffffff168173ffffffffffffffffffffffffffffffffffffffff167f8be0079c531659141344cd1fd0a4f28419497f9722a3daafe3b4186f6b6457e060405160405180910390a35050565b6000813590506106b6816109b8565b92915050565b6000602082840312156106d2576106d1610912565b5b60006106e0848285016106a7565b91505092915050565b60008060408385031215610700576106ff610912565b5b600061070e858286016106a7565b925050602061071f858286016106a7565b9150509250929050565b610732816108ac565b82525050565b600061074560268361089b565b915061075082610917565b604082019050919050565b600061076860118361089b565b915061077382610966565b602082019050919050565b600061078b60208361089b565b91506107968261098f565b602082019050919050565b6107aa816108be565b82525050565b6107b9816108f8565b82525050565b6107c881610902565b82525050565b60006020820190506107e36000830184610729565b92915050565b6000602082019050818103600083015261080281610738565b9050919050565b600060208201905081810360008301526108228161075b565b9050919050565b600060208201905081810360008301526108428161077e565b9050919050565b600060608201905061085e60008301866107a1565b61086b60208301856107a1565b61087860408301846107bf565b949350505050565b600060208201905061089560008301846107b0565b92915050565b600082825260208201905092915050565b60006108b7826108d8565b9050919050565b60006dffffffffffffffffffffffffffff82169050919050565b600073ffffffffffffffffffffffffffffffffffffffff82169050919050565b6000819050919050565b600063ffffffff82169050919050565b600080fd5b7f4f776e61626c653a206e6577206f776e657220697320746865207a65726f206160008201527f6464726573730000000000000000000000000000000000000000000000000000602082015250565b7f5370616365506f6f6c3a204c4f434b4544000000000000000000000000000000600082015250565b7f4f776e61626c653a2063616c6c6572206973206e6f7420746865206f776e6572600082015250565b6109c1816108ac565b81146109cc57600080fd5b5056fea2646970667358221220107b850a3af90e5486a38bb9f5c5ba01458283d0932ba38968e03206c19b0a0d64736f6c63430008070033",
  "linkReferences": {},
  "deployedLinkReferences": {}
}