{
  "_format": "hh-sol-artifact-1",
  "contractName": "SpacePool",
  "sourceName": "contracts/SpacePool.sol",
  "abi": [
    {
      "inputs": [
        {
          "internalType": "contract SpaceCoin",
          "name": "spaceCoin",
          "type": "address"
        }
      ],
      "stateMutability": "nonpayable",
      "type": "constructor"
    },
    {
      "anonymous": false,
      "inputs": [
        {
          "indexed": false,
          "internalType": "uint256",
          "name": "amount0",
          "type": "uint256"
        },
        {
          "indexed": false,
          "internalType": "uint256",
          "name": "amount1",
          "type": "uint256"
        },
        {
          "indexed": true,
          "internalType": "address",
          "name": "to",
          "type": "address"
        }
      ],
      "name": "Burn",
      "type": "event"
    },
    {
      "anonymous": false,
      "inputs": [
        {
          "indexed": true,
          "internalType": "address",
          "name": "sender",
          "type": "address"
        },
        {
          "indexed": false,
          "internalType": "uint256",
          "name": "amount0",
          "type": "uint256"
        },
        {
          "indexed": false,
          "internalType": "uint256",
          "name": "amount1",
          "type": "uint256"
        }
      ],
      "name": "Mint",
      "type": "event"
    },
    {
      "anonymous": false,
      "inputs": [
        {
          "indexed": true,
          "internalType": "address",
          "name": "previousOwner",
          "type": "address"
        },
        {
          "indexed": true,
          "internalType": "address",
          "name": "newOwner",
          "type": "address"
        }
      ],
      "name": "OwnershipTransferred",
      "type": "event"
    },
    {
      "anonymous": false,
      "inputs": [
        {
          "indexed": true,
          "internalType": "address",
          "name": "sender",
          "type": "address"
        },
        {
          "indexed": false,
          "internalType": "uint256",
          "name": "amount0In",
          "type": "uint256"
        },
        {
          "indexed": false,
          "internalType": "uint256",
          "name": "amount1In",
          "type": "uint256"
        },
        {
          "indexed": false,
          "internalType": "uint256",
          "name": "amount0Out",
          "type": "uint256"
        },
        {
          "indexed": false,
          "internalType": "uint256",
          "name": "amount1Out",
          "type": "uint256"
        },
        {
          "indexed": true,
          "internalType": "address",
          "name": "to",
          "type": "address"
        }
      ],
      "name": "Swap",
      "type": "event"
    },
    {
      "anonymous": false,
      "inputs": [
        {
          "indexed": false,
          "internalType": "uint112",
          "name": "reserve0",
          "type": "uint112"
        },
        {
          "indexed": false,
          "internalType": "uint112",
          "name": "reserve1",
          "type": "uint112"
        }
      ],
      "name": "Sync",
      "type": "event"
    },
    {
      "inputs": [],
      "name": "MINIMUM_LIQUIDITY",
      "outputs": [
        {
          "internalType": "uint256",
          "name": "",
          "type": "uint256"
        }
      ],
      "stateMutability": "view",
      "type": "function"
    },
    {
      "inputs": [],
      "name": "_spaceCoin",
      "outputs": [
        {
          "internalType": "contract SpaceCoin",
          "name": "",
          "type": "address"
        }
      ],
      "stateMutability": "view",
      "type": "function"
    },
    {
      "inputs": [],
      "name": "_spacePoolCoin",
      "outputs": [
        {
          "internalType": "contract SpacePoolCoin",
          "name": "",
          "type": "address"
        }
      ],
      "stateMutability": "view",
      "type": "function"
    },
    {
      "inputs": [
        {
          "internalType": "address",
          "name": "to",
          "type": "address"
        }
      ],
      "name": "burn",
      "outputs": [
        {
          "internalType": "uint256",
          "name": "amount0",
          "type": "uint256"
        },
        {
          "internalType": "uint256",
          "name": "amount1",
          "type": "uint256"
        }
      ],
      "stateMutability": "nonpayable",
      "type": "function"
    },
    {
      "inputs": [
        {
          "internalType": "uint256",
          "name": "tradeFee",
          "type": "uint256"
        }
      ],
      "name": "depositTradeFee",
      "outputs": [
        {
          "internalType": "bool",
          "name": "",
          "type": "bool"
        }
      ],
      "stateMutability": "nonpayable",
      "type": "function"
    },
    {
      "inputs": [],
      "name": "getBalance",
      "outputs": [
        {
          "internalType": "uint256",
          "name": "",
          "type": "uint256"
        }
      ],
      "stateMutability": "view",
      "type": "function"
    },
    {
      "inputs": [],
      "name": "getReserves",
      "outputs": [
        {
          "internalType": "uint112",
          "name": "_reserve0",
          "type": "uint112"
        },
        {
          "internalType": "uint112",
          "name": "_reserve1",
          "type": "uint112"
        }
      ],
      "stateMutability": "view",
      "type": "function"
    },
    {
      "inputs": [
        {
          "internalType": "address",
          "name": "to",
          "type": "address"
        }
      ],
      "name": "mint",
      "outputs": [
        {
          "internalType": "uint256",
          "name": "liquidity",
          "type": "uint256"
        }
      ],
      "stateMutability": "nonpayable",
      "type": "function"
    },
    {
      "inputs": [],
      "name": "owner",
      "outputs": [
        {
          "internalType": "address",
          "name": "",
          "type": "address"
        }
      ],
      "stateMutability": "view",
      "type": "function"
    },
    {
      "inputs": [],
      "name": "renounceOwnership",
      "outputs": [],
      "stateMutability": "nonpayable",
      "type": "function"
    },
    {
      "inputs": [
        {
          "internalType": "contract SpacePoolCoin",
          "name": "spacePoolCoin",
          "type": "address"
        }
      ],
      "name": "setSpacePoolCoinAddress",
      "outputs": [
        {
          "internalType": "bool",
          "name": "",
          "type": "bool"
        }
      ],
      "stateMutability": "nonpayable",
      "type": "function"
    },
    {
      "inputs": [
        {
          "internalType": "uint256",
          "name": "spaceCoins",
          "type": "uint256"
        },
        {
          "internalType": "address",
          "name": "to",
          "type": "address"
        }
      ],
      "name": "swap",
      "outputs": [
        {
          "internalType": "uint256",
          "name": "amountOut",
          "type": "uint256"
        },
        {
          "internalType": "uint256",
          "name": "slippage",
          "type": "uint256"
        }
      ],
      "stateMutability": "payable",
      "type": "function"
    },
    {
      "inputs": [],
      "name": "sync",
      "outputs": [],
      "stateMutability": "nonpayable",
      "type": "function"
    },
    {
      "inputs": [
        {
          "internalType": "address",
          "name": "newOwner",
          "type": "address"
        }
      ],
      "name": "transferOwnership",
      "outputs": [],
      "stateMutability": "nonpayable",
      "type": "function"
    },
    {
      "stateMutability": "payable",
      "type": "receive"
    }
  ],
  "bytecode": "0x608060405260016006553480156200001657600080fd5b50604051620026083803806200260883398181016040528101906200003c919062000187565b6200005c62000050620000a460201b60201c565b620000ac60201b60201c565b80600160006101000a81548173ffffffffffffffffffffffffffffffffffffffff021916908373ffffffffffffffffffffffffffffffffffffffff1602179055505062000220565b600033905090565b60008060009054906101000a900473ffffffffffffffffffffffffffffffffffffffff169050816000806101000a81548173ffffffffffffffffffffffffffffffffffffffff021916908373ffffffffffffffffffffffffffffffffffffffff1602179055508173ffffffffffffffffffffffffffffffffffffffff168173ffffffffffffffffffffffffffffffffffffffff167f8be0079c531659141344cd1fd0a4f28419497f9722a3daafe3b4186f6b6457e060405160405180910390a35050565b600081519050620001818162000206565b92915050565b600060208284031215620001a0576200019f62000201565b5b6000620001b08482850162000170565b91505092915050565b6000620001c682620001e1565b9050919050565b6000620001da82620001b9565b9050919050565b600073ffffffffffffffffffffffffffffffffffffffff82169050919050565b600080fd5b6200021181620001cd565b81146200021d57600080fd5b50565b6123d880620002306000396000f3fe6080604052600436106100e15760003560e01c8063906c0ba71161007f578063d3986f0811610059578063d3986f08146102bf578063f2fde38b146102f0578063fa8ad70b14610319578063fff6cae914610356576100e8565b8063906c0ba71461022c578063ba9a7a5614610257578063c5718f6414610282576100e8565b8063715018a6116100bb578063715018a61461018157806389afcb44146101985780638a358bf5146101d65780638da5cb5b14610201576100e8565b80630902f1ac146100ed57806312065fe0146101195780636a62784214610144576100e8565b366100e857005b600080fd5b3480156100f957600080fd5b5061010261036d565b604051610110929190611dbd565b60405180910390f35b34801561012557600080fd5b5061012e6103b2565b60405161013b9190611de6565b60405180910390f35b34801561015057600080fd5b5061016b60048036038101906101669190611894565b6103ba565b6040516101789190611de6565b60405180910390f35b34801561018d57600080fd5b50610196610816565b005b3480156101a457600080fd5b506101bf60048036038101906101ba9190611894565b61089e565b6040516101cd929190611e01565b60405180910390f35b3480156101e257600080fd5b506101eb610e28565b6040516101f89190611c42565b60405180910390f35b34801561020d57600080fd5b50610216610e4e565b6040516102239190611bc8565b60405180910390f35b34801561023857600080fd5b50610241610e77565b60405161024e9190611c27565b60405180910390f35b34801561026357600080fd5b5061026c610e9d565b6040516102799190611de6565b60405180910390f35b34801561028e57600080fd5b506102a960048036038101906102a491906118ee565b610ea3565b6040516102b69190611c0c565b60405180910390f35b6102d960048036038101906102d49190611975565b6110e2565b6040516102e7929190611e01565b60405180910390f35b3480156102fc57600080fd5b5061031760048036038101906103129190611894565b6113d6565b005b34801561032557600080fd5b50610340600480360381019061033b919061191b565b6114ce565b60405161034d9190611c0c565b60405180910390f35b34801561036257600080fd5b5061036b6114f2565b005b600080600560009054906101000a90046dffffffffffffffffffffffffffff1691506005600e9054906101000a90046dffffffffffffffffffffffffffff1690509091565b600047905090565b6000600160065414610401576040517f08c379a00000000000000000000000000000000000000000000000000000000081526004016103f890611cbd565b60405180910390fd5b6000600681905550600073ffffffffffffffffffffffffffffffffffffffff168273ffffffffffffffffffffffffffffffffffffffff161415610479576040517f08c379a000000000000000000000000000000000000000000000000000000000815260040161047090611d1d565b60405180910390fd5b60008061048461036d565b91509150600260009054906101000a900473ffffffffffffffffffffffffffffffffffffffff1673ffffffffffffffffffffffffffffffffffffffff166318160ddd6040518163ffffffff1660e01b815260040160206040518083038186803b1580156104f057600080fd5b505afa158015610504573d6000803e3d6000fd5b505050506040513d601f19601f820116820180604052508101906105289190611948565b60038190555060004790506000600160009054906101000a900473ffffffffffffffffffffffffffffffffffffffff1673ffffffffffffffffffffffffffffffffffffffff166370a08231306040518263ffffffff1660e01b81526004016105909190611bc8565b60206040518083038186803b1580156105a857600080fd5b505afa1580156105bc573d6000803e3d6000fd5b505050506040513d601f19601f820116820180604052508101906105e09190611948565b90506000600560009054906101000a90046dffffffffffffffffffffffffffff166dffffffffffffffffffffffffffff168361061c9190611f6c565b905060006005600e9054906101000a90046dffffffffffffffffffffffffffff166dffffffffffffffffffffffffffff16836106589190611f6c565b90506106b4866dffffffffffffffffffffffffffff166003548461067c9190611f12565b6106869190611ee1565b866dffffffffffffffffffffffffffff16600354846106a59190611f12565b6106af9190611ee1565b6115fd565b9650600087116106f9576040517f08c379a00000000000000000000000000000000000000000000000000000000081526004016106f090611cfd565b60405180910390fd5b600260009054906101000a900473ffffffffffffffffffffffffffffffffffffffff1673ffffffffffffffffffffffffffffffffffffffff166340c10f1989896040518363ffffffff1660e01b8152600401610756929190611be3565b602060405180830381600087803b15801561077057600080fd5b505af1158015610784573d6000803e3d6000fd5b505050506040513d601f19601f820116820180604052508101906107a891906118c1565b506107b38484611616565b8773ffffffffffffffffffffffffffffffffffffffff167f4c209b5fc8ad50758f13e2e1088ba56a560dff690a1c6fef26394f4c03821c4f85836040516107fb929190611e01565b60405180910390a25050505050506001600681905550919050565b61081e61175f565b73ffffffffffffffffffffffffffffffffffffffff1661083c610e4e565b73ffffffffffffffffffffffffffffffffffffffff1614610892576040517f08c379a000000000000000000000000000000000000000000000000000000000815260040161088990611d5d565b60405180910390fd5b61089c6000611767565b565b6000806001600654146108e6576040517f08c379a00000000000000000000000000000000000000000000000000000000081526004016108dd90611cbd565b60405180910390fd5b6000600681905550600073ffffffffffffffffffffffffffffffffffffffff168373ffffffffffffffffffffffffffffffffffffffff16141561095e576040517f08c379a000000000000000000000000000000000000000000000000000000000815260040161095590611d3d565b60405180910390fd5b6000600260009054906101000a900473ffffffffffffffffffffffffffffffffffffffff1673ffffffffffffffffffffffffffffffffffffffff166370a08231856040518263ffffffff1660e01b81526004016109bb9190611bc8565b60206040518083038186803b1580156109d357600080fd5b505afa1580156109e7573d6000803e3d6000fd5b505050506040513d601f19601f82011682018060405250810190610a0b9190611948565b1015610a4c576040517f08c379a0000000000000000000000000000000000000000000000000000000008152600401610a4390611cdd565b60405180910390fd5b600080610a5761036d565b915091506000826dffffffffffffffffffffffffffff1690506000826dffffffffffffffffffffffffffff1690506000600260009054906101000a900473ffffffffffffffffffffffffffffffffffffffff1673ffffffffffffffffffffffffffffffffffffffff166370a08231896040518263ffffffff1660e01b8152600401610ae29190611bc8565b60206040518083038186803b158015610afa57600080fd5b505afa158015610b0e573d6000803e3d6000fd5b505050506040513d601f19601f82011682018060405250810190610b329190611948565b9050600260009054906101000a900473ffffffffffffffffffffffffffffffffffffffff1673ffffffffffffffffffffffffffffffffffffffff166318160ddd6040518163ffffffff1660e01b815260040160206040518083038186803b158015610b9c57600080fd5b505afa158015610bb0573d6000803e3d6000fd5b505050506040513d601f19601f82011682018060405250810190610bd49190611948565b6003819055506003548382610be99190611f12565b610bf39190611ee1565b96506003548282610c049190611f12565b610c0e9190611ee1565b9550600087118015610c205750600086115b610c5f576040517f08c379a0000000000000000000000000000000000000000000000000000000008152600401610c5690611d7d565b60405180910390fd5b600260009054906101000a900473ffffffffffffffffffffffffffffffffffffffff1673ffffffffffffffffffffffffffffffffffffffff16639dc29fac89836040518363ffffffff1660e01b8152600401610cbc929190611be3565b602060405180830381600087803b158015610cd657600080fd5b505af1158015610cea573d6000803e3d6000fd5b505050506040513d601f19601f82011682018060405250810190610d0e91906118c1565b5060003373ffffffffffffffffffffffffffffffffffffffff1688604051610d3590611bb3565b60006040518083038185875af1925050503d8060008114610d72576040519150601f19603f3d011682016040523d82523d6000602084013e610d77565b606091505b5050905080610dbb576040517f08c379a0000000000000000000000000000000000000000000000000000000008152600401610db290611d9d565b60405180910390fd5b610dc58888611616565b8873ffffffffffffffffffffffffffffffffffffffff167f254cba6bcaacd15ef1bba85e06c1d71c8cf7a3e036ad089903ba04bad25aaccc8989604051610e0d929190611e01565b60405180910390a25050505050506001600681905550915091565b600260009054906101000a900473ffffffffffffffffffffffffffffffffffffffff1681565b60008060009054906101000a900473ffffffffffffffffffffffffffffffffffffffff16905090565b600160009054906101000a900473ffffffffffffffffffffffffffffffffffffffff1681565b6103e881565b6000610ead61175f565b73ffffffffffffffffffffffffffffffffffffffff16610ecb610e4e565b73ffffffffffffffffffffffffffffffffffffffff1614610f21576040517f08c379a0000000000000000000000000000000000000000000000000000000008152600401610f1890611d5d565b60405180910390fd5b81600260006101000a81548173ffffffffffffffffffffffffffffffffffffffff021916908373ffffffffffffffffffffffffffffffffffffffff160217905550600260009054906101000a900473ffffffffffffffffffffffffffffffffffffffff1673ffffffffffffffffffffffffffffffffffffffff166318160ddd6040518163ffffffff1660e01b815260040160206040518083038186803b158015610fca57600080fd5b505afa158015610fde573d6000803e3d6000fd5b505050506040513d601f19601f820116820180604052508101906110029190611948565b600381905550600060035414156110d957600260009054906101000a900473ffffffffffffffffffffffffffffffffffffffff1673ffffffffffffffffffffffffffffffffffffffff166340c10f1930670de0b6b3a76400006103e86110689190611f12565b6040518363ffffffff1660e01b8152600401611085929190611be3565b602060405180830381600087803b15801561109f57600080fd5b505af11580156110b3573d6000803e3d6000fd5b505050506040513d601f19601f820116820180604052508101906110d791906118c1565b505b60019050919050565b60008060016006541461112a576040517f08c379a000000000000000000000000000000000000000000000000000000000815260040161112190611cbd565b60405180910390fd5b6000600681905550600073ffffffffffffffffffffffffffffffffffffffff168373ffffffffffffffffffffffffffffffffffffffff1614156111a2576040517f08c379a000000000000000000000000000000000000000000000000000000000815260040161119990611c7d565b60405180910390fd5b6000600560009054906101000a90046dffffffffffffffffffffffffffff166dffffffffffffffffffffffffffff16905060006005600e9054906101000a90046dffffffffffffffffffffffffffff166dffffffffffffffffffffffffffff16905060003490506000341180156112195750600087145b1561126257808361122a9190611e8b565b60045483856112399190611f12565b6112439190611e8b565b61124d9190611ee1565b9450848261125b9190611f6c565b935061134f565b868261126e9190611e8b565b600454838561127d9190611f12565b6112879190611e8b565b6112919190611ee1565b9450848361129f9190611f6c565b935060008673ffffffffffffffffffffffffffffffffffffffff16856040516112c790611bb3565b60006040518083038185875af1925050503d8060008114611304576040519150601f19603f3d011682016040523d82523d6000602084013e611309565b606091505b505090508061134d576040517f08c379a000000000000000000000000000000000000000000000000000000000815260040161134490611c9d565b60405180910390fd5b505b6113598383611616565b8573ffffffffffffffffffffffffffffffffffffffff163373ffffffffffffffffffffffffffffffffffffffff167fd78ad95fa46c994b6551d0da85fc275fe613ce37657fb8d5e3d130840159d822838a898a6040516113bc9493929190611e2a565b60405180910390a350505060016006819055509250929050565b6113de61175f565b73ffffffffffffffffffffffffffffffffffffffff166113fc610e4e565b73ffffffffffffffffffffffffffffffffffffffff1614611452576040517f08c379a000000000000000000000000000000000000000000000000000000000815260040161144990611d5d565b60405180910390fd5b600073ffffffffffffffffffffffffffffffffffffffff168173ffffffffffffffffffffffffffffffffffffffff1614156114c2576040517f08c379a00000000000000000000000000000000000000000000000000000000081526004016114b990611c5d565b60405180910390fd5b6114cb81611767565b50565b600081600460008282546114e29190611e8b565b9250508190555060019050919050565b600160065414611537576040517f08c379a000000000000000000000000000000000000000000000000000000000815260040161152e90611cbd565b60405180910390fd5b60006006819055506115f347600160009054906101000a900473ffffffffffffffffffffffffffffffffffffffff1673ffffffffffffffffffffffffffffffffffffffff166370a08231306040518263ffffffff1660e01b815260040161159e9190611bc8565b60206040518083038186803b1580156115b657600080fd5b505afa1580156115ca573d6000803e3d6000fd5b505050506040513d601f19601f820116820180604052508101906115ee9190611948565b611616565b6001600681905550565b600081831061160c578161160e565b825b905092915050565b60006401000000004261162991906120a0565b905060006005601c9054906101000a900463ffffffff168261164b9190611fa0565b905060008163ffffffff1611156116c75783600560006101000a8154816dffffffffffffffffffffffffffff02191690836dffffffffffffffffffffffffffff160217905550826005600e6101000a8154816dffffffffffffffffffffffffffff02191690836dffffffffffffffffffffffffffff1602179055505b816005601c6101000a81548163ffffffff021916908363ffffffff1602179055507f1c411e9a96e071241c2f21f7726b17ae89e3cab4c78be50e062b03a9fffbbad1600560009054906101000a90046dffffffffffffffffffffffffffff166005600e9054906101000a90046dffffffffffffffffffffffffffff16604051611751929190611dbd565b60405180910390a150505050565b600033905090565b60008060009054906101000a900473ffffffffffffffffffffffffffffffffffffffff169050816000806101000a81548173ffffffffffffffffffffffffffffffffffffffff021916908373ffffffffffffffffffffffffffffffffffffffff1602179055508173ffffffffffffffffffffffffffffffffffffffff168173ffffffffffffffffffffffffffffffffffffffff167f8be0079c531659141344cd1fd0a4f28419497f9722a3daafe3b4186f6b6457e060405160405180910390a35050565b60008135905061183a81612346565b92915050565b60008151905061184f8161235d565b92915050565b60008135905061186481612374565b92915050565b6000813590506118798161238b565b92915050565b60008151905061188e8161238b565b92915050565b6000602082840312156118aa576118a961212f565b5b60006118b88482850161182b565b91505092915050565b6000602082840312156118d7576118d661212f565b5b60006118e584828501611840565b91505092915050565b6000602082840312156119045761190361212f565b5b600061191284828501611855565b91505092915050565b6000602082840312156119315761193061212f565b5b600061193f8482850161186a565b91505092915050565b60006020828403121561195e5761195d61212f565b5b600061196c8482850161187f565b91505092915050565b6000806040838503121561198c5761198b61212f565b5b600061199a8582860161186a565b92505060206119ab8582860161182b565b9150509250929050565b6119be81611fd4565b82525050565b6119cd81611fe6565b82525050565b6119dc81612058565b82525050565b6119eb8161206a565b82525050565b60006119fe602683611e7a565b9150611a0982612134565b604082019050919050565b6000611a21600a83611e7a565b9150611a2c82612183565b602082019050919050565b6000611a44602083611e7a565b9150611a4f826121ac565b602082019050919050565b6000611a67601183611e7a565b9150611a72826121d5565b602082019050919050565b6000611a8a601b83611e7a565b9150611a95826121fe565b602082019050919050565b6000611aad601d83611e7a565b9150611ab882612227565b602082019050919050565b6000611ad0600a83611e7a565b9150611adb82612250565b602082019050919050565b6000611af3600a83611e7a565b9150611afe82612279565b602082019050919050565b6000611b16602083611e7a565b9150611b21826122a2565b602082019050919050565b6000611b39601d83611e7a565b9150611b44826122cb565b602082019050919050565b6000611b5c600083611e6f565b9150611b67826122f4565b600082019050919050565b6000611b7f602783611e7a565b9150611b8a826122f7565b604082019050919050565b611b9e81612004565b82525050565b611bad8161203e565b82525050565b6000611bbe82611b4f565b9150819050919050565b6000602082019050611bdd60008301846119b5565b92915050565b6000604082019050611bf860008301856119b5565b611c056020830184611ba4565b9392505050565b6000602082019050611c2160008301846119c4565b92915050565b6000602082019050611c3c60008301846119d3565b92915050565b6000602082019050611c5760008301846119e2565b92915050565b60006020820190508181036000830152611c76816119f1565b9050919050565b60006020820190508181036000830152611c9681611a14565b9050919050565b60006020820190508181036000830152611cb681611a37565b9050919050565b60006020820190508181036000830152611cd681611a5a565b9050919050565b60006020820190508181036000830152611cf681611a7d565b9050919050565b60006020820190508181036000830152611d1681611aa0565b9050919050565b60006020820190508181036000830152611d3681611ac3565b9050919050565b60006020820190508181036000830152611d5681611ae6565b9050919050565b60006020820190508181036000830152611d7681611b09565b9050919050565b60006020820190508181036000830152611d9681611b2c565b9050919050565b60006020820190508181036000830152611db681611b72565b9050919050565b6000604082019050611dd26000830185611b95565b611ddf6020830184611b95565b9392505050565b6000602082019050611dfb6000830184611ba4565b92915050565b6000604082019050611e166000830185611ba4565b611e236020830184611ba4565b9392505050565b6000608082019050611e3f6000830187611ba4565b611e4c6020830186611ba4565b611e596040830185611ba4565b611e666060830184611ba4565b95945050505050565b600081905092915050565b600082825260208201905092915050565b6000611e968261203e565b9150611ea18361203e565b9250827fffffffffffffffffffffffffffffffffffffffffffffffffffffffffffffffff03821115611ed657611ed56120d1565b5b828201905092915050565b6000611eec8261203e565b9150611ef78361203e565b925082611f0757611f06612100565b5b828204905092915050565b6000611f1d8261203e565b9150611f288361203e565b9250817fffffffffffffffffffffffffffffffffffffffffffffffffffffffffffffffff0483118215151615611f6157611f606120d1565b5b828202905092915050565b6000611f778261203e565b9150611f828361203e565b925082821015611f9557611f946120d1565b5b828203905092915050565b6000611fab82612048565b9150611fb683612048565b925082821015611fc957611fc86120d1565b5b828203905092915050565b6000611fdf8261201e565b9050919050565b60008115159050919050565b6000611ffd82611fd4565b9050919050565b60006dffffffffffffffffffffffffffff82169050919050565b600073ffffffffffffffffffffffffffffffffffffffff82169050919050565b6000819050919050565b600063ffffffff82169050919050565b60006120638261207c565b9050919050565b60006120758261207c565b9050919050565b60006120878261208e565b9050919050565b60006120998261201e565b9050919050565b60006120ab8261203e565b91506120b68361203e565b9250826120c6576120c5612100565b5b828206905092915050565b7f4e487b7100000000000000000000000000000000000000000000000000000000600052601160045260246000fd5b7f4e487b7100000000000000000000000000000000000000000000000000000000600052601260045260246000fd5b600080fd5b7f4f776e61626c653a206e6577206f776e657220697320746865207a65726f206160008201527f6464726573730000000000000000000000000000000000000000000000000000602082015250565b7f535741505f4552524f5200000000000000000000000000000000000000000000600082015250565b7f4554485f5452414e534645525f46524f4d5f535043504f4f4c5f4641494c4544600082015250565b7f5370616365506f6f6c3a204c4f434b4544000000000000000000000000000000600082015250565b7f4e4f5f544f4b454e535f415641494c41424c455f544f5f4255524e0000000000600082015250565b7f494e53554646494349454e545f4c49515549444954595f4d494e544544000000600082015250565b7f4d494e545f4552524f5200000000000000000000000000000000000000000000600082015250565b7f4255524e5f4552524f5200000000000000000000000000000000000000000000600082015250565b7f4f776e61626c653a2063616c6c6572206973206e6f7420746865206f776e6572600082015250565b7f494e53554646494349454e545f4c49515549444954595f4255524e4544000000600082015250565b50565b7f4554485f5452414e534645525f46524f4d5f504f4f4c5f544f5f524f5554455260008201527f5f4641494c454400000000000000000000000000000000000000000000000000602082015250565b61234f81611fd4565b811461235a57600080fd5b50565b61236681611fe6565b811461237157600080fd5b50565b61237d81611ff2565b811461238857600080fd5b50565b6123948161203e565b811461239f57600080fd5b5056fea2646970667358221220617f6a0c0804c01bd7ebb1c567a61ca71ed424ec2948806cafaa087bb89b7cd964736f6c63430008070033",
  "linkReferences": {},
  "deployedLinkReferences": {}
}