{
  "_format": "hh-sol-artifact-1",
  "contractName": "SpacePool",
  "sourceName": "contracts/SpacePool.sol",
  "abi": [
    {
      "inputs": [
        {
          "internalType": "contract SpaceCoin",
          "name": "spaceCoin",
          "type": "address"
        },
        {
          "internalType": "contract SpacePoolCoin",
          "name": "spacePoolCoin",
          "type": "address"
        }
      ],
      "stateMutability": "nonpayable",
      "type": "constructor"
    },
    {
      "anonymous": false,
      "inputs": [
        {
          "indexed": true,
          "internalType": "address",
          "name": "sender",
          "type": "address"
        },
        {
          "indexed": false,
          "internalType": "uint256",
          "name": "amount0",
          "type": "uint256"
        },
        {
          "indexed": false,
          "internalType": "uint256",
          "name": "amount1",
          "type": "uint256"
        },
        {
          "indexed": true,
          "internalType": "address",
          "name": "to",
          "type": "address"
        }
      ],
      "name": "Burn",
      "type": "event"
    },
    {
      "anonymous": false,
      "inputs": [
        {
          "indexed": true,
          "internalType": "address",
          "name": "sender",
          "type": "address"
        },
        {
          "indexed": false,
          "internalType": "uint256",
          "name": "amount0",
          "type": "uint256"
        },
        {
          "indexed": false,
          "internalType": "uint256",
          "name": "amount1",
          "type": "uint256"
        }
      ],
      "name": "Mint",
      "type": "event"
    },
    {
      "anonymous": false,
      "inputs": [
        {
          "indexed": true,
          "internalType": "address",
          "name": "previousOwner",
          "type": "address"
        },
        {
          "indexed": true,
          "internalType": "address",
          "name": "newOwner",
          "type": "address"
        }
      ],
      "name": "OwnershipTransferred",
      "type": "event"
    },
    {
      "inputs": [],
      "name": "MINIMUM_LIQUIDITY",
      "outputs": [
        {
          "internalType": "uint256",
          "name": "",
          "type": "uint256"
        }
      ],
      "stateMutability": "view",
      "type": "function"
    },
    {
      "inputs": [],
      "name": "_spaceCoin",
      "outputs": [
        {
          "internalType": "contract SpaceCoin",
          "name": "",
          "type": "address"
        }
      ],
      "stateMutability": "view",
      "type": "function"
    },
    {
      "inputs": [],
      "name": "_spacePoolCoin",
      "outputs": [
        {
          "internalType": "contract SpacePoolCoin",
          "name": "",
          "type": "address"
        }
      ],
      "stateMutability": "view",
      "type": "function"
    },
    {
      "inputs": [
        {
          "internalType": "address",
          "name": "to",
          "type": "address"
        }
      ],
      "name": "burn",
      "outputs": [
        {
          "internalType": "uint256",
          "name": "amount0",
          "type": "uint256"
        },
        {
          "internalType": "uint256",
          "name": "amount1",
          "type": "uint256"
        }
      ],
      "stateMutability": "nonpayable",
      "type": "function"
    },
    {
      "inputs": [],
      "name": "getBalance",
      "outputs": [
        {
          "internalType": "uint256",
          "name": "",
          "type": "uint256"
        }
      ],
      "stateMutability": "view",
      "type": "function"
    },
    {
      "inputs": [],
      "name": "getReserves",
      "outputs": [
        {
          "internalType": "uint112",
          "name": "_reserve0",
          "type": "uint112"
        },
        {
          "internalType": "uint112",
          "name": "_reserve1",
          "type": "uint112"
        }
      ],
      "stateMutability": "view",
      "type": "function"
    },
    {
      "inputs": [
        {
          "internalType": "address",
          "name": "to",
          "type": "address"
        }
      ],
      "name": "mint",
      "outputs": [
        {
          "internalType": "uint256",
          "name": "liquidity",
          "type": "uint256"
        }
      ],
      "stateMutability": "nonpayable",
      "type": "function"
    },
    {
      "inputs": [],
      "name": "owner",
      "outputs": [
        {
          "internalType": "address",
          "name": "",
          "type": "address"
        }
      ],
      "stateMutability": "view",
      "type": "function"
    },
    {
      "inputs": [],
      "name": "renounceOwnership",
      "outputs": [],
      "stateMutability": "nonpayable",
      "type": "function"
    },
    {
      "inputs": [
        {
          "internalType": "uint256",
          "name": "spaceCoins",
          "type": "uint256"
        },
        {
          "internalType": "address",
          "name": "to",
          "type": "address"
        }
      ],
      "name": "swap",
      "outputs": [
        {
          "internalType": "uint256",
          "name": "amountOut",
          "type": "uint256"
        },
        {
          "internalType": "uint256",
          "name": "slippage",
          "type": "uint256"
        }
      ],
      "stateMutability": "payable",
      "type": "function"
    },
    {
      "inputs": [],
      "name": "sync",
      "outputs": [],
      "stateMutability": "nonpayable",
      "type": "function"
    },
    {
      "inputs": [
        {
          "internalType": "address",
          "name": "newOwner",
          "type": "address"
        }
      ],
      "name": "transferOwnership",
      "outputs": [],
      "stateMutability": "nonpayable",
      "type": "function"
    },
    {
      "stateMutability": "payable",
      "type": "receive"
    }
  ],
  "bytecode": "0x608060405260016005553480156200001657600080fd5b50604051620021273803806200212783398181016040528101906200003c9190620003c4565b6200005c620000506200026a60201b60201c565b6200027260201b60201c565b81600160006101000a81548173ffffffffffffffffffffffffffffffffffffffff021916908373ffffffffffffffffffffffffffffffffffffffff16021790555080600260006101000a81548173ffffffffffffffffffffffffffffffffffffffff021916908373ffffffffffffffffffffffffffffffffffffffff160217905550600260009054906101000a900473ffffffffffffffffffffffffffffffffffffffff1673ffffffffffffffffffffffffffffffffffffffff166318160ddd6040518163ffffffff1660e01b815260040160206040518083038186803b1580156200014757600080fd5b505afa1580156200015c573d6000803e3d6000fd5b505050506040513d601f19601f820116820180604052508101906200018291906200040b565b600381905550600060035414156200026257600260009054906101000a900473ffffffffffffffffffffffffffffffffffffffff1673ffffffffffffffffffffffffffffffffffffffff166340c10f1930670de0b6b3a76400006103e8620001eb91906200048c565b6040518363ffffffff1660e01b81526004016200020a9291906200045f565b602060405180830381600087803b1580156200022557600080fd5b505af11580156200023a573d6000803e3d6000fd5b505050506040513d601f19601f8201168201806040525081019062000260919062000392565b505b5050620005fb565b600033905090565b60008060009054906101000a900473ffffffffffffffffffffffffffffffffffffffff169050816000806101000a81548173ffffffffffffffffffffffffffffffffffffffff021916908373ffffffffffffffffffffffffffffffffffffffff1602179055508173ffffffffffffffffffffffffffffffffffffffff168173ffffffffffffffffffffffffffffffffffffffff167f8be0079c531659141344cd1fd0a4f28419497f9722a3daafe3b4186f6b6457e060405160405180910390a35050565b600081519050620003478162000593565b92915050565b6000815190506200035e81620005ad565b92915050565b6000815190506200037581620005c7565b92915050565b6000815190506200038c81620005e1565b92915050565b600060208284031215620003ab57620003aa6200058e565b5b6000620003bb8482850162000336565b91505092915050565b60008060408385031215620003de57620003dd6200058e565b5b6000620003ee858286016200034d565b9250506020620004018582860162000364565b9150509250929050565b6000602082840312156200042457620004236200058e565b5b600062000434848285016200037b565b91505092915050565b6200044881620004ed565b82525050565b620004598162000555565b82525050565b60006040820190506200047660008301856200043d565b6200048560208301846200044e565b9392505050565b6000620004998262000555565b9150620004a68362000555565b9250817fffffffffffffffffffffffffffffffffffffffffffffffffffffffffffffffff0483118215151615620004e257620004e16200055f565b5b828202905092915050565b6000620004fa8262000535565b9050919050565b60008115159050919050565b60006200051a82620004ed565b9050919050565b60006200052e82620004ed565b9050919050565b600073ffffffffffffffffffffffffffffffffffffffff82169050919050565b6000819050919050565b7f4e487b7100000000000000000000000000000000000000000000000000000000600052601160045260246000fd5b600080fd5b6200059e8162000501565b8114620005aa57600080fd5b50565b620005b8816200050d565b8114620005c457600080fd5b50565b620005d28162000521565b8114620005de57600080fd5b50565b620005ec8162000555565b8114620005f857600080fd5b50565b611b1c806200060b6000396000f3fe6080604052600436106100ab5760003560e01c80638da5cb5b116100645780638da5cb5b146101cb578063906c0ba7146101f6578063ba9a7a5614610221578063d3986f081461024c578063f2fde38b1461027d578063fff6cae9146102a6576100b2565b80630902f1ac146100b757806312065fe0146100e35780636a6278421461010e578063715018a61461014b57806389afcb44146101625780638a358bf5146101a0576100b2565b366100b257005b600080fd5b3480156100c357600080fd5b506100cc6102bd565b6040516100da92919061163c565b60405180910390f35b3480156100ef57600080fd5b506100f8610302565b6040516101059190611665565b60405180910390f35b34801561011a57600080fd5b50610135600480360381019061013091906112a3565b61030a565b6040516101429190611665565b60405180910390f35b34801561015757600080fd5b506101606106ec565b005b34801561016e57600080fd5b50610189600480360381019061018491906112a3565b610774565b604051610197929190611680565b60405180910390f35b3480156101ac57600080fd5b506101b5610c37565b6040516101c29190611541565b60405180910390f35b3480156101d757600080fd5b506101e0610c5d565b6040516101ed91906114e2565b60405180910390f35b34801561020257600080fd5b5061020b610c86565b6040516102189190611526565b60405180910390f35b34801561022d57600080fd5b50610236610cac565b6040516102439190611665565b60405180910390f35b6102666004803603810190610261919061132a565b610cb2565b604051610274929190611680565b60405180910390f35b34801561028957600080fd5b506102a4600480360381019061029f91906112a3565b610ef9565b005b3480156102b257600080fd5b506102bb610ff1565b005b600080600460009054906101000a90046dffffffffffffffffffffffffffff1691506004600e9054906101000a90046dffffffffffffffffffffffffffff1690509091565b600047905090565b6000600160055414610351576040517f08c379a00000000000000000000000000000000000000000000000000000000081526004016103489061157c565b60405180910390fd5b60006005819055506000806103646102bd565b91509150600260009054906101000a900473ffffffffffffffffffffffffffffffffffffffff1673ffffffffffffffffffffffffffffffffffffffff166318160ddd6040518163ffffffff1660e01b815260040160206040518083038186803b1580156103d057600080fd5b505afa1580156103e4573d6000803e3d6000fd5b505050506040513d601f19601f8201168201806040525081019061040891906112fd565b60038190555060004790506000600160009054906101000a900473ffffffffffffffffffffffffffffffffffffffff1673ffffffffffffffffffffffffffffffffffffffff166370a08231306040518263ffffffff1660e01b815260040161047091906114e2565b60206040518083038186803b15801561048857600080fd5b505afa15801561049c573d6000803e3d6000fd5b505050506040513d601f19601f820116820180604052508101906104c091906112fd565b90506000600460009054906101000a90046dffffffffffffffffffffffffffff166dffffffffffffffffffffffffffff16836104fc91906117a6565b905060006004600e9054906101000a90046dffffffffffffffffffffffffffff166dffffffffffffffffffffffffffff168361053891906117a6565b9050610594866dffffffffffffffffffffffffffff166003548461055c919061174c565b610566919061171b565b866dffffffffffffffffffffffffffff1660035484610585919061174c565b61058f919061171b565b6110fc565b9650600087116105d9576040517f08c379a00000000000000000000000000000000000000000000000000000000081526004016105d0906115dc565b60405180910390fd5b600260009054906101000a900473ffffffffffffffffffffffffffffffffffffffff1673ffffffffffffffffffffffffffffffffffffffff166340c10f1989896040518363ffffffff1660e01b81526004016106369291906114fd565b602060405180830381600087803b15801561065057600080fd5b505af1158015610664573d6000803e3d6000fd5b505050506040513d601f19601f8201168201806040525081019061068891906112d0565b508773ffffffffffffffffffffffffffffffffffffffff167f4c209b5fc8ad50758f13e2e1088ba56a560dff690a1c6fef26394f4c03821c4f85836040516106d1929190611680565b60405180910390a25050505050506001600581905550919050565b6106f4611115565b73ffffffffffffffffffffffffffffffffffffffff16610712610c5d565b73ffffffffffffffffffffffffffffffffffffffff1614610768576040517f08c379a000000000000000000000000000000000000000000000000000000000815260040161075f906115bc565b60405180910390fd5b610772600061111d565b565b6000806001600554146107bc576040517f08c379a00000000000000000000000000000000000000000000000000000000081526004016107b39061157c565b60405180910390fd5b60006005819055506000806107cf6102bd565b9150915060004790506000600160009054906101000a900473ffffffffffffffffffffffffffffffffffffffff1673ffffffffffffffffffffffffffffffffffffffff166370a08231306040518263ffffffff1660e01b815260040161083591906114e2565b60206040518083038186803b15801561084d57600080fd5b505afa158015610861573d6000803e3d6000fd5b505050506040513d601f19601f8201168201806040525081019061088591906112fd565b90506000600260009054906101000a900473ffffffffffffffffffffffffffffffffffffffff1673ffffffffffffffffffffffffffffffffffffffff166370a08231896040518263ffffffff1660e01b81526004016108e491906114e2565b60206040518083038186803b1580156108fc57600080fd5b505afa158015610910573d6000803e3d6000fd5b505050506040513d601f19601f8201168201806040525081019061093491906112fd565b9050600260009054906101000a900473ffffffffffffffffffffffffffffffffffffffff1673ffffffffffffffffffffffffffffffffffffffff166318160ddd6040518163ffffffff1660e01b815260040160206040518083038186803b15801561099e57600080fd5b505afa1580156109b2573d6000803e3d6000fd5b505050506040513d601f19601f820116820180604052508101906109d691906112fd565b60038190555060035483826109eb919061174c565b6109f5919061171b565b96506003548282610a06919061174c565b610a10919061171b565b9550600087118015610a225750600086115b610a61576040517f08c379a0000000000000000000000000000000000000000000000000000000008152600401610a58906115fc565b60405180910390fd5b600260009054906101000a900473ffffffffffffffffffffffffffffffffffffffff1673ffffffffffffffffffffffffffffffffffffffff16639dc29fac89836040518363ffffffff1660e01b8152600401610abe9291906114fd565b602060405180830381600087803b158015610ad857600080fd5b505af1158015610aec573d6000803e3d6000fd5b505050506040513d601f19601f82011682018060405250810190610b1091906112d0565b5060008873ffffffffffffffffffffffffffffffffffffffff1688604051610b37906114cd565b60006040518083038185875af1925050503d8060008114610b74576040519150601f19603f3d011682016040523d82523d6000602084013e610b79565b606091505b5050905080610bbd576040517f08c379a0000000000000000000000000000000000000000000000000000000008152600401610bb49061161c565b60405180910390fd5b8873ffffffffffffffffffffffffffffffffffffffff163373ffffffffffffffffffffffffffffffffffffffff167fdccd412f0b1252819cb1fd330b93224ca42612892bb3f4f789976e6d819364968a8a604051610c1c929190611680565b60405180910390a35050505050506001600581905550915091565b600260009054906101000a900473ffffffffffffffffffffffffffffffffffffffff1681565b60008060009054906101000a900473ffffffffffffffffffffffffffffffffffffffff16905090565b600160009054906101000a900473ffffffffffffffffffffffffffffffffffffffff1681565b6103e881565b600080600160055414610cfa576040517f08c379a0000000000000000000000000000000000000000000000000000000008152600401610cf19061157c565b60405180910390fd5b600060058190555060004790506000600160009054906101000a900473ffffffffffffffffffffffffffffffffffffffff1673ffffffffffffffffffffffffffffffffffffffff166370a08231306040518263ffffffff1660e01b8152600401610d6491906114e2565b60206040518083038186803b158015610d7c57600080fd5b505afa158015610d90573d6000803e3d6000fd5b505050506040513d601f19601f82011682018060405250810190610db491906112fd565b90506000349050600034118015610dcb5750600087145b15610e07578083610ddc91906116c5565b8284610de8919061174c565b610df2919061171b565b94508482610e0091906117a6565b9350610ee7565b8682610e1391906116c5565b8284610e1f919061174c565b610e29919061171b565b94508483610e3791906117a6565b935060008673ffffffffffffffffffffffffffffffffffffffff1685604051610e5f906114cd565b60006040518083038185875af1925050503d8060008114610e9c576040519150601f19603f3d011682016040523d82523d6000602084013e610ea1565b606091505b5050905080610ee5576040517f08c379a0000000000000000000000000000000000000000000000000000000008152600401610edc9061159c565b60405180910390fd5b505b50505060016005819055509250929050565b610f01611115565b73ffffffffffffffffffffffffffffffffffffffff16610f1f610c5d565b73ffffffffffffffffffffffffffffffffffffffff1614610f75576040517f08c379a0000000000000000000000000000000000000000000000000000000008152600401610f6c906115bc565b60405180910390fd5b600073ffffffffffffffffffffffffffffffffffffffff168173ffffffffffffffffffffffffffffffffffffffff161415610fe5576040517f08c379a0000000000000000000000000000000000000000000000000000000008152600401610fdc9061155c565b60405180910390fd5b610fee8161111d565b50565b600160055414611036576040517f08c379a000000000000000000000000000000000000000000000000000000000815260040161102d9061157c565b60405180910390fd5b60006005819055506110f247600160009054906101000a900473ffffffffffffffffffffffffffffffffffffffff1673ffffffffffffffffffffffffffffffffffffffff166370a08231306040518263ffffffff1660e01b815260040161109d91906114e2565b60206040518083038186803b1580156110b557600080fd5b505afa1580156110c9573d6000803e3d6000fd5b505050506040513d601f19601f820116820180604052508101906110ed91906112fd565b6111e1565b6001600581905550565b600081831061110b578161110d565b825b905092915050565b600033905090565b60008060009054906101000a900473ffffffffffffffffffffffffffffffffffffffff169050816000806101000a81548173ffffffffffffffffffffffffffffffffffffffff021916908373ffffffffffffffffffffffffffffffffffffffff1602179055508173ffffffffffffffffffffffffffffffffffffffff168173ffffffffffffffffffffffffffffffffffffffff167f8be0079c531659141344cd1fd0a4f28419497f9722a3daafe3b4186f6b6457e060405160405180910390a35050565b81600460006101000a8154816dffffffffffffffffffffffffffff02191690836dffffffffffffffffffffffffffff160217905550806004600e6101000a8154816dffffffffffffffffffffffffffff02191690836dffffffffffffffffffffffffffff1602179055505050565b60008135905061125e81611aa1565b92915050565b60008151905061127381611ab8565b92915050565b60008135905061128881611acf565b92915050565b60008151905061129d81611acf565b92915050565b6000602082840312156112b9576112b86118e2565b5b60006112c78482850161124f565b91505092915050565b6000602082840312156112e6576112e56118e2565b5b60006112f484828501611264565b91505092915050565b600060208284031215611313576113126118e2565b5b60006113218482850161128e565b91505092915050565b60008060408385031215611341576113406118e2565b5b600061134f85828601611279565b92505060206113608582860161124f565b9150509250929050565b611373816117da565b82525050565b6113828161183c565b82525050565b6113918161184e565b82525050565b60006113a46026836116b4565b91506113af826118e7565b604082019050919050565b60006113c76011836116b4565b91506113d282611936565b602082019050919050565b60006113ea6036836116b4565b91506113f58261195f565b604082019050919050565b600061140d6020836116b4565b9150611418826119ae565b602082019050919050565b60006114306028836116b4565b915061143b826119d7565b604082019050919050565b60006114536028836116b4565b915061145e82611a26565b604082019050919050565b60006114766000836116a9565b915061148182611a75565b600082019050919050565b60006114996013836116b4565b91506114a482611a78565b602082019050919050565b6114b8816117f8565b82525050565b6114c781611832565b82525050565b60006114d882611469565b9150819050919050565b60006020820190506114f7600083018461136a565b92915050565b6000604082019050611512600083018561136a565b61151f60208301846114be565b9392505050565b600060208201905061153b6000830184611379565b92915050565b60006020820190506115566000830184611388565b92915050565b6000602082019050818103600083015261157581611397565b9050919050565b60006020820190508181036000830152611595816113ba565b9050919050565b600060208201905081810360008301526115b5816113dd565b9050919050565b600060208201905081810360008301526115d581611400565b9050919050565b600060208201905081810360008301526115f581611423565b9050919050565b6000602082019050818103600083015261161581611446565b9050919050565b600060208201905081810360008301526116358161148c565b9050919050565b600060408201905061165160008301856114af565b61165e60208301846114af565b9392505050565b600060208201905061167a60008301846114be565b92915050565b600060408201905061169560008301856114be565b6116a260208301846114be565b9392505050565b600081905092915050565b600082825260208201905092915050565b60006116d082611832565b91506116db83611832565b9250827fffffffffffffffffffffffffffffffffffffffffffffffffffffffffffffffff038211156117105761170f611884565b5b828201905092915050565b600061172682611832565b915061173183611832565b925082611741576117406118b3565b5b828204905092915050565b600061175782611832565b915061176283611832565b9250817fffffffffffffffffffffffffffffffffffffffffffffffffffffffffffffffff048311821515161561179b5761179a611884565b5b828202905092915050565b60006117b182611832565b91506117bc83611832565b9250828210156117cf576117ce611884565b5b828203905092915050565b60006117e582611812565b9050919050565b60008115159050919050565b60006dffffffffffffffffffffffffffff82169050919050565b600073ffffffffffffffffffffffffffffffffffffffff82169050919050565b6000819050919050565b600061184782611860565b9050919050565b600061185982611860565b9050919050565b600061186b82611872565b9050919050565b600061187d82611812565b9050919050565b7f4e487b7100000000000000000000000000000000000000000000000000000000600052601160045260246000fd5b7f4e487b7100000000000000000000000000000000000000000000000000000000600052601260045260246000fd5b600080fd5b7f4f776e61626c653a206e6577206f776e657220697320746865207a65726f206160008201527f6464726573730000000000000000000000000000000000000000000000000000602082015250565b7f5370616365506f6f6c3a204c4f434b4544000000000000000000000000000000600082015250565b7f5370616365506f6f6c3a3a73776170546f6b656e73204554485f5452414e534660008201527f45525f46524f4d5f535043504f4f4c5f4641494c454400000000000000000000602082015250565b7f4f776e61626c653a2063616c6c6572206973206e6f7420746865206f776e6572600082015250565b7f5370616365506f6f6c3a20494e53554646494349454e545f4c4951554944495460008201527f595f4d494e544544000000000000000000000000000000000000000000000000602082015250565b7f5370616365506f6f6c3a20494e53554646494349454e545f4c4951554944495460008201527f595f4255524e4544000000000000000000000000000000000000000000000000602082015250565b50565b7f4554485f5452414e534645525f4641494c454400000000000000000000000000600082015250565b611aaa816117da565b8114611ab557600080fd5b50565b611ac1816117ec565b8114611acc57600080fd5b50565b611ad881611832565b8114611ae357600080fd5b5056fea2646970667358221220b613e113f329922700518dc981f3d71163df95678305e4cdee60988e57d60ce164736f6c63430008070033",
  "linkReferences": {},
  "deployedLinkReferences": {}
}