{
  "_format": "hh-sol-artifact-1",
  "contractName": "SpacePool",
  "sourceName": "contracts/SpacePool.sol",
  "abi": [
    {
      "inputs": [],
      "stateMutability": "nonpayable",
      "type": "constructor"
    },
    {
      "anonymous": false,
      "inputs": [
        {
          "indexed": true,
          "internalType": "address",
          "name": "previousOwner",
          "type": "address"
        },
        {
          "indexed": true,
          "internalType": "address",
          "name": "newOwner",
          "type": "address"
        }
      ],
      "name": "OwnershipTransferred",
      "type": "event"
    },
    {
      "inputs": [],
      "name": "MINIMUM_LIQUIDITY",
      "outputs": [
        {
          "internalType": "uint256",
          "name": "",
          "type": "uint256"
        }
      ],
      "stateMutability": "view",
      "type": "function"
    },
    {
      "inputs": [],
      "name": "burn",
      "outputs": [],
      "stateMutability": "nonpayable",
      "type": "function"
    },
    {
      "inputs": [],
      "name": "getReserves",
      "outputs": [
        {
          "internalType": "uint112",
          "name": "_reserve0",
          "type": "uint112"
        },
        {
          "internalType": "uint112",
          "name": "_reserve1",
          "type": "uint112"
        },
        {
          "internalType": "uint32",
          "name": "_blockTimestampLast",
          "type": "uint32"
        }
      ],
      "stateMutability": "view",
      "type": "function"
    },
    {
      "inputs": [],
      "name": "mint",
      "outputs": [],
      "stateMutability": "nonpayable",
      "type": "function"
    },
    {
      "inputs": [],
      "name": "owner",
      "outputs": [
        {
          "internalType": "address",
          "name": "",
          "type": "address"
        }
      ],
      "stateMutability": "view",
      "type": "function"
    },
    {
      "inputs": [],
      "name": "renounceOwnership",
      "outputs": [],
      "stateMutability": "nonpayable",
      "type": "function"
    },
    {
      "inputs": [],
      "name": "swap",
      "outputs": [],
      "stateMutability": "nonpayable",
      "type": "function"
    },
    {
      "inputs": [],
      "name": "token0",
      "outputs": [
        {
          "internalType": "address",
          "name": "",
          "type": "address"
        }
      ],
      "stateMutability": "view",
      "type": "function"
    },
    {
      "inputs": [],
      "name": "token1",
      "outputs": [
        {
          "internalType": "address",
          "name": "",
          "type": "address"
        }
      ],
      "stateMutability": "view",
      "type": "function"
    },
    {
      "inputs": [
        {
          "internalType": "address",
          "name": "newOwner",
          "type": "address"
        }
      ],
      "name": "transferOwnership",
      "outputs": [],
      "stateMutability": "nonpayable",
      "type": "function"
    }
  ],
  "bytecode": "0x6080604052600160045534801561001557600080fd5b5061003261002761003760201b60201c565b61003f60201b60201c565b610103565b600033905090565b60008060009054906101000a900473ffffffffffffffffffffffffffffffffffffffff169050816000806101000a81548173ffffffffffffffffffffffffffffffffffffffff021916908373ffffffffffffffffffffffffffffffffffffffff1602179055508173ffffffffffffffffffffffffffffffffffffffff168173ffffffffffffffffffffffffffffffffffffffff167f8be0079c531659141344cd1fd0a4f28419497f9722a3daafe3b4186f6b6457e060405160405180910390a35050565b6108c6806101126000396000f3fe608060405234801561001057600080fd5b506004361061009e5760003560e01c80638119c065116100665780638119c065146100ff5780638da5cb5b14610109578063ba9a7a5614610127578063d21220a714610145578063f2fde38b146101635761009e565b80630902f1ac146100a35780630dfe1681146100c35780631249c58b146100e157806344df8e70146100eb578063715018a6146100f5575b600080fd5b6100ab61017f565b6040516100ba9392919061070a565b60405180910390f35b6100cb6101dc565b6040516100d8919061068f565b60405180910390f35b6100e9610202565b005b6100f3610259565b005b6100fd6102b0565b005b610107610338565b005b61011161038f565b60405161011e919061068f565b60405180910390f35b61012f6103b8565b60405161013c9190610741565b60405180910390f35b61014d6103be565b60405161015a919061068f565b60405180910390f35b61017d600480360381019061017891906105bd565b6103e4565b005b6000806000600360009054906101000a90046dffffffffffffffffffffffffffff1692506003600e9054906101000a90046dffffffffffffffffffffffffffff1691506003601c9054906101000a900463ffffffff169050909192565b600160009054906101000a900473ffffffffffffffffffffffffffffffffffffffff1681565b600160045414610247576040517f08c379a000000000000000000000000000000000000000000000000000000000815260040161023e906106ca565b60405180910390fd5b60006004819055506001600481905550565b60016004541461029e576040517f08c379a0000000000000000000000000000000000000000000000000000000008152600401610295906106ca565b60405180910390fd5b60006004819055506001600481905550565b6102b86104dc565b73ffffffffffffffffffffffffffffffffffffffff166102d661038f565b73ffffffffffffffffffffffffffffffffffffffff161461032c576040517f08c379a0000000000000000000000000000000000000000000000000000000008152600401610323906106ea565b60405180910390fd5b61033660006104e4565b565b60016004541461037d576040517f08c379a0000000000000000000000000000000000000000000000000000000008152600401610374906106ca565b60405180910390fd5b60006004819055506001600481905550565b60008060009054906101000a900473ffffffffffffffffffffffffffffffffffffffff16905090565b6103e881565b600260009054906101000a900473ffffffffffffffffffffffffffffffffffffffff1681565b6103ec6104dc565b73ffffffffffffffffffffffffffffffffffffffff1661040a61038f565b73ffffffffffffffffffffffffffffffffffffffff1614610460576040517f08c379a0000000000000000000000000000000000000000000000000000000008152600401610457906106ea565b60405180910390fd5b600073ffffffffffffffffffffffffffffffffffffffff168173ffffffffffffffffffffffffffffffffffffffff1614156104d0576040517f08c379a00000000000000000000000000000000000000000000000000000000081526004016104c7906106aa565b60405180910390fd5b6104d9816104e4565b50565b600033905090565b60008060009054906101000a900473ffffffffffffffffffffffffffffffffffffffff169050816000806101000a81548173ffffffffffffffffffffffffffffffffffffffff021916908373ffffffffffffffffffffffffffffffffffffffff1602179055508173ffffffffffffffffffffffffffffffffffffffff168173ffffffffffffffffffffffffffffffffffffffff167f8be0079c531659141344cd1fd0a4f28419497f9722a3daafe3b4186f6b6457e060405160405180910390a35050565b6000813590506105b781610879565b92915050565b6000602082840312156105d3576105d26107d3565b5b60006105e1848285016105a8565b91505092915050565b6105f38161076d565b82525050565b600061060660268361075c565b9150610611826107d8565b604082019050919050565b600061062960118361075c565b915061063482610827565b602082019050919050565b600061064c60208361075c565b915061065782610850565b602082019050919050565b61066b8161077f565b82525050565b61067a816107b9565b82525050565b610689816107c3565b82525050565b60006020820190506106a460008301846105ea565b92915050565b600060208201905081810360008301526106c3816105f9565b9050919050565b600060208201905081810360008301526106e38161061c565b9050919050565b600060208201905081810360008301526107038161063f565b9050919050565b600060608201905061071f6000830186610662565b61072c6020830185610662565b6107396040830184610680565b949350505050565b60006020820190506107566000830184610671565b92915050565b600082825260208201905092915050565b600061077882610799565b9050919050565b60006dffffffffffffffffffffffffffff82169050919050565b600073ffffffffffffffffffffffffffffffffffffffff82169050919050565b6000819050919050565b600063ffffffff82169050919050565b600080fd5b7f4f776e61626c653a206e6577206f776e657220697320746865207a65726f206160008201527f6464726573730000000000000000000000000000000000000000000000000000602082015250565b7f5370616365506f6f6c3a204c4f434b4544000000000000000000000000000000600082015250565b7f4f776e61626c653a2063616c6c6572206973206e6f7420746865206f776e6572600082015250565b6108828161076d565b811461088d57600080fd5b5056fea26469706673582212207b99c6b37ee10845bb0e757e82ca727519f95cce374d2aeca587d8ae711c55a364736f6c63430008070033",
  "linkReferences": {},
  "deployedLinkReferences": {}
}