{
  "_format": "hh-sol-artifact-1",
  "contractName": "SpacePool",
  "sourceName": "contracts/SpacePool.sol",
  "abi": [
    {
      "inputs": [
        {
          "internalType": "contract SpaceCoin",
          "name": "spaceCoin",
          "type": "address"
        }
      ],
      "stateMutability": "nonpayable",
      "type": "constructor"
    },
    {
      "anonymous": false,
      "inputs": [
        {
          "indexed": false,
          "internalType": "uint256",
          "name": "amount0",
          "type": "uint256"
        },
        {
          "indexed": false,
          "internalType": "uint256",
          "name": "amount1",
          "type": "uint256"
        },
        {
          "indexed": true,
          "internalType": "address",
          "name": "to",
          "type": "address"
        }
      ],
      "name": "Burn",
      "type": "event"
    },
    {
      "anonymous": false,
      "inputs": [
        {
          "indexed": true,
          "internalType": "address",
          "name": "sender",
          "type": "address"
        },
        {
          "indexed": false,
          "internalType": "uint256",
          "name": "amount0",
          "type": "uint256"
        },
        {
          "indexed": false,
          "internalType": "uint256",
          "name": "amount1",
          "type": "uint256"
        }
      ],
      "name": "Mint",
      "type": "event"
    },
    {
      "anonymous": false,
      "inputs": [
        {
          "indexed": true,
          "internalType": "address",
          "name": "previousOwner",
          "type": "address"
        },
        {
          "indexed": true,
          "internalType": "address",
          "name": "newOwner",
          "type": "address"
        }
      ],
      "name": "OwnershipTransferred",
      "type": "event"
    },
    {
      "anonymous": false,
      "inputs": [
        {
          "indexed": true,
          "internalType": "address",
          "name": "sender",
          "type": "address"
        },
        {
          "indexed": false,
          "internalType": "uint256",
          "name": "amount0In",
          "type": "uint256"
        },
        {
          "indexed": false,
          "internalType": "uint256",
          "name": "amount1In",
          "type": "uint256"
        },
        {
          "indexed": false,
          "internalType": "uint256",
          "name": "amount0Out",
          "type": "uint256"
        },
        {
          "indexed": false,
          "internalType": "uint256",
          "name": "amount1Out",
          "type": "uint256"
        },
        {
          "indexed": true,
          "internalType": "address",
          "name": "to",
          "type": "address"
        }
      ],
      "name": "Swap",
      "type": "event"
    },
    {
      "anonymous": false,
      "inputs": [
        {
          "indexed": false,
          "internalType": "uint112",
          "name": "reserve0",
          "type": "uint112"
        },
        {
          "indexed": false,
          "internalType": "uint112",
          "name": "reserve1",
          "type": "uint112"
        }
      ],
      "name": "Sync",
      "type": "event"
    },
    {
      "inputs": [],
      "name": "MINIMUM_LIQUIDITY",
      "outputs": [
        {
          "internalType": "uint256",
          "name": "",
          "type": "uint256"
        }
      ],
      "stateMutability": "view",
      "type": "function"
    },
    {
      "inputs": [],
      "name": "_spaceCoin",
      "outputs": [
        {
          "internalType": "contract SpaceCoin",
          "name": "",
          "type": "address"
        }
      ],
      "stateMutability": "view",
      "type": "function"
    },
    {
      "inputs": [],
      "name": "_spacePoolCoin",
      "outputs": [
        {
          "internalType": "contract SpacePoolCoin",
          "name": "",
          "type": "address"
        }
      ],
      "stateMutability": "view",
      "type": "function"
    },
    {
      "inputs": [
        {
          "internalType": "address",
          "name": "to",
          "type": "address"
        }
      ],
      "name": "burn",
      "outputs": [
        {
          "internalType": "uint256",
          "name": "amount0",
          "type": "uint256"
        },
        {
          "internalType": "uint256",
          "name": "amount1",
          "type": "uint256"
        }
      ],
      "stateMutability": "nonpayable",
      "type": "function"
    },
    {
      "inputs": [],
      "name": "getBalance",
      "outputs": [
        {
          "internalType": "uint256",
          "name": "",
          "type": "uint256"
        }
      ],
      "stateMutability": "view",
      "type": "function"
    },
    {
      "inputs": [],
      "name": "getReserves",
      "outputs": [
        {
          "internalType": "uint112",
          "name": "_reserve0",
          "type": "uint112"
        },
        {
          "internalType": "uint112",
          "name": "_reserve1",
          "type": "uint112"
        }
      ],
      "stateMutability": "view",
      "type": "function"
    },
    {
      "inputs": [
        {
          "internalType": "address",
          "name": "to",
          "type": "address"
        }
      ],
      "name": "mint",
      "outputs": [
        {
          "internalType": "uint256",
          "name": "liquidity",
          "type": "uint256"
        }
      ],
      "stateMutability": "nonpayable",
      "type": "function"
    },
    {
      "inputs": [],
      "name": "owner",
      "outputs": [
        {
          "internalType": "address",
          "name": "",
          "type": "address"
        }
      ],
      "stateMutability": "view",
      "type": "function"
    },
    {
      "inputs": [],
      "name": "renounceOwnership",
      "outputs": [],
      "stateMutability": "nonpayable",
      "type": "function"
    },
    {
      "inputs": [
        {
          "internalType": "contract SpacePoolCoin",
          "name": "spacePoolCoin",
          "type": "address"
        }
      ],
      "name": "setSpacePoolCoinAddress",
      "outputs": [
        {
          "internalType": "bool",
          "name": "",
          "type": "bool"
        }
      ],
      "stateMutability": "nonpayable",
      "type": "function"
    },
    {
      "inputs": [
        {
          "internalType": "uint256",
          "name": "spaceCoins",
          "type": "uint256"
        },
        {
          "internalType": "address",
          "name": "to",
          "type": "address"
        }
      ],
      "name": "swap",
      "outputs": [
        {
          "internalType": "uint256",
          "name": "amountOut",
          "type": "uint256"
        },
        {
          "internalType": "uint256",
          "name": "slippage",
          "type": "uint256"
        }
      ],
      "stateMutability": "payable",
      "type": "function"
    },
    {
      "inputs": [],
      "name": "sync",
      "outputs": [],
      "stateMutability": "nonpayable",
      "type": "function"
    },
    {
      "inputs": [
        {
          "internalType": "address",
          "name": "newOwner",
          "type": "address"
        }
      ],
      "name": "transferOwnership",
      "outputs": [],
      "stateMutability": "nonpayable",
      "type": "function"
    },
    {
      "stateMutability": "payable",
      "type": "receive"
    }
  ],
  "bytecode": "0x608060405260016005553480156200001657600080fd5b50604051620024663803806200246683398181016040528101906200003c919062000187565b6200005c62000050620000a460201b60201c565b620000ac60201b60201c565b80600160006101000a81548173ffffffffffffffffffffffffffffffffffffffff021916908373ffffffffffffffffffffffffffffffffffffffff1602179055505062000220565b600033905090565b60008060009054906101000a900473ffffffffffffffffffffffffffffffffffffffff169050816000806101000a81548173ffffffffffffffffffffffffffffffffffffffff021916908373ffffffffffffffffffffffffffffffffffffffff1602179055508173ffffffffffffffffffffffffffffffffffffffff168173ffffffffffffffffffffffffffffffffffffffff167f8be0079c531659141344cd1fd0a4f28419497f9722a3daafe3b4186f6b6457e060405160405180910390a35050565b600081519050620001818162000206565b92915050565b600060208284031215620001a0576200019f62000201565b5b6000620001b08482850162000170565b91505092915050565b6000620001c682620001e1565b9050919050565b6000620001da82620001b9565b9050919050565b600073ffffffffffffffffffffffffffffffffffffffff82169050919050565b600080fd5b6200021181620001cd565b81146200021d57600080fd5b50565b61223680620002306000396000f3fe6080604052600436106100c65760003560e01c80638da5cb5b1161007f578063c5718f6411610059578063c5718f6414610267578063d3986f08146102a4578063f2fde38b146102d5578063fff6cae9146102fe576100cd565b80638da5cb5b146101e6578063906c0ba714610211578063ba9a7a561461023c576100cd565b80630902f1ac146100d257806312065fe0146100fe5780636a62784214610129578063715018a61461016657806389afcb441461017d5780638a358bf5146101bb576100cd565b366100cd57005b600080fd5b3480156100de57600080fd5b506100e7610315565b6040516100f5929190611c90565b60405180910390f35b34801561010a57600080fd5b5061011361035a565b6040516101209190611cb9565b60405180910390f35b34801561013557600080fd5b50610150600480360381019061014b9190611794565b610362565b60405161015d9190611cb9565b60405180910390f35b34801561017257600080fd5b5061017b6107be565b005b34801561018957600080fd5b506101a4600480360381019061019f9190611794565b610846565b6040516101b2929190611cd4565b60405180910390f35b3480156101c757600080fd5b506101d0610dd0565b6040516101dd9190611b15565b60405180910390f35b3480156101f257600080fd5b506101fb610df6565b6040516102089190611a9b565b60405180910390f35b34801561021d57600080fd5b50610226610e1f565b6040516102339190611afa565b60405180910390f35b34801561024857600080fd5b50610251610e45565b60405161025e9190611cb9565b60405180910390f35b34801561027357600080fd5b5061028e600480360381019061028991906117ee565b610e4b565b60405161029b9190611adf565b60405180910390f35b6102be60048036038101906102b99190611848565b61108a565b6040516102cc929190611cd4565b60405180910390f35b3480156102e157600080fd5b506102fc60048036038101906102f79190611794565b611364565b005b34801561030a57600080fd5b5061031361145c565b005b600080600460009054906101000a90046dffffffffffffffffffffffffffff1691506004600e9054906101000a90046dffffffffffffffffffffffffffff1690509091565b600047905090565b60006001600554146103a9576040517f08c379a00000000000000000000000000000000000000000000000000000000081526004016103a090611b90565b60405180910390fd5b6000600581905550600073ffffffffffffffffffffffffffffffffffffffff168273ffffffffffffffffffffffffffffffffffffffff161415610421576040517f08c379a000000000000000000000000000000000000000000000000000000000815260040161041890611bf0565b60405180910390fd5b60008061042c610315565b91509150600260009054906101000a900473ffffffffffffffffffffffffffffffffffffffff1673ffffffffffffffffffffffffffffffffffffffff166318160ddd6040518163ffffffff1660e01b815260040160206040518083038186803b15801561049857600080fd5b505afa1580156104ac573d6000803e3d6000fd5b505050506040513d601f19601f820116820180604052508101906104d0919061181b565b60038190555060004790506000600160009054906101000a900473ffffffffffffffffffffffffffffffffffffffff1673ffffffffffffffffffffffffffffffffffffffff166370a08231306040518263ffffffff1660e01b81526004016105389190611a9b565b60206040518083038186803b15801561055057600080fd5b505afa158015610564573d6000803e3d6000fd5b505050506040513d601f19601f82011682018060405250810190610588919061181b565b90506000600460009054906101000a90046dffffffffffffffffffffffffffff166dffffffffffffffffffffffffffff16836105c49190611e3f565b905060006004600e9054906101000a90046dffffffffffffffffffffffffffff166dffffffffffffffffffffffffffff16836106009190611e3f565b905061065c866dffffffffffffffffffffffffffff16600354846106249190611de5565b61062e9190611db4565b866dffffffffffffffffffffffffffff166003548461064d9190611de5565b6106579190611db4565b611567565b9650600087116106a1576040517f08c379a000000000000000000000000000000000000000000000000000000000815260040161069890611bd0565b60405180910390fd5b600260009054906101000a900473ffffffffffffffffffffffffffffffffffffffff1673ffffffffffffffffffffffffffffffffffffffff166340c10f1989896040518363ffffffff1660e01b81526004016106fe929190611ab6565b602060405180830381600087803b15801561071857600080fd5b505af115801561072c573d6000803e3d6000fd5b505050506040513d601f19601f8201168201806040525081019061075091906117c1565b5061075b8484611580565b8773ffffffffffffffffffffffffffffffffffffffff167f4c209b5fc8ad50758f13e2e1088ba56a560dff690a1c6fef26394f4c03821c4f85836040516107a3929190611cd4565b60405180910390a25050505050506001600581905550919050565b6107c661165f565b73ffffffffffffffffffffffffffffffffffffffff166107e4610df6565b73ffffffffffffffffffffffffffffffffffffffff161461083a576040517f08c379a000000000000000000000000000000000000000000000000000000000815260040161083190611c30565b60405180910390fd5b6108446000611667565b565b60008060016005541461088e576040517f08c379a000000000000000000000000000000000000000000000000000000000815260040161088590611b90565b60405180910390fd5b6000600581905550600073ffffffffffffffffffffffffffffffffffffffff168373ffffffffffffffffffffffffffffffffffffffff161415610906576040517f08c379a00000000000000000000000000000000000000000000000000000000081526004016108fd90611c10565b60405180910390fd5b6000600260009054906101000a900473ffffffffffffffffffffffffffffffffffffffff1673ffffffffffffffffffffffffffffffffffffffff166370a08231856040518263ffffffff1660e01b81526004016109639190611a9b565b60206040518083038186803b15801561097b57600080fd5b505afa15801561098f573d6000803e3d6000fd5b505050506040513d601f19601f820116820180604052508101906109b3919061181b565b10156109f4576040517f08c379a00000000000000000000000000000000000000000000000000000000081526004016109eb90611bb0565b60405180910390fd5b6000806109ff610315565b915091506000826dffffffffffffffffffffffffffff1690506000826dffffffffffffffffffffffffffff1690506000600260009054906101000a900473ffffffffffffffffffffffffffffffffffffffff1673ffffffffffffffffffffffffffffffffffffffff166370a08231896040518263ffffffff1660e01b8152600401610a8a9190611a9b565b60206040518083038186803b158015610aa257600080fd5b505afa158015610ab6573d6000803e3d6000fd5b505050506040513d601f19601f82011682018060405250810190610ada919061181b565b9050600260009054906101000a900473ffffffffffffffffffffffffffffffffffffffff1673ffffffffffffffffffffffffffffffffffffffff166318160ddd6040518163ffffffff1660e01b815260040160206040518083038186803b158015610b4457600080fd5b505afa158015610b58573d6000803e3d6000fd5b505050506040513d601f19601f82011682018060405250810190610b7c919061181b565b6003819055506003548382610b919190611de5565b610b9b9190611db4565b96506003548282610bac9190611de5565b610bb69190611db4565b9550600087118015610bc85750600086115b610c07576040517f08c379a0000000000000000000000000000000000000000000000000000000008152600401610bfe90611c50565b60405180910390fd5b600260009054906101000a900473ffffffffffffffffffffffffffffffffffffffff1673ffffffffffffffffffffffffffffffffffffffff16639dc29fac89836040518363ffffffff1660e01b8152600401610c64929190611ab6565b602060405180830381600087803b158015610c7e57600080fd5b505af1158015610c92573d6000803e3d6000fd5b505050506040513d601f19601f82011682018060405250810190610cb691906117c1565b5060003373ffffffffffffffffffffffffffffffffffffffff1688604051610cdd90611a86565b60006040518083038185875af1925050503d8060008114610d1a576040519150601f19603f3d011682016040523d82523d6000602084013e610d1f565b606091505b5050905080610d63576040517f08c379a0000000000000000000000000000000000000000000000000000000008152600401610d5a90611c70565b60405180910390fd5b610d6d8888611580565b8873ffffffffffffffffffffffffffffffffffffffff167f254cba6bcaacd15ef1bba85e06c1d71c8cf7a3e036ad089903ba04bad25aaccc8989604051610db5929190611cd4565b60405180910390a25050505050506001600581905550915091565b600260009054906101000a900473ffffffffffffffffffffffffffffffffffffffff1681565b60008060009054906101000a900473ffffffffffffffffffffffffffffffffffffffff16905090565b600160009054906101000a900473ffffffffffffffffffffffffffffffffffffffff1681565b6103e881565b6000610e5561165f565b73ffffffffffffffffffffffffffffffffffffffff16610e73610df6565b73ffffffffffffffffffffffffffffffffffffffff1614610ec9576040517f08c379a0000000000000000000000000000000000000000000000000000000008152600401610ec090611c30565b60405180910390fd5b81600260006101000a81548173ffffffffffffffffffffffffffffffffffffffff021916908373ffffffffffffffffffffffffffffffffffffffff160217905550600260009054906101000a900473ffffffffffffffffffffffffffffffffffffffff1673ffffffffffffffffffffffffffffffffffffffff166318160ddd6040518163ffffffff1660e01b815260040160206040518083038186803b158015610f7257600080fd5b505afa158015610f86573d6000803e3d6000fd5b505050506040513d601f19601f82011682018060405250810190610faa919061181b565b6003819055506000600354141561108157600260009054906101000a900473ffffffffffffffffffffffffffffffffffffffff1673ffffffffffffffffffffffffffffffffffffffff166340c10f1930670de0b6b3a76400006103e86110109190611de5565b6040518363ffffffff1660e01b815260040161102d929190611ab6565b602060405180830381600087803b15801561104757600080fd5b505af115801561105b573d6000803e3d6000fd5b505050506040513d601f19601f8201168201806040525081019061107f91906117c1565b505b60019050919050565b6000806001600554146110d2576040517f08c379a00000000000000000000000000000000000000000000000000000000081526004016110c990611b90565b60405180910390fd5b6000600581905550600073ffffffffffffffffffffffffffffffffffffffff168373ffffffffffffffffffffffffffffffffffffffff16141561114a576040517f08c379a000000000000000000000000000000000000000000000000000000000815260040161114190611b50565b60405180910390fd5b6000600460009054906101000a90046dffffffffffffffffffffffffffff166dffffffffffffffffffffffffffff16905060006004600e9054906101000a90046dffffffffffffffffffffffffffff166dffffffffffffffffffffffffffff16905060003490506000341180156111c15750600087145b156111fd5780836111d29190611d5e565b82846111de9190611de5565b6111e89190611db4565b945084826111f69190611e3f565b93506112dd565b86826112099190611d5e565b82846112159190611de5565b61121f9190611db4565b9450848361122d9190611e3f565b935060008673ffffffffffffffffffffffffffffffffffffffff168560405161125590611a86565b60006040518083038185875af1925050503d8060008114611292576040519150601f19603f3d011682016040523d82523d6000602084013e611297565b606091505b50509050806112db576040517f08c379a00000000000000000000000000000000000000000000000000000000081526004016112d290611b70565b60405180910390fd5b505b6112e78383611580565b8573ffffffffffffffffffffffffffffffffffffffff163373ffffffffffffffffffffffffffffffffffffffff167fd78ad95fa46c994b6551d0da85fc275fe613ce37657fb8d5e3d130840159d822838a898a60405161134a9493929190611cfd565b60405180910390a350505060016005819055509250929050565b61136c61165f565b73ffffffffffffffffffffffffffffffffffffffff1661138a610df6565b73ffffffffffffffffffffffffffffffffffffffff16146113e0576040517f08c379a00000000000000000000000000000000000000000000000000000000081526004016113d790611c30565b60405180910390fd5b600073ffffffffffffffffffffffffffffffffffffffff168173ffffffffffffffffffffffffffffffffffffffff161415611450576040517f08c379a000000000000000000000000000000000000000000000000000000000815260040161144790611b30565b60405180910390fd5b61145981611667565b50565b6001600554146114a1576040517f08c379a000000000000000000000000000000000000000000000000000000000815260040161149890611b90565b60405180910390fd5b600060058190555061155d47600160009054906101000a900473ffffffffffffffffffffffffffffffffffffffff1673ffffffffffffffffffffffffffffffffffffffff166370a08231306040518263ffffffff1660e01b81526004016115089190611a9b565b60206040518083038186803b15801561152057600080fd5b505afa158015611534573d6000803e3d6000fd5b505050506040513d601f19601f82011682018060405250810190611558919061181b565b611580565b6001600581905550565b60008183106115765781611578565b825b905092915050565b81600460006101000a8154816dffffffffffffffffffffffffffff02191690836dffffffffffffffffffffffffffff160217905550806004600e6101000a8154816dffffffffffffffffffffffffffff02191690836dffffffffffffffffffffffffffff1602179055507f1c411e9a96e071241c2f21f7726b17ae89e3cab4c78be50e062b03a9fffbbad1600460009054906101000a90046dffffffffffffffffffffffffffff166004600e9054906101000a90046dffffffffffffffffffffffffffff16604051611653929190611c90565b60405180910390a15050565b600033905090565b60008060009054906101000a900473ffffffffffffffffffffffffffffffffffffffff169050816000806101000a81548173ffffffffffffffffffffffffffffffffffffffff021916908373ffffffffffffffffffffffffffffffffffffffff1602179055508173ffffffffffffffffffffffffffffffffffffffff168173ffffffffffffffffffffffffffffffffffffffff167f8be0079c531659141344cd1fd0a4f28419497f9722a3daafe3b4186f6b6457e060405160405180910390a35050565b60008135905061173a816121a4565b92915050565b60008151905061174f816121bb565b92915050565b600081359050611764816121d2565b92915050565b600081359050611779816121e9565b92915050565b60008151905061178e816121e9565b92915050565b6000602082840312156117aa576117a9611f8d565b5b60006117b88482850161172b565b91505092915050565b6000602082840312156117d7576117d6611f8d565b5b60006117e584828501611740565b91505092915050565b60006020828403121561180457611803611f8d565b5b600061181284828501611755565b91505092915050565b60006020828403121561183157611830611f8d565b5b600061183f8482850161177f565b91505092915050565b6000806040838503121561185f5761185e611f8d565b5b600061186d8582860161176a565b925050602061187e8582860161172b565b9150509250929050565b61189181611e73565b82525050565b6118a081611e85565b82525050565b6118af81611ee7565b82525050565b6118be81611ef9565b82525050565b60006118d1602683611d4d565b91506118dc82611f92565b604082019050919050565b60006118f4600a83611d4d565b91506118ff82611fe1565b602082019050919050565b6000611917602083611d4d565b91506119228261200a565b602082019050919050565b600061193a601183611d4d565b915061194582612033565b602082019050919050565b600061195d601b83611d4d565b91506119688261205c565b602082019050919050565b6000611980601d83611d4d565b915061198b82612085565b602082019050919050565b60006119a3600a83611d4d565b91506119ae826120ae565b602082019050919050565b60006119c6600a83611d4d565b91506119d1826120d7565b602082019050919050565b60006119e9602083611d4d565b91506119f482612100565b602082019050919050565b6000611a0c601d83611d4d565b9150611a1782612129565b602082019050919050565b6000611a2f600083611d42565b9150611a3a82612152565b600082019050919050565b6000611a52602783611d4d565b9150611a5d82612155565b604082019050919050565b611a7181611ea3565b82525050565b611a8081611edd565b82525050565b6000611a9182611a22565b9150819050919050565b6000602082019050611ab06000830184611888565b92915050565b6000604082019050611acb6000830185611888565b611ad86020830184611a77565b9392505050565b6000602082019050611af46000830184611897565b92915050565b6000602082019050611b0f60008301846118a6565b92915050565b6000602082019050611b2a60008301846118b5565b92915050565b60006020820190508181036000830152611b49816118c4565b9050919050565b60006020820190508181036000830152611b69816118e7565b9050919050565b60006020820190508181036000830152611b898161190a565b9050919050565b60006020820190508181036000830152611ba98161192d565b9050919050565b60006020820190508181036000830152611bc981611950565b9050919050565b60006020820190508181036000830152611be981611973565b9050919050565b60006020820190508181036000830152611c0981611996565b9050919050565b60006020820190508181036000830152611c29816119b9565b9050919050565b60006020820190508181036000830152611c49816119dc565b9050919050565b60006020820190508181036000830152611c69816119ff565b9050919050565b60006020820190508181036000830152611c8981611a45565b9050919050565b6000604082019050611ca56000830185611a68565b611cb26020830184611a68565b9392505050565b6000602082019050611cce6000830184611a77565b92915050565b6000604082019050611ce96000830185611a77565b611cf66020830184611a77565b9392505050565b6000608082019050611d126000830187611a77565b611d1f6020830186611a77565b611d2c6040830185611a77565b611d396060830184611a77565b95945050505050565b600081905092915050565b600082825260208201905092915050565b6000611d6982611edd565b9150611d7483611edd565b9250827fffffffffffffffffffffffffffffffffffffffffffffffffffffffffffffffff03821115611da957611da8611f2f565b5b828201905092915050565b6000611dbf82611edd565b9150611dca83611edd565b925082611dda57611dd9611f5e565b5b828204905092915050565b6000611df082611edd565b9150611dfb83611edd565b9250817fffffffffffffffffffffffffffffffffffffffffffffffffffffffffffffffff0483118215151615611e3457611e33611f2f565b5b828202905092915050565b6000611e4a82611edd565b9150611e5583611edd565b925082821015611e6857611e67611f2f565b5b828203905092915050565b6000611e7e82611ebd565b9050919050565b60008115159050919050565b6000611e9c82611e73565b9050919050565b60006dffffffffffffffffffffffffffff82169050919050565b600073ffffffffffffffffffffffffffffffffffffffff82169050919050565b6000819050919050565b6000611ef282611f0b565b9050919050565b6000611f0482611f0b565b9050919050565b6000611f1682611f1d565b9050919050565b6000611f2882611ebd565b9050919050565b7f4e487b7100000000000000000000000000000000000000000000000000000000600052601160045260246000fd5b7f4e487b7100000000000000000000000000000000000000000000000000000000600052601260045260246000fd5b600080fd5b7f4f776e61626c653a206e6577206f776e657220697320746865207a65726f206160008201527f6464726573730000000000000000000000000000000000000000000000000000602082015250565b7f535741505f4552524f5200000000000000000000000000000000000000000000600082015250565b7f4554485f5452414e534645525f46524f4d5f535043504f4f4c5f4641494c4544600082015250565b7f5370616365506f6f6c3a204c4f434b4544000000000000000000000000000000600082015250565b7f4e4f5f544f4b454e535f415641494c41424c455f544f5f4255524e0000000000600082015250565b7f494e53554646494349454e545f4c49515549444954595f4d494e544544000000600082015250565b7f4d494e545f4552524f5200000000000000000000000000000000000000000000600082015250565b7f4255524e5f4552524f5200000000000000000000000000000000000000000000600082015250565b7f4f776e61626c653a2063616c6c6572206973206e6f7420746865206f776e6572600082015250565b7f494e53554646494349454e545f4c49515549444954595f4255524e4544000000600082015250565b50565b7f4554485f5452414e534645525f46524f4d5f504f4f4c5f544f5f524f5554455260008201527f5f4641494c454400000000000000000000000000000000000000000000000000602082015250565b6121ad81611e73565b81146121b857600080fd5b50565b6121c481611e85565b81146121cf57600080fd5b50565b6121db81611e91565b81146121e657600080fd5b50565b6121f281611edd565b81146121fd57600080fd5b5056fea2646970667358221220ceb9fb80e0c627aee73a33a8c126be12e036ac4deff7382ebee8ce5547b4e99864736f6c63430008070033",
  "linkReferences": {},
  "deployedLinkReferences": {}
}