{
  "_format": "hh-sol-artifact-1",
  "contractName": "SpacePool",
  "sourceName": "contracts/SpacePool.sol",
  "abi": [
    {
      "inputs": [
        {
          "internalType": "contract SpaceCoin",
          "name": "spaceCoin",
          "type": "address"
        },
        {
          "internalType": "contract SpacePoolCoin",
          "name": "spacePoolCoin",
          "type": "address"
        }
      ],
      "stateMutability": "nonpayable",
      "type": "constructor"
    },
    {
      "anonymous": false,
      "inputs": [
        {
          "indexed": false,
          "internalType": "uint256",
          "name": "amount0",
          "type": "uint256"
        },
        {
          "indexed": false,
          "internalType": "uint256",
          "name": "amount1",
          "type": "uint256"
        },
        {
          "indexed": true,
          "internalType": "address",
          "name": "to",
          "type": "address"
        }
      ],
      "name": "Burn",
      "type": "event"
    },
    {
      "anonymous": false,
      "inputs": [
        {
          "indexed": true,
          "internalType": "address",
          "name": "sender",
          "type": "address"
        },
        {
          "indexed": false,
          "internalType": "uint256",
          "name": "amount0",
          "type": "uint256"
        },
        {
          "indexed": false,
          "internalType": "uint256",
          "name": "amount1",
          "type": "uint256"
        }
      ],
      "name": "Mint",
      "type": "event"
    },
    {
      "anonymous": false,
      "inputs": [
        {
          "indexed": true,
          "internalType": "address",
          "name": "previousOwner",
          "type": "address"
        },
        {
          "indexed": true,
          "internalType": "address",
          "name": "newOwner",
          "type": "address"
        }
      ],
      "name": "OwnershipTransferred",
      "type": "event"
    },
    {
      "anonymous": false,
      "inputs": [
        {
          "indexed": true,
          "internalType": "address",
          "name": "sender",
          "type": "address"
        },
        {
          "indexed": false,
          "internalType": "uint256",
          "name": "amount0In",
          "type": "uint256"
        },
        {
          "indexed": false,
          "internalType": "uint256",
          "name": "amount1In",
          "type": "uint256"
        },
        {
          "indexed": false,
          "internalType": "uint256",
          "name": "amount0Out",
          "type": "uint256"
        },
        {
          "indexed": false,
          "internalType": "uint256",
          "name": "amount1Out",
          "type": "uint256"
        },
        {
          "indexed": true,
          "internalType": "address",
          "name": "to",
          "type": "address"
        }
      ],
      "name": "Swap",
      "type": "event"
    },
    {
      "anonymous": false,
      "inputs": [
        {
          "indexed": false,
          "internalType": "uint112",
          "name": "reserve0",
          "type": "uint112"
        },
        {
          "indexed": false,
          "internalType": "uint112",
          "name": "reserve1",
          "type": "uint112"
        }
      ],
      "name": "Sync",
      "type": "event"
    },
    {
      "inputs": [],
      "name": "MINIMUM_LIQUIDITY",
      "outputs": [
        {
          "internalType": "uint256",
          "name": "",
          "type": "uint256"
        }
      ],
      "stateMutability": "view",
      "type": "function"
    },
    {
      "inputs": [],
      "name": "_spaceCoin",
      "outputs": [
        {
          "internalType": "contract SpaceCoin",
          "name": "",
          "type": "address"
        }
      ],
      "stateMutability": "view",
      "type": "function"
    },
    {
      "inputs": [],
      "name": "_spacePoolCoin",
      "outputs": [
        {
          "internalType": "contract SpacePoolCoin",
          "name": "",
          "type": "address"
        }
      ],
      "stateMutability": "view",
      "type": "function"
    },
    {
      "inputs": [
        {
          "internalType": "address",
          "name": "to",
          "type": "address"
        }
      ],
      "name": "burn",
      "outputs": [
        {
          "internalType": "uint256",
          "name": "amount0",
          "type": "uint256"
        },
        {
          "internalType": "uint256",
          "name": "amount1",
          "type": "uint256"
        }
      ],
      "stateMutability": "nonpayable",
      "type": "function"
    },
    {
      "inputs": [],
      "name": "getBalance",
      "outputs": [
        {
          "internalType": "uint256",
          "name": "",
          "type": "uint256"
        }
      ],
      "stateMutability": "view",
      "type": "function"
    },
    {
      "inputs": [],
      "name": "getReserves",
      "outputs": [
        {
          "internalType": "uint112",
          "name": "_reserve0",
          "type": "uint112"
        },
        {
          "internalType": "uint112",
          "name": "_reserve1",
          "type": "uint112"
        }
      ],
      "stateMutability": "view",
      "type": "function"
    },
    {
      "inputs": [
        {
          "internalType": "address",
          "name": "to",
          "type": "address"
        }
      ],
      "name": "mint",
      "outputs": [
        {
          "internalType": "uint256",
          "name": "liquidity",
          "type": "uint256"
        }
      ],
      "stateMutability": "nonpayable",
      "type": "function"
    },
    {
      "inputs": [],
      "name": "owner",
      "outputs": [
        {
          "internalType": "address",
          "name": "",
          "type": "address"
        }
      ],
      "stateMutability": "view",
      "type": "function"
    },
    {
      "inputs": [],
      "name": "renounceOwnership",
      "outputs": [],
      "stateMutability": "nonpayable",
      "type": "function"
    },
    {
      "inputs": [
        {
          "internalType": "uint256",
          "name": "spaceCoins",
          "type": "uint256"
        },
        {
          "internalType": "address",
          "name": "to",
          "type": "address"
        }
      ],
      "name": "swap",
      "outputs": [
        {
          "internalType": "uint256",
          "name": "amountOut",
          "type": "uint256"
        },
        {
          "internalType": "uint256",
          "name": "slippage",
          "type": "uint256"
        }
      ],
      "stateMutability": "payable",
      "type": "function"
    },
    {
      "inputs": [],
      "name": "sync",
      "outputs": [],
      "stateMutability": "nonpayable",
      "type": "function"
    },
    {
      "inputs": [
        {
          "internalType": "address",
          "name": "newOwner",
          "type": "address"
        }
      ],
      "name": "transferOwnership",
      "outputs": [],
      "stateMutability": "nonpayable",
      "type": "function"
    },
    {
      "stateMutability": "payable",
      "type": "receive"
    }
  ],
  "bytecode": "0x608060405260016005553480156200001657600080fd5b50604051620022433803806200224383398181016040528101906200003c9190620003c4565b6200005c620000506200026a60201b60201c565b6200027260201b60201c565b81600160006101000a81548173ffffffffffffffffffffffffffffffffffffffff021916908373ffffffffffffffffffffffffffffffffffffffff16021790555080600260006101000a81548173ffffffffffffffffffffffffffffffffffffffff021916908373ffffffffffffffffffffffffffffffffffffffff160217905550600260009054906101000a900473ffffffffffffffffffffffffffffffffffffffff1673ffffffffffffffffffffffffffffffffffffffff166318160ddd6040518163ffffffff1660e01b815260040160206040518083038186803b1580156200014757600080fd5b505afa1580156200015c573d6000803e3d6000fd5b505050506040513d601f19601f820116820180604052508101906200018291906200040b565b600381905550600060035414156200026257600260009054906101000a900473ffffffffffffffffffffffffffffffffffffffff1673ffffffffffffffffffffffffffffffffffffffff166340c10f1930670de0b6b3a76400006103e8620001eb91906200048c565b6040518363ffffffff1660e01b81526004016200020a9291906200045f565b602060405180830381600087803b1580156200022557600080fd5b505af11580156200023a573d6000803e3d6000fd5b505050506040513d601f19601f8201168201806040525081019062000260919062000392565b505b5050620005fb565b600033905090565b60008060009054906101000a900473ffffffffffffffffffffffffffffffffffffffff169050816000806101000a81548173ffffffffffffffffffffffffffffffffffffffff021916908373ffffffffffffffffffffffffffffffffffffffff1602179055508173ffffffffffffffffffffffffffffffffffffffff168173ffffffffffffffffffffffffffffffffffffffff167f8be0079c531659141344cd1fd0a4f28419497f9722a3daafe3b4186f6b6457e060405160405180910390a35050565b600081519050620003478162000593565b92915050565b6000815190506200035e81620005ad565b92915050565b6000815190506200037581620005c7565b92915050565b6000815190506200038c81620005e1565b92915050565b600060208284031215620003ab57620003aa6200058e565b5b6000620003bb8482850162000336565b91505092915050565b60008060408385031215620003de57620003dd6200058e565b5b6000620003ee858286016200034d565b9250506020620004018582860162000364565b9150509250929050565b6000602082840312156200042457620004236200058e565b5b600062000434848285016200037b565b91505092915050565b6200044881620004ed565b82525050565b620004598162000555565b82525050565b60006040820190506200047660008301856200043d565b6200048560208301846200044e565b9392505050565b6000620004998262000555565b9150620004a68362000555565b9250817fffffffffffffffffffffffffffffffffffffffffffffffffffffffffffffffff0483118215151615620004e257620004e16200055f565b5b828202905092915050565b6000620004fa8262000535565b9050919050565b60008115159050919050565b60006200051a82620004ed565b9050919050565b60006200052e82620004ed565b9050919050565b600073ffffffffffffffffffffffffffffffffffffffff82169050919050565b6000819050919050565b7f4e487b7100000000000000000000000000000000000000000000000000000000600052601160045260246000fd5b600080fd5b6200059e8162000501565b8114620005aa57600080fd5b50565b620005b8816200050d565b8114620005c457600080fd5b50565b620005d28162000521565b8114620005de57600080fd5b50565b620005ec8162000555565b8114620005f857600080fd5b50565b611c38806200060b6000396000f3fe6080604052600436106100ab5760003560e01c80638da5cb5b116100645780638da5cb5b146101cb578063906c0ba7146101f6578063ba9a7a5614610221578063d3986f081461024c578063f2fde38b1461027d578063fff6cae9146102a6576100b2565b80630902f1ac146100b757806312065fe0146100e35780636a6278421461010e578063715018a61461014b57806389afcb44146101625780638a358bf5146101a0576100b2565b366100b257005b600080fd5b3480156100c357600080fd5b506100cc6102bd565b6040516100da9291906116ed565b60405180910390f35b3480156100ef57600080fd5b506100f8610302565b6040516101059190611716565b60405180910390f35b34801561011a57600080fd5b5061013560048036038101906101309190611354565b61030a565b6040516101429190611716565b60405180910390f35b34801561015757600080fd5b506101606106f6565b005b34801561016e57600080fd5b5061018960048036038101906101849190611354565b61077e565b604051610197929190611731565b60405180910390f35b3480156101ac57600080fd5b506101b5610c54565b6040516101c291906115f2565b60405180910390f35b3480156101d757600080fd5b506101e0610c7a565b6040516101ed9190611593565b60405180910390f35b34801561020257600080fd5b5061020b610ca3565b60405161021891906115d7565b60405180910390f35b34801561022d57600080fd5b50610236610cc9565b6040516102439190611716565b60405180910390f35b610266600480360381019061026191906113db565b610ccf565b604051610274929190611731565b60405180910390f35b34801561028957600080fd5b506102a4600480360381019061029f9190611354565b610f39565b005b3480156102b257600080fd5b506102bb611031565b005b600080600460009054906101000a90046dffffffffffffffffffffffffffff1691506004600e9054906101000a90046dffffffffffffffffffffffffffff1690509091565b600047905090565b6000600160055414610351576040517f08c379a00000000000000000000000000000000000000000000000000000000081526004016103489061164d565b60405180910390fd5b60006005819055506000806103646102bd565b91509150600260009054906101000a900473ffffffffffffffffffffffffffffffffffffffff1673ffffffffffffffffffffffffffffffffffffffff166318160ddd6040518163ffffffff1660e01b815260040160206040518083038186803b1580156103d057600080fd5b505afa1580156103e4573d6000803e3d6000fd5b505050506040513d601f19601f8201168201806040525081019061040891906113ae565b60038190555060004790506000600160009054906101000a900473ffffffffffffffffffffffffffffffffffffffff1673ffffffffffffffffffffffffffffffffffffffff166370a08231306040518263ffffffff1660e01b81526004016104709190611593565b60206040518083038186803b15801561048857600080fd5b505afa15801561049c573d6000803e3d6000fd5b505050506040513d601f19601f820116820180604052508101906104c091906113ae565b90506000600460009054906101000a90046dffffffffffffffffffffffffffff166dffffffffffffffffffffffffffff16836104fc919061189c565b905060006004600e9054906101000a90046dffffffffffffffffffffffffffff166dffffffffffffffffffffffffffff1683610538919061189c565b9050610594866dffffffffffffffffffffffffffff166003548461055c9190611842565b6105669190611811565b866dffffffffffffffffffffffffffff16600354846105859190611842565b61058f9190611811565b61113c565b9650600087116105d9576040517f08c379a00000000000000000000000000000000000000000000000000000000081526004016105d09061166d565b60405180910390fd5b600260009054906101000a900473ffffffffffffffffffffffffffffffffffffffff1673ffffffffffffffffffffffffffffffffffffffff166340c10f1989896040518363ffffffff1660e01b81526004016106369291906115ae565b602060405180830381600087803b15801561065057600080fd5b505af1158015610664573d6000803e3d6000fd5b505050506040513d601f19601f820116820180604052508101906106889190611381565b506106938484611155565b8773ffffffffffffffffffffffffffffffffffffffff167f4c209b5fc8ad50758f13e2e1088ba56a560dff690a1c6fef26394f4c03821c4f85836040516106db929190611731565b60405180910390a25050505050506001600581905550919050565b6106fe611234565b73ffffffffffffffffffffffffffffffffffffffff1661071c610c7a565b73ffffffffffffffffffffffffffffffffffffffff1614610772576040517f08c379a0000000000000000000000000000000000000000000000000000000008152600401610769906116ad565b60405180910390fd5b61077c600061123c565b565b6000806001600554146107c6576040517f08c379a00000000000000000000000000000000000000000000000000000000081526004016107bd9061164d565b60405180910390fd5b60006005819055506000806107d96102bd565b915091506000826dffffffffffffffffffffffffffff1690506000826dffffffffffffffffffffffffffff1690506000600260009054906101000a900473ffffffffffffffffffffffffffffffffffffffff1673ffffffffffffffffffffffffffffffffffffffff166370a08231896040518263ffffffff1660e01b81526004016108649190611593565b60206040518083038186803b15801561087c57600080fd5b505afa158015610890573d6000803e3d6000fd5b505050506040513d601f19601f820116820180604052508101906108b491906113ae565b9050600260009054906101000a900473ffffffffffffffffffffffffffffffffffffffff1673ffffffffffffffffffffffffffffffffffffffff166318160ddd6040518163ffffffff1660e01b815260040160206040518083038186803b15801561091e57600080fd5b505afa158015610932573d6000803e3d6000fd5b505050506040513d601f19601f8201168201806040525081019061095691906113ae565b600381905550600354838261096b9190611842565b6109759190611811565b965060035482826109869190611842565b6109909190611811565b95506000871180156109a25750600086115b6109e1576040517f08c379a00000000000000000000000000000000000000000000000000000000081526004016109d8906116cd565b60405180910390fd5b600260009054906101000a900473ffffffffffffffffffffffffffffffffffffffff1673ffffffffffffffffffffffffffffffffffffffff16639dc29fac89836040518363ffffffff1660e01b8152600401610a3e9291906115ae565b602060405180830381600087803b158015610a5857600080fd5b505af1158015610a6c573d6000803e3d6000fd5b505050506040513d601f19601f82011682018060405250810190610a909190611381565b5060008873ffffffffffffffffffffffffffffffffffffffff1688604051610ab79061157e565b60006040518083038185875af1925050503d8060008114610af4576040519150601f19603f3d011682016040523d82523d6000602084013e610af9565b606091505b5050905080610b3d576040517f08c379a0000000000000000000000000000000000000000000000000000000008152600401610b349061160d565b60405180910390fd5b610bf147600160009054906101000a900473ffffffffffffffffffffffffffffffffffffffff1673ffffffffffffffffffffffffffffffffffffffff166370a08231306040518263ffffffff1660e01b8152600401610b9c9190611593565b60206040518083038186803b158015610bb457600080fd5b505afa158015610bc8573d6000803e3d6000fd5b505050506040513d601f19601f82011682018060405250810190610bec91906113ae565b611155565b8873ffffffffffffffffffffffffffffffffffffffff167f254cba6bcaacd15ef1bba85e06c1d71c8cf7a3e036ad089903ba04bad25aaccc8989604051610c39929190611731565b60405180910390a25050505050506001600581905550915091565b600260009054906101000a900473ffffffffffffffffffffffffffffffffffffffff1681565b60008060009054906101000a900473ffffffffffffffffffffffffffffffffffffffff16905090565b600160009054906101000a900473ffffffffffffffffffffffffffffffffffffffff1681565b6103e881565b600080600160055414610d17576040517f08c379a0000000000000000000000000000000000000000000000000000000008152600401610d0e9061164d565b60405180910390fd5b60006005819055506000600460009054906101000a90046dffffffffffffffffffffffffffff166dffffffffffffffffffffffffffff16905060006004600e9054906101000a90046dffffffffffffffffffffffffffff166dffffffffffffffffffffffffffff1690506000349050600034118015610d965750600087145b15610dd2578083610da791906117bb565b8284610db39190611842565b610dbd9190611811565b94508482610dcb919061189c565b9350610eb2565b8682610dde91906117bb565b8284610dea9190611842565b610df49190611811565b94508483610e02919061189c565b935060008673ffffffffffffffffffffffffffffffffffffffff1685604051610e2a9061157e565b60006040518083038185875af1925050503d8060008114610e67576040519150601f19603f3d011682016040523d82523d6000602084013e610e6c565b606091505b5050905080610eb0576040517f08c379a0000000000000000000000000000000000000000000000000000000008152600401610ea79061168d565b60405180910390fd5b505b610ebc8383611155565b8573ffffffffffffffffffffffffffffffffffffffff163373ffffffffffffffffffffffffffffffffffffffff167fd78ad95fa46c994b6551d0da85fc275fe613ce37657fb8d5e3d130840159d822838a898a604051610f1f949392919061175a565b60405180910390a350505060016005819055509250929050565b610f41611234565b73ffffffffffffffffffffffffffffffffffffffff16610f5f610c7a565b73ffffffffffffffffffffffffffffffffffffffff1614610fb5576040517f08c379a0000000000000000000000000000000000000000000000000000000008152600401610fac906116ad565b60405180910390fd5b600073ffffffffffffffffffffffffffffffffffffffff168173ffffffffffffffffffffffffffffffffffffffff161415611025576040517f08c379a000000000000000000000000000000000000000000000000000000000815260040161101c9061162d565b60405180910390fd5b61102e8161123c565b50565b600160055414611076576040517f08c379a000000000000000000000000000000000000000000000000000000000815260040161106d9061164d565b60405180910390fd5b600060058190555061113247600160009054906101000a900473ffffffffffffffffffffffffffffffffffffffff1673ffffffffffffffffffffffffffffffffffffffff166370a08231306040518263ffffffff1660e01b81526004016110dd9190611593565b60206040518083038186803b1580156110f557600080fd5b505afa158015611109573d6000803e3d6000fd5b505050506040513d601f19601f8201168201806040525081019061112d91906113ae565b611155565b6001600581905550565b600081831061114b578161114d565b825b905092915050565b81600460006101000a8154816dffffffffffffffffffffffffffff02191690836dffffffffffffffffffffffffffff160217905550806004600e6101000a8154816dffffffffffffffffffffffffffff02191690836dffffffffffffffffffffffffffff1602179055507f1c411e9a96e071241c2f21f7726b17ae89e3cab4c78be50e062b03a9fffbbad1600460009054906101000a90046dffffffffffffffffffffffffffff166004600e9054906101000a90046dffffffffffffffffffffffffffff166040516112289291906116ed565b60405180910390a15050565b600033905090565b60008060009054906101000a900473ffffffffffffffffffffffffffffffffffffffff169050816000806101000a81548173ffffffffffffffffffffffffffffffffffffffff021916908373ffffffffffffffffffffffffffffffffffffffff1602179055508173ffffffffffffffffffffffffffffffffffffffff168173ffffffffffffffffffffffffffffffffffffffff167f8be0079c531659141344cd1fd0a4f28419497f9722a3daafe3b4186f6b6457e060405160405180910390a35050565b60008135905061130f81611bbd565b92915050565b60008151905061132481611bd4565b92915050565b60008135905061133981611beb565b92915050565b60008151905061134e81611beb565b92915050565b60006020828403121561136a576113696119d8565b5b600061137884828501611300565b91505092915050565b600060208284031215611397576113966119d8565b5b60006113a584828501611315565b91505092915050565b6000602082840312156113c4576113c36119d8565b5b60006113d28482850161133f565b91505092915050565b600080604083850312156113f2576113f16119d8565b5b60006114008582860161132a565b925050602061141185828601611300565b9150509250929050565b611424816118d0565b82525050565b61143381611932565b82525050565b61144281611944565b82525050565b60006114556037836117aa565b9150611460826119dd565b604082019050919050565b60006114786026836117aa565b915061148382611a2c565b604082019050919050565b600061149b6011836117aa565b91506114a682611a7b565b602082019050919050565b60006114be602d836117aa565b91506114c982611aa4565b604082019050919050565b60006114e16036836117aa565b91506114ec82611af3565b604082019050919050565b60006115046020836117aa565b915061150f82611b42565b602082019050919050565b600061152760008361179f565b915061153282611b6b565b600082019050919050565b600061154a602d836117aa565b915061155582611b6e565b604082019050919050565b611569816118ee565b82525050565b61157881611928565b82525050565b60006115898261151a565b9150819050919050565b60006020820190506115a8600083018461141b565b92915050565b60006040820190506115c3600083018561141b565b6115d0602083018461156f565b9392505050565b60006020820190506115ec600083018461142a565b92915050565b60006020820190506116076000830184611439565b92915050565b6000602082019050818103600083015261162681611448565b9050919050565b600060208201905081810360008301526116468161146b565b9050919050565b600060208201905081810360008301526116668161148e565b9050919050565b60006020820190508181036000830152611686816114b1565b9050919050565b600060208201905081810360008301526116a6816114d4565b9050919050565b600060208201905081810360008301526116c6816114f7565b9050919050565b600060208201905081810360008301526116e68161153d565b9050919050565b60006040820190506117026000830185611560565b61170f6020830184611560565b9392505050565b600060208201905061172b600083018461156f565b92915050565b6000604082019050611746600083018561156f565b611753602083018461156f565b9392505050565b600060808201905061176f600083018761156f565b61177c602083018661156f565b611789604083018561156f565b611796606083018461156f565b95945050505050565b600081905092915050565b600082825260208201905092915050565b60006117c682611928565b91506117d183611928565b9250827fffffffffffffffffffffffffffffffffffffffffffffffffffffffffffffffff038211156118065761180561197a565b5b828201905092915050565b600061181c82611928565b915061182783611928565b925082611837576118366119a9565b5b828204905092915050565b600061184d82611928565b915061185883611928565b9250817fffffffffffffffffffffffffffffffffffffffffffffffffffffffffffffffff04831182151516156118915761189061197a565b5b828202905092915050565b60006118a782611928565b91506118b283611928565b9250828210156118c5576118c461197a565b5b828203905092915050565b60006118db82611908565b9050919050565b60008115159050919050565b60006dffffffffffffffffffffffffffff82169050919050565b600073ffffffffffffffffffffffffffffffffffffffff82169050919050565b6000819050919050565b600061193d82611956565b9050919050565b600061194f82611956565b9050919050565b600061196182611968565b9050919050565b600061197382611908565b9050919050565b7f4e487b7100000000000000000000000000000000000000000000000000000000600052601160045260246000fd5b7f4e487b7100000000000000000000000000000000000000000000000000000000600052601260045260246000fd5b600080fd5b7f5370616365506f6f6c3a3a6275726e204554485f5452414e534645525f46524f60008201527f4d5f504f4f4c5f544f5f53454e4445525f4641494c4544000000000000000000602082015250565b7f4f776e61626c653a206e6577206f776e657220697320746865207a65726f206160008201527f6464726573730000000000000000000000000000000000000000000000000000602082015250565b7f5370616365506f6f6c3a204c4f434b4544000000000000000000000000000000600082015250565b7f5370616365506f6f6c3a3a6d696e7420494e53554646494349454e545f4c495160008201527f5549444954595f4d494e54454400000000000000000000000000000000000000602082015250565b7f5370616365506f6f6c3a3a73776170546f6b656e73204554485f5452414e534660008201527f45525f46524f4d5f535043504f4f4c5f4641494c454400000000000000000000602082015250565b7f4f776e61626c653a2063616c6c6572206973206e6f7420746865206f776e6572600082015250565b50565b7f5370616365506f6f6c3a3a6275726e20494e53554646494349454e545f4c495160008201527f5549444954595f4255524e454400000000000000000000000000000000000000602082015250565b611bc6816118d0565b8114611bd157600080fd5b50565b611bdd816118e2565b8114611be857600080fd5b50565b611bf481611928565b8114611bff57600080fd5b5056fea2646970667358221220244b1f0b69c7f786ee3df274d7a9f3dfc538c7acc20fbcdb60f26d71bc63807a64736f6c63430008070033",
  "linkReferences": {},
  "deployedLinkReferences": {}
}