{
  "_format": "hh-sol-artifact-1",
  "contractName": "SpaceRouter",
  "sourceName": "contracts/SpaceRouter.sol",
  "abi": [
    {
      "inputs": [
        {
          "internalType": "contract SpacePool",
          "name": "spacePool",
          "type": "address"
        },
        {
          "internalType": "contract SpaceCoin",
          "name": "spaceCoin",
          "type": "address"
        }
      ],
      "stateMutability": "nonpayable",
      "type": "constructor"
    },
    {
      "inputs": [
        {
          "internalType": "uint256",
          "name": "spaceCoins",
          "type": "uint256"
        }
      ],
      "name": "addLiquidity",
      "outputs": [
        {
          "internalType": "uint256",
          "name": "amountA",
          "type": "uint256"
        },
        {
          "internalType": "uint256",
          "name": "amountB",
          "type": "uint256"
        },
        {
          "internalType": "uint256",
          "name": "liquidity",
          "type": "uint256"
        }
      ],
      "stateMutability": "payable",
      "type": "function"
    },
    {
      "inputs": [
        {
          "internalType": "uint256",
          "name": "amountInA",
          "type": "uint256"
        },
        {
          "internalType": "uint256",
          "name": "amountInB",
          "type": "uint256"
        }
      ],
      "name": "quote",
      "outputs": [
        {
          "internalType": "uint256",
          "name": "amountA",
          "type": "uint256"
        },
        {
          "internalType": "uint256",
          "name": "amountB",
          "type": "uint256"
        }
      ],
      "stateMutability": "view",
      "type": "function"
    },
    {
      "inputs": [],
      "name": "removeLiquidity",
      "outputs": [
        {
          "internalType": "uint256",
          "name": "amountA",
          "type": "uint256"
        },
        {
          "internalType": "uint256",
          "name": "amountB",
          "type": "uint256"
        }
      ],
      "stateMutability": "payable",
      "type": "function"
    },
    {
      "inputs": [
        {
          "internalType": "uint256",
          "name": "spaceCoins",
          "type": "uint256"
        }
      ],
      "name": "swapTokens",
      "outputs": [
        {
          "internalType": "uint256",
          "name": "amountOut",
          "type": "uint256"
        }
      ],
      "stateMutability": "payable",
      "type": "function"
    },
    {
      "stateMutability": "payable",
      "type": "receive"
    }
  ],
  "bytecode": "0x60806040523480156200001157600080fd5b5060405162002014380380620020148339818101604052810190620000379190620000ee565b816000806101000a81548173ffffffffffffffffffffffffffffffffffffffff021916908373ffffffffffffffffffffffffffffffffffffffff16021790555080600160006101000a81548173ffffffffffffffffffffffffffffffffffffffff021916908373ffffffffffffffffffffffffffffffffffffffff1602179055505050620001de565b600081519050620000d181620001aa565b92915050565b600081519050620000e881620001c4565b92915050565b60008060408385031215620001085762000107620001a5565b5b60006200011885828601620000d7565b92505060206200012b85828601620000c0565b9150509250929050565b6000620001428262000185565b9050919050565b6000620001568262000185565b9050919050565b60006200016a8262000135565b9050919050565b60006200017e8262000149565b9050919050565b600073ffffffffffffffffffffffffffffffffffffffff82169050919050565b600080fd5b620001b5816200015d565b8114620001c157600080fd5b50565b620001cf8162000171565b8114620001db57600080fd5b50565b611e2680620001ee6000396000f3fe6080604052600436106100435760003560e01c8063315f1a411461004f57806351c6590a1461008d57806367b9a286146100bf578063fe784eaa146100de5761004a565b3661004a57005b600080fd5b34801561005b57600080fd5b50610076600480360381019061007191906113cf565b61010e565b604051610084929190611897565b60405180910390f35b6100a760048036038101906100a29190611375565b61012a565b6040516100b6939291906118c0565b60405180910390f35b6100c76105e7565b6040516100d5929190611897565b60405180910390f35b6100f860048036038101906100f39190611375565b610935565b6040516101059190611853565b60405180910390f35b60008061011b84846110ba565b80925081935050509250929050565b600080600061013934856110ba565b80935081945050506000841180156101515750600034115b610190576040517f08c379a0000000000000000000000000000000000000000000000000000000008152600401610187906117b3565b60405180910390fd5b6000600160009054906101000a900473ffffffffffffffffffffffffffffffffffffffff1673ffffffffffffffffffffffffffffffffffffffff166370a08231336040518263ffffffff1660e01b81526004016101ed9190611658565b60206040518083038186803b15801561020557600080fd5b505afa158015610219573d6000803e3d6000fd5b505050506040513d601f19601f8201168201806040525081019061023d91906113a2565b1161027d576040517f08c379a000000000000000000000000000000000000000000000000000000000815260040161027490611733565b60405180910390fd5b60008060009054906101000a900473ffffffffffffffffffffffffffffffffffffffff1673ffffffffffffffffffffffffffffffffffffffff16846040516102c490611643565b60006040518083038185875af1925050503d8060008114610301576040519150601f19603f3d011682016040523d82523d6000602084013e610306565b606091505b505090508061034a576040517f08c379a0000000000000000000000000000000000000000000000000000000008152600401610341906116d3565b60405180910390fd5b600160009054906101000a900473ffffffffffffffffffffffffffffffffffffffff1673ffffffffffffffffffffffffffffffffffffffff1663d83a2bf33360008054906101000a900473ffffffffffffffffffffffffffffffffffffffff16866040518463ffffffff1660e01b81526004016103c993929190611673565b602060405180830381600087803b1580156103e357600080fd5b505af11580156103f7573d6000803e3d6000fd5b505050506040513d601f19601f8201168201806040525081019061041b9190611308565b506000600160009054906101000a900473ffffffffffffffffffffffffffffffffffffffff1673ffffffffffffffffffffffffffffffffffffffff166323b872dd3360008054906101000a900473ffffffffffffffffffffffffffffffffffffffff16876040518463ffffffff1660e01b815260040161049d93929190611673565b602060405180830381600087803b1580156104b757600080fd5b505af11580156104cb573d6000803e3d6000fd5b505050506040513d601f19601f820116820180604052508101906104ef9190611308565b905080610531576040517f08c379a000000000000000000000000000000000000000000000000000000000815260040161052890611753565b60405180910390fd5b60008054906101000a900473ffffffffffffffffffffffffffffffffffffffff1673ffffffffffffffffffffffffffffffffffffffff16636a627842336040518263ffffffff1660e01b815260040161058a9190611658565b602060405180830381600087803b1580156105a457600080fd5b505af11580156105b8573d6000803e3d6000fd5b505050506040513d601f19601f820116820180604052508101906105dc91906113a2565b925050509193909250565b60008060008054906101000a900473ffffffffffffffffffffffffffffffffffffffff1673ffffffffffffffffffffffffffffffffffffffff166389afcb44336040518263ffffffff1660e01b81526004016106439190611658565b6040805180830381600087803b15801561065c57600080fd5b505af1158015610670573d6000803e3d6000fd5b505050506040513d601f19601f82011682018060405250810190610694919061140f565b809250819350505060003373ffffffffffffffffffffffffffffffffffffffff16836040516106c290611643565b60006040518083038185875af1925050503d80600081146106ff576040519150601f19603f3d011682016040523d82523d6000602084013e610704565b606091505b5050905080610748576040517f08c379a000000000000000000000000000000000000000000000000000000000815260040161073f90611713565b60405180910390fd5b600160009054906101000a900473ffffffffffffffffffffffffffffffffffffffff1673ffffffffffffffffffffffffffffffffffffffff1663d83a2bf360008054906101000a900473ffffffffffffffffffffffffffffffffffffffff1633856040518463ffffffff1660e01b81526004016107c793929190611673565b602060405180830381600087803b1580156107e157600080fd5b505af11580156107f5573d6000803e3d6000fd5b505050506040513d601f19601f820116820180604052508101906108199190611308565b506000600160009054906101000a900473ffffffffffffffffffffffffffffffffffffffff1673ffffffffffffffffffffffffffffffffffffffff166323b872dd60008054906101000a900473ffffffffffffffffffffffffffffffffffffffff1633866040518463ffffffff1660e01b815260040161089b93929190611673565b602060405180830381600087803b1580156108b557600080fd5b505af11580156108c9573d6000803e3d6000fd5b505050506040513d601f19601f820116820180604052508101906108ed9190611308565b90508061092f576040517f08c379a0000000000000000000000000000000000000000000000000000000008152600401610926906116f3565b60405180910390fd5b50509091565b600080821480156109465750600034145b1561098d57600061098c576040517f08c379a000000000000000000000000000000000000000000000000000000000815260040161098390611833565b60405180910390fd5b5b60003490506000808411156109a0578391505b60006064600160ff16846109b49190611944565b6109be9190611913565b905080836109cc919061199e565b92506000851115610dbc57600160009054906101000a900473ffffffffffffffffffffffffffffffffffffffff1673ffffffffffffffffffffffffffffffffffffffff166370a08231336040518263ffffffff1660e01b8152600401610a329190611658565b60206040518083038186803b158015610a4a57600080fd5b505afa158015610a5e573d6000803e3d6000fd5b505050506040513d601f19601f82011682018060405250810190610a8291906113a2565b851115610ac4576040517f08c379a0000000000000000000000000000000000000000000000000000000008152600401610abb90611733565b60405180910390fd5b60008054906101000a900473ffffffffffffffffffffffffffffffffffffffff1673ffffffffffffffffffffffffffffffffffffffff1663d3986f0884336040518363ffffffff1660e01b8152600401610b1f92919061186e565b6040805180830381600087803b158015610b3857600080fd5b505af1158015610b4c573d6000803e3d6000fd5b505050506040513d601f19601f82011682018060405250810190610b70919061140f565b8093508195505050600082118015610b905750674563918244f400008211155b610bcf576040517f08c379a0000000000000000000000000000000000000000000000000000000008152600401610bc6906117f3565b60405180910390fd5b600160009054906101000a900473ffffffffffffffffffffffffffffffffffffffff1673ffffffffffffffffffffffffffffffffffffffff1663d83a2bf33360008054906101000a900473ffffffffffffffffffffffffffffffffffffffff16886040518463ffffffff1660e01b8152600401610c4e93929190611673565b602060405180830381600087803b158015610c6857600080fd5b505af1158015610c7c573d6000803e3d6000fd5b505050506040513d601f19601f82011682018060405250810190610ca09190611308565b506000600160009054906101000a900473ffffffffffffffffffffffffffffffffffffffff1673ffffffffffffffffffffffffffffffffffffffff166323b872dd3360008054906101000a900473ffffffffffffffffffffffffffffffffffffffff16896040518463ffffffff1660e01b8152600401610d2293929190611673565b602060405180830381600087803b158015610d3c57600080fd5b505af1158015610d50573d6000803e3d6000fd5b505050506040513d601f19601f82011682018060405250810190610d749190611308565b905080610db6576040517f08c379a0000000000000000000000000000000000000000000000000000000008152600401610dad90611773565b60405180910390fd5b506110b2565b60008054906101000a900473ffffffffffffffffffffffffffffffffffffffff1673ffffffffffffffffffffffffffffffffffffffff1663d3986f08846000336040518463ffffffff1660e01b8152600401610e199291906116aa565b60408051808303818588803b158015610e3157600080fd5b505af1158015610e45573d6000803e3d6000fd5b50505050506040513d601f19601f82011682018060405250810190610e6a919061140f565b8093508195505050600082118015610e8a5750674563918244f400008211155b610ec9576040517f08c379a0000000000000000000000000000000000000000000000000000000008152600401610ec0906117f3565b60405180910390fd5b600160009054906101000a900473ffffffffffffffffffffffffffffffffffffffff1673ffffffffffffffffffffffffffffffffffffffff1663d83a2bf360008054906101000a900473ffffffffffffffffffffffffffffffffffffffff1633856040518463ffffffff1660e01b8152600401610f4893929190611673565b602060405180830381600087803b158015610f6257600080fd5b505af1158015610f76573d6000803e3d6000fd5b505050506040513d601f19601f82011682018060405250810190610f9a9190611308565b506000600160009054906101000a900473ffffffffffffffffffffffffffffffffffffffff1673ffffffffffffffffffffffffffffffffffffffff166323b872dd60008054906101000a900473ffffffffffffffffffffffffffffffffffffffff1633866040518463ffffffff1660e01b815260040161101c93929190611673565b602060405180830381600087803b15801561103657600080fd5b505af115801561104a573d6000803e3d6000fd5b505050506040513d601f19601f8201168201806040525081019061106e9190611308565b9050806110b0576040517f08c379a00000000000000000000000000000000000000000000000000000000081526004016110a7906117d3565b60405180910390fd5b505b505050919050565b60008060008060008054906101000a900473ffffffffffffffffffffffffffffffffffffffff1673ffffffffffffffffffffffffffffffffffffffff16630902f1ac6040518163ffffffff1660e01b8152600401604080518083038186803b15801561112557600080fd5b505afa158015611139573d6000803e3d6000fd5b505050506040513d601f19601f8201168201806040525081019061115d9190611335565b6dffffffffffffffffffffffffffff1691506dffffffffffffffffffffffffffff1691506000821480156111915750600081145b156111a557858580945081955050506111f8565b60006111b2878484611201565b90508581116111ca57868180955081965050506111f6565b60006111d7878486611201565b9050878111156111ea576111e9611a46565b5b80878096508197505050505b505b50509250929050565b6000808411611245576040517f08c379a000000000000000000000000000000000000000000000000000000000815260040161123c90611813565b60405180910390fd5b6000831180156112555750600082115b611294576040517f08c379a000000000000000000000000000000000000000000000000000000000815260040161128b90611793565b60405180910390fd5b8282856112a19190611944565b6112ab9190611913565b90509392505050565b6000815190506112c381611dab565b92915050565b6000815190506112d881611dc2565b92915050565b6000813590506112ed81611dd9565b92915050565b60008151905061130281611dd9565b92915050565b60006020828403121561131e5761131d611ad3565b5b600061132c848285016112b4565b91505092915050565b6000806040838503121561134c5761134b611ad3565b5b600061135a858286016112c9565b925050602061136b858286016112c9565b9150509250929050565b60006020828403121561138b5761138a611ad3565b5b6000611399848285016112de565b91505092915050565b6000602082840312156113b8576113b7611ad3565b5b60006113c6848285016112f3565b91505092915050565b600080604083850312156113e6576113e5611ad3565b5b60006113f4858286016112de565b9250506020611405858286016112de565b9150509250929050565b6000806040838503121561142657611425611ad3565b5b6000611434858286016112f3565b9250506020611445858286016112f3565b9150509250929050565b611458816119d2565b82525050565b61146781611a34565b82525050565b600061147a601b83611902565b915061148582611ad8565b602082019050919050565b600061149d603083611902565b91506114a882611b01565b604082019050919050565b60006114c0602783611902565b91506114cb82611b50565b604082019050919050565b60006114e3602283611902565b91506114ee82611b9f565b604082019050919050565b6000611506601b83611902565b915061151182611bee565b602082019050919050565b6000611529603683611902565b915061153482611c17565b604082019050919050565b600061154c602383611902565b915061155782611c66565b604082019050919050565b600061156f601d83611902565b915061157a82611cb5565b602082019050919050565b6000611592603583611902565b915061159d82611cde565b604082019050919050565b60006115b56000836118f7565b91506115c082611d2d565b600082019050919050565b60006115d8601783611902565b91506115e382611d30565b602082019050919050565b60006115fb602083611902565b915061160682611d59565b602082019050919050565b600061161e600d83611902565b915061162982611d82565b602082019050919050565b61163d81611a2a565b82525050565b600061164e826115a8565b9150819050919050565b600060208201905061166d600083018461144f565b92915050565b6000606082019050611688600083018661144f565b611695602083018561144f565b6116a26040830184611634565b949350505050565b60006040820190506116bf600083018561145e565b6116cc602083018461144f565b9392505050565b600060208201905081810360008301526116ec8161146d565b9050919050565b6000602082019050818103600083015261170c81611490565b9050919050565b6000602082019050818103600083015261172c816114b3565b9050919050565b6000602082019050818103600083015261174c816114d6565b9050919050565b6000602082019050818103600083015261176c816114f9565b9050919050565b6000602082019050818103600083015261178c8161151c565b9050919050565b600060208201905081810360008301526117ac8161153f565b9050919050565b600060208201905081810360008301526117cc81611562565b9050919050565b600060208201905081810360008301526117ec81611585565b9050919050565b6000602082019050818103600083015261180c816115cb565b9050919050565b6000602082019050818103600083015261182c816115ee565b9050919050565b6000602082019050818103600083015261184c81611611565b9050919050565b60006020820190506118686000830184611634565b92915050565b60006040820190506118836000830185611634565b611890602083018461144f565b9392505050565b60006040820190506118ac6000830185611634565b6118b96020830184611634565b9392505050565b60006060820190506118d56000830186611634565b6118e26020830185611634565b6118ef6040830184611634565b949350505050565b600081905092915050565b600082825260208201905092915050565b600061191e82611a2a565b915061192983611a2a565b92508261193957611938611aa4565b5b828204905092915050565b600061194f82611a2a565b915061195a83611a2a565b9250817fffffffffffffffffffffffffffffffffffffffffffffffffffffffffffffffff048311821515161561199357611992611a75565b5b828202905092915050565b60006119a982611a2a565b91506119b483611a2a565b9250828210156119c7576119c6611a75565b5b828203905092915050565b60006119dd82611a0a565b9050919050565b60008115159050919050565b60006dffffffffffffffffffffffffffff82169050919050565b600073ffffffffffffffffffffffffffffffffffffffff82169050919050565b6000819050919050565b6000611a3f82611a2a565b9050919050565b7f4e487b7100000000000000000000000000000000000000000000000000000000600052600160045260246000fd5b7f4e487b7100000000000000000000000000000000000000000000000000000000600052601160045260246000fd5b7f4e487b7100000000000000000000000000000000000000000000000000000000600052601260045260246000fd5b600080fd5b7f4554485f5452414e534645525f544f5f504f4f4c5f4641494c45440000000000600082015250565b7f5370616365526f757465723a3a72656d6f76654c69717569646974792053504360008201527f5f5452414e534645525f4641494c454400000000000000000000000000000000602082015250565b7f4554485f5452414e534645525f46524f4d5f504f4f4c5f544f5f53454e44455260008201527f5f4641494c454400000000000000000000000000000000000000000000000000602082015250565b7f494e53554646494349454e545f42414c414e43455f464f525f5350435f434f4960008201527f4e53000000000000000000000000000000000000000000000000000000000000602082015250565b7f5350435f5452414e534645525f544f5f504f4f4c5f4641494c45440000000000600082015250565b7f5370616365526f757465723a3a73776170546f6b656e73205350435f5452414e60008201527f534645525f544f5f535043504f4f4c5f4641494c454400000000000000000000602082015250565b7f5370616365526f757465723a20494e53554646494349454e545f4c495155494460008201527f4954590000000000000000000000000000000000000000000000000000000000602082015250565b7f494e53554646494349454e545f4554485f5350435f535550504c494544000000600082015250565b7f5370616365526f757465723a3a73776170546f6b656e73205350435f5452414e60008201527f534645525f544f5f53454e4445525f4641494c45440000000000000000000000602082015250565b50565b7f45584345444445445f534c4950504147455f4c494d4954000000000000000000600082015250565b7f5370616365526f757465723a20494e53554646494349454e545f414d4f554e54600082015250565b7f494e56414c49445f545241444500000000000000000000000000000000000000600082015250565b611db4816119e4565b8114611dbf57600080fd5b50565b611dcb816119f0565b8114611dd657600080fd5b50565b611de281611a2a565b8114611ded57600080fd5b5056fea2646970667358221220e66fd5c5b3d1edd86af41ff50363ee0611530b153caa06ebaead17269bb8fa2c64736f6c63430008070033",
  "linkReferences": {},
  "deployedLinkReferences": {}
}