{
  "_format": "hh-sol-artifact-1",
  "contractName": "SpaceRouter",
  "sourceName": "contracts/SpaceRouter.sol",
  "abi": [
    {
      "inputs": [
        {
          "internalType": "contract SpacePool",
          "name": "spacePool",
          "type": "address"
        },
        {
          "internalType": "contract SpaceCoin",
          "name": "spaceCoin",
          "type": "address"
        }
      ],
      "stateMutability": "nonpayable",
      "type": "constructor"
    },
    {
      "inputs": [
        {
          "internalType": "uint256",
          "name": "spaceCoins",
          "type": "uint256"
        }
      ],
      "name": "addLiquidity",
      "outputs": [
        {
          "internalType": "uint256",
          "name": "amountA",
          "type": "uint256"
        },
        {
          "internalType": "uint256",
          "name": "amountB",
          "type": "uint256"
        },
        {
          "internalType": "uint256",
          "name": "liquidity",
          "type": "uint256"
        }
      ],
      "stateMutability": "payable",
      "type": "function"
    },
    {
      "inputs": [],
      "name": "removeLiquidity",
      "outputs": [
        {
          "internalType": "uint256",
          "name": "amountA",
          "type": "uint256"
        },
        {
          "internalType": "uint256",
          "name": "amountB",
          "type": "uint256"
        },
        {
          "internalType": "uint256",
          "name": "liquidity",
          "type": "uint256"
        }
      ],
      "stateMutability": "payable",
      "type": "function"
    }
  ],
  "bytecode": "0x60806040523480156200001157600080fd5b5060405162000e0538038062000e058339818101604052810190620000379190620000ee565b816000806101000a81548173ffffffffffffffffffffffffffffffffffffffff021916908373ffffffffffffffffffffffffffffffffffffffff16021790555080600160006101000a81548173ffffffffffffffffffffffffffffffffffffffff021916908373ffffffffffffffffffffffffffffffffffffffff1602179055505050620001de565b600081519050620000d181620001aa565b92915050565b600081519050620000e881620001c4565b92915050565b60008060408385031215620001085762000107620001a5565b5b60006200011885828601620000d7565b92505060206200012b85828601620000c0565b9150509250929050565b6000620001428262000185565b9050919050565b6000620001568262000185565b9050919050565b60006200016a8262000135565b9050919050565b60006200017e8262000149565b9050919050565b600073ffffffffffffffffffffffffffffffffffffffff82169050919050565b600080fd5b620001b5816200015d565b8114620001c157600080fd5b50565b620001cf8162000171565b8114620001db57600080fd5b50565b610c1780620001ee6000396000f3fe6080604052600436106100295760003560e01c806351c6590a1461002e57806367b9a28614610060575b600080fd5b610048600480360381019061004391906108c5565b610080565b60405161005793929190610a8d565b60405180910390f35b6100686104a9565b60405161007793929190610a8d565b60405180910390f35b600080600080600160009054906101000a900473ffffffffffffffffffffffffffffffffffffffff1673ffffffffffffffffffffffffffffffffffffffff166370a08231336040518263ffffffff1660e01b81526004016100e191906109fb565b60206040518083038186803b1580156100f957600080fd5b505afa15801561010d573d6000803e3d6000fd5b505050506040513d601f19601f8201168201806040525081019061013191906108f2565b11610171576040517f08c379a000000000000000000000000000000000000000000000000000000000815260040161016890610a6d565b60405180910390fd5b61017b348561070f565b809350819450505060008060009054906101000a900473ffffffffffffffffffffffffffffffffffffffff1673ffffffffffffffffffffffffffffffffffffffff16346040516101ca906109e6565b60006040518083038185875af1925050503d8060008114610207576040519150601f19603f3d011682016040523d82523d6000602084013e61020c565b606091505b5050905080610250576040517f08c379a000000000000000000000000000000000000000000000000000000000815260040161024790610a4d565b60405180910390fd5b600160009054906101000a900473ffffffffffffffffffffffffffffffffffffffff1673ffffffffffffffffffffffffffffffffffffffff1663d83a2bf33360008054906101000a900473ffffffffffffffffffffffffffffffffffffffff16886040518463ffffffff1660e01b81526004016102cf93929190610a16565b602060405180830381600087803b1580156102e957600080fd5b505af11580156102fd573d6000803e3d6000fd5b505050506040513d601f19601f820116820180604052508101906103219190610858565b50600160009054906101000a900473ffffffffffffffffffffffffffffffffffffffff1673ffffffffffffffffffffffffffffffffffffffff166323b872dd3360008054906101000a900473ffffffffffffffffffffffffffffffffffffffff16886040518463ffffffff1660e01b81526004016103a193929190610a16565b602060405180830381600087803b1580156103bb57600080fd5b505af11580156103cf573d6000803e3d6000fd5b505050506040513d601f19601f820116820180604052508101906103f39190610858565b5060008054906101000a900473ffffffffffffffffffffffffffffffffffffffff1673ffffffffffffffffffffffffffffffffffffffff16636a627842336040518263ffffffff1660e01b815260040161044d91906109fb565b602060405180830381600087803b15801561046757600080fd5b505af115801561047b573d6000803e3d6000fd5b505050506040513d601f19601f8201168201806040525081019061049f91906108f2565b9150509193909250565b60008060008060008060009054906101000a900473ffffffffffffffffffffffffffffffffffffffff1673ffffffffffffffffffffffffffffffffffffffff166389afcb44336040518263ffffffff1660e01b815260040161050b91906109fb565b6040805180830381600087803b15801561052457600080fd5b505af1158015610538573d6000803e3d6000fd5b505050506040513d601f19601f8201168201806040525081019061055c919061091f565b91509150600160009054906101000a900473ffffffffffffffffffffffffffffffffffffffff1673ffffffffffffffffffffffffffffffffffffffff1663d83a2bf360008054906101000a900473ffffffffffffffffffffffffffffffffffffffff1633846040518463ffffffff1660e01b81526004016105df93929190610a16565b602060405180830381600087803b1580156105f957600080fd5b505af115801561060d573d6000803e3d6000fd5b505050506040513d601f19601f820116820180604052508101906106319190610858565b506000600160009054906101000a900473ffffffffffffffffffffffffffffffffffffffff1673ffffffffffffffffffffffffffffffffffffffff166323b872dd60008054906101000a900473ffffffffffffffffffffffffffffffffffffffff1633856040518463ffffffff1660e01b81526004016106b393929190610a16565b602060405180830381600087803b1580156106cd57600080fd5b505af11580156106e1573d6000803e3d6000fd5b505050506040513d601f19601f820116820180604052508101906107059190610858565b9050505050909192565b60008060008060008054906101000a900473ffffffffffffffffffffffffffffffffffffffff1673ffffffffffffffffffffffffffffffffffffffff16630902f1ac6040518163ffffffff1660e01b8152600401604080518083038186803b15801561077a57600080fd5b505afa15801561078e573d6000803e3d6000fd5b505050506040513d601f19601f820116820180604052508101906107b29190610885565b6dffffffffffffffffffffffffffff1691506dffffffffffffffffffffffffffff1691506000821480156107e65750600081145b156107fa57858580945081955050506107fb565b5b50509250929050565b60008151905061081381610b9c565b92915050565b60008151905061082881610bb3565b92915050565b60008135905061083d81610bca565b92915050565b60008151905061085281610bca565b92915050565b60006020828403121561086e5761086d610b42565b5b600061087c84828501610804565b91505092915050565b6000806040838503121561089c5761089b610b42565b5b60006108aa85828601610819565b92505060206108bb85828601610819565b9150509250929050565b6000602082840312156108db576108da610b42565b5b60006108e98482850161082e565b91505092915050565b60006020828403121561090857610907610b42565b5b600061091684828501610843565b91505092915050565b6000806040838503121561093657610935610b42565b5b600061094485828601610843565b925050602061095585828601610843565b9150509250929050565b61096881610ae0565b82525050565b600061097b600083610ac4565b915061098682610b47565b600082019050919050565b600061099e601383610acf565b91506109a982610b4a565b602082019050919050565b60006109c1601383610acf565b91506109cc82610b73565b602082019050919050565b6109e081610b38565b82525050565b60006109f18261096e565b9150819050919050565b6000602082019050610a10600083018461095f565b92915050565b6000606082019050610a2b600083018661095f565b610a38602083018561095f565b610a4560408301846109d7565b949350505050565b60006020820190508181036000830152610a6681610991565b9050919050565b60006020820190508181036000830152610a86816109b4565b9050919050565b6000606082019050610aa260008301866109d7565b610aaf60208301856109d7565b610abc60408301846109d7565b949350505050565b600081905092915050565b600082825260208201905092915050565b6000610aeb82610b18565b9050919050565b60008115159050919050565b60006dffffffffffffffffffffffffffff82169050919050565b600073ffffffffffffffffffffffffffffffffffffffff82169050919050565b6000819050919050565b600080fd5b50565b7f4554485f5452414e534645525f4641494c454400000000000000000000000000600082015250565b7f4e4f5f415641494c41424c455f544f4b454e5300000000000000000000000000600082015250565b610ba581610af2565b8114610bb057600080fd5b50565b610bbc81610afe565b8114610bc757600080fd5b50565b610bd381610b38565b8114610bde57600080fd5b5056fea2646970667358221220061b7bb3e584c18ffc4abb7dcbbfa59ce710166fa982e6fe301618e47d80027e64736f6c63430008070033",
  "linkReferences": {},
  "deployedLinkReferences": {}
}