{
  "_format": "hh-sol-artifact-1",
  "contractName": "SpaceRouter",
  "sourceName": "contracts/SpaceRouter.sol",
  "abi": [
    {
      "inputs": [
        {
          "internalType": "contract SpacePool",
          "name": "spacePool",
          "type": "address"
        },
        {
          "internalType": "contract SpaceCoin",
          "name": "spaceCoin",
          "type": "address"
        }
      ],
      "stateMutability": "nonpayable",
      "type": "constructor"
    },
    {
      "inputs": [
        {
          "internalType": "uint256",
          "name": "spaceCoins",
          "type": "uint256"
        }
      ],
      "name": "addLiquidity",
      "outputs": [
        {
          "internalType": "uint256",
          "name": "amountA",
          "type": "uint256"
        },
        {
          "internalType": "uint256",
          "name": "amountB",
          "type": "uint256"
        },
        {
          "internalType": "uint256",
          "name": "liquidity",
          "type": "uint256"
        }
      ],
      "stateMutability": "payable",
      "type": "function"
    },
    {
      "inputs": [],
      "name": "removeLiquidity",
      "outputs": [
        {
          "internalType": "uint256",
          "name": "amountA",
          "type": "uint256"
        },
        {
          "internalType": "uint256",
          "name": "amountB",
          "type": "uint256"
        },
        {
          "internalType": "uint256",
          "name": "liquidity",
          "type": "uint256"
        }
      ],
      "stateMutability": "payable",
      "type": "function"
    },
    {
      "inputs": [
        {
          "internalType": "uint256",
          "name": "spaceCoins",
          "type": "uint256"
        }
      ],
      "name": "swapTokens",
      "outputs": [
        {
          "internalType": "uint256",
          "name": "amountOut",
          "type": "uint256"
        }
      ],
      "stateMutability": "payable",
      "type": "function"
    }
  ],
  "bytecode": "0x60806040523480156200001157600080fd5b5060405162001951380380620019518339818101604052810190620000379190620000ee565b816000806101000a81548173ffffffffffffffffffffffffffffffffffffffff021916908373ffffffffffffffffffffffffffffffffffffffff16021790555080600160006101000a81548173ffffffffffffffffffffffffffffffffffffffff021916908373ffffffffffffffffffffffffffffffffffffffff1602179055505050620001de565b600081519050620000d181620001aa565b92915050565b600081519050620000e881620001c4565b92915050565b60008060408385031215620001085762000107620001a5565b5b60006200011885828601620000d7565b92505060206200012b85828601620000c0565b9150509250929050565b6000620001428262000185565b9050919050565b6000620001568262000185565b9050919050565b60006200016a8262000135565b9050919050565b60006200017e8262000149565b9050919050565b600073ffffffffffffffffffffffffffffffffffffffff82169050919050565b600080fd5b620001b5816200015d565b8114620001c157600080fd5b50565b620001cf8162000171565b8114620001db57600080fd5b50565b61176380620001ee6000396000f3fe6080604052600436106100345760003560e01c806351c6590a1461003957806367b9a2861461006b578063fe784eaa1461008b575b600080fd5b610053600480360381019061004e9190610fd8565b6100bb565b6040516100629392919061136b565b60405180910390f35b6100736104e4565b6040516100829392919061136b565b60405180910390f35b6100a560048036038101906100a09190610fd8565b61078a565b6040516100b29190611327565b60405180910390f35b600080600080600160009054906101000a900473ffffffffffffffffffffffffffffffffffffffff1673ffffffffffffffffffffffffffffffffffffffff166370a08231336040518263ffffffff1660e01b815260040161011c91906111cc565b60206040518083038186803b15801561013457600080fd5b505afa158015610148573d6000803e3d6000fd5b505050506040513d601f19601f8201168201806040525081019061016c9190611005565b116101ac576040517f08c379a00000000000000000000000000000000000000000000000000000000081526004016101a390611307565b60405180910390fd5b6101b63485610e22565b809350819450505060008060009054906101000a900473ffffffffffffffffffffffffffffffffffffffff1673ffffffffffffffffffffffffffffffffffffffff1634604051610205906111b7565b60006040518083038185875af1925050503d8060008114610242576040519150601f19603f3d011682016040523d82523d6000602084013e610247565b606091505b505090508061028b576040517f08c379a0000000000000000000000000000000000000000000000000000000008152600401610282906112c7565b60405180910390fd5b600160009054906101000a900473ffffffffffffffffffffffffffffffffffffffff1673ffffffffffffffffffffffffffffffffffffffff1663d83a2bf33360008054906101000a900473ffffffffffffffffffffffffffffffffffffffff16886040518463ffffffff1660e01b815260040161030a939291906111e7565b602060405180830381600087803b15801561032457600080fd5b505af1158015610338573d6000803e3d6000fd5b505050506040513d601f19601f8201168201806040525081019061035c9190610f6b565b50600160009054906101000a900473ffffffffffffffffffffffffffffffffffffffff1673ffffffffffffffffffffffffffffffffffffffff166323b872dd3360008054906101000a900473ffffffffffffffffffffffffffffffffffffffff16886040518463ffffffff1660e01b81526004016103dc939291906111e7565b602060405180830381600087803b1580156103f657600080fd5b505af115801561040a573d6000803e3d6000fd5b505050506040513d601f19601f8201168201806040525081019061042e9190610f6b565b5060008054906101000a900473ffffffffffffffffffffffffffffffffffffffff1673ffffffffffffffffffffffffffffffffffffffff16636a627842336040518263ffffffff1660e01b815260040161048891906111cc565b602060405180830381600087803b1580156104a257600080fd5b505af11580156104b6573d6000803e3d6000fd5b505050506040513d601f19601f820116820180604052508101906104da9190611005565b9150509193909250565b60008060008060008060009054906101000a900473ffffffffffffffffffffffffffffffffffffffff1673ffffffffffffffffffffffffffffffffffffffff166389afcb44336040518263ffffffff1660e01b815260040161054691906111cc565b6040805180830381600087803b15801561055f57600080fd5b505af1158015610573573d6000803e3d6000fd5b505050506040513d601f19601f820116820180604052508101906105979190611032565b91509150600160009054906101000a900473ffffffffffffffffffffffffffffffffffffffff1673ffffffffffffffffffffffffffffffffffffffff1663d83a2bf360008054906101000a900473ffffffffffffffffffffffffffffffffffffffff1633846040518463ffffffff1660e01b815260040161061a939291906111e7565b602060405180830381600087803b15801561063457600080fd5b505af1158015610648573d6000803e3d6000fd5b505050506040513d601f19601f8201168201806040525081019061066c9190610f6b565b506000600160009054906101000a900473ffffffffffffffffffffffffffffffffffffffff1673ffffffffffffffffffffffffffffffffffffffff166323b872dd60008054906101000a900473ffffffffffffffffffffffffffffffffffffffff1633856040518463ffffffff1660e01b81526004016106ee939291906111e7565b602060405180830381600087803b15801561070857600080fd5b505af115801561071c573d6000803e3d6000fd5b505050506040513d601f19601f820116820180604052508101906107409190610f6b565b905080610782576040517f08c379a000000000000000000000000000000000000000000000000000000000815260040161077990611247565b60405180910390fd5b505050909192565b6000808214801561079b5750600034145b156107e25760006107e1576040517f08c379a00000000000000000000000000000000000000000000000000000000081526004016107d8906112e7565b60405180910390fd5b5b60003490506000808411156107f5578391505b60006064600160ff168461080991906113ef565b61081391906113be565b905080836108219190611449565b92506000851115610b245760008054906101000a900473ffffffffffffffffffffffffffffffffffffffff1673ffffffffffffffffffffffffffffffffffffffff1663d3986f0884336040518363ffffffff1660e01b8152600401610887929190611342565b6040805180830381600087803b1580156108a057600080fd5b505af11580156108b4573d6000803e3d6000fd5b505050506040513d601f19601f820116820180604052508101906108d89190611032565b80935081955050506000821180156108f85750674563918244f400008211155b610937576040517f08c379a000000000000000000000000000000000000000000000000000000000815260040161092e906112a7565b60405180910390fd5b600160009054906101000a900473ffffffffffffffffffffffffffffffffffffffff1673ffffffffffffffffffffffffffffffffffffffff1663d83a2bf33360008054906101000a900473ffffffffffffffffffffffffffffffffffffffff16886040518463ffffffff1660e01b81526004016109b6939291906111e7565b602060405180830381600087803b1580156109d057600080fd5b505af11580156109e4573d6000803e3d6000fd5b505050506040513d601f19601f82011682018060405250810190610a089190610f6b565b506000600160009054906101000a900473ffffffffffffffffffffffffffffffffffffffff1673ffffffffffffffffffffffffffffffffffffffff166323b872dd3360008054906101000a900473ffffffffffffffffffffffffffffffffffffffff16896040518463ffffffff1660e01b8152600401610a8a939291906111e7565b602060405180830381600087803b158015610aa457600080fd5b505af1158015610ab8573d6000803e3d6000fd5b505050506040513d601f19601f82011682018060405250810190610adc9190610f6b565b905080610b1e576040517f08c379a0000000000000000000000000000000000000000000000000000000008152600401610b1590611267565b60405180910390fd5b50610e1a565b60008054906101000a900473ffffffffffffffffffffffffffffffffffffffff1673ffffffffffffffffffffffffffffffffffffffff1663d3986f08846000336040518463ffffffff1660e01b8152600401610b8192919061121e565b60408051808303818588803b158015610b9957600080fd5b505af1158015610bad573d6000803e3d6000fd5b50505050506040513d601f19601f82011682018060405250810190610bd29190611032565b8093508195505050600082118015610bf25750674563918244f400008211155b610c31576040517f08c379a0000000000000000000000000000000000000000000000000000000008152600401610c28906112a7565b60405180910390fd5b600160009054906101000a900473ffffffffffffffffffffffffffffffffffffffff1673ffffffffffffffffffffffffffffffffffffffff1663d83a2bf360008054906101000a900473ffffffffffffffffffffffffffffffffffffffff1633856040518463ffffffff1660e01b8152600401610cb0939291906111e7565b602060405180830381600087803b158015610cca57600080fd5b505af1158015610cde573d6000803e3d6000fd5b505050506040513d601f19601f82011682018060405250810190610d029190610f6b565b506000600160009054906101000a900473ffffffffffffffffffffffffffffffffffffffff1673ffffffffffffffffffffffffffffffffffffffff166323b872dd60008054906101000a900473ffffffffffffffffffffffffffffffffffffffff1633866040518463ffffffff1660e01b8152600401610d84939291906111e7565b602060405180830381600087803b158015610d9e57600080fd5b505af1158015610db2573d6000803e3d6000fd5b505050506040513d601f19601f82011682018060405250810190610dd69190610f6b565b905080610e18576040517f08c379a0000000000000000000000000000000000000000000000000000000008152600401610e0f90611287565b60405180910390fd5b505b505050919050565b60008060008060008054906101000a900473ffffffffffffffffffffffffffffffffffffffff1673ffffffffffffffffffffffffffffffffffffffff16630902f1ac6040518163ffffffff1660e01b8152600401604080518083038186803b158015610e8d57600080fd5b505afa158015610ea1573d6000803e3d6000fd5b505050506040513d601f19601f82011682018060405250810190610ec59190610f98565b6dffffffffffffffffffffffffffff1691506dffffffffffffffffffffffffffff169150600082148015610ef95750600081145b15610f0d5785858094508195505050610f0e565b5b50509250929050565b600081519050610f26816116e8565b92915050565b600081519050610f3b816116ff565b92915050565b600081359050610f5081611716565b92915050565b600081519050610f6581611716565b92915050565b600060208284031215610f8157610f8061154f565b5b6000610f8f84828501610f17565b91505092915050565b60008060408385031215610faf57610fae61154f565b5b6000610fbd85828601610f2c565b9250506020610fce85828601610f2c565b9150509250929050565b600060208284031215610fee57610fed61154f565b5b6000610ffc84828501610f41565b91505092915050565b60006020828403121561101b5761101a61154f565b5b600061102984828501610f56565b91505092915050565b600080604083850312156110495761104861154f565b5b600061105785828601610f56565b925050602061106885828601610f56565b9150509250929050565b61107b8161147d565b82525050565b61108a816114df565b82525050565b600061109d6030836113ad565b91506110a882611554565b604082019050919050565b60006110c06036836113ad565b91506110cb826115a3565b604082019050919050565b60006110e36035836113ad565b91506110ee826115f2565b604082019050919050565b60006111066000836113a2565b915061111182611641565b600082019050919050565b60006111296017836113ad565b915061113482611644565b602082019050919050565b600061114c6013836113ad565b91506111578261166d565b602082019050919050565b600061116f600d836113ad565b915061117a82611696565b602082019050919050565b60006111926013836113ad565b915061119d826116bf565b602082019050919050565b6111b1816114d5565b82525050565b60006111c2826110f9565b9150819050919050565b60006020820190506111e16000830184611072565b92915050565b60006060820190506111fc6000830186611072565b6112096020830185611072565b61121660408301846111a8565b949350505050565b60006040820190506112336000830185611081565b6112406020830184611072565b9392505050565b6000602082019050818103600083015261126081611090565b9050919050565b60006020820190508181036000830152611280816110b3565b9050919050565b600060208201905081810360008301526112a0816110d6565b9050919050565b600060208201905081810360008301526112c08161111c565b9050919050565b600060208201905081810360008301526112e08161113f565b9050919050565b6000602082019050818103600083015261130081611162565b9050919050565b6000602082019050818103600083015261132081611185565b9050919050565b600060208201905061133c60008301846111a8565b92915050565b600060408201905061135760008301856111a8565b6113646020830184611072565b9392505050565b600060608201905061138060008301866111a8565b61138d60208301856111a8565b61139a60408301846111a8565b949350505050565b600081905092915050565b600082825260208201905092915050565b60006113c9826114d5565b91506113d4836114d5565b9250826113e4576113e3611520565b5b828204905092915050565b60006113fa826114d5565b9150611405836114d5565b9250817fffffffffffffffffffffffffffffffffffffffffffffffffffffffffffffffff048311821515161561143e5761143d6114f1565b5b828202905092915050565b6000611454826114d5565b915061145f836114d5565b925082821015611472576114716114f1565b5b828203905092915050565b6000611488826114b5565b9050919050565b60008115159050919050565b60006dffffffffffffffffffffffffffff82169050919050565b600073ffffffffffffffffffffffffffffffffffffffff82169050919050565b6000819050919050565b60006114ea826114d5565b9050919050565b7f4e487b7100000000000000000000000000000000000000000000000000000000600052601160045260246000fd5b7f4e487b7100000000000000000000000000000000000000000000000000000000600052601260045260246000fd5b600080fd5b7f5370616365526f757465723a3a72656d6f76654c69717569646974792053504360008201527f5f5452414e534645525f4641494c454400000000000000000000000000000000602082015250565b7f5370616365526f757465723a3a73776170546f6b656e73205350435f5452414e60008201527f534645525f544f5f535043504f4f4c5f4641494c454400000000000000000000602082015250565b7f5370616365526f757465723a3a73776170546f6b656e73205350435f5452414e60008201527f534645525f544f5f53454e4445525f4641494c45440000000000000000000000602082015250565b50565b7f45584345444445445f534c4950504147455f4c494d4954000000000000000000600082015250565b7f4554485f5452414e534645525f4641494c454400000000000000000000000000600082015250565b7f494e56414c49445f545241444500000000000000000000000000000000000000600082015250565b7f4e4f5f415641494c41424c455f544f4b454e5300000000000000000000000000600082015250565b6116f18161148f565b81146116fc57600080fd5b50565b6117088161149b565b811461171357600080fd5b50565b61171f816114d5565b811461172a57600080fd5b5056fea264697066735822122099af15917beadfa9332dc7be6b755a3ab312714e8d9199be605e640fc435251164736f6c63430008070033",
  "linkReferences": {},
  "deployedLinkReferences": {}
}