{
  "_format": "hh-sol-artifact-1",
  "contractName": "SpaceRouter",
  "sourceName": "contracts/SpaceRouter.sol",
  "abi": [
    {
      "inputs": [
        {
          "internalType": "contract SpacePool",
          "name": "spacePool",
          "type": "address"
        },
        {
          "internalType": "contract SpaceCoin",
          "name": "spaceCoin",
          "type": "address"
        }
      ],
      "stateMutability": "nonpayable",
      "type": "constructor"
    },
    {
      "inputs": [
        {
          "internalType": "uint256",
          "name": "spaceCoins",
          "type": "uint256"
        }
      ],
      "name": "addLiquidity",
      "outputs": [
        {
          "internalType": "uint256",
          "name": "amountA",
          "type": "uint256"
        },
        {
          "internalType": "uint256",
          "name": "amountB",
          "type": "uint256"
        },
        {
          "internalType": "uint256",
          "name": "liquidity",
          "type": "uint256"
        }
      ],
      "stateMutability": "payable",
      "type": "function"
    },
    {
      "inputs": [],
      "name": "removeLiquidity",
      "outputs": [
        {
          "internalType": "uint256",
          "name": "amountA",
          "type": "uint256"
        },
        {
          "internalType": "uint256",
          "name": "amountB",
          "type": "uint256"
        }
      ],
      "stateMutability": "payable",
      "type": "function"
    },
    {
      "inputs": [
        {
          "internalType": "uint256",
          "name": "spaceCoins",
          "type": "uint256"
        }
      ],
      "name": "swapTokens",
      "outputs": [
        {
          "internalType": "uint256",
          "name": "amountOut",
          "type": "uint256"
        }
      ],
      "stateMutability": "payable",
      "type": "function"
    }
  ],
  "bytecode": "0x60806040523480156200001157600080fd5b5060405162001a6538038062001a658339818101604052810190620000379190620000ee565b816000806101000a81548173ffffffffffffffffffffffffffffffffffffffff021916908373ffffffffffffffffffffffffffffffffffffffff16021790555080600160006101000a81548173ffffffffffffffffffffffffffffffffffffffff021916908373ffffffffffffffffffffffffffffffffffffffff1602179055505050620001de565b600081519050620000d181620001aa565b92915050565b600081519050620000e881620001c4565b92915050565b60008060408385031215620001085762000107620001a5565b5b60006200011885828601620000d7565b92505060206200012b85828601620000c0565b9150509250929050565b6000620001428262000185565b9050919050565b6000620001568262000185565b9050919050565b60006200016a8262000135565b9050919050565b60006200017e8262000149565b9050919050565b600073ffffffffffffffffffffffffffffffffffffffff82169050919050565b600080fd5b620001b5816200015d565b8114620001c157600080fd5b50565b620001cf8162000171565b8114620001db57600080fd5b50565b61187780620001ee6000396000f3fe6080604052600436106100345760003560e01c806351c6590a1461003957806367b9a2861461006b578063fe784eaa1461008a575b600080fd5b610053600480360381019061004e9190610ff6565b6100ba565b60405161006293929190611438565b60405180910390f35b610073610564565b60405161008192919061140f565b60405180910390f35b6100a4600480360381019061009f9190610ff6565b610805565b6040516100b191906113cb565b60405180910390f35b600080600080841180156100ce5750600034115b61010d576040517f08c379a00000000000000000000000000000000000000000000000000000000081526004016101049061134b565b60405180910390fd5b6000600160009054906101000a900473ffffffffffffffffffffffffffffffffffffffff1673ffffffffffffffffffffffffffffffffffffffff166370a08231336040518263ffffffff1660e01b815260040161016a9190611230565b60206040518083038186803b15801561018257600080fd5b505afa158015610196573d6000803e3d6000fd5b505050506040513d601f19601f820116820180604052508101906101ba9190611023565b116101fa576040517f08c379a00000000000000000000000000000000000000000000000000000000081526004016101f1906112eb565b60405180910390fd5b60008060009054906101000a900473ffffffffffffffffffffffffffffffffffffffff1673ffffffffffffffffffffffffffffffffffffffff16346040516102419061121b565b60006040518083038185875af1925050503d806000811461027e576040519150601f19603f3d011682016040523d82523d6000602084013e610283565b606091505b50509050806102c7576040517f08c379a00000000000000000000000000000000000000000000000000000000081526004016102be906112ab565b60405180910390fd5b600160009054906101000a900473ffffffffffffffffffffffffffffffffffffffff1673ffffffffffffffffffffffffffffffffffffffff1663d83a2bf33360008054906101000a900473ffffffffffffffffffffffffffffffffffffffff16886040518463ffffffff1660e01b81526004016103469392919061124b565b602060405180830381600087803b15801561036057600080fd5b505af1158015610374573d6000803e3d6000fd5b505050506040513d601f19601f820116820180604052508101906103989190610fc9565b506000600160009054906101000a900473ffffffffffffffffffffffffffffffffffffffff1673ffffffffffffffffffffffffffffffffffffffff166323b872dd3360008054906101000a900473ffffffffffffffffffffffffffffffffffffffff16896040518463ffffffff1660e01b815260040161041a9392919061124b565b602060405180830381600087803b15801561043457600080fd5b505af1158015610448573d6000803e3d6000fd5b505050506040513d601f19601f8201168201806040525081019061046c9190610fc9565b9050806104ae576040517f08c379a00000000000000000000000000000000000000000000000000000000081526004016104a59061130b565b60405180910390fd5b60008054906101000a900473ffffffffffffffffffffffffffffffffffffffff1673ffffffffffffffffffffffffffffffffffffffff16636a627842336040518263ffffffff1660e01b81526004016105079190611230565b602060405180830381600087803b15801561052157600080fd5b505af1158015610535573d6000803e3d6000fd5b505050506040513d601f19601f820116820180604052508101906105599190611023565b925050509193909250565b60008060008054906101000a900473ffffffffffffffffffffffffffffffffffffffff1673ffffffffffffffffffffffffffffffffffffffff166389afcb44336040518263ffffffff1660e01b81526004016105c09190611230565b6040805180830381600087803b1580156105d957600080fd5b505af11580156105ed573d6000803e3d6000fd5b505050506040513d601f19601f820116820180604052508101906106119190611050565b8092508193505050600160009054906101000a900473ffffffffffffffffffffffffffffffffffffffff1673ffffffffffffffffffffffffffffffffffffffff1663d83a2bf360008054906101000a900473ffffffffffffffffffffffffffffffffffffffff1633846040518463ffffffff1660e01b81526004016106989392919061124b565b602060405180830381600087803b1580156106b257600080fd5b505af11580156106c6573d6000803e3d6000fd5b505050506040513d601f19601f820116820180604052508101906106ea9190610fc9565b506000600160009054906101000a900473ffffffffffffffffffffffffffffffffffffffff1673ffffffffffffffffffffffffffffffffffffffff166323b872dd60008054906101000a900473ffffffffffffffffffffffffffffffffffffffff1633856040518463ffffffff1660e01b815260040161076c9392919061124b565b602060405180830381600087803b15801561078657600080fd5b505af115801561079a573d6000803e3d6000fd5b505050506040513d601f19601f820116820180604052508101906107be9190610fc9565b905080610800576040517f08c379a00000000000000000000000000000000000000000000000000000000081526004016107f7906112cb565b60405180910390fd5b509091565b600080821480156108165750600034145b1561085d57600061085c576040517f08c379a0000000000000000000000000000000000000000000000000000000008152600401610853906113ab565b60405180910390fd5b5b6000349050600080841115610870578391505b60006064600160ff168461088491906114bc565b61088e919061148b565b9050808361089c9190611516565b92506000851115610c8c57600160009054906101000a900473ffffffffffffffffffffffffffffffffffffffff1673ffffffffffffffffffffffffffffffffffffffff166370a08231336040518263ffffffff1660e01b81526004016109029190611230565b60206040518083038186803b15801561091a57600080fd5b505afa15801561092e573d6000803e3d6000fd5b505050506040513d601f19601f820116820180604052508101906109529190611023565b851115610994576040517f08c379a000000000000000000000000000000000000000000000000000000000815260040161098b906112eb565b60405180910390fd5b60008054906101000a900473ffffffffffffffffffffffffffffffffffffffff1673ffffffffffffffffffffffffffffffffffffffff1663d3986f0884336040518363ffffffff1660e01b81526004016109ef9291906113e6565b6040805180830381600087803b158015610a0857600080fd5b505af1158015610a1c573d6000803e3d6000fd5b505050506040513d601f19601f82011682018060405250810190610a409190611050565b8093508195505050600082118015610a605750674563918244f400008211155b610a9f576040517f08c379a0000000000000000000000000000000000000000000000000000000008152600401610a969061138b565b60405180910390fd5b600160009054906101000a900473ffffffffffffffffffffffffffffffffffffffff1673ffffffffffffffffffffffffffffffffffffffff1663d83a2bf33360008054906101000a900473ffffffffffffffffffffffffffffffffffffffff16886040518463ffffffff1660e01b8152600401610b1e9392919061124b565b602060405180830381600087803b158015610b3857600080fd5b505af1158015610b4c573d6000803e3d6000fd5b505050506040513d601f19601f82011682018060405250810190610b709190610fc9565b506000600160009054906101000a900473ffffffffffffffffffffffffffffffffffffffff1673ffffffffffffffffffffffffffffffffffffffff166323b872dd3360008054906101000a900473ffffffffffffffffffffffffffffffffffffffff16896040518463ffffffff1660e01b8152600401610bf29392919061124b565b602060405180830381600087803b158015610c0c57600080fd5b505af1158015610c20573d6000803e3d6000fd5b505050506040513d601f19601f82011682018060405250810190610c449190610fc9565b905080610c86576040517f08c379a0000000000000000000000000000000000000000000000000000000008152600401610c7d9061132b565b60405180910390fd5b50610f82565b60008054906101000a900473ffffffffffffffffffffffffffffffffffffffff1673ffffffffffffffffffffffffffffffffffffffff1663d3986f08846000336040518463ffffffff1660e01b8152600401610ce9929190611282565b60408051808303818588803b158015610d0157600080fd5b505af1158015610d15573d6000803e3d6000fd5b50505050506040513d601f19601f82011682018060405250810190610d3a9190611050565b8093508195505050600082118015610d5a5750674563918244f400008211155b610d99576040517f08c379a0000000000000000000000000000000000000000000000000000000008152600401610d909061138b565b60405180910390fd5b600160009054906101000a900473ffffffffffffffffffffffffffffffffffffffff1673ffffffffffffffffffffffffffffffffffffffff1663d83a2bf360008054906101000a900473ffffffffffffffffffffffffffffffffffffffff1633856040518463ffffffff1660e01b8152600401610e189392919061124b565b602060405180830381600087803b158015610e3257600080fd5b505af1158015610e46573d6000803e3d6000fd5b505050506040513d601f19601f82011682018060405250810190610e6a9190610fc9565b506000600160009054906101000a900473ffffffffffffffffffffffffffffffffffffffff1673ffffffffffffffffffffffffffffffffffffffff166323b872dd60008054906101000a900473ffffffffffffffffffffffffffffffffffffffff1633866040518463ffffffff1660e01b8152600401610eec9392919061124b565b602060405180830381600087803b158015610f0657600080fd5b505af1158015610f1a573d6000803e3d6000fd5b505050506040513d601f19601f82011682018060405250810190610f3e9190610fc9565b905080610f80576040517f08c379a0000000000000000000000000000000000000000000000000000000008152600401610f779061136b565b60405180910390fd5b505b505050919050565b600081519050610f9981611813565b92915050565b600081359050610fae8161182a565b92915050565b600081519050610fc38161182a565b92915050565b600060208284031215610fdf57610fde611602565b5b6000610fed84828501610f8a565b91505092915050565b60006020828403121561100c5761100b611602565b5b600061101a84828501610f9f565b91505092915050565b60006020828403121561103957611038611602565b5b600061104784828501610fb4565b91505092915050565b6000806040838503121561106757611066611602565b5b600061107585828601610fb4565b925050602061108685828601610fb4565b9150509250929050565b6110998161154a565b82525050565b6110a881611592565b82525050565b60006110bb601b8361147a565b91506110c682611607565b602082019050919050565b60006110de60308361147a565b91506110e982611630565b604082019050919050565b600061110160228361147a565b915061110c8261167f565b604082019050919050565b6000611124601b8361147a565b915061112f826116ce565b602082019050919050565b600061114760368361147a565b9150611152826116f7565b604082019050919050565b600061116a601d8361147a565b915061117582611746565b602082019050919050565b600061118d60358361147a565b91506111988261176f565b604082019050919050565b60006111b060008361146f565b91506111bb826117be565b600082019050919050565b60006111d360178361147a565b91506111de826117c1565b602082019050919050565b60006111f6600d8361147a565b9150611201826117ea565b602082019050919050565b61121581611588565b82525050565b6000611226826111a3565b9150819050919050565b60006020820190506112456000830184611090565b92915050565b60006060820190506112606000830186611090565b61126d6020830185611090565b61127a604083018461120c565b949350505050565b6000604082019050611297600083018561109f565b6112a46020830184611090565b9392505050565b600060208201905081810360008301526112c4816110ae565b9050919050565b600060208201905081810360008301526112e4816110d1565b9050919050565b60006020820190508181036000830152611304816110f4565b9050919050565b6000602082019050818103600083015261132481611117565b9050919050565b600060208201905081810360008301526113448161113a565b9050919050565b600060208201905081810360008301526113648161115d565b9050919050565b6000602082019050818103600083015261138481611180565b9050919050565b600060208201905081810360008301526113a4816111c6565b9050919050565b600060208201905081810360008301526113c4816111e9565b9050919050565b60006020820190506113e0600083018461120c565b92915050565b60006040820190506113fb600083018561120c565b6114086020830184611090565b9392505050565b6000604082019050611424600083018561120c565b611431602083018461120c565b9392505050565b600060608201905061144d600083018661120c565b61145a602083018561120c565b611467604083018461120c565b949350505050565b600081905092915050565b600082825260208201905092915050565b600061149682611588565b91506114a183611588565b9250826114b1576114b06115d3565b5b828204905092915050565b60006114c782611588565b91506114d283611588565b9250817fffffffffffffffffffffffffffffffffffffffffffffffffffffffffffffffff048311821515161561150b5761150a6115a4565b5b828202905092915050565b600061152182611588565b915061152c83611588565b92508282101561153f5761153e6115a4565b5b828203905092915050565b600061155582611568565b9050919050565b60008115159050919050565b600073ffffffffffffffffffffffffffffffffffffffff82169050919050565b6000819050919050565b600061159d82611588565b9050919050565b7f4e487b7100000000000000000000000000000000000000000000000000000000600052601160045260246000fd5b7f4e487b7100000000000000000000000000000000000000000000000000000000600052601260045260246000fd5b600080fd5b7f4554485f5452414e534645525f544f5f504f4f4c5f4641494c45440000000000600082015250565b7f5370616365526f757465723a3a72656d6f76654c69717569646974792053504360008201527f5f5452414e534645525f4641494c454400000000000000000000000000000000602082015250565b7f494e53554646494349454e545f42414c414e43455f464f525f5350435f434f4960008201527f4e53000000000000000000000000000000000000000000000000000000000000602082015250565b7f5350435f5452414e534645525f544f5f504f4f4c5f4641494c45440000000000600082015250565b7f5370616365526f757465723a3a73776170546f6b656e73205350435f5452414e60008201527f534645525f544f5f535043504f4f4c5f4641494c454400000000000000000000602082015250565b7f494e53554646494349454e545f4554485f5350435f535550504c494544000000600082015250565b7f5370616365526f757465723a3a73776170546f6b656e73205350435f5452414e60008201527f534645525f544f5f53454e4445525f4641494c45440000000000000000000000602082015250565b50565b7f45584345444445445f534c4950504147455f4c494d4954000000000000000000600082015250565b7f494e56414c49445f545241444500000000000000000000000000000000000000600082015250565b61181c8161155c565b811461182757600080fd5b50565b61183381611588565b811461183e57600080fd5b5056fea2646970667358221220ce9caf5c870ec0d44a13a4c96b43dd43462e4d8e23f83c4f260261922f288ac264736f6c63430008070033",
  "linkReferences": {},
  "deployedLinkReferences": {}
}