{
  "_format": "hh-sol-artifact-1",
  "contractName": "SpaceRouter",
  "sourceName": "contracts/SpaceRouter.sol",
  "abi": [
    {
      "inputs": [],
      "stateMutability": "nonpayable",
      "type": "constructor"
    },
    {
      "anonymous": false,
      "inputs": [
        {
          "indexed": true,
          "internalType": "address",
          "name": "previousOwner",
          "type": "address"
        },
        {
          "indexed": true,
          "internalType": "address",
          "name": "newOwner",
          "type": "address"
        }
      ],
      "name": "OwnershipTransferred",
      "type": "event"
    },
    {
      "inputs": [
        {
          "internalType": "address",
          "name": "tokenA",
          "type": "address"
        },
        {
          "internalType": "address",
          "name": "tokenB",
          "type": "address"
        },
        {
          "internalType": "uint256",
          "name": "amountADesired",
          "type": "uint256"
        },
        {
          "internalType": "uint256",
          "name": "amountBDesired",
          "type": "uint256"
        },
        {
          "internalType": "address",
          "name": "to",
          "type": "address"
        }
      ],
      "name": "addLiquidity",
      "outputs": [],
      "stateMutability": "nonpayable",
      "type": "function"
    },
    {
      "inputs": [],
      "name": "owner",
      "outputs": [
        {
          "internalType": "address",
          "name": "",
          "type": "address"
        }
      ],
      "stateMutability": "view",
      "type": "function"
    },
    {
      "inputs": [],
      "name": "renounceOwnership",
      "outputs": [],
      "stateMutability": "nonpayable",
      "type": "function"
    },
    {
      "inputs": [
        {
          "internalType": "address",
          "name": "newOwner",
          "type": "address"
        }
      ],
      "name": "transferOwnership",
      "outputs": [],
      "stateMutability": "nonpayable",
      "type": "function"
    }
  ],
  "bytecode": "0x608060405234801561001057600080fd5b5061002d61002261003260201b60201c565b61003a60201b60201c565b6100fe565b600033905090565b60008060009054906101000a900473ffffffffffffffffffffffffffffffffffffffff169050816000806101000a81548173ffffffffffffffffffffffffffffffffffffffff021916908373ffffffffffffffffffffffffffffffffffffffff1602179055508173ffffffffffffffffffffffffffffffffffffffff168173ffffffffffffffffffffffffffffffffffffffff167f8be0079c531659141344cd1fd0a4f28419497f9722a3daafe3b4186f6b6457e060405160405180910390a35050565b6105dd8061010d6000396000f3fe608060405234801561001057600080fd5b506004361061004c5760003560e01c80634b2fc7bb14610051578063715018a61461006d5780638da5cb5b14610077578063f2fde38b14610095575b600080fd5b61006b60048036038101906100669190610384565b6100b1565b005b6100756100b8565b005b61007f610140565b60405161008c9190610454565b60405180910390f35b6100af60048036038101906100aa9190610357565b610169565b005b5050505050565b6100c0610261565b73ffffffffffffffffffffffffffffffffffffffff166100de610140565b73ffffffffffffffffffffffffffffffffffffffff1614610134576040517f08c379a000000000000000000000000000000000000000000000000000000000815260040161012b9061048f565b60405180910390fd5b61013e6000610269565b565b60008060009054906101000a900473ffffffffffffffffffffffffffffffffffffffff16905090565b610171610261565b73ffffffffffffffffffffffffffffffffffffffff1661018f610140565b73ffffffffffffffffffffffffffffffffffffffff16146101e5576040517f08c379a00000000000000000000000000000000000000000000000000000000081526004016101dc9061048f565b60405180910390fd5b600073ffffffffffffffffffffffffffffffffffffffff168173ffffffffffffffffffffffffffffffffffffffff161415610255576040517f08c379a000000000000000000000000000000000000000000000000000000000815260040161024c9061046f565b60405180910390fd5b61025e81610269565b50565b600033905090565b60008060009054906101000a900473ffffffffffffffffffffffffffffffffffffffff169050816000806101000a81548173ffffffffffffffffffffffffffffffffffffffff021916908373ffffffffffffffffffffffffffffffffffffffff1602179055508173ffffffffffffffffffffffffffffffffffffffff168173ffffffffffffffffffffffffffffffffffffffff167f8be0079c531659141344cd1fd0a4f28419497f9722a3daafe3b4186f6b6457e060405160405180910390a35050565b60008135905061033c81610579565b92915050565b60008135905061035181610590565b92915050565b60006020828403121561036d5761036c6104fc565b5b600061037b8482850161032d565b91505092915050565b600080600080600060a086880312156103a05761039f6104fc565b5b60006103ae8882890161032d565b95505060206103bf8882890161032d565b94505060406103d088828901610342565b93505060606103e188828901610342565b92505060806103f28882890161032d565b9150509295509295909350565b610408816104c0565b82525050565b600061041b6026836104af565b915061042682610501565b604082019050919050565b600061043e6020836104af565b915061044982610550565b602082019050919050565b600060208201905061046960008301846103ff565b92915050565b600060208201905081810360008301526104888161040e565b9050919050565b600060208201905081810360008301526104a881610431565b9050919050565b600082825260208201905092915050565b60006104cb826104d2565b9050919050565b600073ffffffffffffffffffffffffffffffffffffffff82169050919050565b6000819050919050565b600080fd5b7f4f776e61626c653a206e6577206f776e657220697320746865207a65726f206160008201527f6464726573730000000000000000000000000000000000000000000000000000602082015250565b7f4f776e61626c653a2063616c6c6572206973206e6f7420746865206f776e6572600082015250565b610582816104c0565b811461058d57600080fd5b50565b610599816104f2565b81146105a457600080fd5b5056fea264697066735822122019f35aea6a4ff77849cbfd127de64313b39b9d30402cbb60d3da548c132a9fc264736f6c63430008070033",
  "linkReferences": {},
  "deployedLinkReferences": {}
}