{
  "_format": "hh-sol-artifact-1",
  "contractName": "SpaceRouter",
  "sourceName": "contracts/SpaceRouter.sol",
  "abi": [
    {
      "inputs": [
        {
          "internalType": "contract SpacePool",
          "name": "spacePool",
          "type": "address"
        },
        {
          "internalType": "contract SpaceCoin",
          "name": "spaceCoin",
          "type": "address"
        }
      ],
      "stateMutability": "nonpayable",
      "type": "constructor"
    },
    {
      "inputs": [
        {
          "internalType": "uint256",
          "name": "spaceCoins",
          "type": "uint256"
        }
      ],
      "name": "addLiquidity",
      "outputs": [
        {
          "internalType": "uint256",
          "name": "amountA",
          "type": "uint256"
        },
        {
          "internalType": "uint256",
          "name": "amountB",
          "type": "uint256"
        },
        {
          "internalType": "uint256",
          "name": "liquidity",
          "type": "uint256"
        }
      ],
      "stateMutability": "payable",
      "type": "function"
    },
    {
      "inputs": [
        {
          "internalType": "uint256",
          "name": "amountInA",
          "type": "uint256"
        },
        {
          "internalType": "uint256",
          "name": "amountInB",
          "type": "uint256"
        }
      ],
      "name": "quote",
      "outputs": [
        {
          "internalType": "uint256",
          "name": "amountA",
          "type": "uint256"
        },
        {
          "internalType": "uint256",
          "name": "amountB",
          "type": "uint256"
        }
      ],
      "stateMutability": "view",
      "type": "function"
    },
    {
      "inputs": [],
      "name": "removeLiquidity",
      "outputs": [
        {
          "internalType": "uint256",
          "name": "amountA",
          "type": "uint256"
        },
        {
          "internalType": "uint256",
          "name": "amountB",
          "type": "uint256"
        }
      ],
      "stateMutability": "payable",
      "type": "function"
    },
    {
      "inputs": [
        {
          "internalType": "uint256",
          "name": "spaceCoins",
          "type": "uint256"
        }
      ],
      "name": "swapTokens",
      "outputs": [
        {
          "internalType": "uint256",
          "name": "amountOut",
          "type": "uint256"
        }
      ],
      "stateMutability": "payable",
      "type": "function"
    }
  ],
  "bytecode": "0x60806040523480156200001157600080fd5b5060405162001eca38038062001eca8339818101604052810190620000379190620000ee565b816000806101000a81548173ffffffffffffffffffffffffffffffffffffffff021916908373ffffffffffffffffffffffffffffffffffffffff16021790555080600160006101000a81548173ffffffffffffffffffffffffffffffffffffffff021916908373ffffffffffffffffffffffffffffffffffffffff1602179055505050620001de565b600081519050620000d181620001aa565b92915050565b600081519050620000e881620001c4565b92915050565b60008060408385031215620001085762000107620001a5565b5b60006200011885828601620000d7565b92505060206200012b85828601620000c0565b9150509250929050565b6000620001428262000185565b9050919050565b6000620001568262000185565b9050919050565b60006200016a8262000135565b9050919050565b60006200017e8262000149565b9050919050565b600073ffffffffffffffffffffffffffffffffffffffff82169050919050565b600080fd5b620001b5816200015d565b8114620001c157600080fd5b50565b620001cf8162000171565b8114620001db57600080fd5b50565b611cdc80620001ee6000396000f3fe60806040526004361061003f5760003560e01c8063315f1a411461004457806351c6590a1461008257806367b9a286146100b4578063fe784eaa146100d3575b600080fd5b34801561005057600080fd5b5061006b60048036038101906100669190611317565b610103565b60405161007992919061179c565b60405180910390f35b61009c600480360381019061009791906112bd565b61011f565b6040516100ab939291906117c5565b60405180910390f35b6100bc6105dc565b6040516100ca92919061179c565b60405180910390f35b6100ed60048036038101906100e891906112bd565b61087d565b6040516100fa9190611758565b60405180910390f35b6000806101108484611002565b80925081935050509250929050565b600080600061012e3485611002565b80935081945050506000841180156101465750600034115b610185576040517f08c379a000000000000000000000000000000000000000000000000000000000815260040161017c906116b8565b60405180910390fd5b6000600160009054906101000a900473ffffffffffffffffffffffffffffffffffffffff1673ffffffffffffffffffffffffffffffffffffffff166370a08231336040518263ffffffff1660e01b81526004016101e2919061157d565b60206040518083038186803b1580156101fa57600080fd5b505afa15801561020e573d6000803e3d6000fd5b505050506040513d601f19601f8201168201806040525081019061023291906112ea565b11610272576040517f08c379a000000000000000000000000000000000000000000000000000000000815260040161026990611638565b60405180910390fd5b60008060009054906101000a900473ffffffffffffffffffffffffffffffffffffffff1673ffffffffffffffffffffffffffffffffffffffff16846040516102b990611568565b60006040518083038185875af1925050503d80600081146102f6576040519150601f19603f3d011682016040523d82523d6000602084013e6102fb565b606091505b505090508061033f576040517f08c379a0000000000000000000000000000000000000000000000000000000008152600401610336906115f8565b60405180910390fd5b600160009054906101000a900473ffffffffffffffffffffffffffffffffffffffff1673ffffffffffffffffffffffffffffffffffffffff1663d83a2bf33360008054906101000a900473ffffffffffffffffffffffffffffffffffffffff16866040518463ffffffff1660e01b81526004016103be93929190611598565b602060405180830381600087803b1580156103d857600080fd5b505af11580156103ec573d6000803e3d6000fd5b505050506040513d601f19601f820116820180604052508101906104109190611250565b506000600160009054906101000a900473ffffffffffffffffffffffffffffffffffffffff1673ffffffffffffffffffffffffffffffffffffffff166323b872dd3360008054906101000a900473ffffffffffffffffffffffffffffffffffffffff16876040518463ffffffff1660e01b815260040161049293929190611598565b602060405180830381600087803b1580156104ac57600080fd5b505af11580156104c0573d6000803e3d6000fd5b505050506040513d601f19601f820116820180604052508101906104e49190611250565b905080610526576040517f08c379a000000000000000000000000000000000000000000000000000000000815260040161051d90611658565b60405180910390fd5b60008054906101000a900473ffffffffffffffffffffffffffffffffffffffff1673ffffffffffffffffffffffffffffffffffffffff16636a627842336040518263ffffffff1660e01b815260040161057f919061157d565b602060405180830381600087803b15801561059957600080fd5b505af11580156105ad573d6000803e3d6000fd5b505050506040513d601f19601f820116820180604052508101906105d191906112ea565b925050509193909250565b60008060008054906101000a900473ffffffffffffffffffffffffffffffffffffffff1673ffffffffffffffffffffffffffffffffffffffff166389afcb44336040518263ffffffff1660e01b8152600401610638919061157d565b6040805180830381600087803b15801561065157600080fd5b505af1158015610665573d6000803e3d6000fd5b505050506040513d601f19601f820116820180604052508101906106899190611357565b8092508193505050600160009054906101000a900473ffffffffffffffffffffffffffffffffffffffff1673ffffffffffffffffffffffffffffffffffffffff1663d83a2bf360008054906101000a900473ffffffffffffffffffffffffffffffffffffffff1633846040518463ffffffff1660e01b815260040161071093929190611598565b602060405180830381600087803b15801561072a57600080fd5b505af115801561073e573d6000803e3d6000fd5b505050506040513d601f19601f820116820180604052508101906107629190611250565b506000600160009054906101000a900473ffffffffffffffffffffffffffffffffffffffff1673ffffffffffffffffffffffffffffffffffffffff166323b872dd60008054906101000a900473ffffffffffffffffffffffffffffffffffffffff1633856040518463ffffffff1660e01b81526004016107e493929190611598565b602060405180830381600087803b1580156107fe57600080fd5b505af1158015610812573d6000803e3d6000fd5b505050506040513d601f19601f820116820180604052508101906108369190611250565b905080610878576040517f08c379a000000000000000000000000000000000000000000000000000000000815260040161086f90611618565b60405180910390fd5b509091565b6000808214801561088e5750600034145b156108d55760006108d4576040517f08c379a00000000000000000000000000000000000000000000000000000000081526004016108cb90611738565b60405180910390fd5b5b60003490506000808411156108e8578391505b60006064600160ff16846108fc9190611849565b6109069190611818565b9050808361091491906118a3565b92506000851115610d0457600160009054906101000a900473ffffffffffffffffffffffffffffffffffffffff1673ffffffffffffffffffffffffffffffffffffffff166370a08231336040518263ffffffff1660e01b815260040161097a919061157d565b60206040518083038186803b15801561099257600080fd5b505afa1580156109a6573d6000803e3d6000fd5b505050506040513d601f19601f820116820180604052508101906109ca91906112ea565b851115610a0c576040517f08c379a0000000000000000000000000000000000000000000000000000000008152600401610a0390611638565b60405180910390fd5b60008054906101000a900473ffffffffffffffffffffffffffffffffffffffff1673ffffffffffffffffffffffffffffffffffffffff1663d3986f0884336040518363ffffffff1660e01b8152600401610a67929190611773565b6040805180830381600087803b158015610a8057600080fd5b505af1158015610a94573d6000803e3d6000fd5b505050506040513d601f19601f82011682018060405250810190610ab89190611357565b8093508195505050600082118015610ad85750674563918244f400008211155b610b17576040517f08c379a0000000000000000000000000000000000000000000000000000000008152600401610b0e906116f8565b60405180910390fd5b600160009054906101000a900473ffffffffffffffffffffffffffffffffffffffff1673ffffffffffffffffffffffffffffffffffffffff1663d83a2bf33360008054906101000a900473ffffffffffffffffffffffffffffffffffffffff16886040518463ffffffff1660e01b8152600401610b9693929190611598565b602060405180830381600087803b158015610bb057600080fd5b505af1158015610bc4573d6000803e3d6000fd5b505050506040513d601f19601f82011682018060405250810190610be89190611250565b506000600160009054906101000a900473ffffffffffffffffffffffffffffffffffffffff1673ffffffffffffffffffffffffffffffffffffffff166323b872dd3360008054906101000a900473ffffffffffffffffffffffffffffffffffffffff16896040518463ffffffff1660e01b8152600401610c6a93929190611598565b602060405180830381600087803b158015610c8457600080fd5b505af1158015610c98573d6000803e3d6000fd5b505050506040513d601f19601f82011682018060405250810190610cbc9190611250565b905080610cfe576040517f08c379a0000000000000000000000000000000000000000000000000000000008152600401610cf590611678565b60405180910390fd5b50610ffa565b60008054906101000a900473ffffffffffffffffffffffffffffffffffffffff1673ffffffffffffffffffffffffffffffffffffffff1663d3986f08846000336040518463ffffffff1660e01b8152600401610d619291906115cf565b60408051808303818588803b158015610d7957600080fd5b505af1158015610d8d573d6000803e3d6000fd5b50505050506040513d601f19601f82011682018060405250810190610db29190611357565b8093508195505050600082118015610dd25750674563918244f400008211155b610e11576040517f08c379a0000000000000000000000000000000000000000000000000000000008152600401610e08906116f8565b60405180910390fd5b600160009054906101000a900473ffffffffffffffffffffffffffffffffffffffff1673ffffffffffffffffffffffffffffffffffffffff1663d83a2bf360008054906101000a900473ffffffffffffffffffffffffffffffffffffffff1633856040518463ffffffff1660e01b8152600401610e9093929190611598565b602060405180830381600087803b158015610eaa57600080fd5b505af1158015610ebe573d6000803e3d6000fd5b505050506040513d601f19601f82011682018060405250810190610ee29190611250565b506000600160009054906101000a900473ffffffffffffffffffffffffffffffffffffffff1673ffffffffffffffffffffffffffffffffffffffff166323b872dd60008054906101000a900473ffffffffffffffffffffffffffffffffffffffff1633866040518463ffffffff1660e01b8152600401610f6493929190611598565b602060405180830381600087803b158015610f7e57600080fd5b505af1158015610f92573d6000803e3d6000fd5b505050506040513d601f19601f82011682018060405250810190610fb69190611250565b905080610ff8576040517f08c379a0000000000000000000000000000000000000000000000000000000008152600401610fef906116d8565b60405180910390fd5b505b505050919050565b60008060008060008054906101000a900473ffffffffffffffffffffffffffffffffffffffff1673ffffffffffffffffffffffffffffffffffffffff16630902f1ac6040518163ffffffff1660e01b8152600401604080518083038186803b15801561106d57600080fd5b505afa158015611081573d6000803e3d6000fd5b505050506040513d601f19601f820116820180604052508101906110a5919061127d565b6dffffffffffffffffffffffffffff1691506dffffffffffffffffffffffffffff1691506000821480156110d95750600081145b156110ed5785858094508195505050611140565b60006110fa878484611149565b9050858111611112578681809550819650505061113e565b600061111f878486611149565b9050878111156111325761113161194b565b5b80878096508197505050505b505b50509250929050565b600080841161118d576040517f08c379a000000000000000000000000000000000000000000000000000000000815260040161118490611718565b60405180910390fd5b60008311801561119d5750600082115b6111dc576040517f08c379a00000000000000000000000000000000000000000000000000000000081526004016111d390611698565b60405180910390fd5b8282856111e99190611849565b6111f39190611818565b90509392505050565b60008151905061120b81611c61565b92915050565b60008151905061122081611c78565b92915050565b60008135905061123581611c8f565b92915050565b60008151905061124a81611c8f565b92915050565b600060208284031215611266576112656119d8565b5b6000611274848285016111fc565b91505092915050565b60008060408385031215611294576112936119d8565b5b60006112a285828601611211565b92505060206112b385828601611211565b9150509250929050565b6000602082840312156112d3576112d26119d8565b5b60006112e184828501611226565b91505092915050565b600060208284031215611300576112ff6119d8565b5b600061130e8482850161123b565b91505092915050565b6000806040838503121561132e5761132d6119d8565b5b600061133c85828601611226565b925050602061134d85828601611226565b9150509250929050565b6000806040838503121561136e5761136d6119d8565b5b600061137c8582860161123b565b925050602061138d8582860161123b565b9150509250929050565b6113a0816118d7565b82525050565b6113af81611939565b82525050565b60006113c2601b83611807565b91506113cd826119dd565b602082019050919050565b60006113e5603083611807565b91506113f082611a06565b604082019050919050565b6000611408602283611807565b915061141382611a55565b604082019050919050565b600061142b601b83611807565b915061143682611aa4565b602082019050919050565b600061144e603683611807565b915061145982611acd565b604082019050919050565b6000611471602383611807565b915061147c82611b1c565b604082019050919050565b6000611494601d83611807565b915061149f82611b6b565b602082019050919050565b60006114b7603583611807565b91506114c282611b94565b604082019050919050565b60006114da6000836117fc565b91506114e582611be3565b600082019050919050565b60006114fd601783611807565b915061150882611be6565b602082019050919050565b6000611520602083611807565b915061152b82611c0f565b602082019050919050565b6000611543600d83611807565b915061154e82611c38565b602082019050919050565b6115628161192f565b82525050565b6000611573826114cd565b9150819050919050565b60006020820190506115926000830184611397565b92915050565b60006060820190506115ad6000830186611397565b6115ba6020830185611397565b6115c76040830184611559565b949350505050565b60006040820190506115e460008301856113a6565b6115f16020830184611397565b9392505050565b60006020820190508181036000830152611611816113b5565b9050919050565b60006020820190508181036000830152611631816113d8565b9050919050565b60006020820190508181036000830152611651816113fb565b9050919050565b600060208201905081810360008301526116718161141e565b9050919050565b6000602082019050818103600083015261169181611441565b9050919050565b600060208201905081810360008301526116b181611464565b9050919050565b600060208201905081810360008301526116d181611487565b9050919050565b600060208201905081810360008301526116f1816114aa565b9050919050565b60006020820190508181036000830152611711816114f0565b9050919050565b6000602082019050818103600083015261173181611513565b9050919050565b6000602082019050818103600083015261175181611536565b9050919050565b600060208201905061176d6000830184611559565b92915050565b60006040820190506117886000830185611559565b6117956020830184611397565b9392505050565b60006040820190506117b16000830185611559565b6117be6020830184611559565b9392505050565b60006060820190506117da6000830186611559565b6117e76020830185611559565b6117f46040830184611559565b949350505050565b600081905092915050565b600082825260208201905092915050565b60006118238261192f565b915061182e8361192f565b92508261183e5761183d6119a9565b5b828204905092915050565b60006118548261192f565b915061185f8361192f565b9250817fffffffffffffffffffffffffffffffffffffffffffffffffffffffffffffffff04831182151516156118985761189761197a565b5b828202905092915050565b60006118ae8261192f565b91506118b98361192f565b9250828210156118cc576118cb61197a565b5b828203905092915050565b60006118e28261190f565b9050919050565b60008115159050919050565b60006dffffffffffffffffffffffffffff82169050919050565b600073ffffffffffffffffffffffffffffffffffffffff82169050919050565b6000819050919050565b60006119448261192f565b9050919050565b7f4e487b7100000000000000000000000000000000000000000000000000000000600052600160045260246000fd5b7f4e487b7100000000000000000000000000000000000000000000000000000000600052601160045260246000fd5b7f4e487b7100000000000000000000000000000000000000000000000000000000600052601260045260246000fd5b600080fd5b7f4554485f5452414e534645525f544f5f504f4f4c5f4641494c45440000000000600082015250565b7f5370616365526f757465723a3a72656d6f76654c69717569646974792053504360008201527f5f5452414e534645525f4641494c454400000000000000000000000000000000602082015250565b7f494e53554646494349454e545f42414c414e43455f464f525f5350435f434f4960008201527f4e53000000000000000000000000000000000000000000000000000000000000602082015250565b7f5350435f5452414e534645525f544f5f504f4f4c5f4641494c45440000000000600082015250565b7f5370616365526f757465723a3a73776170546f6b656e73205350435f5452414e60008201527f534645525f544f5f535043504f4f4c5f4641494c454400000000000000000000602082015250565b7f5370616365526f757465723a20494e53554646494349454e545f4c495155494460008201527f4954590000000000000000000000000000000000000000000000000000000000602082015250565b7f494e53554646494349454e545f4554485f5350435f535550504c494544000000600082015250565b7f5370616365526f757465723a3a73776170546f6b656e73205350435f5452414e60008201527f534645525f544f5f53454e4445525f4641494c45440000000000000000000000602082015250565b50565b7f45584345444445445f534c4950504147455f4c494d4954000000000000000000600082015250565b7f5370616365526f757465723a20494e53554646494349454e545f414d4f554e54600082015250565b7f494e56414c49445f545241444500000000000000000000000000000000000000600082015250565b611c6a816118e9565b8114611c7557600080fd5b50565b611c81816118f5565b8114611c8c57600080fd5b50565b611c988161192f565b8114611ca357600080fd5b5056fea2646970667358221220b4026cbc1ac6dfc3e0c6384fabfdb021de63e40445fe2c715d6a3883292fc0d664736f6c63430008070033",
  "linkReferences": {},
  "deployedLinkReferences": {}
}