{
  "_format": "hh-sol-artifact-1",
  "contractName": "SpaceCoinICO",
  "sourceName": "contracts/SpaceCoinICO.sol",
  "abi": [
    {
      "inputs": [
        {
          "internalType": "address",
          "name": "treasury",
          "type": "address"
        }
      ],
      "stateMutability": "nonpayable",
      "type": "constructor"
    },
    {
      "anonymous": false,
      "inputs": [
        {
          "indexed": false,
          "internalType": "string",
          "name": "message",
          "type": "string"
        },
        {
          "indexed": false,
          "internalType": "address",
          "name": "sender",
          "type": "address"
        }
      ],
      "name": "AddedToWhiteList",
      "type": "event"
    },
    {
      "anonymous": false,
      "inputs": [
        {
          "indexed": false,
          "internalType": "string",
          "name": "message",
          "type": "string"
        },
        {
          "indexed": false,
          "internalType": "uint256",
          "name": "amount",
          "type": "uint256"
        }
      ],
      "name": "ContributionSuccess",
      "type": "event"
    },
    {
      "anonymous": false,
      "inputs": [
        {
          "indexed": true,
          "internalType": "address",
          "name": "previousOwner",
          "type": "address"
        },
        {
          "indexed": true,
          "internalType": "address",
          "name": "newOwner",
          "type": "address"
        }
      ],
      "name": "OwnershipTransferred",
      "type": "event"
    },
    {
      "anonymous": false,
      "inputs": [
        {
          "indexed": false,
          "internalType": "address",
          "name": "account",
          "type": "address"
        }
      ],
      "name": "Paused",
      "type": "event"
    },
    {
      "anonymous": false,
      "inputs": [
        {
          "indexed": false,
          "internalType": "string",
          "name": "message",
          "type": "string"
        }
      ],
      "name": "TokenTransfered",
      "type": "event"
    },
    {
      "anonymous": false,
      "inputs": [
        {
          "indexed": false,
          "internalType": "address",
          "name": "account",
          "type": "address"
        }
      ],
      "name": "Unpaused",
      "type": "event"
    },
    {
      "inputs": [
        {
          "internalType": "address",
          "name": "_address",
          "type": "address"
        }
      ],
      "name": "addWhitelisted",
      "outputs": [],
      "stateMutability": "nonpayable",
      "type": "function"
    },
    {
      "inputs": [],
      "name": "contribute",
      "outputs": [],
      "stateMutability": "payable",
      "type": "function"
    },
    {
      "inputs": [],
      "name": "currentPhase",
      "outputs": [
        {
          "internalType": "enum Phase",
          "name": "",
          "type": "uint8"
        }
      ],
      "stateMutability": "view",
      "type": "function"
    },
    {
      "inputs": [],
      "name": "getBalance",
      "outputs": [
        {
          "internalType": "uint256",
          "name": "",
          "type": "uint256"
        }
      ],
      "stateMutability": "view",
      "type": "function"
    },
    {
      "inputs": [],
      "name": "getContributionLimit",
      "outputs": [
        {
          "internalType": "uint256",
          "name": "",
          "type": "uint256"
        }
      ],
      "stateMutability": "view",
      "type": "function"
    },
    {
      "inputs": [],
      "name": "getPhaseLimit",
      "outputs": [
        {
          "internalType": "uint256",
          "name": "",
          "type": "uint256"
        }
      ],
      "stateMutability": "view",
      "type": "function"
    },
    {
      "inputs": [],
      "name": "owner",
      "outputs": [
        {
          "internalType": "address",
          "name": "",
          "type": "address"
        }
      ],
      "stateMutability": "view",
      "type": "function"
    },
    {
      "inputs": [],
      "name": "pause",
      "outputs": [],
      "stateMutability": "nonpayable",
      "type": "function"
    },
    {
      "inputs": [],
      "name": "paused",
      "outputs": [
        {
          "internalType": "bool",
          "name": "",
          "type": "bool"
        }
      ],
      "stateMutability": "view",
      "type": "function"
    },
    {
      "inputs": [],
      "name": "phaseRemaingCapacity",
      "outputs": [
        {
          "internalType": "uint256",
          "name": "",
          "type": "uint256"
        }
      ],
      "stateMutability": "view",
      "type": "function"
    },
    {
      "inputs": [],
      "name": "redeem",
      "outputs": [],
      "stateMutability": "nonpayable",
      "type": "function"
    },
    {
      "inputs": [],
      "name": "renounceOwnership",
      "outputs": [],
      "stateMutability": "nonpayable",
      "type": "function"
    },
    {
      "inputs": [],
      "name": "setGeneralPhase",
      "outputs": [],
      "stateMutability": "nonpayable",
      "type": "function"
    },
    {
      "inputs": [],
      "name": "setOpenPhase",
      "outputs": [],
      "stateMutability": "nonpayable",
      "type": "function"
    },
    {
      "inputs": [
        {
          "internalType": "contract SpaceCoin",
          "name": "spaceCoin",
          "type": "address"
        }
      ],
      "name": "setSpaceCoinAddress",
      "outputs": [],
      "stateMutability": "nonpayable",
      "type": "function"
    },
    {
      "inputs": [
        {
          "internalType": "address",
          "name": "weth",
          "type": "address"
        }
      ],
      "name": "setWETHAddress",
      "outputs": [],
      "stateMutability": "nonpayable",
      "type": "function"
    },
    {
      "inputs": [
        {
          "internalType": "address",
          "name": "newOwner",
          "type": "address"
        }
      ],
      "name": "transferOwnership",
      "outputs": [],
      "stateMutability": "nonpayable",
      "type": "function"
    },
    {
      "inputs": [],
      "name": "unpause",
      "outputs": [],
      "stateMutability": "nonpayable",
      "type": "function"
    },
    {
      "inputs": [],
      "name": "withdraw",
      "outputs": [],
      "stateMutability": "payable",
      "type": "function"
    }
  ],
  "bytecode": "0x6080604052600560015569032d26d12e980b600000600255685150ae84a8cdf000006003553480156200003157600080fd5b5060405162002576380380620025768339818101604052810190620000579190620001bc565b620000776200006b620000d960201b60201c565b620000e160201b60201c565b60008060146101000a81548160ff02191690831515021790555080600760006101000a81548173ffffffffffffffffffffffffffffffffffffffff021916908373ffffffffffffffffffffffffffffffffffffffff1602179055505062000241565b600033905090565b60008060009054906101000a900473ffffffffffffffffffffffffffffffffffffffff169050816000806101000a81548173ffffffffffffffffffffffffffffffffffffffff021916908373ffffffffffffffffffffffffffffffffffffffff1602179055508173ffffffffffffffffffffffffffffffffffffffff168173ffffffffffffffffffffffffffffffffffffffff167f8be0079c531659141344cd1fd0a4f28419497f9722a3daafe3b4186f6b6457e060405160405180910390a35050565b600081519050620001b68162000227565b92915050565b600060208284031215620001d557620001d462000222565b5b6000620001e584828501620001a5565b91505092915050565b6000620001fb8262000202565b9050919050565b600073ffffffffffffffffffffffffffffffffffffffff82169050919050565b600080fd5b6200023281620001ee565b81146200023e57600080fd5b50565b61232580620002516000396000f3fe6080604052600436106101145760003560e01c8063715018a6116100a0578063be040fb011610064578063be040fb0146102e8578063cdcb6840146102ff578063d7bb99ba1461032a578063f2fde38b14610334578063fa1e19e51461035d57610114565b8063715018a61461024d5780638456cb59146102645780638da5cb5b1461027b5780639bae6dbf146102a6578063af6b39c5146102bd57610114565b80633ccfd60b116100e75780633ccfd60b146101af5780633f4ba83a146101b95780635325d806146101d05780635c975abb146101f95780636a4234eb1461022457610114565b8063055ad42e1461011957806310154bad1461014457806312065fe01461016d57806338f7826f14610198575b600080fd5b34801561012557600080fd5b5061012e610388565b60405161013b9190611a9a565b60405180910390f35b34801561015057600080fd5b5061016b600480360381019061016691906116e3565b61039f565b005b34801561017957600080fd5b506101826105cd565b60405161018f9190611cd1565b60405180910390f35b3480156101a457600080fd5b506101ad6105d5565b005b6101b761073c565b005b3480156101c557600080fd5b506101ce61093f565b005b3480156101dc57600080fd5b506101f760048036038101906101f2919061173d565b6109c5565b005b34801561020557600080fd5b5061020e610a09565b60405161021b9190611a7f565b60405180910390f35b34801561023057600080fd5b5061024b600480360381019061024691906116e3565b610a1f565b005b34801561025957600080fd5b50610262610a63565b005b34801561027057600080fd5b50610279610aeb565b005b34801561028757600080fd5b50610290610b71565b60405161029d9190611a3b565b60405180910390f35b3480156102b257600080fd5b506102bb610b9a565b005b3480156102c957600080fd5b506102d2610d22565b6040516102df9190611cd1565b60405180910390f35b3480156102f457600080fd5b506102fd610e33565b005b34801561030b57600080fd5b506103146110a8565b6040516103219190611cd1565b60405180910390f35b6103326110b2565b005b34801561034057600080fd5b5061035b600480360381019061035691906116e3565b61137d565b005b34801561036957600080fd5b50610372611475565b60405161037f9190611cd1565b60405180910390f35b6000600960149054906101000a900460ff16905090565b6103a761147f565b73ffffffffffffffffffffffffffffffffffffffff166103c5610b71565b73ffffffffffffffffffffffffffffffffffffffff161461041b576040517f08c379a000000000000000000000000000000000000000000000000000000000815260040161041290611be3565b60405180910390fd5b610423610a09565b15610463576040517f08c379a000000000000000000000000000000000000000000000000000000000815260040161045a90611ba3565b60405180910390fd5b60001515600560008373ffffffffffffffffffffffffffffffffffffffff1673ffffffffffffffffffffffffffffffffffffffff16815260200190815260200160002060009054906101000a900460ff161515146104f6576040517f08c379a00000000000000000000000000000000000000000000000000000000081526004016104ed90611c43565b60405180910390fd5b6001600560008373ffffffffffffffffffffffffffffffffffffffff1673ffffffffffffffffffffffffffffffffffffffff16815260200190815260200160002060006101000a81548160ff0219169083151502179055506000600660008373ffffffffffffffffffffffffffffffffffffffff1673ffffffffffffffffffffffffffffffffffffffff168152602001908152602001600020819055507f951ed8e9cceab02d6836f83965f7a63e26ebc4eb93b8034a0c9c2a0f51a38fb9336040516105c29190611ad5565b60405180910390a150565b600047905090565b6105dd61147f565b73ffffffffffffffffffffffffffffffffffffffff166105fb610b71565b73ffffffffffffffffffffffffffffffffffffffff1614610651576040517f08c379a000000000000000000000000000000000000000000000000000000000815260040161064890611be3565b60405180910390fd5b610659610a09565b15610699576040517f08c379a000000000000000000000000000000000000000000000000000000000815260040161069090611ba3565b60405180910390fd5b600160028111156106ad576106ac611efa565b5b600960149054906101000a900460ff1660028111156106cf576106ce611efa565b5b1461070f576040517f08c379a000000000000000000000000000000000000000000000000000000000815260040161070690611b63565b60405180910390fd5b6002600960146101000a81548160ff0219169083600281111561073557610734611efa565b5b0217905550565b600760009054906101000a900473ffffffffffffffffffffffffffffffffffffffff1673ffffffffffffffffffffffffffffffffffffffff163373ffffffffffffffffffffffffffffffffffffffff16146107cc576040517f08c379a00000000000000000000000000000000000000000000000000000000081526004016107c390611b23565b60405180910390fd5b600960009054906101000a900473ffffffffffffffffffffffffffffffffffffffff1673ffffffffffffffffffffffffffffffffffffffff166340c10f1933670de0b6b3a76400004761081f9190611d5e565b6040518363ffffffff1660e01b815260040161083c929190611a56565b600060405180830381600087803b15801561085657600080fd5b505af115801561086a573d6000803e3d6000fd5b505050506000600760009054906101000a900473ffffffffffffffffffffffffffffffffffffffff1673ffffffffffffffffffffffffffffffffffffffff16476040516108b690611a26565b60006040518083038185875af1925050503d80600081146108f3576040519150601f19603f3d011682016040523d82523d6000602084013e6108f8565b606091505b505090508061093c576040517f08c379a000000000000000000000000000000000000000000000000000000000815260040161093390611bc3565b60405180910390fd5b50565b61094761147f565b73ffffffffffffffffffffffffffffffffffffffff16610965610b71565b73ffffffffffffffffffffffffffffffffffffffff16146109bb576040517f08c379a00000000000000000000000000000000000000000000000000000000081526004016109b290611be3565b60405180910390fd5b6109c3611487565b565b80600860006101000a81548173ffffffffffffffffffffffffffffffffffffffff021916908373ffffffffffffffffffffffffffffffffffffffff16021790555050565b60008060149054906101000a900460ff16905090565b80600960006101000a81548173ffffffffffffffffffffffffffffffffffffffff021916908373ffffffffffffffffffffffffffffffffffffffff16021790555050565b610a6b61147f565b73ffffffffffffffffffffffffffffffffffffffff16610a89610b71565b73ffffffffffffffffffffffffffffffffffffffff1614610adf576040517f08c379a0000000000000000000000000000000000000000000000000000000008152600401610ad690611be3565b60405180910390fd5b610ae96000611528565b565b610af361147f565b73ffffffffffffffffffffffffffffffffffffffff16610b11610b71565b73ffffffffffffffffffffffffffffffffffffffff1614610b67576040517f08c379a0000000000000000000000000000000000000000000000000000000008152600401610b5e90611be3565b60405180910390fd5b610b6f6115ec565b565b60008060009054906101000a900473ffffffffffffffffffffffffffffffffffffffff16905090565b610ba261147f565b73ffffffffffffffffffffffffffffffffffffffff16610bc0610b71565b73ffffffffffffffffffffffffffffffffffffffff1614610c16576040517f08c379a0000000000000000000000000000000000000000000000000000000008152600401610c0d90611be3565b60405180910390fd5b610c1e610a09565b15610c5e576040517f08c379a0000000000000000000000000000000000000000000000000000000008152600401610c5590611ba3565b60405180910390fd5b60006002811115610c7257610c71611efa565b5b600960149054906101000a900460ff166002811115610c9457610c93611efa565b5b14610cd4576040517f08c379a0000000000000000000000000000000000000000000000000000000008152600401610ccb90611b63565b60405180910390fd5b6001600960146101000a81548160ff02191690836002811115610cfa57610cf9611efa565b5b021790555069065a4da25d3016c00000600281905550683635c9adc5dea00000600381905550565b6000600280811115610d3757610d36611efa565b5b600960149054906101000a900460ff166002811115610d5957610d58611efa565b5b14610d7557600454600254610d6e9190611de9565b9050610e30565b600154600860009054906101000a900473ffffffffffffffffffffffffffffffffffffffff1673ffffffffffffffffffffffffffffffffffffffff166370a08231306040518263ffffffff1660e01b8152600401610dd39190611a3b565b60206040518083038186803b158015610deb57600080fd5b505afa158015610dff573d6000803e3d6000fd5b505050506040513d601f19601f82011682018060405250810190610e23919061176a565b610e2d9190611d5e565b90505b90565b600280811115610e4657610e45611efa565b5b600960149054906101000a900460ff166002811115610e6857610e67611efa565b5b14610ea8576040517f08c379a0000000000000000000000000000000000000000000000000000000008152600401610e9f90611c23565b60405180910390fd5b6000600660003373ffffffffffffffffffffffffffffffffffffffff1673ffffffffffffffffffffffffffffffffffffffff1681526020019081526020016000205411610f2a576040517f08c379a0000000000000000000000000000000000000000000000000000000008152600401610f2190611c03565b60405180910390fd5b6000600154600660003373ffffffffffffffffffffffffffffffffffffffff1673ffffffffffffffffffffffffffffffffffffffff16815260200190815260200160002054610f799190611d8f565b90506000600660003373ffffffffffffffffffffffffffffffffffffffff1673ffffffffffffffffffffffffffffffffffffffff16815260200190815260200160002081905550600860009054906101000a900473ffffffffffffffffffffffffffffffffffffffff1673ffffffffffffffffffffffffffffffffffffffff1663a9059cbb33836040518363ffffffff1660e01b815260040161101d929190611a56565b602060405180830381600087803b15801561103757600080fd5b505af115801561104b573d6000803e3d6000fd5b505050506040513d601f19601f8201168201806040525081019061106f9190611710565b507f1d5e86a50f279561809a2b76e4ba7ec1bb5f9540b9dae52a3205a6215ae8d22d60405161109d90611b83565b60405180910390a150565b6000600254905090565b600060028111156110c6576110c5611efa565b5b600960149054906101000a900460ff1660028111156110e8576110e7611efa565b5b141561117b57600560003373ffffffffffffffffffffffffffffffffffffffff1673ffffffffffffffffffffffffffffffffffffffff16815260200190815260200160002060009054906101000a900460ff1661117a576040517f08c379a000000000000000000000000000000000000000000000000000000000815260040161117190611c83565b60405180910390fd5b5b60028081111561118e5761118d611efa565b5b600960149054906101000a900460ff1660028111156111b0576111af611efa565b5b146112455760035434600660003373ffffffffffffffffffffffffffffffffffffffff1673ffffffffffffffffffffffffffffffffffffffff168152602001908152602001600020546112039190611d08565b1115611244576040517f08c379a000000000000000000000000000000000000000000000000000000000815260040161123b90611b43565b60405180910390fd5b5b6002546112506105cd565b1115611291576040517f08c379a000000000000000000000000000000000000000000000000000000000815260040161128890611c63565b60405180910390fd5b34600660003373ffffffffffffffffffffffffffffffffffffffff1673ffffffffffffffffffffffffffffffffffffffff16815260200190815260200160002060008282546112e09190611d08565b9250508190555034600460008282546112f99190611d08565b9250508190555060028081111561131357611312611efa565b5b600960149054906101000a900460ff16600281111561133557611334611efa565b5b141561134457611343610e33565b5b7fc2d052242c53b9291b212437369ea86f8da5aa682c9fba0227677b12d0e115bd346040516113739190611ca3565b60405180910390a1565b61138561147f565b73ffffffffffffffffffffffffffffffffffffffff166113a3610b71565b73ffffffffffffffffffffffffffffffffffffffff16146113f9576040517f08c379a00000000000000000000000000000000000000000000000000000000081526004016113f090611be3565b60405180910390fd5b600073ffffffffffffffffffffffffffffffffffffffff168173ffffffffffffffffffffffffffffffffffffffff161415611469576040517f08c379a000000000000000000000000000000000000000000000000000000000815260040161146090611b03565b60405180910390fd5b61147281611528565b50565b6000600354905090565b600033905090565b61148f610a09565b6114ce576040517f08c379a00000000000000000000000000000000000000000000000000000000081526004016114c590611ab5565b60405180910390fd5b60008060146101000a81548160ff0219169083151502179055507f5db9ee0a495bf2e6ff9c91a7834c1ba4fdd244a5e8aa4e537bd38aeae4b073aa61151161147f565b60405161151e9190611a3b565b60405180910390a1565b60008060009054906101000a900473ffffffffffffffffffffffffffffffffffffffff169050816000806101000a81548173ffffffffffffffffffffffffffffffffffffffff021916908373ffffffffffffffffffffffffffffffffffffffff1602179055508173ffffffffffffffffffffffffffffffffffffffff168173ffffffffffffffffffffffffffffffffffffffff167f8be0079c531659141344cd1fd0a4f28419497f9722a3daafe3b4186f6b6457e060405160405180910390a35050565b6115f4610a09565b15611634576040517f08c379a000000000000000000000000000000000000000000000000000000000815260040161162b90611ba3565b60405180910390fd5b6001600060146101000a81548160ff0219169083151502179055507f62e78cea01bee320cd4e420270b5ea74000d11b0c9f74754ebdbfc544b05a25861167861147f565b6040516116859190611a3b565b60405180910390a1565b60008135905061169e81612293565b92915050565b6000815190506116b3816122aa565b92915050565b6000813590506116c8816122c1565b92915050565b6000815190506116dd816122d8565b92915050565b6000602082840312156116f9576116f8611f29565b5b60006117078482850161168f565b91505092915050565b60006020828403121561172657611725611f29565b5b6000611734848285016116a4565b91505092915050565b60006020828403121561175357611752611f29565b5b6000611761848285016116b9565b91505092915050565b6000602082840312156117805761177f611f29565b5b600061178e848285016116ce565b91505092915050565b6117a081611e1d565b82525050565b6117af81611e2f565b82525050565b6117be81611e8a565b82525050565b60006117d1601483611cf7565b91506117dc82611f2e565b602082019050919050565b60006117f4601383611cf7565b91506117ff82611f57565b602082019050919050565b6000611817602683611cf7565b915061182282611f80565b604082019050919050565b600061183a600c83611cf7565b915061184582611fcf565b602082019050919050565b600061185d602383611cf7565b915061186882611ff8565b604082019050919050565b6000611880602483611cf7565b915061188b82612047565b604082019050919050565b60006118a3601a83611cf7565b91506118ae82612096565b602082019050919050565b60006118c6601083611cf7565b91506118d1826120bf565b602082019050919050565b60006118e9600f83611cf7565b91506118f4826120e8565b602082019050919050565b600061190c602083611cf7565b915061191782612111565b602082019050919050565b600061192f603983611cf7565b915061193a8261213a565b604082019050919050565b6000611952602583611cf7565b915061195d82612189565b604082019050919050565b6000611975601383611cf7565b9150611980826121d8565b602082019050919050565b6000611998601783611cf7565b91506119a382612201565b602082019050919050565b60006119bb600083611cec565b91506119c68261222a565b600082019050919050565b60006119de601f83611cf7565b91506119e98261222d565b602082019050919050565b6000611a01601583611cf7565b9150611a0c82612256565b602082019050919050565b611a2081611e80565b82525050565b6000611a31826119ae565b9150819050919050565b6000602082019050611a506000830184611797565b92915050565b6000604082019050611a6b6000830185611797565b611a786020830184611a17565b9392505050565b6000602082019050611a9460008301846117a6565b92915050565b6000602082019050611aaf60008301846117b5565b92915050565b60006020820190508181036000830152611ace816117c4565b9050919050565b60006040820190508181036000830152611aee816117e7565b9050611afd6020830184611797565b92915050565b60006020820190508181036000830152611b1c8161180a565b9050919050565b60006020820190508181036000830152611b3c8161182d565b9050919050565b60006020820190508181036000830152611b5c81611850565b9050919050565b60006020820190508181036000830152611b7c81611873565b9050919050565b60006020820190508181036000830152611b9c81611896565b9050919050565b60006020820190508181036000830152611bbc816118b9565b9050919050565b60006020820190508181036000830152611bdc816118dc565b9050919050565b60006020820190508181036000830152611bfc816118ff565b9050919050565b60006020820190508181036000830152611c1c81611922565b9050919050565b60006020820190508181036000830152611c3c81611945565b9050919050565b60006020820190508181036000830152611c5c81611968565b9050919050565b60006020820190508181036000830152611c7c8161198b565b9050919050565b60006020820190508181036000830152611c9c816119d1565b9050919050565b60006040820190508181036000830152611cbc816119f4565b9050611ccb6020830184611a17565b92915050565b6000602082019050611ce66000830184611a17565b92915050565b600081905092915050565b600082825260208201905092915050565b6000611d1382611e80565b9150611d1e83611e80565b9250827fffffffffffffffffffffffffffffffffffffffffffffffffffffffffffffffff03821115611d5357611d52611e9c565b5b828201905092915050565b6000611d6982611e80565b9150611d7483611e80565b925082611d8457611d83611ecb565b5b828204905092915050565b6000611d9a82611e80565b9150611da583611e80565b9250817fffffffffffffffffffffffffffffffffffffffffffffffffffffffffffffffff0483118215151615611dde57611ddd611e9c565b5b828202905092915050565b6000611df482611e80565b9150611dff83611e80565b925082821015611e1257611e11611e9c565b5b828203905092915050565b6000611e2882611e60565b9050919050565b60008115159050919050565b6000611e4682611e1d565b9050919050565b6000819050611e5b8261227f565b919050565b600073ffffffffffffffffffffffffffffffffffffffff82169050919050565b6000819050919050565b6000611e9582611e4d565b9050919050565b7f4e487b7100000000000000000000000000000000000000000000000000000000600052601160045260246000fd5b7f4e487b7100000000000000000000000000000000000000000000000000000000600052601260045260246000fd5b7f4e487b7100000000000000000000000000000000000000000000000000000000600052602160045260246000fd5b600080fd5b7f5061757361626c653a206e6f7420706175736564000000000000000000000000600082015250565b7f416464726573732057686974656c697374656400000000000000000000000000600082015250565b7f4f776e61626c653a206e6577206f776e657220697320746865207a65726f206160008201527f6464726573730000000000000000000000000000000000000000000000000000602082015250565b7f554e415554484f52495a45440000000000000000000000000000000000000000600082015250565b7f4572726f723a204d6f7265207468616e20636f6e747269627574696f6e206c6960008201527f6d69740000000000000000000000000000000000000000000000000000000000602082015250565b7f4572726f723a204f6e6c7920466f727761726420506861736520697320616c6c60008201527f6f77656400000000000000000000000000000000000000000000000000000000602082015250565b7f546f6b656e20686173206265656e207472616e73666572726564000000000000600082015250565b7f5061757361626c653a2070617573656400000000000000000000000000000000600082015250565b7f57495448445241575f4641494c45440000000000000000000000000000000000600082015250565b7f4f776e61626c653a2063616c6c6572206973206e6f7420746865206f776e6572600082015250565b7f4572726f723a20496e76616c69642061646472657373206f722068617665206e60008201527f6f7420636f6e747269627574656420616e7920616d6f756e7400000000000000602082015250565b7f4572726f723a2043616e6e6f742072656465656d20696e2063757272656e742060008201527f5068617365000000000000000000000000000000000000000000000000000000602082015250565b7f416c72656164792057686974656c697374656400000000000000000000000000600082015250565b7f4572726f723a205068617365206c696d6974206f766572000000000000000000600082015250565b50565b7f4572726f723a2041646472657373206e6f7420696e2077686974656c69737400600082015250565b7f436f6e747269627574696f6e2052656365697665640000000000000000000000600082015250565b600381106122905761228f611efa565b5b50565b61229c81611e1d565b81146122a757600080fd5b50565b6122b381611e2f565b81146122be57600080fd5b50565b6122ca81611e3b565b81146122d557600080fd5b50565b6122e181611e80565b81146122ec57600080fd5b5056fea2646970667358221220ac5bb8c025f0433c52052d7bc646c8ba3c931e908e2a8133827cc3731f1abbc064736f6c63430008070033",
  "linkReferences": {},
  "deployedLinkReferences": {}
}