{
  "_format": "hh-sol-artifact-1",
  "contractName": "SpaceCoinICO",
  "sourceName": "contracts/SpaceCoinICO.sol",
  "abi": [
    {
      "inputs": [
        {
          "internalType": "address",
          "name": "treasury",
          "type": "address"
        }
      ],
      "stateMutability": "nonpayable",
      "type": "constructor"
    },
    {
      "anonymous": false,
      "inputs": [
        {
          "indexed": false,
          "internalType": "string",
          "name": "message",
          "type": "string"
        },
        {
          "indexed": false,
          "internalType": "address",
          "name": "sender",
          "type": "address"
        }
      ],
      "name": "AddedToWhiteList",
      "type": "event"
    },
    {
      "anonymous": false,
      "inputs": [
        {
          "indexed": false,
          "internalType": "string",
          "name": "message",
          "type": "string"
        },
        {
          "indexed": false,
          "internalType": "uint256",
          "name": "amount",
          "type": "uint256"
        }
      ],
      "name": "ContributionSuccess",
      "type": "event"
    },
    {
      "anonymous": false,
      "inputs": [
        {
          "indexed": true,
          "internalType": "address",
          "name": "previousOwner",
          "type": "address"
        },
        {
          "indexed": true,
          "internalType": "address",
          "name": "newOwner",
          "type": "address"
        }
      ],
      "name": "OwnershipTransferred",
      "type": "event"
    },
    {
      "anonymous": false,
      "inputs": [
        {
          "indexed": false,
          "internalType": "address",
          "name": "account",
          "type": "address"
        }
      ],
      "name": "Paused",
      "type": "event"
    },
    {
      "anonymous": false,
      "inputs": [
        {
          "indexed": false,
          "internalType": "string",
          "name": "message",
          "type": "string"
        }
      ],
      "name": "TokenTransfered",
      "type": "event"
    },
    {
      "anonymous": false,
      "inputs": [
        {
          "indexed": false,
          "internalType": "address",
          "name": "account",
          "type": "address"
        }
      ],
      "name": "Unpaused",
      "type": "event"
    },
    {
      "inputs": [
        {
          "internalType": "address",
          "name": "_address",
          "type": "address"
        }
      ],
      "name": "addWhitelisted",
      "outputs": [],
      "stateMutability": "nonpayable",
      "type": "function"
    },
    {
      "inputs": [],
      "name": "contribute",
      "outputs": [],
      "stateMutability": "payable",
      "type": "function"
    },
    {
      "inputs": [],
      "name": "currentPhase",
      "outputs": [
        {
          "internalType": "enum Phase",
          "name": "",
          "type": "uint8"
        }
      ],
      "stateMutability": "view",
      "type": "function"
    },
    {
      "inputs": [],
      "name": "getBalance",
      "outputs": [
        {
          "internalType": "uint256",
          "name": "",
          "type": "uint256"
        }
      ],
      "stateMutability": "view",
      "type": "function"
    },
    {
      "inputs": [],
      "name": "getContributionLimit",
      "outputs": [
        {
          "internalType": "uint256",
          "name": "",
          "type": "uint256"
        }
      ],
      "stateMutability": "view",
      "type": "function"
    },
    {
      "inputs": [],
      "name": "getPhaseLimit",
      "outputs": [
        {
          "internalType": "uint256",
          "name": "",
          "type": "uint256"
        }
      ],
      "stateMutability": "view",
      "type": "function"
    },
    {
      "inputs": [],
      "name": "owner",
      "outputs": [
        {
          "internalType": "address",
          "name": "",
          "type": "address"
        }
      ],
      "stateMutability": "view",
      "type": "function"
    },
    {
      "inputs": [],
      "name": "pause",
      "outputs": [],
      "stateMutability": "nonpayable",
      "type": "function"
    },
    {
      "inputs": [],
      "name": "paused",
      "outputs": [
        {
          "internalType": "bool",
          "name": "",
          "type": "bool"
        }
      ],
      "stateMutability": "view",
      "type": "function"
    },
    {
      "inputs": [],
      "name": "phaseRemaingCapacity",
      "outputs": [
        {
          "internalType": "uint256",
          "name": "",
          "type": "uint256"
        }
      ],
      "stateMutability": "view",
      "type": "function"
    },
    {
      "inputs": [],
      "name": "redeem",
      "outputs": [],
      "stateMutability": "nonpayable",
      "type": "function"
    },
    {
      "inputs": [],
      "name": "renounceOwnership",
      "outputs": [],
      "stateMutability": "nonpayable",
      "type": "function"
    },
    {
      "inputs": [],
      "name": "setGeneralPhase",
      "outputs": [],
      "stateMutability": "nonpayable",
      "type": "function"
    },
    {
      "inputs": [],
      "name": "setOpenPhase",
      "outputs": [],
      "stateMutability": "nonpayable",
      "type": "function"
    },
    {
      "inputs": [
        {
          "internalType": "contract SpaceCoin",
          "name": "spaceCoin",
          "type": "address"
        }
      ],
      "name": "setSpaceCoinAddress",
      "outputs": [],
      "stateMutability": "nonpayable",
      "type": "function"
    },
    {
      "inputs": [
        {
          "internalType": "contract SpacePool",
          "name": "spacePool",
          "type": "address"
        }
      ],
      "name": "setSpacePoolAddress",
      "outputs": [],
      "stateMutability": "nonpayable",
      "type": "function"
    },
    {
      "inputs": [
        {
          "internalType": "address",
          "name": "weth",
          "type": "address"
        }
      ],
      "name": "setWETHAddress",
      "outputs": [],
      "stateMutability": "nonpayable",
      "type": "function"
    },
    {
      "inputs": [
        {
          "internalType": "address",
          "name": "newOwner",
          "type": "address"
        }
      ],
      "name": "transferOwnership",
      "outputs": [],
      "stateMutability": "nonpayable",
      "type": "function"
    },
    {
      "inputs": [],
      "name": "unpause",
      "outputs": [],
      "stateMutability": "nonpayable",
      "type": "function"
    },
    {
      "inputs": [],
      "name": "withdraw",
      "outputs": [],
      "stateMutability": "payable",
      "type": "function"
    }
  ],
  "bytecode": "0x6080604052600560015569032d26d12e980b600000600255685150ae84a8cdf000006003553480156200003157600080fd5b50604051620026dd380380620026dd8339818101604052810190620000579190620001bc565b620000776200006b620000d960201b60201c565b620000e160201b60201c565b60008060146101000a81548160ff02191690831515021790555080600760006101000a81548173ffffffffffffffffffffffffffffffffffffffff021916908373ffffffffffffffffffffffffffffffffffffffff1602179055505062000241565b600033905090565b60008060009054906101000a900473ffffffffffffffffffffffffffffffffffffffff169050816000806101000a81548173ffffffffffffffffffffffffffffffffffffffff021916908373ffffffffffffffffffffffffffffffffffffffff1602179055508173ffffffffffffffffffffffffffffffffffffffff168173ffffffffffffffffffffffffffffffffffffffff167f8be0079c531659141344cd1fd0a4f28419497f9722a3daafe3b4186f6b6457e060405160405180910390a35050565b600081519050620001b68162000227565b92915050565b600060208284031215620001d557620001d462000222565b5b6000620001e584828501620001a5565b91505092915050565b6000620001fb8262000202565b9050919050565b600073ffffffffffffffffffffffffffffffffffffffff82169050919050565b600080fd5b6200023281620001ee565b81146200023e57600080fd5b50565b61248c80620002516000396000f3fe60806040526004361061011f5760003560e01c8063715018a6116100a0578063be040fb011610064578063be040fb01461031c578063cdcb684014610333578063d7bb99ba1461035e578063f2fde38b14610368578063fa1e19e5146103915761011f565b8063715018a6146102815780638456cb59146102985780638da5cb5b146102af5780639bae6dbf146102da578063af6b39c5146102f15761011f565b80633f4ba83a116100e75780633f4ba83a146101c457806345bc9787146101db5780635325d806146102045780635c975abb1461022d5780636a4234eb146102585761011f565b8063055ad42e1461012457806310154bad1461014f57806312065fe01461017857806338f7826f146101a35780633ccfd60b146101ba575b600080fd5b34801561013057600080fd5b506101396103bc565b6040516101469190611c0f565b60405180910390f35b34801561015b57600080fd5b506101766004803603810190610171919061184e565b6103d3565b005b34801561018457600080fd5b5061018d610601565b60405161019a9190611e26565b60405180910390f35b3480156101af57600080fd5b506101b8610609565b005b6101c2610770565b005b3480156101d057600080fd5b506101d9610a51565b005b3480156101e757600080fd5b5061020260048036038101906101fd91906118d5565b610ad7565b005b34801561021057600080fd5b5061022b600480360381019061022691906118a8565b610b1b565b005b34801561023957600080fd5b50610242610b5f565b60405161024f9190611bf4565b60405180910390f35b34801561026457600080fd5b5061027f600480360381019061027a919061184e565b610b75565b005b34801561028d57600080fd5b50610296610bb9565b005b3480156102a457600080fd5b506102ad610c41565b005b3480156102bb57600080fd5b506102c4610cc7565b6040516102d19190611bb0565b60405180910390f35b3480156102e657600080fd5b506102ef610cf0565b005b3480156102fd57600080fd5b50610306610e78565b6040516103139190611e26565b60405180910390f35b34801561032857600080fd5b50610331610f89565b005b34801561033f57600080fd5b506103486111fe565b6040516103559190611e26565b60405180910390f35b610366611208565b005b34801561037457600080fd5b5061038f600480360381019061038a919061184e565b6114d3565b005b34801561039d57600080fd5b506103a66115cb565b6040516103b39190611e26565b60405180910390f35b6000600a60149054906101000a900460ff16905090565b6103db6115d5565b73ffffffffffffffffffffffffffffffffffffffff166103f9610cc7565b73ffffffffffffffffffffffffffffffffffffffff161461044f576040517f08c379a000000000000000000000000000000000000000000000000000000000815260040161044690611d38565b60405180910390fd5b610457610b5f565b15610497576040517f08c379a000000000000000000000000000000000000000000000000000000000815260040161048e90611cf8565b60405180910390fd5b60001515600560008373ffffffffffffffffffffffffffffffffffffffff1673ffffffffffffffffffffffffffffffffffffffff16815260200190815260200160002060009054906101000a900460ff1615151461052a576040517f08c379a000000000000000000000000000000000000000000000000000000000815260040161052190611d98565b60405180910390fd5b6001600560008373ffffffffffffffffffffffffffffffffffffffff1673ffffffffffffffffffffffffffffffffffffffff16815260200190815260200160002060006101000a81548160ff0219169083151502179055506000600660008373ffffffffffffffffffffffffffffffffffffffff1673ffffffffffffffffffffffffffffffffffffffff168152602001908152602001600020819055507f951ed8e9cceab02d6836f83965f7a63e26ebc4eb93b8034a0c9c2a0f51a38fb9336040516105f69190611c4a565b60405180910390a150565b600047905090565b6106116115d5565b73ffffffffffffffffffffffffffffffffffffffff1661062f610cc7565b73ffffffffffffffffffffffffffffffffffffffff1614610685576040517f08c379a000000000000000000000000000000000000000000000000000000000815260040161067c90611d38565b60405180910390fd5b61068d610b5f565b156106cd576040517f08c379a00000000000000000000000000000000000000000000000000000000081526004016106c490611cf8565b60405180910390fd5b600160028111156106e1576106e0612073565b5b600a60149054906101000a900460ff16600281111561070357610702612073565b5b14610743576040517f08c379a000000000000000000000000000000000000000000000000000000000815260040161073a90611cb8565b60405180910390fd5b6002600a60146101000a81548160ff0219169083600281111561076957610768612073565b5b0217905550565b6107786115d5565b73ffffffffffffffffffffffffffffffffffffffff16610796610cc7565b73ffffffffffffffffffffffffffffffffffffffff16146107ec576040517f08c379a00000000000000000000000000000000000000000000000000000000081526004016107e390611d38565b60405180910390fd5b600860009054906101000a900473ffffffffffffffffffffffffffffffffffffffff1673ffffffffffffffffffffffffffffffffffffffff166340c10f19600960009054906101000a900473ffffffffffffffffffffffffffffffffffffffff166005670de0b6b3a7640000476108639190611eb3565b61086d9190611ee4565b6040518363ffffffff1660e01b815260040161088a929190611bcb565b600060405180830381600087803b1580156108a457600080fd5b505af11580156108b8573d6000803e3d6000fd5b50505050600a60009054906101000a900473ffffffffffffffffffffffffffffffffffffffff1673ffffffffffffffffffffffffffffffffffffffff166340c10f19600960009054906101000a900473ffffffffffffffffffffffffffffffffffffffff16670de0b6b3a7640000476109319190611eb3565b6040518363ffffffff1660e01b815260040161094e929190611bcb565b600060405180830381600087803b15801561096857600080fd5b505af115801561097c573d6000803e3d6000fd5b505050506000600960009054906101000a900473ffffffffffffffffffffffffffffffffffffffff1673ffffffffffffffffffffffffffffffffffffffff16476040516109c890611b9b565b60006040518083038185875af1925050503d8060008114610a05576040519150601f19603f3d011682016040523d82523d6000602084013e610a0a565b606091505b5050905080610a4e576040517f08c379a0000000000000000000000000000000000000000000000000000000008152600401610a4590611d18565b60405180910390fd5b50565b610a596115d5565b73ffffffffffffffffffffffffffffffffffffffff16610a77610cc7565b73ffffffffffffffffffffffffffffffffffffffff1614610acd576040517f08c379a0000000000000000000000000000000000000000000000000000000008152600401610ac490611d38565b60405180910390fd5b610ad56115dd565b565b80600960006101000a81548173ffffffffffffffffffffffffffffffffffffffff021916908373ffffffffffffffffffffffffffffffffffffffff16021790555050565b80600860006101000a81548173ffffffffffffffffffffffffffffffffffffffff021916908373ffffffffffffffffffffffffffffffffffffffff16021790555050565b60008060149054906101000a900460ff16905090565b80600a60006101000a81548173ffffffffffffffffffffffffffffffffffffffff021916908373ffffffffffffffffffffffffffffffffffffffff16021790555050565b610bc16115d5565b73ffffffffffffffffffffffffffffffffffffffff16610bdf610cc7565b73ffffffffffffffffffffffffffffffffffffffff1614610c35576040517f08c379a0000000000000000000000000000000000000000000000000000000008152600401610c2c90611d38565b60405180910390fd5b610c3f600061167e565b565b610c496115d5565b73ffffffffffffffffffffffffffffffffffffffff16610c67610cc7565b73ffffffffffffffffffffffffffffffffffffffff1614610cbd576040517f08c379a0000000000000000000000000000000000000000000000000000000008152600401610cb490611d38565b60405180910390fd5b610cc5611742565b565b60008060009054906101000a900473ffffffffffffffffffffffffffffffffffffffff16905090565b610cf86115d5565b73ffffffffffffffffffffffffffffffffffffffff16610d16610cc7565b73ffffffffffffffffffffffffffffffffffffffff1614610d6c576040517f08c379a0000000000000000000000000000000000000000000000000000000008152600401610d6390611d38565b60405180910390fd5b610d74610b5f565b15610db4576040517f08c379a0000000000000000000000000000000000000000000000000000000008152600401610dab90611cf8565b60405180910390fd5b60006002811115610dc857610dc7612073565b5b600a60149054906101000a900460ff166002811115610dea57610de9612073565b5b14610e2a576040517f08c379a0000000000000000000000000000000000000000000000000000000008152600401610e2190611cb8565b60405180910390fd5b6001600a60146101000a81548160ff02191690836002811115610e5057610e4f612073565b5b021790555069065a4da25d3016c00000600281905550683635c9adc5dea00000600381905550565b6000600280811115610e8d57610e8c612073565b5b600a60149054906101000a900460ff166002811115610eaf57610eae612073565b5b14610ecb57600454600254610ec49190611f3e565b9050610f86565b600154600860009054906101000a900473ffffffffffffffffffffffffffffffffffffffff1673ffffffffffffffffffffffffffffffffffffffff166370a08231306040518263ffffffff1660e01b8152600401610f299190611bb0565b60206040518083038186803b158015610f4157600080fd5b505afa158015610f55573d6000803e3d6000fd5b505050506040513d601f19601f82011682018060405250810190610f799190611902565b610f839190611eb3565b90505b90565b600280811115610f9c57610f9b612073565b5b600a60149054906101000a900460ff166002811115610fbe57610fbd612073565b5b14610ffe576040517f08c379a0000000000000000000000000000000000000000000000000000000008152600401610ff590611d78565b60405180910390fd5b6000600660003373ffffffffffffffffffffffffffffffffffffffff1673ffffffffffffffffffffffffffffffffffffffff1681526020019081526020016000205411611080576040517f08c379a000000000000000000000000000000000000000000000000000000000815260040161107790611d58565b60405180910390fd5b6000600154600660003373ffffffffffffffffffffffffffffffffffffffff1673ffffffffffffffffffffffffffffffffffffffff168152602001908152602001600020546110cf9190611ee4565b90506000600660003373ffffffffffffffffffffffffffffffffffffffff1673ffffffffffffffffffffffffffffffffffffffff16815260200190815260200160002081905550600860009054906101000a900473ffffffffffffffffffffffffffffffffffffffff1673ffffffffffffffffffffffffffffffffffffffff1663a9059cbb33836040518363ffffffff1660e01b8152600401611173929190611bcb565b602060405180830381600087803b15801561118d57600080fd5b505af11580156111a1573d6000803e3d6000fd5b505050506040513d601f19601f820116820180604052508101906111c5919061187b565b507f1d5e86a50f279561809a2b76e4ba7ec1bb5f9540b9dae52a3205a6215ae8d22d6040516111f390611cd8565b60405180910390a150565b6000600254905090565b6000600281111561121c5761121b612073565b5b600a60149054906101000a900460ff16600281111561123e5761123d612073565b5b14156112d157600560003373ffffffffffffffffffffffffffffffffffffffff1673ffffffffffffffffffffffffffffffffffffffff16815260200190815260200160002060009054906101000a900460ff166112d0576040517f08c379a00000000000000000000000000000000000000000000000000000000081526004016112c790611dd8565b60405180910390fd5b5b6002808111156112e4576112e3612073565b5b600a60149054906101000a900460ff16600281111561130657611305612073565b5b1461139b5760035434600660003373ffffffffffffffffffffffffffffffffffffffff1673ffffffffffffffffffffffffffffffffffffffff168152602001908152602001600020546113599190611e5d565b111561139a576040517f08c379a000000000000000000000000000000000000000000000000000000000815260040161139190611c98565b60405180910390fd5b5b6002546113a6610601565b11156113e7576040517f08c379a00000000000000000000000000000000000000000000000000000000081526004016113de90611db8565b60405180910390fd5b34600660003373ffffffffffffffffffffffffffffffffffffffff1673ffffffffffffffffffffffffffffffffffffffff16815260200190815260200160002060008282546114369190611e5d565b92505081905550346004600082825461144f9190611e5d565b9250508190555060028081111561146957611468612073565b5b600a60149054906101000a900460ff16600281111561148b5761148a612073565b5b141561149a57611499610f89565b5b7fc2d052242c53b9291b212437369ea86f8da5aa682c9fba0227677b12d0e115bd346040516114c99190611df8565b60405180910390a1565b6114db6115d5565b73ffffffffffffffffffffffffffffffffffffffff166114f9610cc7565b73ffffffffffffffffffffffffffffffffffffffff161461154f576040517f08c379a000000000000000000000000000000000000000000000000000000000815260040161154690611d38565b60405180910390fd5b600073ffffffffffffffffffffffffffffffffffffffff168173ffffffffffffffffffffffffffffffffffffffff1614156115bf576040517f08c379a00000000000000000000000000000000000000000000000000000000081526004016115b690611c78565b60405180910390fd5b6115c88161167e565b50565b6000600354905090565b600033905090565b6115e5610b5f565b611624576040517f08c379a000000000000000000000000000000000000000000000000000000000815260040161161b90611c2a565b60405180910390fd5b60008060146101000a81548160ff0219169083151502179055507f5db9ee0a495bf2e6ff9c91a7834c1ba4fdd244a5e8aa4e537bd38aeae4b073aa6116676115d5565b6040516116749190611bb0565b60405180910390a1565b60008060009054906101000a900473ffffffffffffffffffffffffffffffffffffffff169050816000806101000a81548173ffffffffffffffffffffffffffffffffffffffff021916908373ffffffffffffffffffffffffffffffffffffffff1602179055508173ffffffffffffffffffffffffffffffffffffffff168173ffffffffffffffffffffffffffffffffffffffff167f8be0079c531659141344cd1fd0a4f28419497f9722a3daafe3b4186f6b6457e060405160405180910390a35050565b61174a610b5f565b1561178a576040517f08c379a000000000000000000000000000000000000000000000000000000000815260040161178190611cf8565b60405180910390fd5b6001600060146101000a81548160ff0219169083151502179055507f62e78cea01bee320cd4e420270b5ea74000d11b0c9f74754ebdbfc544b05a2586117ce6115d5565b6040516117db9190611bb0565b60405180910390a1565b6000813590506117f4816123e3565b92915050565b600081519050611809816123fa565b92915050565b60008135905061181e81612411565b92915050565b60008135905061183381612428565b92915050565b6000815190506118488161243f565b92915050565b600060208284031215611864576118636120a2565b5b6000611872848285016117e5565b91505092915050565b600060208284031215611891576118906120a2565b5b600061189f848285016117fa565b91505092915050565b6000602082840312156118be576118bd6120a2565b5b60006118cc8482850161180f565b91505092915050565b6000602082840312156118eb576118ea6120a2565b5b60006118f984828501611824565b91505092915050565b600060208284031215611918576119176120a2565b5b600061192684828501611839565b91505092915050565b61193881611f72565b82525050565b61194781611f96565b82525050565b61195681612003565b82525050565b6000611969601483611e4c565b9150611974826120a7565b602082019050919050565b600061198c601383611e4c565b9150611997826120d0565b602082019050919050565b60006119af602683611e4c565b91506119ba826120f9565b604082019050919050565b60006119d2602383611e4c565b91506119dd82612148565b604082019050919050565b60006119f5602483611e4c565b9150611a0082612197565b604082019050919050565b6000611a18601a83611e4c565b9150611a23826121e6565b602082019050919050565b6000611a3b601083611e4c565b9150611a468261220f565b602082019050919050565b6000611a5e600f83611e4c565b9150611a6982612238565b602082019050919050565b6000611a81602083611e4c565b9150611a8c82612261565b602082019050919050565b6000611aa4603983611e4c565b9150611aaf8261228a565b604082019050919050565b6000611ac7602583611e4c565b9150611ad2826122d9565b604082019050919050565b6000611aea601383611e4c565b9150611af582612328565b602082019050919050565b6000611b0d601783611e4c565b9150611b1882612351565b602082019050919050565b6000611b30600083611e41565b9150611b3b8261237a565b600082019050919050565b6000611b53601f83611e4c565b9150611b5e8261237d565b602082019050919050565b6000611b76601583611e4c565b9150611b81826123a6565b602082019050919050565b611b9581611ff9565b82525050565b6000611ba682611b23565b9150819050919050565b6000602082019050611bc5600083018461192f565b92915050565b6000604082019050611be0600083018561192f565b611bed6020830184611b8c565b9392505050565b6000602082019050611c09600083018461193e565b92915050565b6000602082019050611c24600083018461194d565b92915050565b60006020820190508181036000830152611c438161195c565b9050919050565b60006040820190508181036000830152611c638161197f565b9050611c72602083018461192f565b92915050565b60006020820190508181036000830152611c91816119a2565b9050919050565b60006020820190508181036000830152611cb1816119c5565b9050919050565b60006020820190508181036000830152611cd1816119e8565b9050919050565b60006020820190508181036000830152611cf181611a0b565b9050919050565b60006020820190508181036000830152611d1181611a2e565b9050919050565b60006020820190508181036000830152611d3181611a51565b9050919050565b60006020820190508181036000830152611d5181611a74565b9050919050565b60006020820190508181036000830152611d7181611a97565b9050919050565b60006020820190508181036000830152611d9181611aba565b9050919050565b60006020820190508181036000830152611db181611add565b9050919050565b60006020820190508181036000830152611dd181611b00565b9050919050565b60006020820190508181036000830152611df181611b46565b9050919050565b60006040820190508181036000830152611e1181611b69565b9050611e206020830184611b8c565b92915050565b6000602082019050611e3b6000830184611b8c565b92915050565b600081905092915050565b600082825260208201905092915050565b6000611e6882611ff9565b9150611e7383611ff9565b9250827fffffffffffffffffffffffffffffffffffffffffffffffffffffffffffffffff03821115611ea857611ea7612015565b5b828201905092915050565b6000611ebe82611ff9565b9150611ec983611ff9565b925082611ed957611ed8612044565b5b828204905092915050565b6000611eef82611ff9565b9150611efa83611ff9565b9250817fffffffffffffffffffffffffffffffffffffffffffffffffffffffffffffffff0483118215151615611f3357611f32612015565b5b828202905092915050565b6000611f4982611ff9565b9150611f5483611ff9565b925082821015611f6757611f66612015565b5b828203905092915050565b6000611f7d82611fd9565b9050919050565b6000611f8f82611fd9565b9050919050565b60008115159050919050565b6000611fad82611f72565b9050919050565b6000611fbf82611f84565b9050919050565b6000819050611fd4826123cf565b919050565b600073ffffffffffffffffffffffffffffffffffffffff82169050919050565b6000819050919050565b600061200e82611fc6565b9050919050565b7f4e487b7100000000000000000000000000000000000000000000000000000000600052601160045260246000fd5b7f4e487b7100000000000000000000000000000000000000000000000000000000600052601260045260246000fd5b7f4e487b7100000000000000000000000000000000000000000000000000000000600052602160045260246000fd5b600080fd5b7f5061757361626c653a206e6f7420706175736564000000000000000000000000600082015250565b7f416464726573732057686974656c697374656400000000000000000000000000600082015250565b7f4f776e61626c653a206e6577206f776e657220697320746865207a65726f206160008201527f6464726573730000000000000000000000000000000000000000000000000000602082015250565b7f4572726f723a204d6f7265207468616e20636f6e747269627574696f6e206c6960008201527f6d69740000000000000000000000000000000000000000000000000000000000602082015250565b7f4572726f723a204f6e6c7920466f727761726420506861736520697320616c6c60008201527f6f77656400000000000000000000000000000000000000000000000000000000602082015250565b7f546f6b656e20686173206265656e207472616e73666572726564000000000000600082015250565b7f5061757361626c653a2070617573656400000000000000000000000000000000600082015250565b7f57495448445241575f4641494c45440000000000000000000000000000000000600082015250565b7f4f776e61626c653a2063616c6c6572206973206e6f7420746865206f776e6572600082015250565b7f4572726f723a20496e76616c69642061646472657373206f722068617665206e60008201527f6f7420636f6e747269627574656420616e7920616d6f756e7400000000000000602082015250565b7f4572726f723a2043616e6e6f742072656465656d20696e2063757272656e742060008201527f5068617365000000000000000000000000000000000000000000000000000000602082015250565b7f416c72656164792057686974656c697374656400000000000000000000000000600082015250565b7f4572726f723a205068617365206c696d6974206f766572000000000000000000600082015250565b50565b7f4572726f723a2041646472657373206e6f7420696e2077686974656c69737400600082015250565b7f436f6e747269627574696f6e2052656365697665640000000000000000000000600082015250565b600381106123e0576123df612073565b5b50565b6123ec81611f72565b81146123f757600080fd5b50565b61240381611f96565b811461240e57600080fd5b50565b61241a81611fa2565b811461242557600080fd5b50565b61243181611fb4565b811461243c57600080fd5b50565b61244881611ff9565b811461245357600080fd5b5056fea2646970667358221220116025b4fe7a32d6d13320bcc3c0acf4ffa3baddb3e35dc97497ca4870fae1d364736f6c63430008070033",
  "linkReferences": {},
  "deployedLinkReferences": {}
}