{
  "_format": "hh-sol-artifact-1",
  "contractName": "SpaceCoinICO",
  "sourceName": "contracts/SpaceCoinICO.sol",
  "abi": [
    {
      "inputs": [
        {
          "internalType": "address",
          "name": "treasury",
          "type": "address"
        }
      ],
      "stateMutability": "nonpayable",
      "type": "constructor"
    },
    {
      "anonymous": false,
      "inputs": [
        {
          "indexed": false,
          "internalType": "string",
          "name": "message",
          "type": "string"
        },
        {
          "indexed": false,
          "internalType": "address",
          "name": "sender",
          "type": "address"
        }
      ],
      "name": "AddedToWhiteList",
      "type": "event"
    },
    {
      "anonymous": false,
      "inputs": [
        {
          "indexed": false,
          "internalType": "string",
          "name": "message",
          "type": "string"
        },
        {
          "indexed": false,
          "internalType": "uint256",
          "name": "amount",
          "type": "uint256"
        }
      ],
      "name": "ContributionSuccess",
      "type": "event"
    },
    {
      "anonymous": false,
      "inputs": [
        {
          "indexed": true,
          "internalType": "address",
          "name": "previousOwner",
          "type": "address"
        },
        {
          "indexed": true,
          "internalType": "address",
          "name": "newOwner",
          "type": "address"
        }
      ],
      "name": "OwnershipTransferred",
      "type": "event"
    },
    {
      "anonymous": false,
      "inputs": [
        {
          "indexed": false,
          "internalType": "address",
          "name": "account",
          "type": "address"
        }
      ],
      "name": "Paused",
      "type": "event"
    },
    {
      "anonymous": false,
      "inputs": [
        {
          "indexed": false,
          "internalType": "string",
          "name": "message",
          "type": "string"
        }
      ],
      "name": "TokenTransfered",
      "type": "event"
    },
    {
      "anonymous": false,
      "inputs": [
        {
          "indexed": false,
          "internalType": "address",
          "name": "account",
          "type": "address"
        }
      ],
      "name": "Unpaused",
      "type": "event"
    },
    {
      "inputs": [
        {
          "internalType": "address",
          "name": "_address",
          "type": "address"
        }
      ],
      "name": "addWhitelisted",
      "outputs": [],
      "stateMutability": "nonpayable",
      "type": "function"
    },
    {
      "inputs": [],
      "name": "contribute",
      "outputs": [],
      "stateMutability": "payable",
      "type": "function"
    },
    {
      "inputs": [],
      "name": "currentPhase",
      "outputs": [
        {
          "internalType": "enum Phase",
          "name": "",
          "type": "uint8"
        }
      ],
      "stateMutability": "view",
      "type": "function"
    },
    {
      "inputs": [],
      "name": "getBalance",
      "outputs": [
        {
          "internalType": "uint256",
          "name": "",
          "type": "uint256"
        }
      ],
      "stateMutability": "view",
      "type": "function"
    },
    {
      "inputs": [],
      "name": "getContributionLimit",
      "outputs": [
        {
          "internalType": "uint256",
          "name": "",
          "type": "uint256"
        }
      ],
      "stateMutability": "view",
      "type": "function"
    },
    {
      "inputs": [],
      "name": "getPhaseLimit",
      "outputs": [
        {
          "internalType": "uint256",
          "name": "",
          "type": "uint256"
        }
      ],
      "stateMutability": "view",
      "type": "function"
    },
    {
      "inputs": [],
      "name": "owner",
      "outputs": [
        {
          "internalType": "address",
          "name": "",
          "type": "address"
        }
      ],
      "stateMutability": "view",
      "type": "function"
    },
    {
      "inputs": [],
      "name": "pause",
      "outputs": [],
      "stateMutability": "nonpayable",
      "type": "function"
    },
    {
      "inputs": [],
      "name": "paused",
      "outputs": [
        {
          "internalType": "bool",
          "name": "",
          "type": "bool"
        }
      ],
      "stateMutability": "view",
      "type": "function"
    },
    {
      "inputs": [],
      "name": "phaseRemaingCapacity",
      "outputs": [
        {
          "internalType": "uint256",
          "name": "",
          "type": "uint256"
        }
      ],
      "stateMutability": "view",
      "type": "function"
    },
    {
      "inputs": [],
      "name": "redeem",
      "outputs": [],
      "stateMutability": "nonpayable",
      "type": "function"
    },
    {
      "inputs": [],
      "name": "renounceOwnership",
      "outputs": [],
      "stateMutability": "nonpayable",
      "type": "function"
    },
    {
      "inputs": [],
      "name": "setGeneralPhase",
      "outputs": [],
      "stateMutability": "nonpayable",
      "type": "function"
    },
    {
      "inputs": [],
      "name": "setOpenPhase",
      "outputs": [],
      "stateMutability": "nonpayable",
      "type": "function"
    },
    {
      "inputs": [
        {
          "internalType": "contract SpaceCoin",
          "name": "spaceCoin",
          "type": "address"
        }
      ],
      "name": "setSpaceCoinAddress",
      "outputs": [],
      "stateMutability": "nonpayable",
      "type": "function"
    },
    {
      "inputs": [
        {
          "internalType": "address",
          "name": "newOwner",
          "type": "address"
        }
      ],
      "name": "transferOwnership",
      "outputs": [],
      "stateMutability": "nonpayable",
      "type": "function"
    },
    {
      "inputs": [],
      "name": "unpause",
      "outputs": [],
      "stateMutability": "nonpayable",
      "type": "function"
    },
    {
      "inputs": [],
      "name": "withdraw",
      "outputs": [],
      "stateMutability": "payable",
      "type": "function"
    }
  ],
  "bytecode": "0x6080604052600560015569032d26d12e980b600000600255685150ae84a8cdf000006003553480156200003157600080fd5b506040516200245c3803806200245c8339818101604052810190620000579190620001bc565b620000776200006b620000d960201b60201c565b620000e160201b60201c565b60008060146101000a81548160ff02191690831515021790555080600760006101000a81548173ffffffffffffffffffffffffffffffffffffffff021916908373ffffffffffffffffffffffffffffffffffffffff1602179055505062000241565b600033905090565b60008060009054906101000a900473ffffffffffffffffffffffffffffffffffffffff169050816000806101000a81548173ffffffffffffffffffffffffffffffffffffffff021916908373ffffffffffffffffffffffffffffffffffffffff1602179055508173ffffffffffffffffffffffffffffffffffffffff168173ffffffffffffffffffffffffffffffffffffffff167f8be0079c531659141344cd1fd0a4f28419497f9722a3daafe3b4186f6b6457e060405160405180910390a35050565b600081519050620001b68162000227565b92915050565b600060208284031215620001d557620001d462000222565b5b6000620001e584828501620001a5565b91505092915050565b6000620001fb8262000202565b9050919050565b600073ffffffffffffffffffffffffffffffffffffffff82169050919050565b600080fd5b6200023281620001ee565b81146200023e57600080fd5b50565b61220b80620002516000396000f3fe6080604052600436106101095760003560e01c80638456cb5911610095578063be040fb011610064578063be040fb0146102b4578063cdcb6840146102cb578063d7bb99ba146102f6578063f2fde38b14610300578063fa1e19e51461032957610109565b80638456cb59146102305780638da5cb5b146102475780639bae6dbf14610272578063af6b39c51461028957610109565b80633ccfd60b116100dc5780633ccfd60b146101a45780633f4ba83a146101ae5780635325d806146101c55780635c975abb146101ee578063715018a61461021957610109565b8063055ad42e1461010e57806310154bad1461013957806312065fe01461016257806338f7826f1461018d575b600080fd5b34801561011a57600080fd5b50610123610354565b6040516101309190611980565b60405180910390f35b34801561014557600080fd5b50610160600480360381019061015b91906115c9565b61036b565b005b34801561016e57600080fd5b50610177610599565b6040516101849190611bb7565b60405180910390f35b34801561019957600080fd5b506101a26105a1565b005b6101ac610708565b005b3480156101ba57600080fd5b506101c3610869565b005b3480156101d157600080fd5b506101ec60048036038101906101e79190611623565b6108ef565b005b3480156101fa57600080fd5b50610203610933565b6040516102109190611965565b60405180910390f35b34801561022557600080fd5b5061022e610949565b005b34801561023c57600080fd5b506102456109d1565b005b34801561025357600080fd5b5061025c610a57565b6040516102699190611921565b60405180910390f35b34801561027e57600080fd5b50610287610a80565b005b34801561029557600080fd5b5061029e610c08565b6040516102ab9190611bb7565b60405180910390f35b3480156102c057600080fd5b506102c9610d19565b005b3480156102d757600080fd5b506102e0610f8e565b6040516102ed9190611bb7565b60405180910390f35b6102fe610f98565b005b34801561030c57600080fd5b50610327600480360381019061032291906115c9565b611263565b005b34801561033557600080fd5b5061033e61135b565b60405161034b9190611bb7565b60405180910390f35b6000600860149054906101000a900460ff16905090565b610373611365565b73ffffffffffffffffffffffffffffffffffffffff16610391610a57565b73ffffffffffffffffffffffffffffffffffffffff16146103e7576040517f08c379a00000000000000000000000000000000000000000000000000000000081526004016103de90611ac9565b60405180910390fd5b6103ef610933565b1561042f576040517f08c379a000000000000000000000000000000000000000000000000000000000815260040161042690611a89565b60405180910390fd5b60001515600560008373ffffffffffffffffffffffffffffffffffffffff1673ffffffffffffffffffffffffffffffffffffffff16815260200190815260200160002060009054906101000a900460ff161515146104c2576040517f08c379a00000000000000000000000000000000000000000000000000000000081526004016104b990611b29565b60405180910390fd5b6001600560008373ffffffffffffffffffffffffffffffffffffffff1673ffffffffffffffffffffffffffffffffffffffff16815260200190815260200160002060006101000a81548160ff0219169083151502179055506000600660008373ffffffffffffffffffffffffffffffffffffffff1673ffffffffffffffffffffffffffffffffffffffff168152602001908152602001600020819055507f951ed8e9cceab02d6836f83965f7a63e26ebc4eb93b8034a0c9c2a0f51a38fb93360405161058e91906119bb565b60405180910390a150565b600047905090565b6105a9611365565b73ffffffffffffffffffffffffffffffffffffffff166105c7610a57565b73ffffffffffffffffffffffffffffffffffffffff161461061d576040517f08c379a000000000000000000000000000000000000000000000000000000000815260040161061490611ac9565b60405180910390fd5b610625610933565b15610665576040517f08c379a000000000000000000000000000000000000000000000000000000000815260040161065c90611a89565b60405180910390fd5b6001600281111561067957610678611de0565b5b600860149054906101000a900460ff16600281111561069b5761069a611de0565b5b146106db576040517f08c379a00000000000000000000000000000000000000000000000000000000081526004016106d290611a49565b60405180910390fd5b6002600860146101000a81548160ff0219169083600281111561070157610700611de0565b5b0217905550565b600760009054906101000a900473ffffffffffffffffffffffffffffffffffffffff1673ffffffffffffffffffffffffffffffffffffffff163373ffffffffffffffffffffffffffffffffffffffff1614610798576040517f08c379a000000000000000000000000000000000000000000000000000000000815260040161078f90611a09565b60405180910390fd5b6000600760009054906101000a900473ffffffffffffffffffffffffffffffffffffffff1673ffffffffffffffffffffffffffffffffffffffff16476040516107e09061190c565b60006040518083038185875af1925050503d806000811461081d576040519150601f19603f3d011682016040523d82523d6000602084013e610822565b606091505b5050905080610866576040517f08c379a000000000000000000000000000000000000000000000000000000000815260040161085d90611aa9565b60405180910390fd5b50565b610871611365565b73ffffffffffffffffffffffffffffffffffffffff1661088f610a57565b73ffffffffffffffffffffffffffffffffffffffff16146108e5576040517f08c379a00000000000000000000000000000000000000000000000000000000081526004016108dc90611ac9565b60405180910390fd5b6108ed61136d565b565b80600860006101000a81548173ffffffffffffffffffffffffffffffffffffffff021916908373ffffffffffffffffffffffffffffffffffffffff16021790555050565b60008060149054906101000a900460ff16905090565b610951611365565b73ffffffffffffffffffffffffffffffffffffffff1661096f610a57565b73ffffffffffffffffffffffffffffffffffffffff16146109c5576040517f08c379a00000000000000000000000000000000000000000000000000000000081526004016109bc90611ac9565b60405180910390fd5b6109cf600061140e565b565b6109d9611365565b73ffffffffffffffffffffffffffffffffffffffff166109f7610a57565b73ffffffffffffffffffffffffffffffffffffffff1614610a4d576040517f08c379a0000000000000000000000000000000000000000000000000000000008152600401610a4490611ac9565b60405180910390fd5b610a556114d2565b565b60008060009054906101000a900473ffffffffffffffffffffffffffffffffffffffff16905090565b610a88611365565b73ffffffffffffffffffffffffffffffffffffffff16610aa6610a57565b73ffffffffffffffffffffffffffffffffffffffff1614610afc576040517f08c379a0000000000000000000000000000000000000000000000000000000008152600401610af390611ac9565b60405180910390fd5b610b04610933565b15610b44576040517f08c379a0000000000000000000000000000000000000000000000000000000008152600401610b3b90611a89565b60405180910390fd5b60006002811115610b5857610b57611de0565b5b600860149054906101000a900460ff166002811115610b7a57610b79611de0565b5b14610bba576040517f08c379a0000000000000000000000000000000000000000000000000000000008152600401610bb190611a49565b60405180910390fd5b6001600860146101000a81548160ff02191690836002811115610be057610bdf611de0565b5b021790555069065a4da25d3016c00000600281905550683635c9adc5dea00000600381905550565b6000600280811115610c1d57610c1c611de0565b5b600860149054906101000a900460ff166002811115610c3f57610c3e611de0565b5b14610c5b57600454600254610c549190611ccf565b9050610d16565b600154600860009054906101000a900473ffffffffffffffffffffffffffffffffffffffff1673ffffffffffffffffffffffffffffffffffffffff166370a08231306040518263ffffffff1660e01b8152600401610cb99190611921565b60206040518083038186803b158015610cd157600080fd5b505afa158015610ce5573d6000803e3d6000fd5b505050506040513d601f19601f82011682018060405250810190610d099190611650565b610d139190611c44565b90505b90565b600280811115610d2c57610d2b611de0565b5b600860149054906101000a900460ff166002811115610d4e57610d4d611de0565b5b14610d8e576040517f08c379a0000000000000000000000000000000000000000000000000000000008152600401610d8590611b09565b60405180910390fd5b6000600660003373ffffffffffffffffffffffffffffffffffffffff1673ffffffffffffffffffffffffffffffffffffffff1681526020019081526020016000205411610e10576040517f08c379a0000000000000000000000000000000000000000000000000000000008152600401610e0790611ae9565b60405180910390fd5b6000600154600660003373ffffffffffffffffffffffffffffffffffffffff1673ffffffffffffffffffffffffffffffffffffffff16815260200190815260200160002054610e5f9190611c75565b90506000600660003373ffffffffffffffffffffffffffffffffffffffff1673ffffffffffffffffffffffffffffffffffffffff16815260200190815260200160002081905550600860009054906101000a900473ffffffffffffffffffffffffffffffffffffffff1673ffffffffffffffffffffffffffffffffffffffff1663a9059cbb33836040518363ffffffff1660e01b8152600401610f0392919061193c565b602060405180830381600087803b158015610f1d57600080fd5b505af1158015610f31573d6000803e3d6000fd5b505050506040513d601f19601f82011682018060405250810190610f5591906115f6565b507f1d5e86a50f279561809a2b76e4ba7ec1bb5f9540b9dae52a3205a6215ae8d22d604051610f8390611a69565b60405180910390a150565b6000600254905090565b60006002811115610fac57610fab611de0565b5b600860149054906101000a900460ff166002811115610fce57610fcd611de0565b5b141561106157600560003373ffffffffffffffffffffffffffffffffffffffff1673ffffffffffffffffffffffffffffffffffffffff16815260200190815260200160002060009054906101000a900460ff16611060576040517f08c379a000000000000000000000000000000000000000000000000000000000815260040161105790611b69565b60405180910390fd5b5b60028081111561107457611073611de0565b5b600860149054906101000a900460ff16600281111561109657611095611de0565b5b1461112b5760035434600660003373ffffffffffffffffffffffffffffffffffffffff1673ffffffffffffffffffffffffffffffffffffffff168152602001908152602001600020546110e99190611bee565b111561112a576040517f08c379a000000000000000000000000000000000000000000000000000000000815260040161112190611a29565b60405180910390fd5b5b600254611136610599565b1115611177576040517f08c379a000000000000000000000000000000000000000000000000000000000815260040161116e90611b49565b60405180910390fd5b34600660003373ffffffffffffffffffffffffffffffffffffffff1673ffffffffffffffffffffffffffffffffffffffff16815260200190815260200160002060008282546111c69190611bee565b9250508190555034600460008282546111df9190611bee565b925050819055506002808111156111f9576111f8611de0565b5b600860149054906101000a900460ff16600281111561121b5761121a611de0565b5b141561122a57611229610d19565b5b7fc2d052242c53b9291b212437369ea86f8da5aa682c9fba0227677b12d0e115bd346040516112599190611b89565b60405180910390a1565b61126b611365565b73ffffffffffffffffffffffffffffffffffffffff16611289610a57565b73ffffffffffffffffffffffffffffffffffffffff16146112df576040517f08c379a00000000000000000000000000000000000000000000000000000000081526004016112d690611ac9565b60405180910390fd5b600073ffffffffffffffffffffffffffffffffffffffff168173ffffffffffffffffffffffffffffffffffffffff16141561134f576040517f08c379a0000000000000000000000000000000000000000000000000000000008152600401611346906119e9565b60405180910390fd5b6113588161140e565b50565b6000600354905090565b600033905090565b611375610933565b6113b4576040517f08c379a00000000000000000000000000000000000000000000000000000000081526004016113ab9061199b565b60405180910390fd5b60008060146101000a81548160ff0219169083151502179055507f5db9ee0a495bf2e6ff9c91a7834c1ba4fdd244a5e8aa4e537bd38aeae4b073aa6113f7611365565b6040516114049190611921565b60405180910390a1565b60008060009054906101000a900473ffffffffffffffffffffffffffffffffffffffff169050816000806101000a81548173ffffffffffffffffffffffffffffffffffffffff021916908373ffffffffffffffffffffffffffffffffffffffff1602179055508173ffffffffffffffffffffffffffffffffffffffff168173ffffffffffffffffffffffffffffffffffffffff167f8be0079c531659141344cd1fd0a4f28419497f9722a3daafe3b4186f6b6457e060405160405180910390a35050565b6114da610933565b1561151a576040517f08c379a000000000000000000000000000000000000000000000000000000000815260040161151190611a89565b60405180910390fd5b6001600060146101000a81548160ff0219169083151502179055507f62e78cea01bee320cd4e420270b5ea74000d11b0c9f74754ebdbfc544b05a25861155e611365565b60405161156b9190611921565b60405180910390a1565b60008135905061158481612179565b92915050565b60008151905061159981612190565b92915050565b6000813590506115ae816121a7565b92915050565b6000815190506115c3816121be565b92915050565b6000602082840312156115df576115de611e0f565b5b60006115ed84828501611575565b91505092915050565b60006020828403121561160c5761160b611e0f565b5b600061161a8482850161158a565b91505092915050565b60006020828403121561163957611638611e0f565b5b60006116478482850161159f565b91505092915050565b60006020828403121561166657611665611e0f565b5b6000611674848285016115b4565b91505092915050565b61168681611d03565b82525050565b61169581611d15565b82525050565b6116a481611d70565b82525050565b60006116b7601483611bdd565b91506116c282611e14565b602082019050919050565b60006116da601383611bdd565b91506116e582611e3d565b602082019050919050565b60006116fd602683611bdd565b915061170882611e66565b604082019050919050565b6000611720600c83611bdd565b915061172b82611eb5565b602082019050919050565b6000611743602383611bdd565b915061174e82611ede565b604082019050919050565b6000611766602483611bdd565b915061177182611f2d565b604082019050919050565b6000611789601a83611bdd565b915061179482611f7c565b602082019050919050565b60006117ac601083611bdd565b91506117b782611fa5565b602082019050919050565b60006117cf600f83611bdd565b91506117da82611fce565b602082019050919050565b60006117f2602083611bdd565b91506117fd82611ff7565b602082019050919050565b6000611815603983611bdd565b915061182082612020565b604082019050919050565b6000611838602583611bdd565b91506118438261206f565b604082019050919050565b600061185b601383611bdd565b9150611866826120be565b602082019050919050565b600061187e601783611bdd565b9150611889826120e7565b602082019050919050565b60006118a1600083611bd2565b91506118ac82612110565b600082019050919050565b60006118c4601f83611bdd565b91506118cf82612113565b602082019050919050565b60006118e7601583611bdd565b91506118f28261213c565b602082019050919050565b61190681611d66565b82525050565b600061191782611894565b9150819050919050565b6000602082019050611936600083018461167d565b92915050565b6000604082019050611951600083018561167d565b61195e60208301846118fd565b9392505050565b600060208201905061197a600083018461168c565b92915050565b6000602082019050611995600083018461169b565b92915050565b600060208201905081810360008301526119b4816116aa565b9050919050565b600060408201905081810360008301526119d4816116cd565b90506119e3602083018461167d565b92915050565b60006020820190508181036000830152611a02816116f0565b9050919050565b60006020820190508181036000830152611a2281611713565b9050919050565b60006020820190508181036000830152611a4281611736565b9050919050565b60006020820190508181036000830152611a6281611759565b9050919050565b60006020820190508181036000830152611a828161177c565b9050919050565b60006020820190508181036000830152611aa28161179f565b9050919050565b60006020820190508181036000830152611ac2816117c2565b9050919050565b60006020820190508181036000830152611ae2816117e5565b9050919050565b60006020820190508181036000830152611b0281611808565b9050919050565b60006020820190508181036000830152611b228161182b565b9050919050565b60006020820190508181036000830152611b428161184e565b9050919050565b60006020820190508181036000830152611b6281611871565b9050919050565b60006020820190508181036000830152611b82816118b7565b9050919050565b60006040820190508181036000830152611ba2816118da565b9050611bb160208301846118fd565b92915050565b6000602082019050611bcc60008301846118fd565b92915050565b600081905092915050565b600082825260208201905092915050565b6000611bf982611d66565b9150611c0483611d66565b9250827fffffffffffffffffffffffffffffffffffffffffffffffffffffffffffffffff03821115611c3957611c38611d82565b5b828201905092915050565b6000611c4f82611d66565b9150611c5a83611d66565b925082611c6a57611c69611db1565b5b828204905092915050565b6000611c8082611d66565b9150611c8b83611d66565b9250817fffffffffffffffffffffffffffffffffffffffffffffffffffffffffffffffff0483118215151615611cc457611cc3611d82565b5b828202905092915050565b6000611cda82611d66565b9150611ce583611d66565b925082821015611cf857611cf7611d82565b5b828203905092915050565b6000611d0e82611d46565b9050919050565b60008115159050919050565b6000611d2c82611d03565b9050919050565b6000819050611d4182612165565b919050565b600073ffffffffffffffffffffffffffffffffffffffff82169050919050565b6000819050919050565b6000611d7b82611d33565b9050919050565b7f4e487b7100000000000000000000000000000000000000000000000000000000600052601160045260246000fd5b7f4e487b7100000000000000000000000000000000000000000000000000000000600052601260045260246000fd5b7f4e487b7100000000000000000000000000000000000000000000000000000000600052602160045260246000fd5b600080fd5b7f5061757361626c653a206e6f7420706175736564000000000000000000000000600082015250565b7f416464726573732057686974656c697374656400000000000000000000000000600082015250565b7f4f776e61626c653a206e6577206f776e657220697320746865207a65726f206160008201527f6464726573730000000000000000000000000000000000000000000000000000602082015250565b7f554e415554484f52495a45440000000000000000000000000000000000000000600082015250565b7f4572726f723a204d6f7265207468616e20636f6e747269627574696f6e206c6960008201527f6d69740000000000000000000000000000000000000000000000000000000000602082015250565b7f4572726f723a204f6e6c7920466f727761726420506861736520697320616c6c60008201527f6f77656400000000000000000000000000000000000000000000000000000000602082015250565b7f546f6b656e20686173206265656e207472616e73666572726564000000000000600082015250565b7f5061757361626c653a2070617573656400000000000000000000000000000000600082015250565b7f57495448445241575f4641494c45440000000000000000000000000000000000600082015250565b7f4f776e61626c653a2063616c6c6572206973206e6f7420746865206f776e6572600082015250565b7f4572726f723a20496e76616c69642061646472657373206f722068617665206e60008201527f6f7420636f6e747269627574656420616e7920616d6f756e7400000000000000602082015250565b7f4572726f723a2043616e6e6f742072656465656d20696e2063757272656e742060008201527f5068617365000000000000000000000000000000000000000000000000000000602082015250565b7f416c72656164792057686974656c697374656400000000000000000000000000600082015250565b7f4572726f723a205068617365206c696d6974206f766572000000000000000000600082015250565b50565b7f4572726f723a2041646472657373206e6f7420696e2077686974656c69737400600082015250565b7f436f6e747269627574696f6e2052656365697665640000000000000000000000600082015250565b6003811061217657612175611de0565b5b50565b61218281611d03565b811461218d57600080fd5b50565b61219981611d15565b81146121a457600080fd5b50565b6121b081611d21565b81146121bb57600080fd5b50565b6121c781611d66565b81146121d257600080fd5b5056fea2646970667358221220657c96d78f6db79a0960594a55c34b0861728705d6aa7921ba03136c3f2aba9064736f6c63430008070033",
  "linkReferences": {},
  "deployedLinkReferences": {}
}