{
  "_format": "hh-sol-artifact-1",
  "contractName": "SpaceCoinICO",
  "sourceName": "contracts/SpaceCoinICO.sol",
  "abi": [
    {
      "inputs": [
        {
          "internalType": "address",
          "name": "treasury",
          "type": "address"
        }
      ],
      "stateMutability": "nonpayable",
      "type": "constructor"
    },
    {
      "anonymous": false,
      "inputs": [
        {
          "indexed": false,
          "internalType": "string",
          "name": "message",
          "type": "string"
        },
        {
          "indexed": false,
          "internalType": "address",
          "name": "sender",
          "type": "address"
        }
      ],
      "name": "AddedToWhiteList",
      "type": "event"
    },
    {
      "anonymous": false,
      "inputs": [
        {
          "indexed": false,
          "internalType": "string",
          "name": "message",
          "type": "string"
        },
        {
          "indexed": false,
          "internalType": "uint256",
          "name": "amount",
          "type": "uint256"
        }
      ],
      "name": "ContributionSuccess",
      "type": "event"
    },
    {
      "anonymous": false,
      "inputs": [
        {
          "indexed": true,
          "internalType": "address",
          "name": "previousOwner",
          "type": "address"
        },
        {
          "indexed": true,
          "internalType": "address",
          "name": "newOwner",
          "type": "address"
        }
      ],
      "name": "OwnershipTransferred",
      "type": "event"
    },
    {
      "anonymous": false,
      "inputs": [
        {
          "indexed": false,
          "internalType": "address",
          "name": "account",
          "type": "address"
        }
      ],
      "name": "Paused",
      "type": "event"
    },
    {
      "anonymous": false,
      "inputs": [
        {
          "indexed": false,
          "internalType": "string",
          "name": "message",
          "type": "string"
        }
      ],
      "name": "TokenTransfered",
      "type": "event"
    },
    {
      "anonymous": false,
      "inputs": [
        {
          "indexed": false,
          "internalType": "address",
          "name": "account",
          "type": "address"
        }
      ],
      "name": "Unpaused",
      "type": "event"
    },
    {
      "inputs": [
        {
          "internalType": "address",
          "name": "_address",
          "type": "address"
        }
      ],
      "name": "addWhitelisted",
      "outputs": [],
      "stateMutability": "nonpayable",
      "type": "function"
    },
    {
      "inputs": [],
      "name": "contribute",
      "outputs": [],
      "stateMutability": "payable",
      "type": "function"
    },
    {
      "inputs": [],
      "name": "currentPhase",
      "outputs": [
        {
          "internalType": "enum Phase",
          "name": "",
          "type": "uint8"
        }
      ],
      "stateMutability": "view",
      "type": "function"
    },
    {
      "inputs": [],
      "name": "getBalance",
      "outputs": [
        {
          "internalType": "uint256",
          "name": "",
          "type": "uint256"
        }
      ],
      "stateMutability": "view",
      "type": "function"
    },
    {
      "inputs": [],
      "name": "getContributionLimit",
      "outputs": [
        {
          "internalType": "uint256",
          "name": "",
          "type": "uint256"
        }
      ],
      "stateMutability": "view",
      "type": "function"
    },
    {
      "inputs": [],
      "name": "getPhaseLimit",
      "outputs": [
        {
          "internalType": "uint256",
          "name": "",
          "type": "uint256"
        }
      ],
      "stateMutability": "view",
      "type": "function"
    },
    {
      "inputs": [],
      "name": "owner",
      "outputs": [
        {
          "internalType": "address",
          "name": "",
          "type": "address"
        }
      ],
      "stateMutability": "view",
      "type": "function"
    },
    {
      "inputs": [],
      "name": "pause",
      "outputs": [],
      "stateMutability": "nonpayable",
      "type": "function"
    },
    {
      "inputs": [],
      "name": "paused",
      "outputs": [
        {
          "internalType": "bool",
          "name": "",
          "type": "bool"
        }
      ],
      "stateMutability": "view",
      "type": "function"
    },
    {
      "inputs": [],
      "name": "phaseRemaingCapacity",
      "outputs": [
        {
          "internalType": "uint256",
          "name": "",
          "type": "uint256"
        }
      ],
      "stateMutability": "view",
      "type": "function"
    },
    {
      "inputs": [],
      "name": "redeem",
      "outputs": [],
      "stateMutability": "nonpayable",
      "type": "function"
    },
    {
      "inputs": [],
      "name": "renounceOwnership",
      "outputs": [],
      "stateMutability": "nonpayable",
      "type": "function"
    },
    {
      "inputs": [],
      "name": "setGeneralPhase",
      "outputs": [],
      "stateMutability": "nonpayable",
      "type": "function"
    },
    {
      "inputs": [],
      "name": "setOpenPhase",
      "outputs": [],
      "stateMutability": "nonpayable",
      "type": "function"
    },
    {
      "inputs": [
        {
          "internalType": "contract SpaceCoin",
          "name": "spaceCoin",
          "type": "address"
        }
      ],
      "name": "setSpaceCoinAddress",
      "outputs": [],
      "stateMutability": "nonpayable",
      "type": "function"
    },
    {
      "inputs": [
        {
          "internalType": "contract SpacePool",
          "name": "spacePool",
          "type": "address"
        }
      ],
      "name": "setSpacePoolAddress",
      "outputs": [],
      "stateMutability": "nonpayable",
      "type": "function"
    },
    {
      "inputs": [
        {
          "internalType": "address",
          "name": "newOwner",
          "type": "address"
        }
      ],
      "name": "transferOwnership",
      "outputs": [],
      "stateMutability": "nonpayable",
      "type": "function"
    },
    {
      "inputs": [],
      "name": "unpause",
      "outputs": [],
      "stateMutability": "nonpayable",
      "type": "function"
    },
    {
      "inputs": [],
      "name": "withdraw",
      "outputs": [],
      "stateMutability": "payable",
      "type": "function"
    }
  ],
  "bytecode": "0x6080604052600560015569032d26d12e980b600000600255685150ae84a8cdf000006003553480156200003157600080fd5b5060405162002899380380620028998339818101604052810190620000579190620001bc565b620000776200006b620000d960201b60201c565b620000e160201b60201c565b60008060146101000a81548160ff02191690831515021790555080600760006101000a81548173ffffffffffffffffffffffffffffffffffffffff021916908373ffffffffffffffffffffffffffffffffffffffff1602179055505062000241565b600033905090565b60008060009054906101000a900473ffffffffffffffffffffffffffffffffffffffff169050816000806101000a81548173ffffffffffffffffffffffffffffffffffffffff021916908373ffffffffffffffffffffffffffffffffffffffff1602179055508173ffffffffffffffffffffffffffffffffffffffff168173ffffffffffffffffffffffffffffffffffffffff167f8be0079c531659141344cd1fd0a4f28419497f9722a3daafe3b4186f6b6457e060405160405180910390a35050565b600081519050620001b68162000227565b92915050565b600060208284031215620001d557620001d462000222565b5b6000620001e584828501620001a5565b91505092915050565b6000620001fb8262000202565b9050919050565b600073ffffffffffffffffffffffffffffffffffffffff82169050919050565b600080fd5b6200023281620001ee565b81146200023e57600080fd5b50565b61264880620002516000396000f3fe6080604052600436106101145760003560e01c8063715018a6116100a0578063be040fb011610064578063be040fb0146102e8578063cdcb6840146102ff578063d7bb99ba1461032a578063f2fde38b14610334578063fa1e19e51461035d57610114565b8063715018a61461024d5780638456cb59146102645780638da5cb5b1461027b5780639bae6dbf146102a6578063af6b39c5146102bd57610114565b80633ccfd60b116100e75780633ccfd60b146101af5780633f4ba83a146101b957806345bc9787146101d05780635325d806146101f95780635c975abb1461022257610114565b8063055ad42e1461011957806310154bad1461014457806312065fe01461016d57806338f7826f14610198575b600080fd5b34801561012557600080fd5b5061012e610388565b60405161013b9190611d39565b60405180910390f35b34801561015057600080fd5b5061016b60048036038101906101669190611932565b61039f565b005b34801561017957600080fd5b506101826105cd565b60405161018f9190611f90565b60405180910390f35b3480156101a457600080fd5b506101ad6105d5565b005b6101b761073c565b005b3480156101c557600080fd5b506101ce6109e9565b005b3480156101dc57600080fd5b506101f760048036038101906101f291906119b9565b610a6f565b005b34801561020557600080fd5b50610220600480360381019061021b919061198c565b610b7b565b005b34801561022e57600080fd5b50610237610c87565b6040516102449190611d1e565b60405180910390f35b34801561025957600080fd5b50610262610c9d565b005b34801561027057600080fd5b50610279610d25565b005b34801561028757600080fd5b50610290610dab565b60405161029d9190611cda565b60405180910390f35b3480156102b257600080fd5b506102bb610dd4565b005b3480156102c957600080fd5b506102d2610f5c565b6040516102df9190611f90565b60405180910390f35b3480156102f457600080fd5b506102fd61106d565b005b34801561030b57600080fd5b506103146112e2565b6040516103219190611f90565b60405180910390f35b6103326112ec565b005b34801561034057600080fd5b5061035b60048036038101906103569190611932565b6115b7565b005b34801561036957600080fd5b506103726116af565b60405161037f9190611f90565b60405180910390f35b6000600960149054906101000a900460ff16905090565b6103a76116b9565b73ffffffffffffffffffffffffffffffffffffffff166103c5610dab565b73ffffffffffffffffffffffffffffffffffffffff161461041b576040517f08c379a000000000000000000000000000000000000000000000000000000000815260040161041290611ea2565b60405180910390fd5b610423610c87565b15610463576040517f08c379a000000000000000000000000000000000000000000000000000000000815260040161045a90611e42565b60405180910390fd5b60001515600560008373ffffffffffffffffffffffffffffffffffffffff1673ffffffffffffffffffffffffffffffffffffffff16815260200190815260200160002060009054906101000a900460ff161515146104f6576040517f08c379a00000000000000000000000000000000000000000000000000000000081526004016104ed90611f02565b60405180910390fd5b6001600560008373ffffffffffffffffffffffffffffffffffffffff1673ffffffffffffffffffffffffffffffffffffffff16815260200190815260200160002060006101000a81548160ff0219169083151502179055506000600660008373ffffffffffffffffffffffffffffffffffffffff1673ffffffffffffffffffffffffffffffffffffffff168152602001908152602001600020819055507f951ed8e9cceab02d6836f83965f7a63e26ebc4eb93b8034a0c9c2a0f51a38fb9816040516105c29190611d74565b60405180910390a150565b600047905090565b6105dd6116b9565b73ffffffffffffffffffffffffffffffffffffffff166105fb610dab565b73ffffffffffffffffffffffffffffffffffffffff1614610651576040517f08c379a000000000000000000000000000000000000000000000000000000000815260040161064890611ea2565b60405180910390fd5b610659610c87565b15610699576040517f08c379a000000000000000000000000000000000000000000000000000000000815260040161069090611e42565b60405180910390fd5b600160028111156106ad576106ac6121dd565b5b600960149054906101000a900460ff1660028111156106cf576106ce6121dd565b5b1461070f576040517f08c379a000000000000000000000000000000000000000000000000000000000815260040161070690611de2565b60405180910390fd5b6002600960146101000a81548160ff02191690836002811115610735576107346121dd565b5b0217905550565b6107446116b9565b73ffffffffffffffffffffffffffffffffffffffff16610762610dab565b73ffffffffffffffffffffffffffffffffffffffff16146107b8576040517f08c379a00000000000000000000000000000000000000000000000000000000081526004016107af90611ea2565b60405180910390fd5b600860009054906101000a900473ffffffffffffffffffffffffffffffffffffffff1673ffffffffffffffffffffffffffffffffffffffff1663a9059cbb600960009054906101000a900473ffffffffffffffffffffffffffffffffffffffff16600547610826919061204e565b6040518363ffffffff1660e01b8152600401610843929190611cf5565b602060405180830381600087803b15801561085d57600080fd5b505af1158015610871573d6000803e3d6000fd5b505050506040513d601f19601f82011682018060405250810190610895919061195f565b506000600960009054906101000a900473ffffffffffffffffffffffffffffffffffffffff1673ffffffffffffffffffffffffffffffffffffffff16476040516108de90611cc5565b60006040518083038185875af1925050503d806000811461091b576040519150601f19603f3d011682016040523d82523d6000602084013e610920565b606091505b5050905080610964576040517f08c379a000000000000000000000000000000000000000000000000000000000815260040161095b90611e62565b60405180910390fd5b600960009054906101000a900473ffffffffffffffffffffffffffffffffffffffff1673ffffffffffffffffffffffffffffffffffffffff1663fff6cae96040518163ffffffff1660e01b8152600401600060405180830381600087803b1580156109ce57600080fd5b505af11580156109e2573d6000803e3d6000fd5b5050505050565b6109f16116b9565b73ffffffffffffffffffffffffffffffffffffffff16610a0f610dab565b73ffffffffffffffffffffffffffffffffffffffff1614610a65576040517f08c379a0000000000000000000000000000000000000000000000000000000008152600401610a5c90611ea2565b60405180910390fd5b610a6d6116c1565b565b600073ffffffffffffffffffffffffffffffffffffffff168173ffffffffffffffffffffffffffffffffffffffff161415610adf576040517f08c379a0000000000000000000000000000000000000000000000000000000008152600401610ad690611e02565b60405180910390fd5b600073ffffffffffffffffffffffffffffffffffffffff16600960009054906101000a900473ffffffffffffffffffffffffffffffffffffffff1673ffffffffffffffffffffffffffffffffffffffff161415610b785780600960006101000a81548173ffffffffffffffffffffffffffffffffffffffff021916908373ffffffffffffffffffffffffffffffffffffffff1602179055505b50565b600073ffffffffffffffffffffffffffffffffffffffff168173ffffffffffffffffffffffffffffffffffffffff161415610beb576040517f08c379a0000000000000000000000000000000000000000000000000000000008152600401610be290611e82565b60405180910390fd5b600073ffffffffffffffffffffffffffffffffffffffff16600860009054906101000a900473ffffffffffffffffffffffffffffffffffffffff1673ffffffffffffffffffffffffffffffffffffffff161415610c845780600860006101000a81548173ffffffffffffffffffffffffffffffffffffffff021916908373ffffffffffffffffffffffffffffffffffffffff1602179055505b50565b60008060149054906101000a900460ff16905090565b610ca56116b9565b73ffffffffffffffffffffffffffffffffffffffff16610cc3610dab565b73ffffffffffffffffffffffffffffffffffffffff1614610d19576040517f08c379a0000000000000000000000000000000000000000000000000000000008152600401610d1090611ea2565b60405180910390fd5b610d236000611762565b565b610d2d6116b9565b73ffffffffffffffffffffffffffffffffffffffff16610d4b610dab565b73ffffffffffffffffffffffffffffffffffffffff1614610da1576040517f08c379a0000000000000000000000000000000000000000000000000000000008152600401610d9890611ea2565b60405180910390fd5b610da9611826565b565b60008060009054906101000a900473ffffffffffffffffffffffffffffffffffffffff16905090565b610ddc6116b9565b73ffffffffffffffffffffffffffffffffffffffff16610dfa610dab565b73ffffffffffffffffffffffffffffffffffffffff1614610e50576040517f08c379a0000000000000000000000000000000000000000000000000000000008152600401610e4790611ea2565b60405180910390fd5b610e58610c87565b15610e98576040517f08c379a0000000000000000000000000000000000000000000000000000000008152600401610e8f90611e42565b60405180910390fd5b60006002811115610eac57610eab6121dd565b5b600960149054906101000a900460ff166002811115610ece57610ecd6121dd565b5b14610f0e576040517f08c379a0000000000000000000000000000000000000000000000000000000008152600401610f0590611de2565b60405180910390fd5b6001600960146101000a81548160ff02191690836002811115610f3457610f336121dd565b5b021790555069065a4da25d3016c00000600281905550683635c9adc5dea00000600381905550565b6000600280811115610f7157610f706121dd565b5b600960149054906101000a900460ff166002811115610f9357610f926121dd565b5b14610faf57600454600254610fa891906120a8565b905061106a565b600154600860009054906101000a900473ffffffffffffffffffffffffffffffffffffffff1673ffffffffffffffffffffffffffffffffffffffff166370a08231306040518263ffffffff1660e01b815260040161100d9190611cda565b60206040518083038186803b15801561102557600080fd5b505afa158015611039573d6000803e3d6000fd5b505050506040513d601f19601f8201168201806040525081019061105d91906119e6565b611067919061201d565b90505b90565b6002808111156110805761107f6121dd565b5b600960149054906101000a900460ff1660028111156110a2576110a16121dd565b5b146110e2576040517f08c379a00000000000000000000000000000000000000000000000000000000081526004016110d990611ee2565b60405180910390fd5b6000600660003373ffffffffffffffffffffffffffffffffffffffff1673ffffffffffffffffffffffffffffffffffffffff1681526020019081526020016000205411611164576040517f08c379a000000000000000000000000000000000000000000000000000000000815260040161115b90611ec2565b60405180910390fd5b6000600154600660003373ffffffffffffffffffffffffffffffffffffffff1673ffffffffffffffffffffffffffffffffffffffff168152602001908152602001600020546111b3919061204e565b90506000600660003373ffffffffffffffffffffffffffffffffffffffff1673ffffffffffffffffffffffffffffffffffffffff16815260200190815260200160002081905550600860009054906101000a900473ffffffffffffffffffffffffffffffffffffffff1673ffffffffffffffffffffffffffffffffffffffff1663a9059cbb33836040518363ffffffff1660e01b8152600401611257929190611cf5565b602060405180830381600087803b15801561127157600080fd5b505af1158015611285573d6000803e3d6000fd5b505050506040513d601f19601f820116820180604052508101906112a9919061195f565b507f1d5e86a50f279561809a2b76e4ba7ec1bb5f9540b9dae52a3205a6215ae8d22d6040516112d790611e22565b60405180910390a150565b6000600254905090565b60006002811115611300576112ff6121dd565b5b600960149054906101000a900460ff166002811115611322576113216121dd565b5b14156113b557600560003373ffffffffffffffffffffffffffffffffffffffff1673ffffffffffffffffffffffffffffffffffffffff16815260200190815260200160002060009054906101000a900460ff166113b4576040517f08c379a00000000000000000000000000000000000000000000000000000000081526004016113ab90611f42565b60405180910390fd5b5b6002808111156113c8576113c76121dd565b5b600960149054906101000a900460ff1660028111156113ea576113e96121dd565b5b1461147f5760035434600660003373ffffffffffffffffffffffffffffffffffffffff1673ffffffffffffffffffffffffffffffffffffffff1681526020019081526020016000205461143d9190611fc7565b111561147e576040517f08c379a000000000000000000000000000000000000000000000000000000000815260040161147590611dc2565b60405180910390fd5b5b60025461148a6105cd565b11156114cb576040517f08c379a00000000000000000000000000000000000000000000000000000000081526004016114c290611f22565b60405180910390fd5b34600660003373ffffffffffffffffffffffffffffffffffffffff1673ffffffffffffffffffffffffffffffffffffffff168152602001908152602001600020600082825461151a9190611fc7565b9250508190555034600460008282546115339190611fc7565b9250508190555060028081111561154d5761154c6121dd565b5b600960149054906101000a900460ff16600281111561156f5761156e6121dd565b5b141561157e5761157d61106d565b5b7fc2d052242c53b9291b212437369ea86f8da5aa682c9fba0227677b12d0e115bd346040516115ad9190611f62565b60405180910390a1565b6115bf6116b9565b73ffffffffffffffffffffffffffffffffffffffff166115dd610dab565b73ffffffffffffffffffffffffffffffffffffffff1614611633576040517f08c379a000000000000000000000000000000000000000000000000000000000815260040161162a90611ea2565b60405180910390fd5b600073ffffffffffffffffffffffffffffffffffffffff168173ffffffffffffffffffffffffffffffffffffffff1614156116a3576040517f08c379a000000000000000000000000000000000000000000000000000000000815260040161169a90611da2565b60405180910390fd5b6116ac81611762565b50565b6000600354905090565b600033905090565b6116c9610c87565b611708576040517f08c379a00000000000000000000000000000000000000000000000000000000081526004016116ff90611d54565b60405180910390fd5b60008060146101000a81548160ff0219169083151502179055507f5db9ee0a495bf2e6ff9c91a7834c1ba4fdd244a5e8aa4e537bd38aeae4b073aa61174b6116b9565b6040516117589190611cda565b60405180910390a1565b60008060009054906101000a900473ffffffffffffffffffffffffffffffffffffffff169050816000806101000a81548173ffffffffffffffffffffffffffffffffffffffff021916908373ffffffffffffffffffffffffffffffffffffffff1602179055508173ffffffffffffffffffffffffffffffffffffffff168173ffffffffffffffffffffffffffffffffffffffff167f8be0079c531659141344cd1fd0a4f28419497f9722a3daafe3b4186f6b6457e060405160405180910390a35050565b61182e610c87565b1561186e576040517f08c379a000000000000000000000000000000000000000000000000000000000815260040161186590611e42565b60405180910390fd5b6001600060146101000a81548160ff0219169083151502179055507f62e78cea01bee320cd4e420270b5ea74000d11b0c9f74754ebdbfc544b05a2586118b26116b9565b6040516118bf9190611cda565b60405180910390a1565b6000813590506118d88161259f565b92915050565b6000815190506118ed816125b6565b92915050565b600081359050611902816125cd565b92915050565b600081359050611917816125e4565b92915050565b60008151905061192c816125fb565b92915050565b6000602082840312156119485761194761220c565b5b6000611956848285016118c9565b91505092915050565b6000602082840312156119755761197461220c565b5b6000611983848285016118de565b91505092915050565b6000602082840312156119a2576119a161220c565b5b60006119b0848285016118f3565b91505092915050565b6000602082840312156119cf576119ce61220c565b5b60006119dd84828501611908565b91505092915050565b6000602082840312156119fc576119fb61220c565b5b6000611a0a8482850161191d565b91505092915050565b611a1c816120dc565b82525050565b611a2b81612100565b82525050565b611a3a8161216d565b82525050565b6000611a4d601483611fb6565b9150611a5882612211565b602082019050919050565b6000611a70601383611fb6565b9150611a7b8261223a565b602082019050919050565b6000611a93602683611fb6565b9150611a9e82612263565b604082019050919050565b6000611ab6602383611fb6565b9150611ac1826122b2565b604082019050919050565b6000611ad9602483611fb6565b9150611ae482612301565b604082019050919050565b6000611afc601a83611fb6565b9150611b0782612350565b602082019050919050565b6000611b1f601a83611fb6565b9150611b2a82612379565b602082019050919050565b6000611b42601083611fb6565b9150611b4d826123a2565b602082019050919050565b6000611b65600f83611fb6565b9150611b70826123cb565b602082019050919050565b6000611b88601a83611fb6565b9150611b93826123f4565b602082019050919050565b6000611bab602083611fb6565b9150611bb68261241d565b602082019050919050565b6000611bce603983611fb6565b9150611bd982612446565b604082019050919050565b6000611bf1602583611fb6565b9150611bfc82612495565b604082019050919050565b6000611c14601383611fb6565b9150611c1f826124e4565b602082019050919050565b6000611c37601783611fb6565b9150611c428261250d565b602082019050919050565b6000611c5a600083611fab565b9150611c6582612536565b600082019050919050565b6000611c7d601f83611fb6565b9150611c8882612539565b602082019050919050565b6000611ca0601583611fb6565b9150611cab82612562565b602082019050919050565b611cbf81612163565b82525050565b6000611cd082611c4d565b9150819050919050565b6000602082019050611cef6000830184611a13565b92915050565b6000604082019050611d0a6000830185611a13565b611d176020830184611cb6565b9392505050565b6000602082019050611d336000830184611a22565b92915050565b6000602082019050611d4e6000830184611a31565b92915050565b60006020820190508181036000830152611d6d81611a40565b9050919050565b60006040820190508181036000830152611d8d81611a63565b9050611d9c6020830184611a13565b92915050565b60006020820190508181036000830152611dbb81611a86565b9050919050565b60006020820190508181036000830152611ddb81611aa9565b9050919050565b60006020820190508181036000830152611dfb81611acc565b9050919050565b60006020820190508181036000830152611e1b81611aef565b9050919050565b60006020820190508181036000830152611e3b81611b12565b9050919050565b60006020820190508181036000830152611e5b81611b35565b9050919050565b60006020820190508181036000830152611e7b81611b58565b9050919050565b60006020820190508181036000830152611e9b81611b7b565b9050919050565b60006020820190508181036000830152611ebb81611b9e565b9050919050565b60006020820190508181036000830152611edb81611bc1565b9050919050565b60006020820190508181036000830152611efb81611be4565b9050919050565b60006020820190508181036000830152611f1b81611c07565b9050919050565b60006020820190508181036000830152611f3b81611c2a565b9050919050565b60006020820190508181036000830152611f5b81611c70565b9050919050565b60006040820190508181036000830152611f7b81611c93565b9050611f8a6020830184611cb6565b92915050565b6000602082019050611fa56000830184611cb6565b92915050565b600081905092915050565b600082825260208201905092915050565b6000611fd282612163565b9150611fdd83612163565b9250827fffffffffffffffffffffffffffffffffffffffffffffffffffffffffffffffff038211156120125761201161217f565b5b828201905092915050565b600061202882612163565b915061203383612163565b925082612043576120426121ae565b5b828204905092915050565b600061205982612163565b915061206483612163565b9250817fffffffffffffffffffffffffffffffffffffffffffffffffffffffffffffffff048311821515161561209d5761209c61217f565b5b828202905092915050565b60006120b382612163565b91506120be83612163565b9250828210156120d1576120d061217f565b5b828203905092915050565b60006120e782612143565b9050919050565b60006120f982612143565b9050919050565b60008115159050919050565b6000612117826120dc565b9050919050565b6000612129826120ee565b9050919050565b600081905061213e8261258b565b919050565b600073ffffffffffffffffffffffffffffffffffffffff82169050919050565b6000819050919050565b600061217882612130565b9050919050565b7f4e487b7100000000000000000000000000000000000000000000000000000000600052601160045260246000fd5b7f4e487b7100000000000000000000000000000000000000000000000000000000600052601260045260246000fd5b7f4e487b7100000000000000000000000000000000000000000000000000000000600052602160045260246000fd5b600080fd5b7f5061757361626c653a206e6f7420706175736564000000000000000000000000600082015250565b7f416464726573732057686974656c697374656400000000000000000000000000600082015250565b7f4f776e61626c653a206e6577206f776e657220697320746865207a65726f206160008201527f6464726573730000000000000000000000000000000000000000000000000000602082015250565b7f4572726f723a204d6f7265207468616e20636f6e747269627574696f6e206c6960008201527f6d69740000000000000000000000000000000000000000000000000000000000602082015250565b7f4572726f723a204f6e6c7920466f727761726420506861736520697320616c6c60008201527f6f77656400000000000000000000000000000000000000000000000000000000602082015250565b7f494e56414c49445f53504143455f504f4f4c5f41444452455353000000000000600082015250565b7f546f6b656e20686173206265656e207472616e73666572726564000000000000600082015250565b7f5061757361626c653a2070617573656400000000000000000000000000000000600082015250565b7f57495448445241575f4641494c45440000000000000000000000000000000000600082015250565b7f494e56414c49445f53504143455f434f494e5f41444452455353000000000000600082015250565b7f4f776e61626c653a2063616c6c6572206973206e6f7420746865206f776e6572600082015250565b7f4572726f723a20496e76616c69642061646472657373206f722068617665206e60008201527f6f7420636f6e747269627574656420616e7920616d6f756e7400000000000000602082015250565b7f4572726f723a2043616e6e6f742072656465656d20696e2063757272656e742060008201527f5068617365000000000000000000000000000000000000000000000000000000602082015250565b7f416c72656164792057686974656c697374656400000000000000000000000000600082015250565b7f4572726f723a205068617365206c696d6974206f766572000000000000000000600082015250565b50565b7f4572726f723a2041646472657373206e6f7420696e2077686974656c69737400600082015250565b7f436f6e747269627574696f6e2052656365697665640000000000000000000000600082015250565b6003811061259c5761259b6121dd565b5b50565b6125a8816120dc565b81146125b357600080fd5b50565b6125bf81612100565b81146125ca57600080fd5b50565b6125d68161210c565b81146125e157600080fd5b50565b6125ed8161211e565b81146125f857600080fd5b50565b61260481612163565b811461260f57600080fd5b5056fea2646970667358221220989fe962d629fa12d3218b4af93ceff473e450fd666cec5ab19a8bacc502b91364736f6c63430008070033",
  "linkReferences": {},
  "deployedLinkReferences": {}
}