{
  "_format": "hh-sol-artifact-1",
  "contractName": "SpaceCoinICO",
  "sourceName": "contracts/SpaceCoinICO.sol",
  "abi": [
    {
      "inputs": [
        {
          "internalType": "address",
          "name": "treasury",
          "type": "address"
        }
      ],
      "stateMutability": "nonpayable",
      "type": "constructor"
    },
    {
      "anonymous": false,
      "inputs": [
        {
          "indexed": false,
          "internalType": "string",
          "name": "message",
          "type": "string"
        },
        {
          "indexed": false,
          "internalType": "address",
          "name": "sender",
          "type": "address"
        }
      ],
      "name": "AddedToWhiteList",
      "type": "event"
    },
    {
      "anonymous": false,
      "inputs": [
        {
          "indexed": false,
          "internalType": "string",
          "name": "message",
          "type": "string"
        },
        {
          "indexed": false,
          "internalType": "uint256",
          "name": "amount",
          "type": "uint256"
        }
      ],
      "name": "ContributionSuccess",
      "type": "event"
    },
    {
      "anonymous": false,
      "inputs": [
        {
          "indexed": true,
          "internalType": "address",
          "name": "previousOwner",
          "type": "address"
        },
        {
          "indexed": true,
          "internalType": "address",
          "name": "newOwner",
          "type": "address"
        }
      ],
      "name": "OwnershipTransferred",
      "type": "event"
    },
    {
      "anonymous": false,
      "inputs": [
        {
          "indexed": false,
          "internalType": "address",
          "name": "account",
          "type": "address"
        }
      ],
      "name": "Paused",
      "type": "event"
    },
    {
      "anonymous": false,
      "inputs": [
        {
          "indexed": false,
          "internalType": "string",
          "name": "message",
          "type": "string"
        }
      ],
      "name": "TokenTransfered",
      "type": "event"
    },
    {
      "anonymous": false,
      "inputs": [
        {
          "indexed": false,
          "internalType": "address",
          "name": "account",
          "type": "address"
        }
      ],
      "name": "Unpaused",
      "type": "event"
    },
    {
      "inputs": [
        {
          "internalType": "address",
          "name": "_address",
          "type": "address"
        }
      ],
      "name": "addWhitelisted",
      "outputs": [],
      "stateMutability": "nonpayable",
      "type": "function"
    },
    {
      "inputs": [],
      "name": "contribute",
      "outputs": [],
      "stateMutability": "payable",
      "type": "function"
    },
    {
      "inputs": [],
      "name": "currentPhase",
      "outputs": [
        {
          "internalType": "enum Phase",
          "name": "",
          "type": "uint8"
        }
      ],
      "stateMutability": "view",
      "type": "function"
    },
    {
      "inputs": [],
      "name": "getBalance",
      "outputs": [
        {
          "internalType": "uint256",
          "name": "",
          "type": "uint256"
        }
      ],
      "stateMutability": "view",
      "type": "function"
    },
    {
      "inputs": [],
      "name": "getContributionLimit",
      "outputs": [
        {
          "internalType": "uint256",
          "name": "",
          "type": "uint256"
        }
      ],
      "stateMutability": "view",
      "type": "function"
    },
    {
      "inputs": [],
      "name": "getPhaseLimit",
      "outputs": [
        {
          "internalType": "uint256",
          "name": "",
          "type": "uint256"
        }
      ],
      "stateMutability": "view",
      "type": "function"
    },
    {
      "inputs": [],
      "name": "owner",
      "outputs": [
        {
          "internalType": "address",
          "name": "",
          "type": "address"
        }
      ],
      "stateMutability": "view",
      "type": "function"
    },
    {
      "inputs": [],
      "name": "pause",
      "outputs": [],
      "stateMutability": "nonpayable",
      "type": "function"
    },
    {
      "inputs": [],
      "name": "paused",
      "outputs": [
        {
          "internalType": "bool",
          "name": "",
          "type": "bool"
        }
      ],
      "stateMutability": "view",
      "type": "function"
    },
    {
      "inputs": [],
      "name": "phaseRemaingCapacity",
      "outputs": [
        {
          "internalType": "uint256",
          "name": "",
          "type": "uint256"
        }
      ],
      "stateMutability": "view",
      "type": "function"
    },
    {
      "inputs": [],
      "name": "redeem",
      "outputs": [],
      "stateMutability": "nonpayable",
      "type": "function"
    },
    {
      "inputs": [],
      "name": "renounceOwnership",
      "outputs": [],
      "stateMutability": "nonpayable",
      "type": "function"
    },
    {
      "inputs": [],
      "name": "setGeneralPhase",
      "outputs": [],
      "stateMutability": "nonpayable",
      "type": "function"
    },
    {
      "inputs": [],
      "name": "setOpenPhase",
      "outputs": [],
      "stateMutability": "nonpayable",
      "type": "function"
    },
    {
      "inputs": [
        {
          "internalType": "contract SpaceCoin",
          "name": "spaceCoin",
          "type": "address"
        }
      ],
      "name": "setSpaceCoinAddress",
      "outputs": [],
      "stateMutability": "nonpayable",
      "type": "function"
    },
    {
      "inputs": [
        {
          "internalType": "contract SpacePool",
          "name": "spacePool",
          "type": "address"
        }
      ],
      "name": "setSpacePoolAddress",
      "outputs": [],
      "stateMutability": "nonpayable",
      "type": "function"
    },
    {
      "inputs": [
        {
          "internalType": "address",
          "name": "weth",
          "type": "address"
        }
      ],
      "name": "setWETHAddress",
      "outputs": [],
      "stateMutability": "nonpayable",
      "type": "function"
    },
    {
      "inputs": [
        {
          "internalType": "address",
          "name": "newOwner",
          "type": "address"
        }
      ],
      "name": "transferOwnership",
      "outputs": [],
      "stateMutability": "nonpayable",
      "type": "function"
    },
    {
      "inputs": [],
      "name": "unpause",
      "outputs": [],
      "stateMutability": "nonpayable",
      "type": "function"
    },
    {
      "inputs": [],
      "name": "withdraw",
      "outputs": [],
      "stateMutability": "payable",
      "type": "function"
    }
  ],
  "bytecode": "0x6080604052600560015569032d26d12e980b600000600255685150ae84a8cdf000006003553480156200003157600080fd5b506040516200276d3803806200276d8339818101604052810190620000579190620001bc565b620000776200006b620000d960201b60201c565b620000e160201b60201c565b60008060146101000a81548160ff02191690831515021790555080600760006101000a81548173ffffffffffffffffffffffffffffffffffffffff021916908373ffffffffffffffffffffffffffffffffffffffff1602179055505062000241565b600033905090565b60008060009054906101000a900473ffffffffffffffffffffffffffffffffffffffff169050816000806101000a81548173ffffffffffffffffffffffffffffffffffffffff021916908373ffffffffffffffffffffffffffffffffffffffff1602179055508173ffffffffffffffffffffffffffffffffffffffff168173ffffffffffffffffffffffffffffffffffffffff167f8be0079c531659141344cd1fd0a4f28419497f9722a3daafe3b4186f6b6457e060405160405180910390a35050565b600081519050620001b68162000227565b92915050565b600060208284031215620001d557620001d462000222565b5b6000620001e584828501620001a5565b91505092915050565b6000620001fb8262000202565b9050919050565b600073ffffffffffffffffffffffffffffffffffffffff82169050919050565b600080fd5b6200023281620001ee565b81146200023e57600080fd5b50565b61251c80620002516000396000f3fe60806040526004361061011f5760003560e01c8063715018a6116100a0578063be040fb011610064578063be040fb01461031c578063cdcb684014610333578063d7bb99ba1461035e578063f2fde38b14610368578063fa1e19e5146103915761011f565b8063715018a6146102815780638456cb59146102985780638da5cb5b146102af5780639bae6dbf146102da578063af6b39c5146102f15761011f565b80633f4ba83a116100e75780633f4ba83a146101c457806345bc9787146101db5780635325d806146102045780635c975abb1461022d5780636a4234eb146102585761011f565b8063055ad42e1461012457806310154bad1461014f57806312065fe01461017857806338f7826f146101a35780633ccfd60b146101ba575b600080fd5b34801561013057600080fd5b506101396103bc565b6040516101469190611c9f565b60405180910390f35b34801561015b57600080fd5b50610176600480360381019061017191906118de565b6103d3565b005b34801561018457600080fd5b5061018d610601565b60405161019a9190611eb6565b60405180910390f35b3480156101af57600080fd5b506101b8610609565b005b6101c2610770565b005b3480156101d057600080fd5b506101d9610ae1565b005b3480156101e757600080fd5b5061020260048036038101906101fd9190611965565b610b67565b005b34801561021057600080fd5b5061022b60048036038101906102269190611938565b610bab565b005b34801561023957600080fd5b50610242610bef565b60405161024f9190611c84565b60405180910390f35b34801561026457600080fd5b5061027f600480360381019061027a91906118de565b610c05565b005b34801561028d57600080fd5b50610296610c49565b005b3480156102a457600080fd5b506102ad610cd1565b005b3480156102bb57600080fd5b506102c4610d57565b6040516102d19190611c40565b60405180910390f35b3480156102e657600080fd5b506102ef610d80565b005b3480156102fd57600080fd5b50610306610f08565b6040516103139190611eb6565b60405180910390f35b34801561032857600080fd5b50610331611019565b005b34801561033f57600080fd5b5061034861128e565b6040516103559190611eb6565b60405180910390f35b610366611298565b005b34801561037457600080fd5b5061038f600480360381019061038a91906118de565b611563565b005b34801561039d57600080fd5b506103a661165b565b6040516103b39190611eb6565b60405180910390f35b6000600a60149054906101000a900460ff16905090565b6103db611665565b73ffffffffffffffffffffffffffffffffffffffff166103f9610d57565b73ffffffffffffffffffffffffffffffffffffffff161461044f576040517f08c379a000000000000000000000000000000000000000000000000000000000815260040161044690611dc8565b60405180910390fd5b610457610bef565b15610497576040517f08c379a000000000000000000000000000000000000000000000000000000000815260040161048e90611d88565b60405180910390fd5b60001515600560008373ffffffffffffffffffffffffffffffffffffffff1673ffffffffffffffffffffffffffffffffffffffff16815260200190815260200160002060009054906101000a900460ff1615151461052a576040517f08c379a000000000000000000000000000000000000000000000000000000000815260040161052190611e28565b60405180910390fd5b6001600560008373ffffffffffffffffffffffffffffffffffffffff1673ffffffffffffffffffffffffffffffffffffffff16815260200190815260200160002060006101000a81548160ff0219169083151502179055506000600660008373ffffffffffffffffffffffffffffffffffffffff1673ffffffffffffffffffffffffffffffffffffffff168152602001908152602001600020819055507f951ed8e9cceab02d6836f83965f7a63e26ebc4eb93b8034a0c9c2a0f51a38fb9336040516105f69190611cda565b60405180910390a150565b600047905090565b610611611665565b73ffffffffffffffffffffffffffffffffffffffff1661062f610d57565b73ffffffffffffffffffffffffffffffffffffffff1614610685576040517f08c379a000000000000000000000000000000000000000000000000000000000815260040161067c90611dc8565b60405180910390fd5b61068d610bef565b156106cd576040517f08c379a00000000000000000000000000000000000000000000000000000000081526004016106c490611d88565b60405180910390fd5b600160028111156106e1576106e0612103565b5b600a60149054906101000a900460ff16600281111561070357610702612103565b5b14610743576040517f08c379a000000000000000000000000000000000000000000000000000000000815260040161073a90611d48565b60405180910390fd5b6002600a60146101000a81548160ff0219169083600281111561076957610768612103565b5b0217905550565b610778611665565b73ffffffffffffffffffffffffffffffffffffffff16610796610d57565b73ffffffffffffffffffffffffffffffffffffffff16146107ec576040517f08c379a00000000000000000000000000000000000000000000000000000000081526004016107e390611dc8565b60405180910390fd5b600860009054906101000a900473ffffffffffffffffffffffffffffffffffffffff1673ffffffffffffffffffffffffffffffffffffffff1663a9059cbb600960009054906101000a900473ffffffffffffffffffffffffffffffffffffffff1660054761085a9190611f74565b6040518363ffffffff1660e01b8152600401610877929190611c5b565b602060405180830381600087803b15801561089157600080fd5b505af11580156108a5573d6000803e3d6000fd5b505050506040513d601f19601f820116820180604052508101906108c9919061190b565b50600a60009054906101000a900473ffffffffffffffffffffffffffffffffffffffff1673ffffffffffffffffffffffffffffffffffffffff166340c10f19600960009054906101000a900473ffffffffffffffffffffffffffffffffffffffff16670de0b6b3a76400004761093f9190611f43565b6040518363ffffffff1660e01b815260040161095c929190611c5b565b600060405180830381600087803b15801561097657600080fd5b505af115801561098a573d6000803e3d6000fd5b505050506000600960009054906101000a900473ffffffffffffffffffffffffffffffffffffffff1673ffffffffffffffffffffffffffffffffffffffff16476040516109d690611c2b565b60006040518083038185875af1925050503d8060008114610a13576040519150601f19603f3d011682016040523d82523d6000602084013e610a18565b606091505b5050905080610a5c576040517f08c379a0000000000000000000000000000000000000000000000000000000008152600401610a5390611da8565b60405180910390fd5b600960009054906101000a900473ffffffffffffffffffffffffffffffffffffffff1673ffffffffffffffffffffffffffffffffffffffff1663fff6cae96040518163ffffffff1660e01b8152600401600060405180830381600087803b158015610ac657600080fd5b505af1158015610ada573d6000803e3d6000fd5b5050505050565b610ae9611665565b73ffffffffffffffffffffffffffffffffffffffff16610b07610d57565b73ffffffffffffffffffffffffffffffffffffffff1614610b5d576040517f08c379a0000000000000000000000000000000000000000000000000000000008152600401610b5490611dc8565b60405180910390fd5b610b6561166d565b565b80600960006101000a81548173ffffffffffffffffffffffffffffffffffffffff021916908373ffffffffffffffffffffffffffffffffffffffff16021790555050565b80600860006101000a81548173ffffffffffffffffffffffffffffffffffffffff021916908373ffffffffffffffffffffffffffffffffffffffff16021790555050565b60008060149054906101000a900460ff16905090565b80600a60006101000a81548173ffffffffffffffffffffffffffffffffffffffff021916908373ffffffffffffffffffffffffffffffffffffffff16021790555050565b610c51611665565b73ffffffffffffffffffffffffffffffffffffffff16610c6f610d57565b73ffffffffffffffffffffffffffffffffffffffff1614610cc5576040517f08c379a0000000000000000000000000000000000000000000000000000000008152600401610cbc90611dc8565b60405180910390fd5b610ccf600061170e565b565b610cd9611665565b73ffffffffffffffffffffffffffffffffffffffff16610cf7610d57565b73ffffffffffffffffffffffffffffffffffffffff1614610d4d576040517f08c379a0000000000000000000000000000000000000000000000000000000008152600401610d4490611dc8565b60405180910390fd5b610d556117d2565b565b60008060009054906101000a900473ffffffffffffffffffffffffffffffffffffffff16905090565b610d88611665565b73ffffffffffffffffffffffffffffffffffffffff16610da6610d57565b73ffffffffffffffffffffffffffffffffffffffff1614610dfc576040517f08c379a0000000000000000000000000000000000000000000000000000000008152600401610df390611dc8565b60405180910390fd5b610e04610bef565b15610e44576040517f08c379a0000000000000000000000000000000000000000000000000000000008152600401610e3b90611d88565b60405180910390fd5b60006002811115610e5857610e57612103565b5b600a60149054906101000a900460ff166002811115610e7a57610e79612103565b5b14610eba576040517f08c379a0000000000000000000000000000000000000000000000000000000008152600401610eb190611d48565b60405180910390fd5b6001600a60146101000a81548160ff02191690836002811115610ee057610edf612103565b5b021790555069065a4da25d3016c00000600281905550683635c9adc5dea00000600381905550565b6000600280811115610f1d57610f1c612103565b5b600a60149054906101000a900460ff166002811115610f3f57610f3e612103565b5b14610f5b57600454600254610f549190611fce565b9050611016565b600154600860009054906101000a900473ffffffffffffffffffffffffffffffffffffffff1673ffffffffffffffffffffffffffffffffffffffff166370a08231306040518263ffffffff1660e01b8152600401610fb99190611c40565b60206040518083038186803b158015610fd157600080fd5b505afa158015610fe5573d6000803e3d6000fd5b505050506040513d601f19601f820116820180604052508101906110099190611992565b6110139190611f43565b90505b90565b60028081111561102c5761102b612103565b5b600a60149054906101000a900460ff16600281111561104e5761104d612103565b5b1461108e576040517f08c379a000000000000000000000000000000000000000000000000000000000815260040161108590611e08565b60405180910390fd5b6000600660003373ffffffffffffffffffffffffffffffffffffffff1673ffffffffffffffffffffffffffffffffffffffff1681526020019081526020016000205411611110576040517f08c379a000000000000000000000000000000000000000000000000000000000815260040161110790611de8565b60405180910390fd5b6000600154600660003373ffffffffffffffffffffffffffffffffffffffff1673ffffffffffffffffffffffffffffffffffffffff1681526020019081526020016000205461115f9190611f74565b90506000600660003373ffffffffffffffffffffffffffffffffffffffff1673ffffffffffffffffffffffffffffffffffffffff16815260200190815260200160002081905550600860009054906101000a900473ffffffffffffffffffffffffffffffffffffffff1673ffffffffffffffffffffffffffffffffffffffff1663a9059cbb33836040518363ffffffff1660e01b8152600401611203929190611c5b565b602060405180830381600087803b15801561121d57600080fd5b505af1158015611231573d6000803e3d6000fd5b505050506040513d601f19601f82011682018060405250810190611255919061190b565b507f1d5e86a50f279561809a2b76e4ba7ec1bb5f9540b9dae52a3205a6215ae8d22d60405161128390611d68565b60405180910390a150565b6000600254905090565b600060028111156112ac576112ab612103565b5b600a60149054906101000a900460ff1660028111156112ce576112cd612103565b5b141561136157600560003373ffffffffffffffffffffffffffffffffffffffff1673ffffffffffffffffffffffffffffffffffffffff16815260200190815260200160002060009054906101000a900460ff16611360576040517f08c379a000000000000000000000000000000000000000000000000000000000815260040161135790611e68565b60405180910390fd5b5b60028081111561137457611373612103565b5b600a60149054906101000a900460ff16600281111561139657611395612103565b5b1461142b5760035434600660003373ffffffffffffffffffffffffffffffffffffffff1673ffffffffffffffffffffffffffffffffffffffff168152602001908152602001600020546113e99190611eed565b111561142a576040517f08c379a000000000000000000000000000000000000000000000000000000000815260040161142190611d28565b60405180910390fd5b5b600254611436610601565b1115611477576040517f08c379a000000000000000000000000000000000000000000000000000000000815260040161146e90611e48565b60405180910390fd5b34600660003373ffffffffffffffffffffffffffffffffffffffff1673ffffffffffffffffffffffffffffffffffffffff16815260200190815260200160002060008282546114c69190611eed565b9250508190555034600460008282546114df9190611eed565b925050819055506002808111156114f9576114f8612103565b5b600a60149054906101000a900460ff16600281111561151b5761151a612103565b5b141561152a57611529611019565b5b7fc2d052242c53b9291b212437369ea86f8da5aa682c9fba0227677b12d0e115bd346040516115599190611e88565b60405180910390a1565b61156b611665565b73ffffffffffffffffffffffffffffffffffffffff16611589610d57565b73ffffffffffffffffffffffffffffffffffffffff16146115df576040517f08c379a00000000000000000000000000000000000000000000000000000000081526004016115d690611dc8565b60405180910390fd5b600073ffffffffffffffffffffffffffffffffffffffff168173ffffffffffffffffffffffffffffffffffffffff16141561164f576040517f08c379a000000000000000000000000000000000000000000000000000000000815260040161164690611d08565b60405180910390fd5b6116588161170e565b50565b6000600354905090565b600033905090565b611675610bef565b6116b4576040517f08c379a00000000000000000000000000000000000000000000000000000000081526004016116ab90611cba565b60405180910390fd5b60008060146101000a81548160ff0219169083151502179055507f5db9ee0a495bf2e6ff9c91a7834c1ba4fdd244a5e8aa4e537bd38aeae4b073aa6116f7611665565b6040516117049190611c40565b60405180910390a1565b60008060009054906101000a900473ffffffffffffffffffffffffffffffffffffffff169050816000806101000a81548173ffffffffffffffffffffffffffffffffffffffff021916908373ffffffffffffffffffffffffffffffffffffffff1602179055508173ffffffffffffffffffffffffffffffffffffffff168173ffffffffffffffffffffffffffffffffffffffff167f8be0079c531659141344cd1fd0a4f28419497f9722a3daafe3b4186f6b6457e060405160405180910390a35050565b6117da610bef565b1561181a576040517f08c379a000000000000000000000000000000000000000000000000000000000815260040161181190611d88565b60405180910390fd5b6001600060146101000a81548160ff0219169083151502179055507f62e78cea01bee320cd4e420270b5ea74000d11b0c9f74754ebdbfc544b05a25861185e611665565b60405161186b9190611c40565b60405180910390a1565b60008135905061188481612473565b92915050565b6000815190506118998161248a565b92915050565b6000813590506118ae816124a1565b92915050565b6000813590506118c3816124b8565b92915050565b6000815190506118d8816124cf565b92915050565b6000602082840312156118f4576118f3612132565b5b600061190284828501611875565b91505092915050565b60006020828403121561192157611920612132565b5b600061192f8482850161188a565b91505092915050565b60006020828403121561194e5761194d612132565b5b600061195c8482850161189f565b91505092915050565b60006020828403121561197b5761197a612132565b5b6000611989848285016118b4565b91505092915050565b6000602082840312156119a8576119a7612132565b5b60006119b6848285016118c9565b91505092915050565b6119c881612002565b82525050565b6119d781612026565b82525050565b6119e681612093565b82525050565b60006119f9601483611edc565b9150611a0482612137565b602082019050919050565b6000611a1c601383611edc565b9150611a2782612160565b602082019050919050565b6000611a3f602683611edc565b9150611a4a82612189565b604082019050919050565b6000611a62602383611edc565b9150611a6d826121d8565b604082019050919050565b6000611a85602483611edc565b9150611a9082612227565b604082019050919050565b6000611aa8601a83611edc565b9150611ab382612276565b602082019050919050565b6000611acb601083611edc565b9150611ad68261229f565b602082019050919050565b6000611aee600f83611edc565b9150611af9826122c8565b602082019050919050565b6000611b11602083611edc565b9150611b1c826122f1565b602082019050919050565b6000611b34603983611edc565b9150611b3f8261231a565b604082019050919050565b6000611b57602583611edc565b9150611b6282612369565b604082019050919050565b6000611b7a601383611edc565b9150611b85826123b8565b602082019050919050565b6000611b9d601783611edc565b9150611ba8826123e1565b602082019050919050565b6000611bc0600083611ed1565b9150611bcb8261240a565b600082019050919050565b6000611be3601f83611edc565b9150611bee8261240d565b602082019050919050565b6000611c06601583611edc565b9150611c1182612436565b602082019050919050565b611c2581612089565b82525050565b6000611c3682611bb3565b9150819050919050565b6000602082019050611c5560008301846119bf565b92915050565b6000604082019050611c7060008301856119bf565b611c7d6020830184611c1c565b9392505050565b6000602082019050611c9960008301846119ce565b92915050565b6000602082019050611cb460008301846119dd565b92915050565b60006020820190508181036000830152611cd3816119ec565b9050919050565b60006040820190508181036000830152611cf381611a0f565b9050611d0260208301846119bf565b92915050565b60006020820190508181036000830152611d2181611a32565b9050919050565b60006020820190508181036000830152611d4181611a55565b9050919050565b60006020820190508181036000830152611d6181611a78565b9050919050565b60006020820190508181036000830152611d8181611a9b565b9050919050565b60006020820190508181036000830152611da181611abe565b9050919050565b60006020820190508181036000830152611dc181611ae1565b9050919050565b60006020820190508181036000830152611de181611b04565b9050919050565b60006020820190508181036000830152611e0181611b27565b9050919050565b60006020820190508181036000830152611e2181611b4a565b9050919050565b60006020820190508181036000830152611e4181611b6d565b9050919050565b60006020820190508181036000830152611e6181611b90565b9050919050565b60006020820190508181036000830152611e8181611bd6565b9050919050565b60006040820190508181036000830152611ea181611bf9565b9050611eb06020830184611c1c565b92915050565b6000602082019050611ecb6000830184611c1c565b92915050565b600081905092915050565b600082825260208201905092915050565b6000611ef882612089565b9150611f0383612089565b9250827fffffffffffffffffffffffffffffffffffffffffffffffffffffffffffffffff03821115611f3857611f376120a5565b5b828201905092915050565b6000611f4e82612089565b9150611f5983612089565b925082611f6957611f686120d4565b5b828204905092915050565b6000611f7f82612089565b9150611f8a83612089565b9250817fffffffffffffffffffffffffffffffffffffffffffffffffffffffffffffffff0483118215151615611fc357611fc26120a5565b5b828202905092915050565b6000611fd982612089565b9150611fe483612089565b925082821015611ff757611ff66120a5565b5b828203905092915050565b600061200d82612069565b9050919050565b600061201f82612069565b9050919050565b60008115159050919050565b600061203d82612002565b9050919050565b600061204f82612014565b9050919050565b60008190506120648261245f565b919050565b600073ffffffffffffffffffffffffffffffffffffffff82169050919050565b6000819050919050565b600061209e82612056565b9050919050565b7f4e487b7100000000000000000000000000000000000000000000000000000000600052601160045260246000fd5b7f4e487b7100000000000000000000000000000000000000000000000000000000600052601260045260246000fd5b7f4e487b7100000000000000000000000000000000000000000000000000000000600052602160045260246000fd5b600080fd5b7f5061757361626c653a206e6f7420706175736564000000000000000000000000600082015250565b7f416464726573732057686974656c697374656400000000000000000000000000600082015250565b7f4f776e61626c653a206e6577206f776e657220697320746865207a65726f206160008201527f6464726573730000000000000000000000000000000000000000000000000000602082015250565b7f4572726f723a204d6f7265207468616e20636f6e747269627574696f6e206c6960008201527f6d69740000000000000000000000000000000000000000000000000000000000602082015250565b7f4572726f723a204f6e6c7920466f727761726420506861736520697320616c6c60008201527f6f77656400000000000000000000000000000000000000000000000000000000602082015250565b7f546f6b656e20686173206265656e207472616e73666572726564000000000000600082015250565b7f5061757361626c653a2070617573656400000000000000000000000000000000600082015250565b7f57495448445241575f4641494c45440000000000000000000000000000000000600082015250565b7f4f776e61626c653a2063616c6c6572206973206e6f7420746865206f776e6572600082015250565b7f4572726f723a20496e76616c69642061646472657373206f722068617665206e60008201527f6f7420636f6e747269627574656420616e7920616d6f756e7400000000000000602082015250565b7f4572726f723a2043616e6e6f742072656465656d20696e2063757272656e742060008201527f5068617365000000000000000000000000000000000000000000000000000000602082015250565b7f416c72656164792057686974656c697374656400000000000000000000000000600082015250565b7f4572726f723a205068617365206c696d6974206f766572000000000000000000600082015250565b50565b7f4572726f723a2041646472657373206e6f7420696e2077686974656c69737400600082015250565b7f436f6e747269627574696f6e2052656365697665640000000000000000000000600082015250565b600381106124705761246f612103565b5b50565b61247c81612002565b811461248757600080fd5b50565b61249381612026565b811461249e57600080fd5b50565b6124aa81612032565b81146124b557600080fd5b50565b6124c181612044565b81146124cc57600080fd5b50565b6124d881612089565b81146124e357600080fd5b5056fea26469706673582212206f4d6be57eddeb82a492f0a8999600d4ef9fb913e714b56a0962e42b00348c9e64736f6c63430008070033",
  "linkReferences": {},
  "deployedLinkReferences": {}
}