{
  "_format": "hh-sol-artifact-1",
  "contractName": "SpaceCoinICO",
  "sourceName": "contracts/SpaceCoinICO.sol",
  "abi": [
    {
      "inputs": [
        {
          "internalType": "address",
          "name": "treasury",
          "type": "address"
        }
      ],
      "stateMutability": "nonpayable",
      "type": "constructor"
    },
    {
      "anonymous": false,
      "inputs": [
        {
          "indexed": false,
          "internalType": "string",
          "name": "message",
          "type": "string"
        },
        {
          "indexed": false,
          "internalType": "address",
          "name": "sender",
          "type": "address"
        }
      ],
      "name": "AddedToWhiteList",
      "type": "event"
    },
    {
      "anonymous": false,
      "inputs": [
        {
          "indexed": false,
          "internalType": "string",
          "name": "message",
          "type": "string"
        },
        {
          "indexed": false,
          "internalType": "uint256",
          "name": "amount",
          "type": "uint256"
        }
      ],
      "name": "ContributionSuccess",
      "type": "event"
    },
    {
      "anonymous": false,
      "inputs": [
        {
          "indexed": true,
          "internalType": "address",
          "name": "previousOwner",
          "type": "address"
        },
        {
          "indexed": true,
          "internalType": "address",
          "name": "newOwner",
          "type": "address"
        }
      ],
      "name": "OwnershipTransferred",
      "type": "event"
    },
    {
      "anonymous": false,
      "inputs": [
        {
          "indexed": false,
          "internalType": "address",
          "name": "account",
          "type": "address"
        }
      ],
      "name": "Paused",
      "type": "event"
    },
    {
      "anonymous": false,
      "inputs": [
        {
          "indexed": false,
          "internalType": "string",
          "name": "message",
          "type": "string"
        }
      ],
      "name": "TokenTransfered",
      "type": "event"
    },
    {
      "anonymous": false,
      "inputs": [
        {
          "indexed": false,
          "internalType": "address",
          "name": "account",
          "type": "address"
        }
      ],
      "name": "Unpaused",
      "type": "event"
    },
    {
      "inputs": [
        {
          "internalType": "address",
          "name": "_address",
          "type": "address"
        }
      ],
      "name": "addWhitelisted",
      "outputs": [],
      "stateMutability": "nonpayable",
      "type": "function"
    },
    {
      "inputs": [],
      "name": "contribute",
      "outputs": [],
      "stateMutability": "payable",
      "type": "function"
    },
    {
      "inputs": [],
      "name": "currentPhase",
      "outputs": [
        {
          "internalType": "enum Phase",
          "name": "",
          "type": "uint8"
        }
      ],
      "stateMutability": "view",
      "type": "function"
    },
    {
      "inputs": [],
      "name": "getBalance",
      "outputs": [
        {
          "internalType": "uint256",
          "name": "",
          "type": "uint256"
        }
      ],
      "stateMutability": "view",
      "type": "function"
    },
    {
      "inputs": [],
      "name": "getContributionLimit",
      "outputs": [
        {
          "internalType": "uint256",
          "name": "",
          "type": "uint256"
        }
      ],
      "stateMutability": "view",
      "type": "function"
    },
    {
      "inputs": [],
      "name": "getPhaseLimit",
      "outputs": [
        {
          "internalType": "uint256",
          "name": "",
          "type": "uint256"
        }
      ],
      "stateMutability": "view",
      "type": "function"
    },
    {
      "inputs": [],
      "name": "owner",
      "outputs": [
        {
          "internalType": "address",
          "name": "",
          "type": "address"
        }
      ],
      "stateMutability": "view",
      "type": "function"
    },
    {
      "inputs": [],
      "name": "pause",
      "outputs": [],
      "stateMutability": "nonpayable",
      "type": "function"
    },
    {
      "inputs": [],
      "name": "paused",
      "outputs": [
        {
          "internalType": "bool",
          "name": "",
          "type": "bool"
        }
      ],
      "stateMutability": "view",
      "type": "function"
    },
    {
      "inputs": [],
      "name": "phaseRemaingCapacity",
      "outputs": [
        {
          "internalType": "uint256",
          "name": "",
          "type": "uint256"
        }
      ],
      "stateMutability": "view",
      "type": "function"
    },
    {
      "inputs": [],
      "name": "redeem",
      "outputs": [],
      "stateMutability": "nonpayable",
      "type": "function"
    },
    {
      "inputs": [],
      "name": "renounceOwnership",
      "outputs": [],
      "stateMutability": "nonpayable",
      "type": "function"
    },
    {
      "inputs": [],
      "name": "setGeneralPhase",
      "outputs": [],
      "stateMutability": "nonpayable",
      "type": "function"
    },
    {
      "inputs": [],
      "name": "setOpenPhase",
      "outputs": [],
      "stateMutability": "nonpayable",
      "type": "function"
    },
    {
      "inputs": [
        {
          "internalType": "contract SpaceCoin",
          "name": "spaceCoin",
          "type": "address"
        }
      ],
      "name": "setSpaceCoinAddress",
      "outputs": [],
      "stateMutability": "nonpayable",
      "type": "function"
    },
    {
      "inputs": [
        {
          "internalType": "contract SpacePool",
          "name": "spacePool",
          "type": "address"
        }
      ],
      "name": "setSpacePoolAddress",
      "outputs": [],
      "stateMutability": "nonpayable",
      "type": "function"
    },
    {
      "inputs": [
        {
          "internalType": "address",
          "name": "newOwner",
          "type": "address"
        }
      ],
      "name": "transferOwnership",
      "outputs": [],
      "stateMutability": "nonpayable",
      "type": "function"
    },
    {
      "inputs": [],
      "name": "unpause",
      "outputs": [],
      "stateMutability": "nonpayable",
      "type": "function"
    },
    {
      "inputs": [],
      "name": "withdraw",
      "outputs": [],
      "stateMutability": "payable",
      "type": "function"
    }
  ],
  "bytecode": "0x6080604052600560015569032d26d12e980b600000600255685150ae84a8cdf000006003553480156200003157600080fd5b5060405162002631380380620026318339818101604052810190620000579190620001bc565b620000776200006b620000d960201b60201c565b620000e160201b60201c565b60008060146101000a81548160ff02191690831515021790555080600760006101000a81548173ffffffffffffffffffffffffffffffffffffffff021916908373ffffffffffffffffffffffffffffffffffffffff1602179055505062000241565b600033905090565b60008060009054906101000a900473ffffffffffffffffffffffffffffffffffffffff169050816000806101000a81548173ffffffffffffffffffffffffffffffffffffffff021916908373ffffffffffffffffffffffffffffffffffffffff1602179055508173ffffffffffffffffffffffffffffffffffffffff168173ffffffffffffffffffffffffffffffffffffffff167f8be0079c531659141344cd1fd0a4f28419497f9722a3daafe3b4186f6b6457e060405160405180910390a35050565b600081519050620001b68162000227565b92915050565b600060208284031215620001d557620001d462000222565b5b6000620001e584828501620001a5565b91505092915050565b6000620001fb8262000202565b9050919050565b600073ffffffffffffffffffffffffffffffffffffffff82169050919050565b600080fd5b6200023281620001ee565b81146200023e57600080fd5b50565b6123e080620002516000396000f3fe6080604052600436106101145760003560e01c8063715018a6116100a0578063be040fb011610064578063be040fb0146102e8578063cdcb6840146102ff578063d7bb99ba1461032a578063f2fde38b14610334578063fa1e19e51461035d57610114565b8063715018a61461024d5780638456cb59146102645780638da5cb5b1461027b5780639bae6dbf146102a6578063af6b39c5146102bd57610114565b80633ccfd60b116100e75780633ccfd60b146101af5780633f4ba83a146101b957806345bc9787146101d05780635325d806146101f95780635c975abb1461022257610114565b8063055ad42e1461011957806310154bad1461014457806312065fe01461016d57806338f7826f14610198575b600080fd5b34801561012557600080fd5b5061012e610388565b60405161013b9190611b63565b60405180910390f35b34801561015057600080fd5b5061016b600480360381019061016691906117a2565b61039f565b005b34801561017957600080fd5b506101826105cd565b60405161018f9190611d7a565b60405180910390f35b3480156101a457600080fd5b506101ad6105d5565b005b6101b761073c565b005b3480156101c557600080fd5b506101ce6109e9565b005b3480156101dc57600080fd5b506101f760048036038101906101f29190611829565b610a6f565b005b34801561020557600080fd5b50610220600480360381019061021b91906117fc565b610ab3565b005b34801561022e57600080fd5b50610237610af7565b6040516102449190611b48565b60405180910390f35b34801561025957600080fd5b50610262610b0d565b005b34801561027057600080fd5b50610279610b95565b005b34801561028757600080fd5b50610290610c1b565b60405161029d9190611b04565b60405180910390f35b3480156102b257600080fd5b506102bb610c44565b005b3480156102c957600080fd5b506102d2610dcc565b6040516102df9190611d7a565b60405180910390f35b3480156102f457600080fd5b506102fd610edd565b005b34801561030b57600080fd5b50610314611152565b6040516103219190611d7a565b60405180910390f35b61033261115c565b005b34801561034057600080fd5b5061035b600480360381019061035691906117a2565b611427565b005b34801561036957600080fd5b5061037261151f565b60405161037f9190611d7a565b60405180910390f35b6000600960149054906101000a900460ff16905090565b6103a7611529565b73ffffffffffffffffffffffffffffffffffffffff166103c5610c1b565b73ffffffffffffffffffffffffffffffffffffffff161461041b576040517f08c379a000000000000000000000000000000000000000000000000000000000815260040161041290611c8c565b60405180910390fd5b610423610af7565b15610463576040517f08c379a000000000000000000000000000000000000000000000000000000000815260040161045a90611c4c565b60405180910390fd5b60001515600560008373ffffffffffffffffffffffffffffffffffffffff1673ffffffffffffffffffffffffffffffffffffffff16815260200190815260200160002060009054906101000a900460ff161515146104f6576040517f08c379a00000000000000000000000000000000000000000000000000000000081526004016104ed90611cec565b60405180910390fd5b6001600560008373ffffffffffffffffffffffffffffffffffffffff1673ffffffffffffffffffffffffffffffffffffffff16815260200190815260200160002060006101000a81548160ff0219169083151502179055506000600660008373ffffffffffffffffffffffffffffffffffffffff1673ffffffffffffffffffffffffffffffffffffffff168152602001908152602001600020819055507f951ed8e9cceab02d6836f83965f7a63e26ebc4eb93b8034a0c9c2a0f51a38fb9336040516105c29190611b9e565b60405180910390a150565b600047905090565b6105dd611529565b73ffffffffffffffffffffffffffffffffffffffff166105fb610c1b565b73ffffffffffffffffffffffffffffffffffffffff1614610651576040517f08c379a000000000000000000000000000000000000000000000000000000000815260040161064890611c8c565b60405180910390fd5b610659610af7565b15610699576040517f08c379a000000000000000000000000000000000000000000000000000000000815260040161069090611c4c565b60405180910390fd5b600160028111156106ad576106ac611fc7565b5b600960149054906101000a900460ff1660028111156106cf576106ce611fc7565b5b1461070f576040517f08c379a000000000000000000000000000000000000000000000000000000000815260040161070690611c0c565b60405180910390fd5b6002600960146101000a81548160ff0219169083600281111561073557610734611fc7565b5b0217905550565b610744611529565b73ffffffffffffffffffffffffffffffffffffffff16610762610c1b565b73ffffffffffffffffffffffffffffffffffffffff16146107b8576040517f08c379a00000000000000000000000000000000000000000000000000000000081526004016107af90611c8c565b60405180910390fd5b600860009054906101000a900473ffffffffffffffffffffffffffffffffffffffff1673ffffffffffffffffffffffffffffffffffffffff1663a9059cbb600960009054906101000a900473ffffffffffffffffffffffffffffffffffffffff166005476108269190611e38565b6040518363ffffffff1660e01b8152600401610843929190611b1f565b602060405180830381600087803b15801561085d57600080fd5b505af1158015610871573d6000803e3d6000fd5b505050506040513d601f19601f8201168201806040525081019061089591906117cf565b506000600960009054906101000a900473ffffffffffffffffffffffffffffffffffffffff1673ffffffffffffffffffffffffffffffffffffffff16476040516108de90611aef565b60006040518083038185875af1925050503d806000811461091b576040519150601f19603f3d011682016040523d82523d6000602084013e610920565b606091505b5050905080610964576040517f08c379a000000000000000000000000000000000000000000000000000000000815260040161095b90611c6c565b60405180910390fd5b600960009054906101000a900473ffffffffffffffffffffffffffffffffffffffff1673ffffffffffffffffffffffffffffffffffffffff1663fff6cae96040518163ffffffff1660e01b8152600401600060405180830381600087803b1580156109ce57600080fd5b505af11580156109e2573d6000803e3d6000fd5b5050505050565b6109f1611529565b73ffffffffffffffffffffffffffffffffffffffff16610a0f610c1b565b73ffffffffffffffffffffffffffffffffffffffff1614610a65576040517f08c379a0000000000000000000000000000000000000000000000000000000008152600401610a5c90611c8c565b60405180910390fd5b610a6d611531565b565b80600960006101000a81548173ffffffffffffffffffffffffffffffffffffffff021916908373ffffffffffffffffffffffffffffffffffffffff16021790555050565b80600860006101000a81548173ffffffffffffffffffffffffffffffffffffffff021916908373ffffffffffffffffffffffffffffffffffffffff16021790555050565b60008060149054906101000a900460ff16905090565b610b15611529565b73ffffffffffffffffffffffffffffffffffffffff16610b33610c1b565b73ffffffffffffffffffffffffffffffffffffffff1614610b89576040517f08c379a0000000000000000000000000000000000000000000000000000000008152600401610b8090611c8c565b60405180910390fd5b610b9360006115d2565b565b610b9d611529565b73ffffffffffffffffffffffffffffffffffffffff16610bbb610c1b565b73ffffffffffffffffffffffffffffffffffffffff1614610c11576040517f08c379a0000000000000000000000000000000000000000000000000000000008152600401610c0890611c8c565b60405180910390fd5b610c19611696565b565b60008060009054906101000a900473ffffffffffffffffffffffffffffffffffffffff16905090565b610c4c611529565b73ffffffffffffffffffffffffffffffffffffffff16610c6a610c1b565b73ffffffffffffffffffffffffffffffffffffffff1614610cc0576040517f08c379a0000000000000000000000000000000000000000000000000000000008152600401610cb790611c8c565b60405180910390fd5b610cc8610af7565b15610d08576040517f08c379a0000000000000000000000000000000000000000000000000000000008152600401610cff90611c4c565b60405180910390fd5b60006002811115610d1c57610d1b611fc7565b5b600960149054906101000a900460ff166002811115610d3e57610d3d611fc7565b5b14610d7e576040517f08c379a0000000000000000000000000000000000000000000000000000000008152600401610d7590611c0c565b60405180910390fd5b6001600960146101000a81548160ff02191690836002811115610da457610da3611fc7565b5b021790555069065a4da25d3016c00000600281905550683635c9adc5dea00000600381905550565b6000600280811115610de157610de0611fc7565b5b600960149054906101000a900460ff166002811115610e0357610e02611fc7565b5b14610e1f57600454600254610e189190611e92565b9050610eda565b600154600860009054906101000a900473ffffffffffffffffffffffffffffffffffffffff1673ffffffffffffffffffffffffffffffffffffffff166370a08231306040518263ffffffff1660e01b8152600401610e7d9190611b04565b60206040518083038186803b158015610e9557600080fd5b505afa158015610ea9573d6000803e3d6000fd5b505050506040513d601f19601f82011682018060405250810190610ecd9190611856565b610ed79190611e07565b90505b90565b600280811115610ef057610eef611fc7565b5b600960149054906101000a900460ff166002811115610f1257610f11611fc7565b5b14610f52576040517f08c379a0000000000000000000000000000000000000000000000000000000008152600401610f4990611ccc565b60405180910390fd5b6000600660003373ffffffffffffffffffffffffffffffffffffffff1673ffffffffffffffffffffffffffffffffffffffff1681526020019081526020016000205411610fd4576040517f08c379a0000000000000000000000000000000000000000000000000000000008152600401610fcb90611cac565b60405180910390fd5b6000600154600660003373ffffffffffffffffffffffffffffffffffffffff1673ffffffffffffffffffffffffffffffffffffffff168152602001908152602001600020546110239190611e38565b90506000600660003373ffffffffffffffffffffffffffffffffffffffff1673ffffffffffffffffffffffffffffffffffffffff16815260200190815260200160002081905550600860009054906101000a900473ffffffffffffffffffffffffffffffffffffffff1673ffffffffffffffffffffffffffffffffffffffff1663a9059cbb33836040518363ffffffff1660e01b81526004016110c7929190611b1f565b602060405180830381600087803b1580156110e157600080fd5b505af11580156110f5573d6000803e3d6000fd5b505050506040513d601f19601f8201168201806040525081019061111991906117cf565b507f1d5e86a50f279561809a2b76e4ba7ec1bb5f9540b9dae52a3205a6215ae8d22d60405161114790611c2c565b60405180910390a150565b6000600254905090565b600060028111156111705761116f611fc7565b5b600960149054906101000a900460ff16600281111561119257611191611fc7565b5b141561122557600560003373ffffffffffffffffffffffffffffffffffffffff1673ffffffffffffffffffffffffffffffffffffffff16815260200190815260200160002060009054906101000a900460ff16611224576040517f08c379a000000000000000000000000000000000000000000000000000000000815260040161121b90611d2c565b60405180910390fd5b5b60028081111561123857611237611fc7565b5b600960149054906101000a900460ff16600281111561125a57611259611fc7565b5b146112ef5760035434600660003373ffffffffffffffffffffffffffffffffffffffff1673ffffffffffffffffffffffffffffffffffffffff168152602001908152602001600020546112ad9190611db1565b11156112ee576040517f08c379a00000000000000000000000000000000000000000000000000000000081526004016112e590611bec565b60405180910390fd5b5b6002546112fa6105cd565b111561133b576040517f08c379a000000000000000000000000000000000000000000000000000000000815260040161133290611d0c565b60405180910390fd5b34600660003373ffffffffffffffffffffffffffffffffffffffff1673ffffffffffffffffffffffffffffffffffffffff168152602001908152602001600020600082825461138a9190611db1565b9250508190555034600460008282546113a39190611db1565b925050819055506002808111156113bd576113bc611fc7565b5b600960149054906101000a900460ff1660028111156113df576113de611fc7565b5b14156113ee576113ed610edd565b5b7fc2d052242c53b9291b212437369ea86f8da5aa682c9fba0227677b12d0e115bd3460405161141d9190611d4c565b60405180910390a1565b61142f611529565b73ffffffffffffffffffffffffffffffffffffffff1661144d610c1b565b73ffffffffffffffffffffffffffffffffffffffff16146114a3576040517f08c379a000000000000000000000000000000000000000000000000000000000815260040161149a90611c8c565b60405180910390fd5b600073ffffffffffffffffffffffffffffffffffffffff168173ffffffffffffffffffffffffffffffffffffffff161415611513576040517f08c379a000000000000000000000000000000000000000000000000000000000815260040161150a90611bcc565b60405180910390fd5b61151c816115d2565b50565b6000600354905090565b600033905090565b611539610af7565b611578576040517f08c379a000000000000000000000000000000000000000000000000000000000815260040161156f90611b7e565b60405180910390fd5b60008060146101000a81548160ff0219169083151502179055507f5db9ee0a495bf2e6ff9c91a7834c1ba4fdd244a5e8aa4e537bd38aeae4b073aa6115bb611529565b6040516115c89190611b04565b60405180910390a1565b60008060009054906101000a900473ffffffffffffffffffffffffffffffffffffffff169050816000806101000a81548173ffffffffffffffffffffffffffffffffffffffff021916908373ffffffffffffffffffffffffffffffffffffffff1602179055508173ffffffffffffffffffffffffffffffffffffffff168173ffffffffffffffffffffffffffffffffffffffff167f8be0079c531659141344cd1fd0a4f28419497f9722a3daafe3b4186f6b6457e060405160405180910390a35050565b61169e610af7565b156116de576040517f08c379a00000000000000000000000000000000000000000000000000000000081526004016116d590611c4c565b60405180910390fd5b6001600060146101000a81548160ff0219169083151502179055507f62e78cea01bee320cd4e420270b5ea74000d11b0c9f74754ebdbfc544b05a258611722611529565b60405161172f9190611b04565b60405180910390a1565b60008135905061174881612337565b92915050565b60008151905061175d8161234e565b92915050565b60008135905061177281612365565b92915050565b6000813590506117878161237c565b92915050565b60008151905061179c81612393565b92915050565b6000602082840312156117b8576117b7611ff6565b5b60006117c684828501611739565b91505092915050565b6000602082840312156117e5576117e4611ff6565b5b60006117f38482850161174e565b91505092915050565b60006020828403121561181257611811611ff6565b5b600061182084828501611763565b91505092915050565b60006020828403121561183f5761183e611ff6565b5b600061184d84828501611778565b91505092915050565b60006020828403121561186c5761186b611ff6565b5b600061187a8482850161178d565b91505092915050565b61188c81611ec6565b82525050565b61189b81611eea565b82525050565b6118aa81611f57565b82525050565b60006118bd601483611da0565b91506118c882611ffb565b602082019050919050565b60006118e0601383611da0565b91506118eb82612024565b602082019050919050565b6000611903602683611da0565b915061190e8261204d565b604082019050919050565b6000611926602383611da0565b91506119318261209c565b604082019050919050565b6000611949602483611da0565b9150611954826120eb565b604082019050919050565b600061196c601a83611da0565b91506119778261213a565b602082019050919050565b600061198f601083611da0565b915061199a82612163565b602082019050919050565b60006119b2600f83611da0565b91506119bd8261218c565b602082019050919050565b60006119d5602083611da0565b91506119e0826121b5565b602082019050919050565b60006119f8603983611da0565b9150611a03826121de565b604082019050919050565b6000611a1b602583611da0565b9150611a268261222d565b604082019050919050565b6000611a3e601383611da0565b9150611a498261227c565b602082019050919050565b6000611a61601783611da0565b9150611a6c826122a5565b602082019050919050565b6000611a84600083611d95565b9150611a8f826122ce565b600082019050919050565b6000611aa7601f83611da0565b9150611ab2826122d1565b602082019050919050565b6000611aca601583611da0565b9150611ad5826122fa565b602082019050919050565b611ae981611f4d565b82525050565b6000611afa82611a77565b9150819050919050565b6000602082019050611b196000830184611883565b92915050565b6000604082019050611b346000830185611883565b611b416020830184611ae0565b9392505050565b6000602082019050611b5d6000830184611892565b92915050565b6000602082019050611b7860008301846118a1565b92915050565b60006020820190508181036000830152611b97816118b0565b9050919050565b60006040820190508181036000830152611bb7816118d3565b9050611bc66020830184611883565b92915050565b60006020820190508181036000830152611be5816118f6565b9050919050565b60006020820190508181036000830152611c0581611919565b9050919050565b60006020820190508181036000830152611c258161193c565b9050919050565b60006020820190508181036000830152611c458161195f565b9050919050565b60006020820190508181036000830152611c6581611982565b9050919050565b60006020820190508181036000830152611c85816119a5565b9050919050565b60006020820190508181036000830152611ca5816119c8565b9050919050565b60006020820190508181036000830152611cc5816119eb565b9050919050565b60006020820190508181036000830152611ce581611a0e565b9050919050565b60006020820190508181036000830152611d0581611a31565b9050919050565b60006020820190508181036000830152611d2581611a54565b9050919050565b60006020820190508181036000830152611d4581611a9a565b9050919050565b60006040820190508181036000830152611d6581611abd565b9050611d746020830184611ae0565b92915050565b6000602082019050611d8f6000830184611ae0565b92915050565b600081905092915050565b600082825260208201905092915050565b6000611dbc82611f4d565b9150611dc783611f4d565b9250827fffffffffffffffffffffffffffffffffffffffffffffffffffffffffffffffff03821115611dfc57611dfb611f69565b5b828201905092915050565b6000611e1282611f4d565b9150611e1d83611f4d565b925082611e2d57611e2c611f98565b5b828204905092915050565b6000611e4382611f4d565b9150611e4e83611f4d565b9250817fffffffffffffffffffffffffffffffffffffffffffffffffffffffffffffffff0483118215151615611e8757611e86611f69565b5b828202905092915050565b6000611e9d82611f4d565b9150611ea883611f4d565b925082821015611ebb57611eba611f69565b5b828203905092915050565b6000611ed182611f2d565b9050919050565b6000611ee382611f2d565b9050919050565b60008115159050919050565b6000611f0182611ec6565b9050919050565b6000611f1382611ed8565b9050919050565b6000819050611f2882612323565b919050565b600073ffffffffffffffffffffffffffffffffffffffff82169050919050565b6000819050919050565b6000611f6282611f1a565b9050919050565b7f4e487b7100000000000000000000000000000000000000000000000000000000600052601160045260246000fd5b7f4e487b7100000000000000000000000000000000000000000000000000000000600052601260045260246000fd5b7f4e487b7100000000000000000000000000000000000000000000000000000000600052602160045260246000fd5b600080fd5b7f5061757361626c653a206e6f7420706175736564000000000000000000000000600082015250565b7f416464726573732057686974656c697374656400000000000000000000000000600082015250565b7f4f776e61626c653a206e6577206f776e657220697320746865207a65726f206160008201527f6464726573730000000000000000000000000000000000000000000000000000602082015250565b7f4572726f723a204d6f7265207468616e20636f6e747269627574696f6e206c6960008201527f6d69740000000000000000000000000000000000000000000000000000000000602082015250565b7f4572726f723a204f6e6c7920466f727761726420506861736520697320616c6c60008201527f6f77656400000000000000000000000000000000000000000000000000000000602082015250565b7f546f6b656e20686173206265656e207472616e73666572726564000000000000600082015250565b7f5061757361626c653a2070617573656400000000000000000000000000000000600082015250565b7f57495448445241575f4641494c45440000000000000000000000000000000000600082015250565b7f4f776e61626c653a2063616c6c6572206973206e6f7420746865206f776e6572600082015250565b7f4572726f723a20496e76616c69642061646472657373206f722068617665206e60008201527f6f7420636f6e747269627574656420616e7920616d6f756e7400000000000000602082015250565b7f4572726f723a2043616e6e6f742072656465656d20696e2063757272656e742060008201527f5068617365000000000000000000000000000000000000000000000000000000602082015250565b7f416c72656164792057686974656c697374656400000000000000000000000000600082015250565b7f4572726f723a205068617365206c696d6974206f766572000000000000000000600082015250565b50565b7f4572726f723a2041646472657373206e6f7420696e2077686974656c69737400600082015250565b7f436f6e747269627574696f6e2052656365697665640000000000000000000000600082015250565b6003811061233457612333611fc7565b5b50565b61234081611ec6565b811461234b57600080fd5b50565b61235781611eea565b811461236257600080fd5b50565b61236e81611ef6565b811461237957600080fd5b50565b61238581611f08565b811461239057600080fd5b50565b61239c81611f4d565b81146123a757600080fd5b5056fea2646970667358221220cab0dfbc326b2ce9fb30cb67c97f66ed44c1ff90345f484d51c0f5c1437a0a7e64736f6c63430008070033",
  "linkReferences": {},
  "deployedLinkReferences": {}
}