{
  "_format": "hh-sol-artifact-1",
  "contractName": "SpaceCoinICO",
  "sourceName": "contracts/SpaceCoinICO.sol",
  "abi": [
    {
      "inputs": [
        {
          "internalType": "address",
          "name": "treasury",
          "type": "address"
        }
      ],
      "stateMutability": "nonpayable",
      "type": "constructor"
    },
    {
      "anonymous": false,
      "inputs": [
        {
          "indexed": false,
          "internalType": "string",
          "name": "message",
          "type": "string"
        },
        {
          "indexed": false,
          "internalType": "address",
          "name": "sender",
          "type": "address"
        }
      ],
      "name": "AddedToWhiteList",
      "type": "event"
    },
    {
      "anonymous": false,
      "inputs": [
        {
          "indexed": false,
          "internalType": "string",
          "name": "message",
          "type": "string"
        },
        {
          "indexed": false,
          "internalType": "uint256",
          "name": "amount",
          "type": "uint256"
        }
      ],
      "name": "ContributionSuccess",
      "type": "event"
    },
    {
      "anonymous": false,
      "inputs": [
        {
          "indexed": true,
          "internalType": "address",
          "name": "previousOwner",
          "type": "address"
        },
        {
          "indexed": true,
          "internalType": "address",
          "name": "newOwner",
          "type": "address"
        }
      ],
      "name": "OwnershipTransferred",
      "type": "event"
    },
    {
      "anonymous": false,
      "inputs": [
        {
          "indexed": false,
          "internalType": "address",
          "name": "account",
          "type": "address"
        }
      ],
      "name": "Paused",
      "type": "event"
    },
    {
      "anonymous": false,
      "inputs": [
        {
          "indexed": false,
          "internalType": "string",
          "name": "message",
          "type": "string"
        }
      ],
      "name": "TokenTransfered",
      "type": "event"
    },
    {
      "anonymous": false,
      "inputs": [
        {
          "indexed": false,
          "internalType": "address",
          "name": "account",
          "type": "address"
        }
      ],
      "name": "Unpaused",
      "type": "event"
    },
    {
      "inputs": [
        {
          "internalType": "address",
          "name": "_address",
          "type": "address"
        }
      ],
      "name": "addWhitelisted",
      "outputs": [],
      "stateMutability": "nonpayable",
      "type": "function"
    },
    {
      "inputs": [],
      "name": "contribute",
      "outputs": [],
      "stateMutability": "payable",
      "type": "function"
    },
    {
      "inputs": [],
      "name": "currentPhase",
      "outputs": [
        {
          "internalType": "enum Phase",
          "name": "",
          "type": "uint8"
        }
      ],
      "stateMutability": "view",
      "type": "function"
    },
    {
      "inputs": [],
      "name": "getBalance",
      "outputs": [
        {
          "internalType": "uint256",
          "name": "",
          "type": "uint256"
        }
      ],
      "stateMutability": "view",
      "type": "function"
    },
    {
      "inputs": [],
      "name": "getContributionLimit",
      "outputs": [
        {
          "internalType": "uint256",
          "name": "",
          "type": "uint256"
        }
      ],
      "stateMutability": "view",
      "type": "function"
    },
    {
      "inputs": [],
      "name": "getPhaseLimit",
      "outputs": [
        {
          "internalType": "uint256",
          "name": "",
          "type": "uint256"
        }
      ],
      "stateMutability": "view",
      "type": "function"
    },
    {
      "inputs": [],
      "name": "owner",
      "outputs": [
        {
          "internalType": "address",
          "name": "",
          "type": "address"
        }
      ],
      "stateMutability": "view",
      "type": "function"
    },
    {
      "inputs": [],
      "name": "pause",
      "outputs": [],
      "stateMutability": "nonpayable",
      "type": "function"
    },
    {
      "inputs": [],
      "name": "paused",
      "outputs": [
        {
          "internalType": "bool",
          "name": "",
          "type": "bool"
        }
      ],
      "stateMutability": "view",
      "type": "function"
    },
    {
      "inputs": [],
      "name": "phaseRemaingCapacity",
      "outputs": [
        {
          "internalType": "uint256",
          "name": "",
          "type": "uint256"
        }
      ],
      "stateMutability": "view",
      "type": "function"
    },
    {
      "inputs": [],
      "name": "redeem",
      "outputs": [],
      "stateMutability": "nonpayable",
      "type": "function"
    },
    {
      "inputs": [],
      "name": "renounceOwnership",
      "outputs": [],
      "stateMutability": "nonpayable",
      "type": "function"
    },
    {
      "inputs": [],
      "name": "setGeneralPhase",
      "outputs": [],
      "stateMutability": "nonpayable",
      "type": "function"
    },
    {
      "inputs": [],
      "name": "setOpenPhase",
      "outputs": [],
      "stateMutability": "nonpayable",
      "type": "function"
    },
    {
      "inputs": [
        {
          "internalType": "contract SpaceCoin",
          "name": "spaceCoin",
          "type": "address"
        }
      ],
      "name": "setSpaceCoinAddress",
      "outputs": [],
      "stateMutability": "nonpayable",
      "type": "function"
    },
    {
      "inputs": [
        {
          "internalType": "address",
          "name": "newOwner",
          "type": "address"
        }
      ],
      "name": "transferOwnership",
      "outputs": [],
      "stateMutability": "nonpayable",
      "type": "function"
    },
    {
      "inputs": [],
      "name": "unpause",
      "outputs": [],
      "stateMutability": "nonpayable",
      "type": "function"
    },
    {
      "inputs": [],
      "name": "withdraw",
      "outputs": [],
      "stateMutability": "nonpayable",
      "type": "function"
    }
  ],
  "bytecode": "0x6080604052600560015569032d26d12e980b600000600255685150ae84a8cdf000006003553480156200003157600080fd5b5060405162002469380380620024698339818101604052810190620000579190620001bc565b620000776200006b620000d960201b60201c565b620000e160201b60201c565b60008060146101000a81548160ff02191690831515021790555080600760006101000a81548173ffffffffffffffffffffffffffffffffffffffff021916908373ffffffffffffffffffffffffffffffffffffffff1602179055505062000241565b600033905090565b60008060009054906101000a900473ffffffffffffffffffffffffffffffffffffffff169050816000806101000a81548173ffffffffffffffffffffffffffffffffffffffff021916908373ffffffffffffffffffffffffffffffffffffffff1602179055508173ffffffffffffffffffffffffffffffffffffffff168173ffffffffffffffffffffffffffffffffffffffff167f8be0079c531659141344cd1fd0a4f28419497f9722a3daafe3b4186f6b6457e060405160405180910390a35050565b600081519050620001b68162000227565b92915050565b600060208284031215620001d557620001d462000222565b5b6000620001e584828501620001a5565b91505092915050565b6000620001fb8262000202565b9050919050565b600073ffffffffffffffffffffffffffffffffffffffff82169050919050565b600080fd5b6200023281620001ee565b81146200023e57600080fd5b50565b61221880620002516000396000f3fe6080604052600436106101095760003560e01c80638456cb5911610095578063be040fb011610064578063be040fb0146102c1578063cdcb6840146102d8578063d7bb99ba14610303578063f2fde38b1461030d578063fa1e19e51461033657610109565b80638456cb591461023d5780638da5cb5b146102545780639bae6dbf1461027f578063af6b39c51461029657610109565b80633ccfd60b116100dc5780633ccfd60b146101a45780633f4ba83a146101bb5780635325d806146101d25780635c975abb146101fb578063715018a61461022657610109565b8063055ad42e1461010e57806310154bad1461013957806312065fe01461016257806338f7826f1461018d575b600080fd5b34801561011a57600080fd5b50610123610361565b604051610130919061198d565b60405180910390f35b34801561014557600080fd5b50610160600480360381019061015b91906115d6565b610378565b005b34801561016e57600080fd5b506101776105a6565b6040516101849190611bc4565b60405180910390f35b34801561019957600080fd5b506101a26105ae565b005b3480156101b057600080fd5b506101b9610715565b005b3480156101c757600080fd5b506101d0610876565b005b3480156101de57600080fd5b506101f960048036038101906101f49190611630565b6108fc565b005b34801561020757600080fd5b50610210610940565b60405161021d9190611972565b60405180910390f35b34801561023257600080fd5b5061023b610956565b005b34801561024957600080fd5b506102526109de565b005b34801561026057600080fd5b50610269610a64565b604051610276919061192e565b60405180910390f35b34801561028b57600080fd5b50610294610a8d565b005b3480156102a257600080fd5b506102ab610c15565b6040516102b89190611bc4565b60405180910390f35b3480156102cd57600080fd5b506102d6610d26565b005b3480156102e457600080fd5b506102ed610f9b565b6040516102fa9190611bc4565b60405180910390f35b61030b610fa5565b005b34801561031957600080fd5b50610334600480360381019061032f91906115d6565b611270565b005b34801561034257600080fd5b5061034b611368565b6040516103589190611bc4565b60405180910390f35b6000600860149054906101000a900460ff16905090565b610380611372565b73ffffffffffffffffffffffffffffffffffffffff1661039e610a64565b73ffffffffffffffffffffffffffffffffffffffff16146103f4576040517f08c379a00000000000000000000000000000000000000000000000000000000081526004016103eb90611ad6565b60405180910390fd5b6103fc610940565b1561043c576040517f08c379a000000000000000000000000000000000000000000000000000000000815260040161043390611a96565b60405180910390fd5b60001515600560008373ffffffffffffffffffffffffffffffffffffffff1673ffffffffffffffffffffffffffffffffffffffff16815260200190815260200160002060009054906101000a900460ff161515146104cf576040517f08c379a00000000000000000000000000000000000000000000000000000000081526004016104c690611b36565b60405180910390fd5b6001600560008373ffffffffffffffffffffffffffffffffffffffff1673ffffffffffffffffffffffffffffffffffffffff16815260200190815260200160002060006101000a81548160ff0219169083151502179055506000600660008373ffffffffffffffffffffffffffffffffffffffff1673ffffffffffffffffffffffffffffffffffffffff168152602001908152602001600020819055507f951ed8e9cceab02d6836f83965f7a63e26ebc4eb93b8034a0c9c2a0f51a38fb93360405161059b91906119c8565b60405180910390a150565b600047905090565b6105b6611372565b73ffffffffffffffffffffffffffffffffffffffff166105d4610a64565b73ffffffffffffffffffffffffffffffffffffffff161461062a576040517f08c379a000000000000000000000000000000000000000000000000000000000815260040161062190611ad6565b60405180910390fd5b610632610940565b15610672576040517f08c379a000000000000000000000000000000000000000000000000000000000815260040161066990611a96565b60405180910390fd5b6001600281111561068657610685611ded565b5b600860149054906101000a900460ff1660028111156106a8576106a7611ded565b5b146106e8576040517f08c379a00000000000000000000000000000000000000000000000000000000081526004016106df90611a56565b60405180910390fd5b6002600860146101000a81548160ff0219169083600281111561070e5761070d611ded565b5b0217905550565b600760009054906101000a900473ffffffffffffffffffffffffffffffffffffffff1673ffffffffffffffffffffffffffffffffffffffff163373ffffffffffffffffffffffffffffffffffffffff16146107a5576040517f08c379a000000000000000000000000000000000000000000000000000000000815260040161079c90611a16565b60405180910390fd5b6000600760009054906101000a900473ffffffffffffffffffffffffffffffffffffffff1673ffffffffffffffffffffffffffffffffffffffff16476040516107ed90611919565b60006040518083038185875af1925050503d806000811461082a576040519150601f19603f3d011682016040523d82523d6000602084013e61082f565b606091505b5050905080610873576040517f08c379a000000000000000000000000000000000000000000000000000000000815260040161086a90611ab6565b60405180910390fd5b50565b61087e611372565b73ffffffffffffffffffffffffffffffffffffffff1661089c610a64565b73ffffffffffffffffffffffffffffffffffffffff16146108f2576040517f08c379a00000000000000000000000000000000000000000000000000000000081526004016108e990611ad6565b60405180910390fd5b6108fa61137a565b565b80600860006101000a81548173ffffffffffffffffffffffffffffffffffffffff021916908373ffffffffffffffffffffffffffffffffffffffff16021790555050565b60008060149054906101000a900460ff16905090565b61095e611372565b73ffffffffffffffffffffffffffffffffffffffff1661097c610a64565b73ffffffffffffffffffffffffffffffffffffffff16146109d2576040517f08c379a00000000000000000000000000000000000000000000000000000000081526004016109c990611ad6565b60405180910390fd5b6109dc600061141b565b565b6109e6611372565b73ffffffffffffffffffffffffffffffffffffffff16610a04610a64565b73ffffffffffffffffffffffffffffffffffffffff1614610a5a576040517f08c379a0000000000000000000000000000000000000000000000000000000008152600401610a5190611ad6565b60405180910390fd5b610a626114df565b565b60008060009054906101000a900473ffffffffffffffffffffffffffffffffffffffff16905090565b610a95611372565b73ffffffffffffffffffffffffffffffffffffffff16610ab3610a64565b73ffffffffffffffffffffffffffffffffffffffff1614610b09576040517f08c379a0000000000000000000000000000000000000000000000000000000008152600401610b0090611ad6565b60405180910390fd5b610b11610940565b15610b51576040517f08c379a0000000000000000000000000000000000000000000000000000000008152600401610b4890611a96565b60405180910390fd5b60006002811115610b6557610b64611ded565b5b600860149054906101000a900460ff166002811115610b8757610b86611ded565b5b14610bc7576040517f08c379a0000000000000000000000000000000000000000000000000000000008152600401610bbe90611a56565b60405180910390fd5b6001600860146101000a81548160ff02191690836002811115610bed57610bec611ded565b5b021790555069065a4da25d3016c00000600281905550683635c9adc5dea00000600381905550565b6000600280811115610c2a57610c29611ded565b5b600860149054906101000a900460ff166002811115610c4c57610c4b611ded565b5b14610c6857600454600254610c619190611cdc565b9050610d23565b600154600860009054906101000a900473ffffffffffffffffffffffffffffffffffffffff1673ffffffffffffffffffffffffffffffffffffffff166370a08231306040518263ffffffff1660e01b8152600401610cc6919061192e565b60206040518083038186803b158015610cde57600080fd5b505afa158015610cf2573d6000803e3d6000fd5b505050506040513d601f19601f82011682018060405250810190610d16919061165d565b610d209190611c51565b90505b90565b600280811115610d3957610d38611ded565b5b600860149054906101000a900460ff166002811115610d5b57610d5a611ded565b5b14610d9b576040517f08c379a0000000000000000000000000000000000000000000000000000000008152600401610d9290611b16565b60405180910390fd5b6000600660003373ffffffffffffffffffffffffffffffffffffffff1673ffffffffffffffffffffffffffffffffffffffff1681526020019081526020016000205411610e1d576040517f08c379a0000000000000000000000000000000000000000000000000000000008152600401610e1490611af6565b60405180910390fd5b6000600154600660003373ffffffffffffffffffffffffffffffffffffffff1673ffffffffffffffffffffffffffffffffffffffff16815260200190815260200160002054610e6c9190611c82565b90506000600660003373ffffffffffffffffffffffffffffffffffffffff1673ffffffffffffffffffffffffffffffffffffffff16815260200190815260200160002081905550600860009054906101000a900473ffffffffffffffffffffffffffffffffffffffff1673ffffffffffffffffffffffffffffffffffffffff1663a9059cbb33836040518363ffffffff1660e01b8152600401610f10929190611949565b602060405180830381600087803b158015610f2a57600080fd5b505af1158015610f3e573d6000803e3d6000fd5b505050506040513d601f19601f82011682018060405250810190610f629190611603565b507f1d5e86a50f279561809a2b76e4ba7ec1bb5f9540b9dae52a3205a6215ae8d22d604051610f9090611a76565b60405180910390a150565b6000600254905090565b60006002811115610fb957610fb8611ded565b5b600860149054906101000a900460ff166002811115610fdb57610fda611ded565b5b141561106e57600560003373ffffffffffffffffffffffffffffffffffffffff1673ffffffffffffffffffffffffffffffffffffffff16815260200190815260200160002060009054906101000a900460ff1661106d576040517f08c379a000000000000000000000000000000000000000000000000000000000815260040161106490611b76565b60405180910390fd5b5b60028081111561108157611080611ded565b5b600860149054906101000a900460ff1660028111156110a3576110a2611ded565b5b146111385760035434600660003373ffffffffffffffffffffffffffffffffffffffff1673ffffffffffffffffffffffffffffffffffffffff168152602001908152602001600020546110f69190611bfb565b1115611137576040517f08c379a000000000000000000000000000000000000000000000000000000000815260040161112e90611a36565b60405180910390fd5b5b6002546111436105a6565b1115611184576040517f08c379a000000000000000000000000000000000000000000000000000000000815260040161117b90611b56565b60405180910390fd5b34600660003373ffffffffffffffffffffffffffffffffffffffff1673ffffffffffffffffffffffffffffffffffffffff16815260200190815260200160002060008282546111d39190611bfb565b9250508190555034600460008282546111ec9190611bfb565b9250508190555060028081111561120657611205611ded565b5b600860149054906101000a900460ff16600281111561122857611227611ded565b5b141561123757611236610d26565b5b7fc2d052242c53b9291b212437369ea86f8da5aa682c9fba0227677b12d0e115bd346040516112669190611b96565b60405180910390a1565b611278611372565b73ffffffffffffffffffffffffffffffffffffffff16611296610a64565b73ffffffffffffffffffffffffffffffffffffffff16146112ec576040517f08c379a00000000000000000000000000000000000000000000000000000000081526004016112e390611ad6565b60405180910390fd5b600073ffffffffffffffffffffffffffffffffffffffff168173ffffffffffffffffffffffffffffffffffffffff16141561135c576040517f08c379a0000000000000000000000000000000000000000000000000000000008152600401611353906119f6565b60405180910390fd5b6113658161141b565b50565b6000600354905090565b600033905090565b611382610940565b6113c1576040517f08c379a00000000000000000000000000000000000000000000000000000000081526004016113b8906119a8565b60405180910390fd5b60008060146101000a81548160ff0219169083151502179055507f5db9ee0a495bf2e6ff9c91a7834c1ba4fdd244a5e8aa4e537bd38aeae4b073aa611404611372565b604051611411919061192e565b60405180910390a1565b60008060009054906101000a900473ffffffffffffffffffffffffffffffffffffffff169050816000806101000a81548173ffffffffffffffffffffffffffffffffffffffff021916908373ffffffffffffffffffffffffffffffffffffffff1602179055508173ffffffffffffffffffffffffffffffffffffffff168173ffffffffffffffffffffffffffffffffffffffff167f8be0079c531659141344cd1fd0a4f28419497f9722a3daafe3b4186f6b6457e060405160405180910390a35050565b6114e7610940565b15611527576040517f08c379a000000000000000000000000000000000000000000000000000000000815260040161151e90611a96565b60405180910390fd5b6001600060146101000a81548160ff0219169083151502179055507f62e78cea01bee320cd4e420270b5ea74000d11b0c9f74754ebdbfc544b05a25861156b611372565b604051611578919061192e565b60405180910390a1565b60008135905061159181612186565b92915050565b6000815190506115a68161219d565b92915050565b6000813590506115bb816121b4565b92915050565b6000815190506115d0816121cb565b92915050565b6000602082840312156115ec576115eb611e1c565b5b60006115fa84828501611582565b91505092915050565b60006020828403121561161957611618611e1c565b5b600061162784828501611597565b91505092915050565b60006020828403121561164657611645611e1c565b5b6000611654848285016115ac565b91505092915050565b60006020828403121561167357611672611e1c565b5b6000611681848285016115c1565b91505092915050565b61169381611d10565b82525050565b6116a281611d22565b82525050565b6116b181611d7d565b82525050565b60006116c4601483611bea565b91506116cf82611e21565b602082019050919050565b60006116e7601383611bea565b91506116f282611e4a565b602082019050919050565b600061170a602683611bea565b915061171582611e73565b604082019050919050565b600061172d600c83611bea565b915061173882611ec2565b602082019050919050565b6000611750602383611bea565b915061175b82611eeb565b604082019050919050565b6000611773602483611bea565b915061177e82611f3a565b604082019050919050565b6000611796601a83611bea565b91506117a182611f89565b602082019050919050565b60006117b9601083611bea565b91506117c482611fb2565b602082019050919050565b60006117dc600f83611bea565b91506117e782611fdb565b602082019050919050565b60006117ff602083611bea565b915061180a82612004565b602082019050919050565b6000611822603983611bea565b915061182d8261202d565b604082019050919050565b6000611845602583611bea565b91506118508261207c565b604082019050919050565b6000611868601383611bea565b9150611873826120cb565b602082019050919050565b600061188b601783611bea565b9150611896826120f4565b602082019050919050565b60006118ae600083611bdf565b91506118b98261211d565b600082019050919050565b60006118d1601f83611bea565b91506118dc82612120565b602082019050919050565b60006118f4601583611bea565b91506118ff82612149565b602082019050919050565b61191381611d73565b82525050565b6000611924826118a1565b9150819050919050565b6000602082019050611943600083018461168a565b92915050565b600060408201905061195e600083018561168a565b61196b602083018461190a565b9392505050565b60006020820190506119876000830184611699565b92915050565b60006020820190506119a260008301846116a8565b92915050565b600060208201905081810360008301526119c1816116b7565b9050919050565b600060408201905081810360008301526119e1816116da565b90506119f0602083018461168a565b92915050565b60006020820190508181036000830152611a0f816116fd565b9050919050565b60006020820190508181036000830152611a2f81611720565b9050919050565b60006020820190508181036000830152611a4f81611743565b9050919050565b60006020820190508181036000830152611a6f81611766565b9050919050565b60006020820190508181036000830152611a8f81611789565b9050919050565b60006020820190508181036000830152611aaf816117ac565b9050919050565b60006020820190508181036000830152611acf816117cf565b9050919050565b60006020820190508181036000830152611aef816117f2565b9050919050565b60006020820190508181036000830152611b0f81611815565b9050919050565b60006020820190508181036000830152611b2f81611838565b9050919050565b60006020820190508181036000830152611b4f8161185b565b9050919050565b60006020820190508181036000830152611b6f8161187e565b9050919050565b60006020820190508181036000830152611b8f816118c4565b9050919050565b60006040820190508181036000830152611baf816118e7565b9050611bbe602083018461190a565b92915050565b6000602082019050611bd9600083018461190a565b92915050565b600081905092915050565b600082825260208201905092915050565b6000611c0682611d73565b9150611c1183611d73565b9250827fffffffffffffffffffffffffffffffffffffffffffffffffffffffffffffffff03821115611c4657611c45611d8f565b5b828201905092915050565b6000611c5c82611d73565b9150611c6783611d73565b925082611c7757611c76611dbe565b5b828204905092915050565b6000611c8d82611d73565b9150611c9883611d73565b9250817fffffffffffffffffffffffffffffffffffffffffffffffffffffffffffffffff0483118215151615611cd157611cd0611d8f565b5b828202905092915050565b6000611ce782611d73565b9150611cf283611d73565b925082821015611d0557611d04611d8f565b5b828203905092915050565b6000611d1b82611d53565b9050919050565b60008115159050919050565b6000611d3982611d10565b9050919050565b6000819050611d4e82612172565b919050565b600073ffffffffffffffffffffffffffffffffffffffff82169050919050565b6000819050919050565b6000611d8882611d40565b9050919050565b7f4e487b7100000000000000000000000000000000000000000000000000000000600052601160045260246000fd5b7f4e487b7100000000000000000000000000000000000000000000000000000000600052601260045260246000fd5b7f4e487b7100000000000000000000000000000000000000000000000000000000600052602160045260246000fd5b600080fd5b7f5061757361626c653a206e6f7420706175736564000000000000000000000000600082015250565b7f416464726573732057686974656c697374656400000000000000000000000000600082015250565b7f4f776e61626c653a206e6577206f776e657220697320746865207a65726f206160008201527f6464726573730000000000000000000000000000000000000000000000000000602082015250565b7f554e415554484f52495a45440000000000000000000000000000000000000000600082015250565b7f4572726f723a204d6f7265207468616e20636f6e747269627574696f6e206c6960008201527f6d69740000000000000000000000000000000000000000000000000000000000602082015250565b7f4572726f723a204f6e6c7920466f727761726420506861736520697320616c6c60008201527f6f77656400000000000000000000000000000000000000000000000000000000602082015250565b7f546f6b656e20686173206265656e207472616e73666572726564000000000000600082015250565b7f5061757361626c653a2070617573656400000000000000000000000000000000600082015250565b7f57495448445241575f4641494c45440000000000000000000000000000000000600082015250565b7f4f776e61626c653a2063616c6c6572206973206e6f7420746865206f776e6572600082015250565b7f4572726f723a20496e76616c69642061646472657373206f722068617665206e60008201527f6f7420636f6e747269627574656420616e7920616d6f756e7400000000000000602082015250565b7f4572726f723a2043616e6e6f742072656465656d20696e2063757272656e742060008201527f5068617365000000000000000000000000000000000000000000000000000000602082015250565b7f416c72656164792057686974656c697374656400000000000000000000000000600082015250565b7f4572726f723a205068617365206c696d6974206f766572000000000000000000600082015250565b50565b7f4572726f723a2041646472657373206e6f7420696e2077686974656c69737400600082015250565b7f436f6e747269627574696f6e2052656365697665640000000000000000000000600082015250565b6003811061218357612182611ded565b5b50565b61218f81611d10565b811461219a57600080fd5b50565b6121a681611d22565b81146121b157600080fd5b50565b6121bd81611d2e565b81146121c857600080fd5b50565b6121d481611d73565b81146121df57600080fd5b5056fea26469706673582212204aefc4703299e748bbb4a80e8d7c52f4af79382f823aee39e175cdccbcdfcad664736f6c63430008070033",
  "linkReferences": {},
  "deployedLinkReferences": {}
}