{
  "_format": "hh-sol-artifact-1",
  "contractName": "SpaceCoinICO",
  "sourceName": "contracts/SpaceCoinICO.sol",
  "abi": [
    {
      "anonymous": false,
      "inputs": [
        {
          "indexed": false,
          "internalType": "string",
          "name": "message",
          "type": "string"
        },
        {
          "indexed": false,
          "internalType": "address",
          "name": "sender",
          "type": "address"
        }
      ],
      "name": "AddedToWhiteList",
      "type": "event"
    },
    {
      "anonymous": false,
      "inputs": [
        {
          "indexed": false,
          "internalType": "string",
          "name": "message",
          "type": "string"
        },
        {
          "indexed": false,
          "internalType": "uint256",
          "name": "amount",
          "type": "uint256"
        }
      ],
      "name": "ContributionSuccess",
      "type": "event"
    },
    {
      "anonymous": false,
      "inputs": [
        {
          "indexed": true,
          "internalType": "address",
          "name": "previousOwner",
          "type": "address"
        },
        {
          "indexed": true,
          "internalType": "address",
          "name": "newOwner",
          "type": "address"
        }
      ],
      "name": "OwnershipTransferred",
      "type": "event"
    },
    {
      "anonymous": false,
      "inputs": [
        {
          "indexed": false,
          "internalType": "address",
          "name": "account",
          "type": "address"
        }
      ],
      "name": "Paused",
      "type": "event"
    },
    {
      "anonymous": false,
      "inputs": [
        {
          "indexed": false,
          "internalType": "string",
          "name": "message",
          "type": "string"
        }
      ],
      "name": "TokenTransfered",
      "type": "event"
    },
    {
      "anonymous": false,
      "inputs": [
        {
          "indexed": false,
          "internalType": "address",
          "name": "account",
          "type": "address"
        }
      ],
      "name": "Unpaused",
      "type": "event"
    },
    {
      "inputs": [
        {
          "internalType": "address",
          "name": "_address",
          "type": "address"
        }
      ],
      "name": "addWhitelisted",
      "outputs": [],
      "stateMutability": "nonpayable",
      "type": "function"
    },
    {
      "inputs": [],
      "name": "contribute",
      "outputs": [],
      "stateMutability": "payable",
      "type": "function"
    },
    {
      "inputs": [],
      "name": "currentPhase",
      "outputs": [
        {
          "internalType": "enum Phase",
          "name": "",
          "type": "uint8"
        }
      ],
      "stateMutability": "view",
      "type": "function"
    },
    {
      "inputs": [],
      "name": "getBalance",
      "outputs": [
        {
          "internalType": "uint256",
          "name": "",
          "type": "uint256"
        }
      ],
      "stateMutability": "view",
      "type": "function"
    },
    {
      "inputs": [],
      "name": "getContributionLimit",
      "outputs": [
        {
          "internalType": "uint256",
          "name": "",
          "type": "uint256"
        }
      ],
      "stateMutability": "view",
      "type": "function"
    },
    {
      "inputs": [],
      "name": "getPhaseLimit",
      "outputs": [
        {
          "internalType": "uint256",
          "name": "",
          "type": "uint256"
        }
      ],
      "stateMutability": "view",
      "type": "function"
    },
    {
      "inputs": [],
      "name": "owner",
      "outputs": [
        {
          "internalType": "address",
          "name": "",
          "type": "address"
        }
      ],
      "stateMutability": "view",
      "type": "function"
    },
    {
      "inputs": [],
      "name": "pause",
      "outputs": [],
      "stateMutability": "nonpayable",
      "type": "function"
    },
    {
      "inputs": [],
      "name": "paused",
      "outputs": [
        {
          "internalType": "bool",
          "name": "",
          "type": "bool"
        }
      ],
      "stateMutability": "view",
      "type": "function"
    },
    {
      "inputs": [],
      "name": "phaseRemaingCapacity",
      "outputs": [
        {
          "internalType": "uint256",
          "name": "",
          "type": "uint256"
        }
      ],
      "stateMutability": "view",
      "type": "function"
    },
    {
      "inputs": [],
      "name": "redeem",
      "outputs": [],
      "stateMutability": "nonpayable",
      "type": "function"
    },
    {
      "inputs": [],
      "name": "renounceOwnership",
      "outputs": [],
      "stateMutability": "nonpayable",
      "type": "function"
    },
    {
      "inputs": [],
      "name": "setGeneralPhase",
      "outputs": [],
      "stateMutability": "nonpayable",
      "type": "function"
    },
    {
      "inputs": [],
      "name": "setOpenPhase",
      "outputs": [],
      "stateMutability": "nonpayable",
      "type": "function"
    },
    {
      "inputs": [
        {
          "internalType": "contract SpaceCoin",
          "name": "_spaceCoin",
          "type": "address"
        }
      ],
      "name": "setSpaceCoinAddress",
      "outputs": [],
      "stateMutability": "nonpayable",
      "type": "function"
    },
    {
      "inputs": [
        {
          "internalType": "address",
          "name": "newOwner",
          "type": "address"
        }
      ],
      "name": "transferOwnership",
      "outputs": [],
      "stateMutability": "nonpayable",
      "type": "function"
    },
    {
      "inputs": [],
      "name": "unpause",
      "outputs": [],
      "stateMutability": "nonpayable",
      "type": "function"
    }
  ],
  "bytecode": "0x6080604052600560015569032d26d12e980b600000600255685150ae84a8cdf0000060035534801561003057600080fd5b5061004d61004261006c60201b60201c565b61007460201b60201c565b60008060146101000a81548160ff021916908315150217905550610138565b600033905090565b60008060009054906101000a900473ffffffffffffffffffffffffffffffffffffffff169050816000806101000a81548173ffffffffffffffffffffffffffffffffffffffff021916908373ffffffffffffffffffffffffffffffffffffffff1602179055508173ffffffffffffffffffffffffffffffffffffffff168173ffffffffffffffffffffffffffffffffffffffff167f8be0079c531659141344cd1fd0a4f28419497f9722a3daafe3b4186f6b6457e060405160405180910390a35050565b611f77806101476000396000f3fe6080604052600436106100fe5760003560e01c80638456cb5911610095578063be040fb011610064578063be040fb01461029f578063cdcb6840146102b6578063d7bb99ba146102e1578063f2fde38b146102eb578063fa1e19e514610314576100fe565b80638456cb591461021b5780638da5cb5b146102325780639bae6dbf1461025d578063af6b39c514610274576100fe565b80633f4ba83a116100d15780633f4ba83a146101995780635325d806146101b05780635c975abb146101d9578063715018a614610204576100fe565b8063055ad42e1461010357806310154bad1461012e57806312065fe01461015757806338f7826f14610182575b600080fd5b34801561010f57600080fd5b5061011861033f565b604051610125919061178c565b60405180910390f35b34801561013a57600080fd5b5061015560048036038101906101509190611453565b610356565b005b34801561016357600080fd5b5061016c610584565b6040516101799190611983565b60405180910390f35b34801561018e57600080fd5b5061019761058c565b005b3480156101a557600080fd5b506101ae6106f3565b005b3480156101bc57600080fd5b506101d760048036038101906101d291906114ad565b610779565b005b3480156101e557600080fd5b506101ee6107bd565b6040516101fb9190611771565b60405180910390f35b34801561021057600080fd5b506102196107d3565b005b34801561022757600080fd5b5061023061085b565b005b34801561023e57600080fd5b506102476108e1565b604051610254919061172d565b60405180910390f35b34801561026957600080fd5b5061027261090a565b005b34801561028057600080fd5b50610289610a92565b6040516102969190611983565b60405180910390f35b3480156102ab57600080fd5b506102b4610ba3565b005b3480156102c257600080fd5b506102cb610e18565b6040516102d89190611983565b60405180910390f35b6102e9610e22565b005b3480156102f757600080fd5b50610312600480360381019061030d9190611453565b6110ed565b005b34801561032057600080fd5b506103296111e5565b6040516103369190611983565b60405180910390f35b6000600460149054906101000a900460ff16905090565b61035e6111ef565b73ffffffffffffffffffffffffffffffffffffffff1661037c6108e1565b73ffffffffffffffffffffffffffffffffffffffff16146103d2576040517f08c379a00000000000000000000000000000000000000000000000000000000081526004016103c990611895565b60405180910390fd5b6103da6107bd565b1561041a576040517f08c379a000000000000000000000000000000000000000000000000000000000815260040161041190611875565b60405180910390fd5b60001515600660008373ffffffffffffffffffffffffffffffffffffffff1673ffffffffffffffffffffffffffffffffffffffff16815260200190815260200160002060009054906101000a900460ff161515146104ad576040517f08c379a00000000000000000000000000000000000000000000000000000000081526004016104a4906118f5565b60405180910390fd5b6001600660008373ffffffffffffffffffffffffffffffffffffffff1673ffffffffffffffffffffffffffffffffffffffff16815260200190815260200160002060006101000a81548160ff0219169083151502179055506000600760008373ffffffffffffffffffffffffffffffffffffffff1673ffffffffffffffffffffffffffffffffffffffff168152602001908152602001600020819055507f951ed8e9cceab02d6836f83965f7a63e26ebc4eb93b8034a0c9c2a0f51a38fb93360405161057991906117c7565b60405180910390a150565b600047905090565b6105946111ef565b73ffffffffffffffffffffffffffffffffffffffff166105b26108e1565b73ffffffffffffffffffffffffffffffffffffffff1614610608576040517f08c379a00000000000000000000000000000000000000000000000000000000081526004016105ff90611895565b60405180910390fd5b6106106107bd565b15610650576040517f08c379a000000000000000000000000000000000000000000000000000000000815260040161064790611875565b60405180910390fd5b6001600281111561066457610663611ba1565b5b600460149054906101000a900460ff16600281111561068657610685611ba1565b5b146106c6576040517f08c379a00000000000000000000000000000000000000000000000000000000081526004016106bd90611835565b60405180910390fd5b6002600460146101000a81548160ff021916908360028111156106ec576106eb611ba1565b5b0217905550565b6106fb6111ef565b73ffffffffffffffffffffffffffffffffffffffff166107196108e1565b73ffffffffffffffffffffffffffffffffffffffff161461076f576040517f08c379a000000000000000000000000000000000000000000000000000000000815260040161076690611895565b60405180910390fd5b6107776111f7565b565b80600460006101000a81548173ffffffffffffffffffffffffffffffffffffffff021916908373ffffffffffffffffffffffffffffffffffffffff16021790555050565b60008060149054906101000a900460ff16905090565b6107db6111ef565b73ffffffffffffffffffffffffffffffffffffffff166107f96108e1565b73ffffffffffffffffffffffffffffffffffffffff161461084f576040517f08c379a000000000000000000000000000000000000000000000000000000000815260040161084690611895565b60405180910390fd5b6108596000611298565b565b6108636111ef565b73ffffffffffffffffffffffffffffffffffffffff166108816108e1565b73ffffffffffffffffffffffffffffffffffffffff16146108d7576040517f08c379a00000000000000000000000000000000000000000000000000000000081526004016108ce90611895565b60405180910390fd5b6108df61135c565b565b60008060009054906101000a900473ffffffffffffffffffffffffffffffffffffffff16905090565b6109126111ef565b73ffffffffffffffffffffffffffffffffffffffff166109306108e1565b73ffffffffffffffffffffffffffffffffffffffff1614610986576040517f08c379a000000000000000000000000000000000000000000000000000000000815260040161097d90611895565b60405180910390fd5b61098e6107bd565b156109ce576040517f08c379a00000000000000000000000000000000000000000000000000000000081526004016109c590611875565b60405180910390fd5b600060028111156109e2576109e1611ba1565b5b600460149054906101000a900460ff166002811115610a0457610a03611ba1565b5b14610a44576040517f08c379a0000000000000000000000000000000000000000000000000000000008152600401610a3b90611835565b60405180910390fd5b6001600460146101000a81548160ff02191690836002811115610a6a57610a69611ba1565b5b021790555069065a4da25d3016c00000600281905550683635c9adc5dea00000600381905550565b6000600280811115610aa757610aa6611ba1565b5b600460149054906101000a900460ff166002811115610ac957610ac8611ba1565b5b14610ae557600554600254610ade9190611a90565b9050610ba0565b600154600460009054906101000a900473ffffffffffffffffffffffffffffffffffffffff1673ffffffffffffffffffffffffffffffffffffffff166370a08231306040518263ffffffff1660e01b8152600401610b43919061172d565b60206040518083038186803b158015610b5b57600080fd5b505afa158015610b6f573d6000803e3d6000fd5b505050506040513d601f19601f82011682018060405250810190610b9391906114da565b610b9d9190611a05565b90505b90565b600280811115610bb657610bb5611ba1565b5b600460149054906101000a900460ff166002811115610bd857610bd7611ba1565b5b14610c18576040517f08c379a0000000000000000000000000000000000000000000000000000000008152600401610c0f906118d5565b60405180910390fd5b6000600760003373ffffffffffffffffffffffffffffffffffffffff1673ffffffffffffffffffffffffffffffffffffffff1681526020019081526020016000205411610c9a576040517f08c379a0000000000000000000000000000000000000000000000000000000008152600401610c91906118b5565b60405180910390fd5b6000600154600760003373ffffffffffffffffffffffffffffffffffffffff1673ffffffffffffffffffffffffffffffffffffffff16815260200190815260200160002054610ce99190611a36565b90506000600760003373ffffffffffffffffffffffffffffffffffffffff1673ffffffffffffffffffffffffffffffffffffffff16815260200190815260200160002081905550600460009054906101000a900473ffffffffffffffffffffffffffffffffffffffff1673ffffffffffffffffffffffffffffffffffffffff1663a9059cbb33836040518363ffffffff1660e01b8152600401610d8d929190611748565b602060405180830381600087803b158015610da757600080fd5b505af1158015610dbb573d6000803e3d6000fd5b505050506040513d601f19601f82011682018060405250810190610ddf9190611480565b507f1d5e86a50f279561809a2b76e4ba7ec1bb5f9540b9dae52a3205a6215ae8d22d604051610e0d90611855565b60405180910390a150565b6000600254905090565b60006002811115610e3657610e35611ba1565b5b600460149054906101000a900460ff166002811115610e5857610e57611ba1565b5b1415610eeb57600660003373ffffffffffffffffffffffffffffffffffffffff1673ffffffffffffffffffffffffffffffffffffffff16815260200190815260200160002060009054906101000a900460ff16610eea576040517f08c379a0000000000000000000000000000000000000000000000000000000008152600401610ee190611935565b60405180910390fd5b5b600280811115610efe57610efd611ba1565b5b600460149054906101000a900460ff166002811115610f2057610f1f611ba1565b5b14610fb55760035434600760003373ffffffffffffffffffffffffffffffffffffffff1673ffffffffffffffffffffffffffffffffffffffff16815260200190815260200160002054610f7391906119af565b1115610fb4576040517f08c379a0000000000000000000000000000000000000000000000000000000008152600401610fab90611815565b60405180910390fd5b5b600254610fc0610584565b1115611001576040517f08c379a0000000000000000000000000000000000000000000000000000000008152600401610ff890611915565b60405180910390fd5b34600760003373ffffffffffffffffffffffffffffffffffffffff1673ffffffffffffffffffffffffffffffffffffffff168152602001908152602001600020600082825461105091906119af565b92505081905550346005600082825461106991906119af565b9250508190555060028081111561108357611082611ba1565b5b600460149054906101000a900460ff1660028111156110a5576110a4611ba1565b5b14156110b4576110b3610ba3565b5b7fc2d052242c53b9291b212437369ea86f8da5aa682c9fba0227677b12d0e115bd346040516110e39190611955565b60405180910390a1565b6110f56111ef565b73ffffffffffffffffffffffffffffffffffffffff166111136108e1565b73ffffffffffffffffffffffffffffffffffffffff1614611169576040517f08c379a000000000000000000000000000000000000000000000000000000000815260040161116090611895565b60405180910390fd5b600073ffffffffffffffffffffffffffffffffffffffff168173ffffffffffffffffffffffffffffffffffffffff1614156111d9576040517f08c379a00000000000000000000000000000000000000000000000000000000081526004016111d0906117f5565b60405180910390fd5b6111e281611298565b50565b6000600354905090565b600033905090565b6111ff6107bd565b61123e576040517f08c379a0000000000000000000000000000000000000000000000000000000008152600401611235906117a7565b60405180910390fd5b60008060146101000a81548160ff0219169083151502179055507f5db9ee0a495bf2e6ff9c91a7834c1ba4fdd244a5e8aa4e537bd38aeae4b073aa6112816111ef565b60405161128e919061172d565b60405180910390a1565b60008060009054906101000a900473ffffffffffffffffffffffffffffffffffffffff169050816000806101000a81548173ffffffffffffffffffffffffffffffffffffffff021916908373ffffffffffffffffffffffffffffffffffffffff1602179055508173ffffffffffffffffffffffffffffffffffffffff168173ffffffffffffffffffffffffffffffffffffffff167f8be0079c531659141344cd1fd0a4f28419497f9722a3daafe3b4186f6b6457e060405160405180910390a35050565b6113646107bd565b156113a4576040517f08c379a000000000000000000000000000000000000000000000000000000000815260040161139b90611875565b60405180910390fd5b6001600060146101000a81548160ff0219169083151502179055507f62e78cea01bee320cd4e420270b5ea74000d11b0c9f74754ebdbfc544b05a2586113e86111ef565b6040516113f5919061172d565b60405180910390a1565b60008135905061140e81611ee5565b92915050565b60008151905061142381611efc565b92915050565b60008135905061143881611f13565b92915050565b60008151905061144d81611f2a565b92915050565b60006020828403121561146957611468611bd0565b5b6000611477848285016113ff565b91505092915050565b60006020828403121561149657611495611bd0565b5b60006114a484828501611414565b91505092915050565b6000602082840312156114c3576114c2611bd0565b5b60006114d184828501611429565b91505092915050565b6000602082840312156114f0576114ef611bd0565b5b60006114fe8482850161143e565b91505092915050565b61151081611ac4565b82525050565b61151f81611ad6565b82525050565b61152e81611b31565b82525050565b600061154160148361199e565b915061154c82611bd5565b602082019050919050565b600061156460138361199e565b915061156f82611bfe565b602082019050919050565b600061158760268361199e565b915061159282611c27565b604082019050919050565b60006115aa60238361199e565b91506115b582611c76565b604082019050919050565b60006115cd60248361199e565b91506115d882611cc5565b604082019050919050565b60006115f0601a8361199e565b91506115fb82611d14565b602082019050919050565b600061161360108361199e565b915061161e82611d3d565b602082019050919050565b600061163660208361199e565b915061164182611d66565b602082019050919050565b600061165960398361199e565b915061166482611d8f565b604082019050919050565b600061167c60258361199e565b915061168782611dde565b604082019050919050565b600061169f60138361199e565b91506116aa82611e2d565b602082019050919050565b60006116c260178361199e565b91506116cd82611e56565b602082019050919050565b60006116e5601f8361199e565b91506116f082611e7f565b602082019050919050565b600061170860158361199e565b915061171382611ea8565b602082019050919050565b61172781611b27565b82525050565b60006020820190506117426000830184611507565b92915050565b600060408201905061175d6000830185611507565b61176a602083018461171e565b9392505050565b60006020820190506117866000830184611516565b92915050565b60006020820190506117a16000830184611525565b92915050565b600060208201905081810360008301526117c081611534565b9050919050565b600060408201905081810360008301526117e081611557565b90506117ef6020830184611507565b92915050565b6000602082019050818103600083015261180e8161157a565b9050919050565b6000602082019050818103600083015261182e8161159d565b9050919050565b6000602082019050818103600083015261184e816115c0565b9050919050565b6000602082019050818103600083015261186e816115e3565b9050919050565b6000602082019050818103600083015261188e81611606565b9050919050565b600060208201905081810360008301526118ae81611629565b9050919050565b600060208201905081810360008301526118ce8161164c565b9050919050565b600060208201905081810360008301526118ee8161166f565b9050919050565b6000602082019050818103600083015261190e81611692565b9050919050565b6000602082019050818103600083015261192e816116b5565b9050919050565b6000602082019050818103600083015261194e816116d8565b9050919050565b6000604082019050818103600083015261196e816116fb565b905061197d602083018461171e565b92915050565b6000602082019050611998600083018461171e565b92915050565b600082825260208201905092915050565b60006119ba82611b27565b91506119c583611b27565b9250827fffffffffffffffffffffffffffffffffffffffffffffffffffffffffffffffff038211156119fa576119f9611b43565b5b828201905092915050565b6000611a1082611b27565b9150611a1b83611b27565b925082611a2b57611a2a611b72565b5b828204905092915050565b6000611a4182611b27565b9150611a4c83611b27565b9250817fffffffffffffffffffffffffffffffffffffffffffffffffffffffffffffffff0483118215151615611a8557611a84611b43565b5b828202905092915050565b6000611a9b82611b27565b9150611aa683611b27565b925082821015611ab957611ab8611b43565b5b828203905092915050565b6000611acf82611b07565b9050919050565b60008115159050919050565b6000611aed82611ac4565b9050919050565b6000819050611b0282611ed1565b919050565b600073ffffffffffffffffffffffffffffffffffffffff82169050919050565b6000819050919050565b6000611b3c82611af4565b9050919050565b7f4e487b7100000000000000000000000000000000000000000000000000000000600052601160045260246000fd5b7f4e487b7100000000000000000000000000000000000000000000000000000000600052601260045260246000fd5b7f4e487b7100000000000000000000000000000000000000000000000000000000600052602160045260246000fd5b600080fd5b7f5061757361626c653a206e6f7420706175736564000000000000000000000000600082015250565b7f416464726573732057686974656c697374656400000000000000000000000000600082015250565b7f4f776e61626c653a206e6577206f776e657220697320746865207a65726f206160008201527f6464726573730000000000000000000000000000000000000000000000000000602082015250565b7f4572726f723a204d6f7265207468616e20636f6e747269627574696f6e206c6960008201527f6d69740000000000000000000000000000000000000000000000000000000000602082015250565b7f4572726f723a204f6e6c7920466f727761726420506861736520697320616c6c60008201527f6f77656400000000000000000000000000000000000000000000000000000000602082015250565b7f546f6b656e20686173206265656e207472616e73666572726564000000000000600082015250565b7f5061757361626c653a2070617573656400000000000000000000000000000000600082015250565b7f4f776e61626c653a2063616c6c6572206973206e6f7420746865206f776e6572600082015250565b7f4572726f723a20496e76616c69642061646472657373206f722068617665206e60008201527f6f7420636f6e747269627574656420616e7920616d6f756e7400000000000000602082015250565b7f4572726f723a2043616e6e6f742072656465656d20696e2063757272656e742060008201527f5068617365000000000000000000000000000000000000000000000000000000602082015250565b7f416c72656164792057686974656c697374656400000000000000000000000000600082015250565b7f4572726f723a205068617365206c696d6974206f766572000000000000000000600082015250565b7f4572726f723a2041646472657373206e6f7420696e2077686974656c69737400600082015250565b7f436f6e747269627574696f6e2052656365697665640000000000000000000000600082015250565b60038110611ee257611ee1611ba1565b5b50565b611eee81611ac4565b8114611ef957600080fd5b50565b611f0581611ad6565b8114611f1057600080fd5b50565b611f1c81611ae2565b8114611f2757600080fd5b50565b611f3381611b27565b8114611f3e57600080fd5b5056fea264697066735822122025cfba7f379363845e91b7dc38d7024f3ee8ca164828377bf3fcdfc0893b9a5564736f6c63430008070033",
  "linkReferences": {},
  "deployedLinkReferences": {}
}