{
  "_format": "hh-sol-artifact-1",
  "contractName": "SpaceCoin",
  "sourceName": "contracts/SpaceCoin.sol",
  "abi": [
    {
      "inputs": [
        {
          "internalType": "address",
          "name": "_ico",
          "type": "address"
        },
        {
          "internalType": "address",
          "name": "_treasury",
          "type": "address"
        }
      ],
      "stateMutability": "nonpayable",
      "type": "constructor"
    },
    {
      "anonymous": false,
      "inputs": [
        {
          "indexed": true,
          "internalType": "address",
          "name": "owner",
          "type": "address"
        },
        {
          "indexed": true,
          "internalType": "address",
          "name": "spender",
          "type": "address"
        },
        {
          "indexed": false,
          "internalType": "uint256",
          "name": "value",
          "type": "uint256"
        }
      ],
      "name": "Approval",
      "type": "event"
    },
    {
      "anonymous": false,
      "inputs": [
        {
          "indexed": true,
          "internalType": "address",
          "name": "previousOwner",
          "type": "address"
        },
        {
          "indexed": true,
          "internalType": "address",
          "name": "newOwner",
          "type": "address"
        }
      ],
      "name": "OwnershipTransferred",
      "type": "event"
    },
    {
      "anonymous": false,
      "inputs": [
        {
          "indexed": true,
          "internalType": "address",
          "name": "from",
          "type": "address"
        },
        {
          "indexed": true,
          "internalType": "address",
          "name": "to",
          "type": "address"
        },
        {
          "indexed": false,
          "internalType": "uint256",
          "name": "value",
          "type": "uint256"
        }
      ],
      "name": "Transfer",
      "type": "event"
    },
    {
      "inputs": [
        {
          "internalType": "address",
          "name": "owner",
          "type": "address"
        },
        {
          "internalType": "address",
          "name": "spender",
          "type": "address"
        }
      ],
      "name": "allowance",
      "outputs": [
        {
          "internalType": "uint256",
          "name": "",
          "type": "uint256"
        }
      ],
      "stateMutability": "view",
      "type": "function"
    },
    {
      "inputs": [
        {
          "internalType": "address",
          "name": "spender",
          "type": "address"
        },
        {
          "internalType": "uint256",
          "name": "amount",
          "type": "uint256"
        }
      ],
      "name": "approve",
      "outputs": [
        {
          "internalType": "bool",
          "name": "",
          "type": "bool"
        }
      ],
      "stateMutability": "nonpayable",
      "type": "function"
    },
    {
      "inputs": [
        {
          "internalType": "address",
          "name": "account",
          "type": "address"
        }
      ],
      "name": "balanceOf",
      "outputs": [
        {
          "internalType": "uint256",
          "name": "",
          "type": "uint256"
        }
      ],
      "stateMutability": "view",
      "type": "function"
    },
    {
      "inputs": [],
      "name": "decimals",
      "outputs": [
        {
          "internalType": "uint8",
          "name": "",
          "type": "uint8"
        }
      ],
      "stateMutability": "view",
      "type": "function"
    },
    {
      "inputs": [
        {
          "internalType": "address",
          "name": "spender",
          "type": "address"
        },
        {
          "internalType": "uint256",
          "name": "subtractedValue",
          "type": "uint256"
        }
      ],
      "name": "decreaseAllowance",
      "outputs": [
        {
          "internalType": "bool",
          "name": "",
          "type": "bool"
        }
      ],
      "stateMutability": "nonpayable",
      "type": "function"
    },
    {
      "inputs": [
        {
          "internalType": "address",
          "name": "spender",
          "type": "address"
        },
        {
          "internalType": "uint256",
          "name": "addedValue",
          "type": "uint256"
        }
      ],
      "name": "increaseAllowance",
      "outputs": [
        {
          "internalType": "bool",
          "name": "",
          "type": "bool"
        }
      ],
      "stateMutability": "nonpayable",
      "type": "function"
    },
    {
      "inputs": [
        {
          "internalType": "address",
          "name": "owner",
          "type": "address"
        },
        {
          "internalType": "address",
          "name": "spender",
          "type": "address"
        },
        {
          "internalType": "uint256",
          "name": "amount",
          "type": "uint256"
        }
      ],
      "name": "increaseContractAllowance",
      "outputs": [
        {
          "internalType": "bool",
          "name": "",
          "type": "bool"
        }
      ],
      "stateMutability": "nonpayable",
      "type": "function"
    },
    {
      "inputs": [
        {
          "internalType": "address",
          "name": "to",
          "type": "address"
        },
        {
          "internalType": "uint256",
          "name": "amount",
          "type": "uint256"
        }
      ],
      "name": "mint",
      "outputs": [],
      "stateMutability": "nonpayable",
      "type": "function"
    },
    {
      "inputs": [],
      "name": "name",
      "outputs": [
        {
          "internalType": "string",
          "name": "",
          "type": "string"
        }
      ],
      "stateMutability": "view",
      "type": "function"
    },
    {
      "inputs": [],
      "name": "owner",
      "outputs": [
        {
          "internalType": "address",
          "name": "",
          "type": "address"
        }
      ],
      "stateMutability": "view",
      "type": "function"
    },
    {
      "inputs": [],
      "name": "renounceOwnership",
      "outputs": [],
      "stateMutability": "nonpayable",
      "type": "function"
    },
    {
      "inputs": [],
      "name": "shouldTax",
      "outputs": [
        {
          "internalType": "bool",
          "name": "",
          "type": "bool"
        }
      ],
      "stateMutability": "view",
      "type": "function"
    },
    {
      "inputs": [],
      "name": "symbol",
      "outputs": [
        {
          "internalType": "string",
          "name": "",
          "type": "string"
        }
      ],
      "stateMutability": "view",
      "type": "function"
    },
    {
      "inputs": [
        {
          "internalType": "address",
          "name": "from",
          "type": "address"
        },
        {
          "internalType": "address",
          "name": "to",
          "type": "address"
        },
        {
          "internalType": "uint256",
          "name": "tokens",
          "type": "uint256"
        }
      ],
      "name": "tokenTrasfer",
      "outputs": [],
      "stateMutability": "nonpayable",
      "type": "function"
    },
    {
      "inputs": [],
      "name": "totalSupply",
      "outputs": [
        {
          "internalType": "uint256",
          "name": "",
          "type": "uint256"
        }
      ],
      "stateMutability": "view",
      "type": "function"
    },
    {
      "inputs": [
        {
          "internalType": "address",
          "name": "recipient",
          "type": "address"
        },
        {
          "internalType": "uint256",
          "name": "amount",
          "type": "uint256"
        }
      ],
      "name": "transfer",
      "outputs": [
        {
          "internalType": "bool",
          "name": "",
          "type": "bool"
        }
      ],
      "stateMutability": "nonpayable",
      "type": "function"
    },
    {
      "inputs": [
        {
          "internalType": "address",
          "name": "from",
          "type": "address"
        },
        {
          "internalType": "address",
          "name": "to",
          "type": "address"
        },
        {
          "internalType": "uint256",
          "name": "amount",
          "type": "uint256"
        }
      ],
      "name": "transferFrom",
      "outputs": [
        {
          "internalType": "bool",
          "name": "",
          "type": "bool"
        }
      ],
      "stateMutability": "nonpayable",
      "type": "function"
    },
    {
      "inputs": [
        {
          "internalType": "address",
          "name": "newOwner",
          "type": "address"
        }
      ],
      "name": "transferOwnership",
      "outputs": [],
      "stateMutability": "nonpayable",
      "type": "function"
    }
  ],
  "bytecode": "0x60806040526000600560146101000a81548160ff0219169083151502179055503480156200002c57600080fd5b506040516200224d3803806200224d833981810160405281019062000052919062000469565b6040518060400160405280600981526020017f5370616365436f696e00000000000000000000000000000000000000000000008152506040518060400160405280600381526020017f53504300000000000000000000000000000000000000000000000000000000008152508160039080519060200190620000d6929190620003a2565b508060049080519060200190620000ef929190620003a2565b50505062000112620001066200015160201b60201c565b6200015960201b60201c565b62000149826005617530670de0b6b3a764000062000131919062000595565b6200013d919062000595565b6200021f60201b60201c565b505062000710565b600033905090565b6000600560009054906101000a900473ffffffffffffffffffffffffffffffffffffffff16905081600560006101000a81548173ffffffffffffffffffffffffffffffffffffffff021916908373ffffffffffffffffffffffffffffffffffffffff1602179055508173ffffffffffffffffffffffffffffffffffffffff168173ffffffffffffffffffffffffffffffffffffffff167f8be0079c531659141344cd1fd0a4f28419497f9722a3daafe3b4186f6b6457e060405160405180910390a35050565b600073ffffffffffffffffffffffffffffffffffffffff168273ffffffffffffffffffffffffffffffffffffffff16141562000292576040517f08c379a00000000000000000000000000000000000000000000000000000000081526004016200028990620004e8565b60405180910390fd5b620002a6600083836200039860201b60201c565b8060026000828254620002ba919062000538565b92505081905550806000808473ffffffffffffffffffffffffffffffffffffffff1673ffffffffffffffffffffffffffffffffffffffff168152602001908152602001600020600082825462000311919062000538565b925050819055508173ffffffffffffffffffffffffffffffffffffffff16600073ffffffffffffffffffffffffffffffffffffffff167fddf252ad1be2c89b69c2b068fc378daa952ba7f163c4a11628f55a4df523b3ef836040516200037891906200050a565b60405180910390a362000394600083836200039d60201b60201c565b5050565b505050565b505050565b828054620003b09062000634565b90600052602060002090601f016020900481019282620003d4576000855562000420565b82601f10620003ef57805160ff191683800117855562000420565b8280016001018555821562000420579182015b828111156200041f57825182559160200191906001019062000402565b5b5090506200042f919062000433565b5090565b5b808211156200044e57600081600090555060010162000434565b5090565b6000815190506200046381620006f6565b92915050565b60008060408385031215620004835762000482620006c8565b5b6000620004938582860162000452565b9250506020620004a68582860162000452565b9150509250929050565b6000620004bf601f8362000527565b9150620004cc82620006cd565b602082019050919050565b620004e2816200062a565b82525050565b600060208201905081810360008301526200050381620004b0565b9050919050565b6000602082019050620005216000830184620004d7565b92915050565b600082825260208201905092915050565b600062000545826200062a565b915062000552836200062a565b9250827fffffffffffffffffffffffffffffffffffffffffffffffffffffffffffffffff038211156200058a57620005896200066a565b5b828201905092915050565b6000620005a2826200062a565b9150620005af836200062a565b9250817fffffffffffffffffffffffffffffffffffffffffffffffffffffffffffffffff0483118215151615620005eb57620005ea6200066a565b5b828202905092915050565b600062000603826200060a565b9050919050565b600073ffffffffffffffffffffffffffffffffffffffff82169050919050565b6000819050919050565b600060028204905060018216806200064d57607f821691505b6020821081141562000664576200066362000699565b5b50919050565b7f4e487b7100000000000000000000000000000000000000000000000000000000600052601160045260246000fd5b7f4e487b7100000000000000000000000000000000000000000000000000000000600052602260045260246000fd5b600080fd5b7f45524332303a206d696e7420746f20746865207a65726f206164647265737300600082015250565b6200070181620005f6565b81146200070d57600080fd5b50565b611b2d80620007206000396000f3fe608060405234801561001057600080fd5b50600436106101165760003560e01c8063715018a6116100a2578063a457c2d711610071578063a457c2d7146102d1578063a9059cbb14610301578063d83a2bf314610331578063dd62ed3e14610361578063f2fde38b1461039157610116565b8063715018a61461026f57806379cdc759146102795780638da5cb5b1461029557806395d89b41146102b357610116565b8063313ce567116100e9578063313ce567146101b757806339509351146101d557806340c10f19146102055780635392e2b61461022157806370a082311461023f57610116565b806306fdde031461011b578063095ea7b31461013957806318160ddd1461016957806323b872dd14610187575b600080fd5b6101236103ad565b60405161013091906113ff565b60405180910390f35b610153600480360381019061014e91906111b6565b61043f565b60405161016091906113e4565b60405180910390f35b61017161045d565b60405161017e9190611561565b60405180910390f35b6101a1600480360381019061019c9190611163565b610467565b6040516101ae91906113e4565b60405180910390f35b6101bf61047f565b6040516101cc919061157c565b60405180910390f35b6101ef60048036038101906101ea91906111b6565b610488565b6040516101fc91906113e4565b60405180910390f35b61021f600480360381019061021a91906111b6565b610534565b005b610229610555565b60405161023691906113e4565b60405180910390f35b610259600480360381019061025491906110f6565b610568565b6040516102669190611561565b60405180910390f35b6102776105b0565b005b610293600480360381019061028e9190611163565b610638565b005b61029d6106d8565b6040516102aa91906113c9565b60405180910390f35b6102bb610702565b6040516102c891906113ff565b60405180910390f35b6102eb60048036038101906102e691906111b6565b610794565b6040516102f891906113e4565b60405180910390f35b61031b600480360381019061031691906111b6565b61087f565b60405161032891906113e4565b60405180910390f35b61034b60048036038101906103469190611163565b61089d565b60405161035891906113e4565b60405180910390f35b61037b60048036038101906103769190611123565b6108c9565b6040516103889190611561565b60405180910390f35b6103ab60048036038101906103a691906110f6565b610950565b005b6060600380546103bc90611750565b80601f01602080910402602001604051908101604052809291908181526020018280546103e890611750565b80156104355780601f1061040a57610100808354040283529160200191610435565b820191906000526020600020905b81548152906001019060200180831161041857829003601f168201915b5050505050905090565b600061045361044c610a48565b8484610a50565b6001905092915050565b6000600254905090565b6000610474848484610c1b565b600190509392505050565b60006012905090565b600061052a610495610a48565b8484600160006104a3610a48565b73ffffffffffffffffffffffffffffffffffffffff1673ffffffffffffffffffffffffffffffffffffffff16815260200190815260200160002060008873ffffffffffffffffffffffffffffffffffffffff1673ffffffffffffffffffffffffffffffffffffffff1681526020019081526020016000205461052591906115b3565b610a50565b6001905092915050565b6105518282670de0b6b3a764000061054c919061163a565b610e9c565b5050565b600560149054906101000a900460ff1681565b60008060008373ffffffffffffffffffffffffffffffffffffffff1673ffffffffffffffffffffffffffffffffffffffff168152602001908152602001600020549050919050565b6105b8610a48565b73ffffffffffffffffffffffffffffffffffffffff166105d66106d8565b73ffffffffffffffffffffffffffffffffffffffff161461062c576040517f08c379a0000000000000000000000000000000000000000000000000000000008152600401610623906114c1565b60405180910390fd5b6106366000610ffc565b565b6000811161067b576040517f08c379a000000000000000000000000000000000000000000000000000000000815260040161067290611441565b60405180910390fd5b600560149054906101000a900460ff16156106c857600060646002836106a1919061163a565b6106ab9190611609565b905080826106b99190611694565b91506106c6848484610c1b565b505b6106d3838383610c1b565b505050565b6000600560009054906101000a900473ffffffffffffffffffffffffffffffffffffffff16905090565b60606004805461071190611750565b80601f016020809104026020016040519081016040528092919081815260200182805461073d90611750565b801561078a5780601f1061075f5761010080835404028352916020019161078a565b820191906000526020600020905b81548152906001019060200180831161076d57829003601f168201915b5050505050905090565b600080600160006107a3610a48565b73ffffffffffffffffffffffffffffffffffffffff1673ffffffffffffffffffffffffffffffffffffffff16815260200190815260200160002060008573ffffffffffffffffffffffffffffffffffffffff1673ffffffffffffffffffffffffffffffffffffffff16815260200190815260200160002054905082811015610860576040517f08c379a000000000000000000000000000000000000000000000000000000000815260040161085790611521565b60405180910390fd5b61087461086b610a48565b85858403610a50565b600191505092915050565b600061089361088c610a48565b8484610c1b565b6001905092915050565b60006108be8484846108af88886108c9565b6108b991906115b3565b610a50565b600190509392505050565b6000600160008473ffffffffffffffffffffffffffffffffffffffff1673ffffffffffffffffffffffffffffffffffffffff16815260200190815260200160002060008373ffffffffffffffffffffffffffffffffffffffff1673ffffffffffffffffffffffffffffffffffffffff16815260200190815260200160002054905092915050565b610958610a48565b73ffffffffffffffffffffffffffffffffffffffff166109766106d8565b73ffffffffffffffffffffffffffffffffffffffff16146109cc576040517f08c379a00000000000000000000000000000000000000000000000000000000081526004016109c3906114c1565b60405180910390fd5b600073ffffffffffffffffffffffffffffffffffffffff168173ffffffffffffffffffffffffffffffffffffffff161415610a3c576040517f08c379a0000000000000000000000000000000000000000000000000000000008152600401610a3390611461565b60405180910390fd5b610a4581610ffc565b50565b600033905090565b600073ffffffffffffffffffffffffffffffffffffffff168373ffffffffffffffffffffffffffffffffffffffff161415610ac0576040517f08c379a0000000000000000000000000000000000000000000000000000000008152600401610ab790611501565b60405180910390fd5b600073ffffffffffffffffffffffffffffffffffffffff168273ffffffffffffffffffffffffffffffffffffffff161415610b30576040517f08c379a0000000000000000000000000000000000000000000000000000000008152600401610b2790611481565b60405180910390fd5b80600160008573ffffffffffffffffffffffffffffffffffffffff1673ffffffffffffffffffffffffffffffffffffffff16815260200190815260200160002060008473ffffffffffffffffffffffffffffffffffffffff1673ffffffffffffffffffffffffffffffffffffffff168152602001908152602001600020819055508173ffffffffffffffffffffffffffffffffffffffff168373ffffffffffffffffffffffffffffffffffffffff167f8c5be1e5ebec7d5bd14f71427d1e84f3dd0314c0f7b2291e5b200ac8c7c3b92583604051610c0e9190611561565b60405180910390a3505050565b600073ffffffffffffffffffffffffffffffffffffffff168373ffffffffffffffffffffffffffffffffffffffff161415610c8b576040517f08c379a0000000000000000000000000000000000000000000000000000000008152600401610c82906114e1565b60405180910390fd5b600073ffffffffffffffffffffffffffffffffffffffff168273ffffffffffffffffffffffffffffffffffffffff161415610cfb576040517f08c379a0000000000000000000000000000000000000000000000000000000008152600401610cf290611421565b60405180910390fd5b610d068383836110c2565b60008060008573ffffffffffffffffffffffffffffffffffffffff1673ffffffffffffffffffffffffffffffffffffffff16815260200190815260200160002054905081811015610d8c576040517f08c379a0000000000000000000000000000000000000000000000000000000008152600401610d83906114a1565b60405180910390fd5b8181036000808673ffffffffffffffffffffffffffffffffffffffff1673ffffffffffffffffffffffffffffffffffffffff16815260200190815260200160002081905550816000808573ffffffffffffffffffffffffffffffffffffffff1673ffffffffffffffffffffffffffffffffffffffff1681526020019081526020016000206000828254610e1f91906115b3565b925050819055508273ffffffffffffffffffffffffffffffffffffffff168473ffffffffffffffffffffffffffffffffffffffff167fddf252ad1be2c89b69c2b068fc378daa952ba7f163c4a11628f55a4df523b3ef84604051610e839190611561565b60405180910390a3610e968484846110c7565b50505050565b600073ffffffffffffffffffffffffffffffffffffffff168273ffffffffffffffffffffffffffffffffffffffff161415610f0c576040517f08c379a0000000000000000000000000000000000000000000000000000000008152600401610f0390611541565b60405180910390fd5b610f18600083836110c2565b8060026000828254610f2a91906115b3565b92505081905550806000808473ffffffffffffffffffffffffffffffffffffffff1673ffffffffffffffffffffffffffffffffffffffff1681526020019081526020016000206000828254610f7f91906115b3565b925050819055508173ffffffffffffffffffffffffffffffffffffffff16600073ffffffffffffffffffffffffffffffffffffffff167fddf252ad1be2c89b69c2b068fc378daa952ba7f163c4a11628f55a4df523b3ef83604051610fe49190611561565b60405180910390a3610ff8600083836110c7565b5050565b6000600560009054906101000a900473ffffffffffffffffffffffffffffffffffffffff16905081600560006101000a81548173ffffffffffffffffffffffffffffffffffffffff021916908373ffffffffffffffffffffffffffffffffffffffff1602179055508173ffffffffffffffffffffffffffffffffffffffff168173ffffffffffffffffffffffffffffffffffffffff167f8be0079c531659141344cd1fd0a4f28419497f9722a3daafe3b4186f6b6457e060405160405180910390a35050565b505050565b505050565b6000813590506110db81611ac9565b92915050565b6000813590506110f081611ae0565b92915050565b60006020828403121561110c5761110b61180f565b5b600061111a848285016110cc565b91505092915050565b6000806040838503121561113a5761113961180f565b5b6000611148858286016110cc565b9250506020611159858286016110cc565b9150509250929050565b60008060006060848603121561117c5761117b61180f565b5b600061118a868287016110cc565b935050602061119b868287016110cc565b92505060406111ac868287016110e1565b9150509250925092565b600080604083850312156111cd576111cc61180f565b5b60006111db858286016110cc565b92505060206111ec858286016110e1565b9150509250929050565b6111ff816116c8565b82525050565b61120e816116da565b82525050565b600061121f82611597565b61122981856115a2565b935061123981856020860161171d565b61124281611814565b840191505092915050565b600061125a6023836115a2565b915061126582611825565b604082019050919050565b600061127d600e836115a2565b915061128882611874565b602082019050919050565b60006112a06026836115a2565b91506112ab8261189d565b604082019050919050565b60006112c36022836115a2565b91506112ce826118ec565b604082019050919050565b60006112e66026836115a2565b91506112f18261193b565b604082019050919050565b60006113096020836115a2565b91506113148261198a565b602082019050919050565b600061132c6025836115a2565b9150611337826119b3565b604082019050919050565b600061134f6024836115a2565b915061135a82611a02565b604082019050919050565b60006113726025836115a2565b915061137d82611a51565b604082019050919050565b6000611395601f836115a2565b91506113a082611aa0565b602082019050919050565b6113b481611706565b82525050565b6113c381611710565b82525050565b60006020820190506113de60008301846111f6565b92915050565b60006020820190506113f96000830184611205565b92915050565b600060208201905081810360008301526114198184611214565b905092915050565b6000602082019050818103600083015261143a8161124d565b9050919050565b6000602082019050818103600083015261145a81611270565b9050919050565b6000602082019050818103600083015261147a81611293565b9050919050565b6000602082019050818103600083015261149a816112b6565b9050919050565b600060208201905081810360008301526114ba816112d9565b9050919050565b600060208201905081810360008301526114da816112fc565b9050919050565b600060208201905081810360008301526114fa8161131f565b9050919050565b6000602082019050818103600083015261151a81611342565b9050919050565b6000602082019050818103600083015261153a81611365565b9050919050565b6000602082019050818103600083015261155a81611388565b9050919050565b600060208201905061157660008301846113ab565b92915050565b600060208201905061159160008301846113ba565b92915050565b600081519050919050565b600082825260208201905092915050565b60006115be82611706565b91506115c983611706565b9250827fffffffffffffffffffffffffffffffffffffffffffffffffffffffffffffffff038211156115fe576115fd611782565b5b828201905092915050565b600061161482611706565b915061161f83611706565b92508261162f5761162e6117b1565b5b828204905092915050565b600061164582611706565b915061165083611706565b9250817fffffffffffffffffffffffffffffffffffffffffffffffffffffffffffffffff048311821515161561168957611688611782565b5b828202905092915050565b600061169f82611706565b91506116aa83611706565b9250828210156116bd576116bc611782565b5b828203905092915050565b60006116d3826116e6565b9050919050565b60008115159050919050565b600073ffffffffffffffffffffffffffffffffffffffff82169050919050565b6000819050919050565b600060ff82169050919050565b60005b8381101561173b578082015181840152602081019050611720565b8381111561174a576000848401525b50505050565b6000600282049050600182168061176857607f821691505b6020821081141561177c5761177b6117e0565b5b50919050565b7f4e487b7100000000000000000000000000000000000000000000000000000000600052601160045260246000fd5b7f4e487b7100000000000000000000000000000000000000000000000000000000600052601260045260246000fd5b7f4e487b7100000000000000000000000000000000000000000000000000000000600052602260045260246000fd5b600080fd5b6000601f19601f8301169050919050565b7f45524332303a207472616e7366657220746f20746865207a65726f206164647260008201527f6573730000000000000000000000000000000000000000000000000000000000602082015250565b7f416d6f756e74206973205a65726f000000000000000000000000000000000000600082015250565b7f4f776e61626c653a206e6577206f776e657220697320746865207a65726f206160008201527f6464726573730000000000000000000000000000000000000000000000000000602082015250565b7f45524332303a20617070726f766520746f20746865207a65726f20616464726560008201527f7373000000000000000000000000000000000000000000000000000000000000602082015250565b7f45524332303a207472616e7366657220616d6f756e742065786365656473206260008201527f616c616e63650000000000000000000000000000000000000000000000000000602082015250565b7f4f776e61626c653a2063616c6c6572206973206e6f7420746865206f776e6572600082015250565b7f45524332303a207472616e736665722066726f6d20746865207a65726f20616460008201527f6472657373000000000000000000000000000000000000000000000000000000602082015250565b7f45524332303a20617070726f76652066726f6d20746865207a65726f2061646460008201527f7265737300000000000000000000000000000000000000000000000000000000602082015250565b7f45524332303a2064656372656173656420616c6c6f77616e63652062656c6f7760008201527f207a65726f000000000000000000000000000000000000000000000000000000602082015250565b7f45524332303a206d696e7420746f20746865207a65726f206164647265737300600082015250565b611ad2816116c8565b8114611add57600080fd5b50565b611ae981611706565b8114611af457600080fd5b5056fea26469706673582212206bc1f507adc19ece5cb337f490be5cfd6df1e532d4afbab7c0ba45a12173c80964736f6c63430008070033",
  "linkReferences": {},
  "deployedLinkReferences": {}
}