{
  "_format": "hh-sol-artifact-1",
  "contractName": "SpaceCoin",
  "sourceName": "contracts/SpaceCoin.sol",
  "abi": [
    {
      "inputs": [
        {
          "internalType": "address",
          "name": "_ico",
          "type": "address"
        },
        {
          "internalType": "address",
          "name": "_treasury",
          "type": "address"
        }
      ],
      "stateMutability": "nonpayable",
      "type": "constructor"
    },
    {
      "anonymous": false,
      "inputs": [
        {
          "indexed": true,
          "internalType": "address",
          "name": "owner",
          "type": "address"
        },
        {
          "indexed": true,
          "internalType": "address",
          "name": "spender",
          "type": "address"
        },
        {
          "indexed": false,
          "internalType": "uint256",
          "name": "value",
          "type": "uint256"
        }
      ],
      "name": "Approval",
      "type": "event"
    },
    {
      "anonymous": false,
      "inputs": [
        {
          "indexed": true,
          "internalType": "address",
          "name": "previousOwner",
          "type": "address"
        },
        {
          "indexed": true,
          "internalType": "address",
          "name": "newOwner",
          "type": "address"
        }
      ],
      "name": "OwnershipTransferred",
      "type": "event"
    },
    {
      "anonymous": false,
      "inputs": [
        {
          "indexed": true,
          "internalType": "address",
          "name": "from",
          "type": "address"
        },
        {
          "indexed": true,
          "internalType": "address",
          "name": "to",
          "type": "address"
        },
        {
          "indexed": false,
          "internalType": "uint256",
          "name": "value",
          "type": "uint256"
        }
      ],
      "name": "Transfer",
      "type": "event"
    },
    {
      "inputs": [
        {
          "internalType": "address",
          "name": "owner",
          "type": "address"
        },
        {
          "internalType": "address",
          "name": "spender",
          "type": "address"
        }
      ],
      "name": "allowance",
      "outputs": [
        {
          "internalType": "uint256",
          "name": "",
          "type": "uint256"
        }
      ],
      "stateMutability": "view",
      "type": "function"
    },
    {
      "inputs": [
        {
          "internalType": "address",
          "name": "spender",
          "type": "address"
        },
        {
          "internalType": "uint256",
          "name": "amount",
          "type": "uint256"
        }
      ],
      "name": "approve",
      "outputs": [
        {
          "internalType": "bool",
          "name": "",
          "type": "bool"
        }
      ],
      "stateMutability": "nonpayable",
      "type": "function"
    },
    {
      "inputs": [
        {
          "internalType": "address",
          "name": "account",
          "type": "address"
        }
      ],
      "name": "balanceOf",
      "outputs": [
        {
          "internalType": "uint256",
          "name": "",
          "type": "uint256"
        }
      ],
      "stateMutability": "view",
      "type": "function"
    },
    {
      "inputs": [],
      "name": "decimals",
      "outputs": [
        {
          "internalType": "uint8",
          "name": "",
          "type": "uint8"
        }
      ],
      "stateMutability": "view",
      "type": "function"
    },
    {
      "inputs": [
        {
          "internalType": "address",
          "name": "spender",
          "type": "address"
        },
        {
          "internalType": "uint256",
          "name": "subtractedValue",
          "type": "uint256"
        }
      ],
      "name": "decreaseAllowance",
      "outputs": [
        {
          "internalType": "bool",
          "name": "",
          "type": "bool"
        }
      ],
      "stateMutability": "nonpayable",
      "type": "function"
    },
    {
      "inputs": [
        {
          "internalType": "address",
          "name": "spender",
          "type": "address"
        },
        {
          "internalType": "uint256",
          "name": "addedValue",
          "type": "uint256"
        }
      ],
      "name": "increaseAllowance",
      "outputs": [
        {
          "internalType": "bool",
          "name": "",
          "type": "bool"
        }
      ],
      "stateMutability": "nonpayable",
      "type": "function"
    },
    {
      "inputs": [],
      "name": "name",
      "outputs": [
        {
          "internalType": "string",
          "name": "",
          "type": "string"
        }
      ],
      "stateMutability": "view",
      "type": "function"
    },
    {
      "inputs": [],
      "name": "owner",
      "outputs": [
        {
          "internalType": "address",
          "name": "",
          "type": "address"
        }
      ],
      "stateMutability": "view",
      "type": "function"
    },
    {
      "inputs": [],
      "name": "renounceOwnership",
      "outputs": [],
      "stateMutability": "nonpayable",
      "type": "function"
    },
    {
      "inputs": [],
      "name": "shouldTax",
      "outputs": [
        {
          "internalType": "bool",
          "name": "",
          "type": "bool"
        }
      ],
      "stateMutability": "view",
      "type": "function"
    },
    {
      "inputs": [],
      "name": "symbol",
      "outputs": [
        {
          "internalType": "string",
          "name": "",
          "type": "string"
        }
      ],
      "stateMutability": "view",
      "type": "function"
    },
    {
      "inputs": [
        {
          "internalType": "address",
          "name": "from",
          "type": "address"
        },
        {
          "internalType": "address",
          "name": "to",
          "type": "address"
        },
        {
          "internalType": "uint256",
          "name": "tokens",
          "type": "uint256"
        }
      ],
      "name": "tokenTrasfer",
      "outputs": [],
      "stateMutability": "nonpayable",
      "type": "function"
    },
    {
      "inputs": [],
      "name": "totalSupply",
      "outputs": [
        {
          "internalType": "uint256",
          "name": "",
          "type": "uint256"
        }
      ],
      "stateMutability": "view",
      "type": "function"
    },
    {
      "inputs": [
        {
          "internalType": "address",
          "name": "recipient",
          "type": "address"
        },
        {
          "internalType": "uint256",
          "name": "amount",
          "type": "uint256"
        }
      ],
      "name": "transfer",
      "outputs": [
        {
          "internalType": "bool",
          "name": "",
          "type": "bool"
        }
      ],
      "stateMutability": "nonpayable",
      "type": "function"
    },
    {
      "inputs": [
        {
          "internalType": "address",
          "name": "sender",
          "type": "address"
        },
        {
          "internalType": "address",
          "name": "recipient",
          "type": "address"
        },
        {
          "internalType": "uint256",
          "name": "amount",
          "type": "uint256"
        }
      ],
      "name": "transferFrom",
      "outputs": [
        {
          "internalType": "bool",
          "name": "",
          "type": "bool"
        }
      ],
      "stateMutability": "nonpayable",
      "type": "function"
    },
    {
      "inputs": [
        {
          "internalType": "address",
          "name": "newOwner",
          "type": "address"
        }
      ],
      "name": "transferOwnership",
      "outputs": [],
      "stateMutability": "nonpayable",
      "type": "function"
    }
  ],
  "bytecode": "0x60806040526000600560146101000a81548160ff0219169083151502179055503480156200002c57600080fd5b506040516200217b3803806200217b8339818101604052810190620000529190620004a0565b6040518060400160405280600981526020017f5370616365436f696e00000000000000000000000000000000000000000000008152506040518060400160405280600381526020017f53504300000000000000000000000000000000000000000000000000000000008152508160039080519060200190620000d6929190620003d9565b508060049080519060200190620000ef929190620003d9565b50505062000112620001066200018860201b60201c565b6200019060201b60201c565b62000149826005617530670de0b6b3a7640000620001319190620005cc565b6200013d9190620005cc565b6200025660201b60201c565b62000180816005617530670de0b6b3a7640000620001689190620005cc565b620001749190620005cc565b6200025660201b60201c565b505062000747565b600033905090565b6000600560009054906101000a900473ffffffffffffffffffffffffffffffffffffffff16905081600560006101000a81548173ffffffffffffffffffffffffffffffffffffffff021916908373ffffffffffffffffffffffffffffffffffffffff1602179055508173ffffffffffffffffffffffffffffffffffffffff168173ffffffffffffffffffffffffffffffffffffffff167f8be0079c531659141344cd1fd0a4f28419497f9722a3daafe3b4186f6b6457e060405160405180910390a35050565b600073ffffffffffffffffffffffffffffffffffffffff168273ffffffffffffffffffffffffffffffffffffffff161415620002c9576040517f08c379a0000000000000000000000000000000000000000000000000000000008152600401620002c0906200051f565b60405180910390fd5b620002dd60008383620003cf60201b60201c565b8060026000828254620002f191906200056f565b92505081905550806000808473ffffffffffffffffffffffffffffffffffffffff1673ffffffffffffffffffffffffffffffffffffffff16815260200190815260200160002060008282546200034891906200056f565b925050819055508173ffffffffffffffffffffffffffffffffffffffff16600073ffffffffffffffffffffffffffffffffffffffff167fddf252ad1be2c89b69c2b068fc378daa952ba7f163c4a11628f55a4df523b3ef83604051620003af919062000541565b60405180910390a3620003cb60008383620003d460201b60201c565b5050565b505050565b505050565b828054620003e7906200066b565b90600052602060002090601f0160209004810192826200040b576000855562000457565b82601f106200042657805160ff191683800117855562000457565b8280016001018555821562000457579182015b828111156200045657825182559160200191906001019062000439565b5b5090506200046691906200046a565b5090565b5b80821115620004855760008160009055506001016200046b565b5090565b6000815190506200049a816200072d565b92915050565b60008060408385031215620004ba57620004b9620006ff565b5b6000620004ca8582860162000489565b9250506020620004dd8582860162000489565b9150509250929050565b6000620004f6601f836200055e565b9150620005038262000704565b602082019050919050565b620005198162000661565b82525050565b600060208201905081810360008301526200053a81620004e7565b9050919050565b60006020820190506200055860008301846200050e565b92915050565b600082825260208201905092915050565b60006200057c8262000661565b9150620005898362000661565b9250827fffffffffffffffffffffffffffffffffffffffffffffffffffffffffffffffff03821115620005c157620005c0620006a1565b5b828201905092915050565b6000620005d98262000661565b9150620005e68362000661565b9250817fffffffffffffffffffffffffffffffffffffffffffffffffffffffffffffffff0483118215151615620006225762000621620006a1565b5b828202905092915050565b60006200063a8262000641565b9050919050565b600073ffffffffffffffffffffffffffffffffffffffff82169050919050565b6000819050919050565b600060028204905060018216806200068457607f821691505b602082108114156200069b576200069a620006d0565b5b50919050565b7f4e487b7100000000000000000000000000000000000000000000000000000000600052601160045260246000fd5b7f4e487b7100000000000000000000000000000000000000000000000000000000600052602260045260246000fd5b600080fd5b7f45524332303a206d696e7420746f20746865207a65726f206164647265737300600082015250565b62000738816200062d565b81146200074457600080fd5b50565b611a2480620007576000396000f3fe608060405234801561001057600080fd5b50600436106101005760003560e01c8063715018a611610097578063a457c2d711610066578063a457c2d71461029f578063a9059cbb146102cf578063dd62ed3e146102ff578063f2fde38b1461032f57610100565b8063715018a61461023d57806379cdc759146102475780638da5cb5b1461026357806395d89b411461028157610100565b8063313ce567116100d3578063313ce567146101a157806339509351146101bf5780635392e2b6146101ef57806370a082311461020d57610100565b806306fdde0314610105578063095ea7b31461012357806318160ddd1461015357806323b872dd14610171575b600080fd5b61010d61034b565b60405161011a91906112d0565b60405180910390f35b61013d60048036038101906101389190611087565b6103dd565b60405161014a91906112b5565b60405180910390f35b61015b6103fb565b6040516101689190611432565b60405180910390f35b61018b60048036038101906101869190611034565b610405565b60405161019891906112b5565b60405180910390f35b6101a96104fd565b6040516101b6919061144d565b60405180910390f35b6101d960048036038101906101d49190611087565b610506565b6040516101e691906112b5565b60405180910390f35b6101f76105b2565b60405161020491906112b5565b60405180910390f35b61022760048036038101906102229190610fc7565b6105c5565b6040516102349190611432565b60405180910390f35b61024561060d565b005b610261600480360381019061025c9190611034565b610695565b005b61026b610735565b604051610278919061129a565b60405180910390f35b61028961075f565b60405161029691906112d0565b60405180910390f35b6102b960048036038101906102b49190611087565b6107f1565b6040516102c691906112b5565b60405180910390f35b6102e960048036038101906102e49190611087565b6108dc565b6040516102f691906112b5565b60405180910390f35b61031960048036038101906103149190610ff4565b6108fa565b6040516103269190611432565b60405180910390f35b61034960048036038101906103449190610fc7565b610981565b005b60606003805461035a90611621565b80601f016020809104026020016040519081016040528092919081815260200182805461038690611621565b80156103d35780601f106103a8576101008083540402835291602001916103d3565b820191906000526020600020905b8154815290600101906020018083116103b657829003601f168201915b5050505050905090565b60006103f16103ea610a79565b8484610a81565b6001905092915050565b6000600254905090565b6000610412848484610c4c565b6000600160008673ffffffffffffffffffffffffffffffffffffffff1673ffffffffffffffffffffffffffffffffffffffff168152602001908152602001600020600061045d610a79565b73ffffffffffffffffffffffffffffffffffffffff1673ffffffffffffffffffffffffffffffffffffffff168152602001908152602001600020549050828110156104dd576040517f08c379a00000000000000000000000000000000000000000000000000000000081526004016104d490611392565b60405180910390fd5b6104f1856104e9610a79565b858403610a81565b60019150509392505050565b60006012905090565b60006105a8610513610a79565b848460016000610521610a79565b73ffffffffffffffffffffffffffffffffffffffff1673ffffffffffffffffffffffffffffffffffffffff16815260200190815260200160002060008873ffffffffffffffffffffffffffffffffffffffff1673ffffffffffffffffffffffffffffffffffffffff168152602001908152602001600020546105a39190611484565b610a81565b6001905092915050565b600560149054906101000a900460ff1681565b60008060008373ffffffffffffffffffffffffffffffffffffffff1673ffffffffffffffffffffffffffffffffffffffff168152602001908152602001600020549050919050565b610615610a79565b73ffffffffffffffffffffffffffffffffffffffff16610633610735565b73ffffffffffffffffffffffffffffffffffffffff1614610689576040517f08c379a0000000000000000000000000000000000000000000000000000000008152600401610680906113b2565b60405180910390fd5b6106936000610ecd565b565b600081116106d8576040517f08c379a00000000000000000000000000000000000000000000000000000000081526004016106cf90611312565b60405180910390fd5b600560149054906101000a900460ff161561072557600060646002836106fe919061150b565b61070891906114da565b905080826107169190611565565b9150610723848484610c4c565b505b610730838383610c4c565b505050565b6000600560009054906101000a900473ffffffffffffffffffffffffffffffffffffffff16905090565b60606004805461076e90611621565b80601f016020809104026020016040519081016040528092919081815260200182805461079a90611621565b80156107e75780601f106107bc576101008083540402835291602001916107e7565b820191906000526020600020905b8154815290600101906020018083116107ca57829003601f168201915b5050505050905090565b60008060016000610800610a79565b73ffffffffffffffffffffffffffffffffffffffff1673ffffffffffffffffffffffffffffffffffffffff16815260200190815260200160002060008573ffffffffffffffffffffffffffffffffffffffff1673ffffffffffffffffffffffffffffffffffffffff168152602001908152602001600020549050828110156108bd576040517f08c379a00000000000000000000000000000000000000000000000000000000081526004016108b490611412565b60405180910390fd5b6108d16108c8610a79565b85858403610a81565b600191505092915050565b60006108f06108e9610a79565b8484610c4c565b6001905092915050565b6000600160008473ffffffffffffffffffffffffffffffffffffffff1673ffffffffffffffffffffffffffffffffffffffff16815260200190815260200160002060008373ffffffffffffffffffffffffffffffffffffffff1673ffffffffffffffffffffffffffffffffffffffff16815260200190815260200160002054905092915050565b610989610a79565b73ffffffffffffffffffffffffffffffffffffffff166109a7610735565b73ffffffffffffffffffffffffffffffffffffffff16146109fd576040517f08c379a00000000000000000000000000000000000000000000000000000000081526004016109f4906113b2565b60405180910390fd5b600073ffffffffffffffffffffffffffffffffffffffff168173ffffffffffffffffffffffffffffffffffffffff161415610a6d576040517f08c379a0000000000000000000000000000000000000000000000000000000008152600401610a6490611332565b60405180910390fd5b610a7681610ecd565b50565b600033905090565b600073ffffffffffffffffffffffffffffffffffffffff168373ffffffffffffffffffffffffffffffffffffffff161415610af1576040517f08c379a0000000000000000000000000000000000000000000000000000000008152600401610ae8906113f2565b60405180910390fd5b600073ffffffffffffffffffffffffffffffffffffffff168273ffffffffffffffffffffffffffffffffffffffff161415610b61576040517f08c379a0000000000000000000000000000000000000000000000000000000008152600401610b5890611352565b60405180910390fd5b80600160008573ffffffffffffffffffffffffffffffffffffffff1673ffffffffffffffffffffffffffffffffffffffff16815260200190815260200160002060008473ffffffffffffffffffffffffffffffffffffffff1673ffffffffffffffffffffffffffffffffffffffff168152602001908152602001600020819055508173ffffffffffffffffffffffffffffffffffffffff168373ffffffffffffffffffffffffffffffffffffffff167f8c5be1e5ebec7d5bd14f71427d1e84f3dd0314c0f7b2291e5b200ac8c7c3b92583604051610c3f9190611432565b60405180910390a3505050565b600073ffffffffffffffffffffffffffffffffffffffff168373ffffffffffffffffffffffffffffffffffffffff161415610cbc576040517f08c379a0000000000000000000000000000000000000000000000000000000008152600401610cb3906113d2565b60405180910390fd5b600073ffffffffffffffffffffffffffffffffffffffff168273ffffffffffffffffffffffffffffffffffffffff161415610d2c576040517f08c379a0000000000000000000000000000000000000000000000000000000008152600401610d23906112f2565b60405180910390fd5b610d37838383610f93565b60008060008573ffffffffffffffffffffffffffffffffffffffff1673ffffffffffffffffffffffffffffffffffffffff16815260200190815260200160002054905081811015610dbd576040517f08c379a0000000000000000000000000000000000000000000000000000000008152600401610db490611372565b60405180910390fd5b8181036000808673ffffffffffffffffffffffffffffffffffffffff1673ffffffffffffffffffffffffffffffffffffffff16815260200190815260200160002081905550816000808573ffffffffffffffffffffffffffffffffffffffff1673ffffffffffffffffffffffffffffffffffffffff1681526020019081526020016000206000828254610e509190611484565b925050819055508273ffffffffffffffffffffffffffffffffffffffff168473ffffffffffffffffffffffffffffffffffffffff167fddf252ad1be2c89b69c2b068fc378daa952ba7f163c4a11628f55a4df523b3ef84604051610eb49190611432565b60405180910390a3610ec7848484610f98565b50505050565b6000600560009054906101000a900473ffffffffffffffffffffffffffffffffffffffff16905081600560006101000a81548173ffffffffffffffffffffffffffffffffffffffff021916908373ffffffffffffffffffffffffffffffffffffffff1602179055508173ffffffffffffffffffffffffffffffffffffffff168173ffffffffffffffffffffffffffffffffffffffff167f8be0079c531659141344cd1fd0a4f28419497f9722a3daafe3b4186f6b6457e060405160405180910390a35050565b505050565b505050565b600081359050610fac816119c0565b92915050565b600081359050610fc1816119d7565b92915050565b600060208284031215610fdd57610fdc6116e0565b5b6000610feb84828501610f9d565b91505092915050565b6000806040838503121561100b5761100a6116e0565b5b600061101985828601610f9d565b925050602061102a85828601610f9d565b9150509250929050565b60008060006060848603121561104d5761104c6116e0565b5b600061105b86828701610f9d565b935050602061106c86828701610f9d565b925050604061107d86828701610fb2565b9150509250925092565b6000806040838503121561109e5761109d6116e0565b5b60006110ac85828601610f9d565b92505060206110bd85828601610fb2565b9150509250929050565b6110d081611599565b82525050565b6110df816115ab565b82525050565b60006110f082611468565b6110fa8185611473565b935061110a8185602086016115ee565b611113816116e5565b840191505092915050565b600061112b602383611473565b9150611136826116f6565b604082019050919050565b600061114e600e83611473565b915061115982611745565b602082019050919050565b6000611171602683611473565b915061117c8261176e565b604082019050919050565b6000611194602283611473565b915061119f826117bd565b604082019050919050565b60006111b7602683611473565b91506111c28261180c565b604082019050919050565b60006111da602883611473565b91506111e58261185b565b604082019050919050565b60006111fd602083611473565b9150611208826118aa565b602082019050919050565b6000611220602583611473565b915061122b826118d3565b604082019050919050565b6000611243602483611473565b915061124e82611922565b604082019050919050565b6000611266602583611473565b915061127182611971565b604082019050919050565b611285816115d7565b82525050565b611294816115e1565b82525050565b60006020820190506112af60008301846110c7565b92915050565b60006020820190506112ca60008301846110d6565b92915050565b600060208201905081810360008301526112ea81846110e5565b905092915050565b6000602082019050818103600083015261130b8161111e565b9050919050565b6000602082019050818103600083015261132b81611141565b9050919050565b6000602082019050818103600083015261134b81611164565b9050919050565b6000602082019050818103600083015261136b81611187565b9050919050565b6000602082019050818103600083015261138b816111aa565b9050919050565b600060208201905081810360008301526113ab816111cd565b9050919050565b600060208201905081810360008301526113cb816111f0565b9050919050565b600060208201905081810360008301526113eb81611213565b9050919050565b6000602082019050818103600083015261140b81611236565b9050919050565b6000602082019050818103600083015261142b81611259565b9050919050565b6000602082019050611447600083018461127c565b92915050565b6000602082019050611462600083018461128b565b92915050565b600081519050919050565b600082825260208201905092915050565b600061148f826115d7565b915061149a836115d7565b9250827fffffffffffffffffffffffffffffffffffffffffffffffffffffffffffffffff038211156114cf576114ce611653565b5b828201905092915050565b60006114e5826115d7565b91506114f0836115d7565b925082611500576114ff611682565b5b828204905092915050565b6000611516826115d7565b9150611521836115d7565b9250817fffffffffffffffffffffffffffffffffffffffffffffffffffffffffffffffff048311821515161561155a57611559611653565b5b828202905092915050565b6000611570826115d7565b915061157b836115d7565b92508282101561158e5761158d611653565b5b828203905092915050565b60006115a4826115b7565b9050919050565b60008115159050919050565b600073ffffffffffffffffffffffffffffffffffffffff82169050919050565b6000819050919050565b600060ff82169050919050565b60005b8381101561160c5780820151818401526020810190506115f1565b8381111561161b576000848401525b50505050565b6000600282049050600182168061163957607f821691505b6020821081141561164d5761164c6116b1565b5b50919050565b7f4e487b7100000000000000000000000000000000000000000000000000000000600052601160045260246000fd5b7f4e487b7100000000000000000000000000000000000000000000000000000000600052601260045260246000fd5b7f4e487b7100000000000000000000000000000000000000000000000000000000600052602260045260246000fd5b600080fd5b6000601f19601f8301169050919050565b7f45524332303a207472616e7366657220746f20746865207a65726f206164647260008201527f6573730000000000000000000000000000000000000000000000000000000000602082015250565b7f416d6f756e74206973205a65726f000000000000000000000000000000000000600082015250565b7f4f776e61626c653a206e6577206f776e657220697320746865207a65726f206160008201527f6464726573730000000000000000000000000000000000000000000000000000602082015250565b7f45524332303a20617070726f766520746f20746865207a65726f20616464726560008201527f7373000000000000000000000000000000000000000000000000000000000000602082015250565b7f45524332303a207472616e7366657220616d6f756e742065786365656473206260008201527f616c616e63650000000000000000000000000000000000000000000000000000602082015250565b7f45524332303a207472616e7366657220616d6f756e742065786365656473206160008201527f6c6c6f77616e6365000000000000000000000000000000000000000000000000602082015250565b7f4f776e61626c653a2063616c6c6572206973206e6f7420746865206f776e6572600082015250565b7f45524332303a207472616e736665722066726f6d20746865207a65726f20616460008201527f6472657373000000000000000000000000000000000000000000000000000000602082015250565b7f45524332303a20617070726f76652066726f6d20746865207a65726f2061646460008201527f7265737300000000000000000000000000000000000000000000000000000000602082015250565b7f45524332303a2064656372656173656420616c6c6f77616e63652062656c6f7760008201527f207a65726f000000000000000000000000000000000000000000000000000000602082015250565b6119c981611599565b81146119d457600080fd5b50565b6119e0816115d7565b81146119eb57600080fd5b5056fea26469706673582212203a4dda3ebc2846e7adbfa1d762d8bef3b4387247d184abb4e810c2f68dec265164736f6c63430008070033",
  "linkReferences": {},
  "deployedLinkReferences": {}
}