{
  "_format": "hh-sol-artifact-1",
  "contractName": "SpaceCoin",
  "sourceName": "contracts/SpaceCoin.sol",
  "abi": [
    {
      "inputs": [
        {
          "internalType": "address",
          "name": "_ico",
          "type": "address"
        },
        {
          "internalType": "address",
          "name": "_treasury",
          "type": "address"
        }
      ],
      "stateMutability": "nonpayable",
      "type": "constructor"
    },
    {
      "anonymous": false,
      "inputs": [
        {
          "indexed": true,
          "internalType": "address",
          "name": "owner",
          "type": "address"
        },
        {
          "indexed": true,
          "internalType": "address",
          "name": "spender",
          "type": "address"
        },
        {
          "indexed": false,
          "internalType": "uint256",
          "name": "value",
          "type": "uint256"
        }
      ],
      "name": "Approval",
      "type": "event"
    },
    {
      "anonymous": false,
      "inputs": [
        {
          "indexed": true,
          "internalType": "address",
          "name": "previousOwner",
          "type": "address"
        },
        {
          "indexed": true,
          "internalType": "address",
          "name": "newOwner",
          "type": "address"
        }
      ],
      "name": "OwnershipTransferred",
      "type": "event"
    },
    {
      "anonymous": false,
      "inputs": [
        {
          "indexed": true,
          "internalType": "address",
          "name": "from",
          "type": "address"
        },
        {
          "indexed": true,
          "internalType": "address",
          "name": "to",
          "type": "address"
        },
        {
          "indexed": false,
          "internalType": "uint256",
          "name": "value",
          "type": "uint256"
        }
      ],
      "name": "Transfer",
      "type": "event"
    },
    {
      "inputs": [
        {
          "internalType": "address",
          "name": "owner",
          "type": "address"
        },
        {
          "internalType": "address",
          "name": "spender",
          "type": "address"
        }
      ],
      "name": "allowance",
      "outputs": [
        {
          "internalType": "uint256",
          "name": "",
          "type": "uint256"
        }
      ],
      "stateMutability": "view",
      "type": "function"
    },
    {
      "inputs": [
        {
          "internalType": "address",
          "name": "spender",
          "type": "address"
        },
        {
          "internalType": "uint256",
          "name": "amount",
          "type": "uint256"
        }
      ],
      "name": "approve",
      "outputs": [
        {
          "internalType": "bool",
          "name": "",
          "type": "bool"
        }
      ],
      "stateMutability": "nonpayable",
      "type": "function"
    },
    {
      "inputs": [
        {
          "internalType": "address",
          "name": "account",
          "type": "address"
        }
      ],
      "name": "balanceOf",
      "outputs": [
        {
          "internalType": "uint256",
          "name": "",
          "type": "uint256"
        }
      ],
      "stateMutability": "view",
      "type": "function"
    },
    {
      "inputs": [],
      "name": "decimals",
      "outputs": [
        {
          "internalType": "uint8",
          "name": "",
          "type": "uint8"
        }
      ],
      "stateMutability": "view",
      "type": "function"
    },
    {
      "inputs": [
        {
          "internalType": "address",
          "name": "spender",
          "type": "address"
        },
        {
          "internalType": "uint256",
          "name": "subtractedValue",
          "type": "uint256"
        }
      ],
      "name": "decreaseAllowance",
      "outputs": [
        {
          "internalType": "bool",
          "name": "",
          "type": "bool"
        }
      ],
      "stateMutability": "nonpayable",
      "type": "function"
    },
    {
      "inputs": [
        {
          "internalType": "address",
          "name": "spender",
          "type": "address"
        },
        {
          "internalType": "uint256",
          "name": "addedValue",
          "type": "uint256"
        }
      ],
      "name": "increaseAllowance",
      "outputs": [
        {
          "internalType": "bool",
          "name": "",
          "type": "bool"
        }
      ],
      "stateMutability": "nonpayable",
      "type": "function"
    },
    {
      "inputs": [
        {
          "internalType": "address",
          "name": "to",
          "type": "address"
        },
        {
          "internalType": "uint256",
          "name": "amount",
          "type": "uint256"
        }
      ],
      "name": "mint",
      "outputs": [],
      "stateMutability": "nonpayable",
      "type": "function"
    },
    {
      "inputs": [],
      "name": "name",
      "outputs": [
        {
          "internalType": "string",
          "name": "",
          "type": "string"
        }
      ],
      "stateMutability": "view",
      "type": "function"
    },
    {
      "inputs": [],
      "name": "owner",
      "outputs": [
        {
          "internalType": "address",
          "name": "",
          "type": "address"
        }
      ],
      "stateMutability": "view",
      "type": "function"
    },
    {
      "inputs": [],
      "name": "renounceOwnership",
      "outputs": [],
      "stateMutability": "nonpayable",
      "type": "function"
    },
    {
      "inputs": [],
      "name": "shouldTax",
      "outputs": [
        {
          "internalType": "bool",
          "name": "",
          "type": "bool"
        }
      ],
      "stateMutability": "view",
      "type": "function"
    },
    {
      "inputs": [],
      "name": "symbol",
      "outputs": [
        {
          "internalType": "string",
          "name": "",
          "type": "string"
        }
      ],
      "stateMutability": "view",
      "type": "function"
    },
    {
      "inputs": [
        {
          "internalType": "address",
          "name": "from",
          "type": "address"
        },
        {
          "internalType": "address",
          "name": "to",
          "type": "address"
        },
        {
          "internalType": "uint256",
          "name": "tokens",
          "type": "uint256"
        }
      ],
      "name": "tokenTrasfer",
      "outputs": [],
      "stateMutability": "nonpayable",
      "type": "function"
    },
    {
      "inputs": [],
      "name": "totalSupply",
      "outputs": [
        {
          "internalType": "uint256",
          "name": "",
          "type": "uint256"
        }
      ],
      "stateMutability": "view",
      "type": "function"
    },
    {
      "inputs": [
        {
          "internalType": "address",
          "name": "recipient",
          "type": "address"
        },
        {
          "internalType": "uint256",
          "name": "amount",
          "type": "uint256"
        }
      ],
      "name": "transfer",
      "outputs": [
        {
          "internalType": "bool",
          "name": "",
          "type": "bool"
        }
      ],
      "stateMutability": "nonpayable",
      "type": "function"
    },
    {
      "inputs": [
        {
          "internalType": "address",
          "name": "sender",
          "type": "address"
        },
        {
          "internalType": "address",
          "name": "recipient",
          "type": "address"
        },
        {
          "internalType": "uint256",
          "name": "amount",
          "type": "uint256"
        }
      ],
      "name": "transferFrom",
      "outputs": [
        {
          "internalType": "bool",
          "name": "",
          "type": "bool"
        }
      ],
      "stateMutability": "nonpayable",
      "type": "function"
    },
    {
      "inputs": [
        {
          "internalType": "address",
          "name": "newOwner",
          "type": "address"
        }
      ],
      "name": "transferOwnership",
      "outputs": [],
      "stateMutability": "nonpayable",
      "type": "function"
    }
  ],
  "bytecode": "0x60806040526000600560146101000a81548160ff0219169083151502179055503480156200002c57600080fd5b506040516200235838038062002358833981810160405281019062000052919062000469565b6040518060400160405280600981526020017f5370616365436f696e00000000000000000000000000000000000000000000008152506040518060400160405280600381526020017f53504300000000000000000000000000000000000000000000000000000000008152508160039080519060200190620000d6929190620003a2565b508060049080519060200190620000ef929190620003a2565b50505062000112620001066200015160201b60201c565b6200015960201b60201c565b62000149826005617530670de0b6b3a764000062000131919062000595565b6200013d919062000595565b6200021f60201b60201c565b505062000710565b600033905090565b6000600560009054906101000a900473ffffffffffffffffffffffffffffffffffffffff16905081600560006101000a81548173ffffffffffffffffffffffffffffffffffffffff021916908373ffffffffffffffffffffffffffffffffffffffff1602179055508173ffffffffffffffffffffffffffffffffffffffff168173ffffffffffffffffffffffffffffffffffffffff167f8be0079c531659141344cd1fd0a4f28419497f9722a3daafe3b4186f6b6457e060405160405180910390a35050565b600073ffffffffffffffffffffffffffffffffffffffff168273ffffffffffffffffffffffffffffffffffffffff16141562000292576040517f08c379a00000000000000000000000000000000000000000000000000000000081526004016200028990620004e8565b60405180910390fd5b620002a6600083836200039860201b60201c565b8060026000828254620002ba919062000538565b92505081905550806000808473ffffffffffffffffffffffffffffffffffffffff1673ffffffffffffffffffffffffffffffffffffffff168152602001908152602001600020600082825462000311919062000538565b925050819055508173ffffffffffffffffffffffffffffffffffffffff16600073ffffffffffffffffffffffffffffffffffffffff167fddf252ad1be2c89b69c2b068fc378daa952ba7f163c4a11628f55a4df523b3ef836040516200037891906200050a565b60405180910390a362000394600083836200039d60201b60201c565b5050565b505050565b505050565b828054620003b09062000634565b90600052602060002090601f016020900481019282620003d4576000855562000420565b82601f10620003ef57805160ff191683800117855562000420565b8280016001018555821562000420579182015b828111156200041f57825182559160200191906001019062000402565b5b5090506200042f919062000433565b5090565b5b808211156200044e57600081600090555060010162000434565b5090565b6000815190506200046381620006f6565b92915050565b60008060408385031215620004835762000482620006c8565b5b6000620004938582860162000452565b9250506020620004a68582860162000452565b9150509250929050565b6000620004bf601f8362000527565b9150620004cc82620006cd565b602082019050919050565b620004e2816200062a565b82525050565b600060208201905081810360008301526200050381620004b0565b9050919050565b6000602082019050620005216000830184620004d7565b92915050565b600082825260208201905092915050565b600062000545826200062a565b915062000552836200062a565b9250827fffffffffffffffffffffffffffffffffffffffffffffffffffffffffffffffff038211156200058a57620005896200066a565b5b828201905092915050565b6000620005a2826200062a565b9150620005af836200062a565b9250817fffffffffffffffffffffffffffffffffffffffffffffffffffffffffffffffff0483118215151615620005eb57620005ea6200066a565b5b828202905092915050565b600062000603826200060a565b9050919050565b600073ffffffffffffffffffffffffffffffffffffffff82169050919050565b6000819050919050565b600060028204905060018216806200064d57607f821691505b6020821081141562000664576200066362000699565b5b50919050565b7f4e487b7100000000000000000000000000000000000000000000000000000000600052601160045260246000fd5b7f4e487b7100000000000000000000000000000000000000000000000000000000600052602260045260246000fd5b600080fd5b7f45524332303a206d696e7420746f20746865207a65726f206164647265737300600082015250565b6200070181620005f6565b81146200070d57600080fd5b50565b611c3880620007206000396000f3fe608060405234801561001057600080fd5b506004361061010b5760003560e01c806370a08231116100a257806395d89b411161007157806395d89b41146102a8578063a457c2d7146102c6578063a9059cbb146102f6578063dd62ed3e14610326578063f2fde38b146103565761010b565b806370a0823114610234578063715018a61461026457806379cdc7591461026e5780638da5cb5b1461028a5761010b565b8063313ce567116100de578063313ce567146101ac57806339509351146101ca57806340c10f19146101fa5780635392e2b6146102165761010b565b806306fdde0314610110578063095ea7b31461012e57806318160ddd1461015e57806323b872dd1461017c575b600080fd5b610118610372565b604051610125919061149b565b60405180910390f35b6101486004803603810190610143919061122f565b610404565b6040516101559190611480565b60405180910390f35b610166610422565b604051610173919061161d565b60405180910390f35b610196600480360381019061019191906111dc565b61042c565b6040516101a39190611480565b60405180910390f35b6101b4610524565b6040516101c19190611638565b60405180910390f35b6101e460048036038101906101df919061122f565b61052d565b6040516101f19190611480565b60405180910390f35b610214600480360381019061020f919061122f565b6105d9565b005b61021e6105fa565b60405161022b9190611480565b60405180910390f35b61024e6004803603810190610249919061116f565b61060d565b60405161025b919061161d565b60405180910390f35b61026c610655565b005b610288600480360381019061028391906111dc565b6106dd565b005b61029261077d565b60405161029f9190611465565b60405180910390f35b6102b06107a7565b6040516102bd919061149b565b60405180910390f35b6102e060048036038101906102db919061122f565b610839565b6040516102ed9190611480565b60405180910390f35b610310600480360381019061030b919061122f565b610924565b60405161031d9190611480565b60405180910390f35b610340600480360381019061033b919061119c565b610942565b60405161034d919061161d565b60405180910390f35b610370600480360381019061036b919061116f565b6109c9565b005b6060600380546103819061180c565b80601f01602080910402602001604051908101604052809291908181526020018280546103ad9061180c565b80156103fa5780601f106103cf576101008083540402835291602001916103fa565b820191906000526020600020905b8154815290600101906020018083116103dd57829003601f168201915b5050505050905090565b6000610418610411610ac1565b8484610ac9565b6001905092915050565b6000600254905090565b6000610439848484610c94565b6000600160008673ffffffffffffffffffffffffffffffffffffffff1673ffffffffffffffffffffffffffffffffffffffff1681526020019081526020016000206000610484610ac1565b73ffffffffffffffffffffffffffffffffffffffff1673ffffffffffffffffffffffffffffffffffffffff16815260200190815260200160002054905082811015610504576040517f08c379a00000000000000000000000000000000000000000000000000000000081526004016104fb9061155d565b60405180910390fd5b61051885610510610ac1565b858403610ac9565b60019150509392505050565b60006012905090565b60006105cf61053a610ac1565b848460016000610548610ac1565b73ffffffffffffffffffffffffffffffffffffffff1673ffffffffffffffffffffffffffffffffffffffff16815260200190815260200160002060008873ffffffffffffffffffffffffffffffffffffffff1673ffffffffffffffffffffffffffffffffffffffff168152602001908152602001600020546105ca919061166f565b610ac9565b6001905092915050565b6105f68282670de0b6b3a76400006105f191906116f6565b610f15565b5050565b600560149054906101000a900460ff1681565b60008060008373ffffffffffffffffffffffffffffffffffffffff1673ffffffffffffffffffffffffffffffffffffffff168152602001908152602001600020549050919050565b61065d610ac1565b73ffffffffffffffffffffffffffffffffffffffff1661067b61077d565b73ffffffffffffffffffffffffffffffffffffffff16146106d1576040517f08c379a00000000000000000000000000000000000000000000000000000000081526004016106c89061157d565b60405180910390fd5b6106db6000611075565b565b60008111610720576040517f08c379a0000000000000000000000000000000000000000000000000000000008152600401610717906114dd565b60405180910390fd5b600560149054906101000a900460ff161561076d576000606460028361074691906116f6565b61075091906116c5565b9050808261075e9190611750565b915061076b848484610c94565b505b610778838383610c94565b505050565b6000600560009054906101000a900473ffffffffffffffffffffffffffffffffffffffff16905090565b6060600480546107b69061180c565b80601f01602080910402602001604051908101604052809291908181526020018280546107e29061180c565b801561082f5780601f106108045761010080835404028352916020019161082f565b820191906000526020600020905b81548152906001019060200180831161081257829003601f168201915b5050505050905090565b60008060016000610848610ac1565b73ffffffffffffffffffffffffffffffffffffffff1673ffffffffffffffffffffffffffffffffffffffff16815260200190815260200160002060008573ffffffffffffffffffffffffffffffffffffffff1673ffffffffffffffffffffffffffffffffffffffff16815260200190815260200160002054905082811015610905576040517f08c379a00000000000000000000000000000000000000000000000000000000081526004016108fc906115dd565b60405180910390fd5b610919610910610ac1565b85858403610ac9565b600191505092915050565b6000610938610931610ac1565b8484610c94565b6001905092915050565b6000600160008473ffffffffffffffffffffffffffffffffffffffff1673ffffffffffffffffffffffffffffffffffffffff16815260200190815260200160002060008373ffffffffffffffffffffffffffffffffffffffff1673ffffffffffffffffffffffffffffffffffffffff16815260200190815260200160002054905092915050565b6109d1610ac1565b73ffffffffffffffffffffffffffffffffffffffff166109ef61077d565b73ffffffffffffffffffffffffffffffffffffffff1614610a45576040517f08c379a0000000000000000000000000000000000000000000000000000000008152600401610a3c9061157d565b60405180910390fd5b600073ffffffffffffffffffffffffffffffffffffffff168173ffffffffffffffffffffffffffffffffffffffff161415610ab5576040517f08c379a0000000000000000000000000000000000000000000000000000000008152600401610aac906114fd565b60405180910390fd5b610abe81611075565b50565b600033905090565b600073ffffffffffffffffffffffffffffffffffffffff168373ffffffffffffffffffffffffffffffffffffffff161415610b39576040517f08c379a0000000000000000000000000000000000000000000000000000000008152600401610b30906115bd565b60405180910390fd5b600073ffffffffffffffffffffffffffffffffffffffff168273ffffffffffffffffffffffffffffffffffffffff161415610ba9576040517f08c379a0000000000000000000000000000000000000000000000000000000008152600401610ba09061151d565b60405180910390fd5b80600160008573ffffffffffffffffffffffffffffffffffffffff1673ffffffffffffffffffffffffffffffffffffffff16815260200190815260200160002060008473ffffffffffffffffffffffffffffffffffffffff1673ffffffffffffffffffffffffffffffffffffffff168152602001908152602001600020819055508173ffffffffffffffffffffffffffffffffffffffff168373ffffffffffffffffffffffffffffffffffffffff167f8c5be1e5ebec7d5bd14f71427d1e84f3dd0314c0f7b2291e5b200ac8c7c3b92583604051610c87919061161d565b60405180910390a3505050565b600073ffffffffffffffffffffffffffffffffffffffff168373ffffffffffffffffffffffffffffffffffffffff161415610d04576040517f08c379a0000000000000000000000000000000000000000000000000000000008152600401610cfb9061159d565b60405180910390fd5b600073ffffffffffffffffffffffffffffffffffffffff168273ffffffffffffffffffffffffffffffffffffffff161415610d74576040517f08c379a0000000000000000000000000000000000000000000000000000000008152600401610d6b906114bd565b60405180910390fd5b610d7f83838361113b565b60008060008573ffffffffffffffffffffffffffffffffffffffff1673ffffffffffffffffffffffffffffffffffffffff16815260200190815260200160002054905081811015610e05576040517f08c379a0000000000000000000000000000000000000000000000000000000008152600401610dfc9061153d565b60405180910390fd5b8181036000808673ffffffffffffffffffffffffffffffffffffffff1673ffffffffffffffffffffffffffffffffffffffff16815260200190815260200160002081905550816000808573ffffffffffffffffffffffffffffffffffffffff1673ffffffffffffffffffffffffffffffffffffffff1681526020019081526020016000206000828254610e98919061166f565b925050819055508273ffffffffffffffffffffffffffffffffffffffff168473ffffffffffffffffffffffffffffffffffffffff167fddf252ad1be2c89b69c2b068fc378daa952ba7f163c4a11628f55a4df523b3ef84604051610efc919061161d565b60405180910390a3610f0f848484611140565b50505050565b600073ffffffffffffffffffffffffffffffffffffffff168273ffffffffffffffffffffffffffffffffffffffff161415610f85576040517f08c379a0000000000000000000000000000000000000000000000000000000008152600401610f7c906115fd565b60405180910390fd5b610f916000838361113b565b8060026000828254610fa3919061166f565b92505081905550806000808473ffffffffffffffffffffffffffffffffffffffff1673ffffffffffffffffffffffffffffffffffffffff1681526020019081526020016000206000828254610ff8919061166f565b925050819055508173ffffffffffffffffffffffffffffffffffffffff16600073ffffffffffffffffffffffffffffffffffffffff167fddf252ad1be2c89b69c2b068fc378daa952ba7f163c4a11628f55a4df523b3ef8360405161105d919061161d565b60405180910390a361107160008383611140565b5050565b6000600560009054906101000a900473ffffffffffffffffffffffffffffffffffffffff16905081600560006101000a81548173ffffffffffffffffffffffffffffffffffffffff021916908373ffffffffffffffffffffffffffffffffffffffff1602179055508173ffffffffffffffffffffffffffffffffffffffff168173ffffffffffffffffffffffffffffffffffffffff167f8be0079c531659141344cd1fd0a4f28419497f9722a3daafe3b4186f6b6457e060405160405180910390a35050565b505050565b505050565b60008135905061115481611bd4565b92915050565b60008135905061116981611beb565b92915050565b600060208284031215611185576111846118cb565b5b600061119384828501611145565b91505092915050565b600080604083850312156111b3576111b26118cb565b5b60006111c185828601611145565b92505060206111d285828601611145565b9150509250929050565b6000806000606084860312156111f5576111f46118cb565b5b600061120386828701611145565b935050602061121486828701611145565b92505060406112258682870161115a565b9150509250925092565b60008060408385031215611246576112456118cb565b5b600061125485828601611145565b92505060206112658582860161115a565b9150509250929050565b61127881611784565b82525050565b61128781611796565b82525050565b600061129882611653565b6112a2818561165e565b93506112b28185602086016117d9565b6112bb816118d0565b840191505092915050565b60006112d360238361165e565b91506112de826118e1565b604082019050919050565b60006112f6600e8361165e565b915061130182611930565b602082019050919050565b600061131960268361165e565b915061132482611959565b604082019050919050565b600061133c60228361165e565b9150611347826119a8565b604082019050919050565b600061135f60268361165e565b915061136a826119f7565b604082019050919050565b600061138260288361165e565b915061138d82611a46565b604082019050919050565b60006113a560208361165e565b91506113b082611a95565b602082019050919050565b60006113c860258361165e565b91506113d382611abe565b604082019050919050565b60006113eb60248361165e565b91506113f682611b0d565b604082019050919050565b600061140e60258361165e565b915061141982611b5c565b604082019050919050565b6000611431601f8361165e565b915061143c82611bab565b602082019050919050565b611450816117c2565b82525050565b61145f816117cc565b82525050565b600060208201905061147a600083018461126f565b92915050565b6000602082019050611495600083018461127e565b92915050565b600060208201905081810360008301526114b5818461128d565b905092915050565b600060208201905081810360008301526114d6816112c6565b9050919050565b600060208201905081810360008301526114f6816112e9565b9050919050565b600060208201905081810360008301526115168161130c565b9050919050565b600060208201905081810360008301526115368161132f565b9050919050565b6000602082019050818103600083015261155681611352565b9050919050565b6000602082019050818103600083015261157681611375565b9050919050565b6000602082019050818103600083015261159681611398565b9050919050565b600060208201905081810360008301526115b6816113bb565b9050919050565b600060208201905081810360008301526115d6816113de565b9050919050565b600060208201905081810360008301526115f681611401565b9050919050565b6000602082019050818103600083015261161681611424565b9050919050565b60006020820190506116326000830184611447565b92915050565b600060208201905061164d6000830184611456565b92915050565b600081519050919050565b600082825260208201905092915050565b600061167a826117c2565b9150611685836117c2565b9250827fffffffffffffffffffffffffffffffffffffffffffffffffffffffffffffffff038211156116ba576116b961183e565b5b828201905092915050565b60006116d0826117c2565b91506116db836117c2565b9250826116eb576116ea61186d565b5b828204905092915050565b6000611701826117c2565b915061170c836117c2565b9250817fffffffffffffffffffffffffffffffffffffffffffffffffffffffffffffffff04831182151516156117455761174461183e565b5b828202905092915050565b600061175b826117c2565b9150611766836117c2565b9250828210156117795761177861183e565b5b828203905092915050565b600061178f826117a2565b9050919050565b60008115159050919050565b600073ffffffffffffffffffffffffffffffffffffffff82169050919050565b6000819050919050565b600060ff82169050919050565b60005b838110156117f75780820151818401526020810190506117dc565b83811115611806576000848401525b50505050565b6000600282049050600182168061182457607f821691505b602082108114156118385761183761189c565b5b50919050565b7f4e487b7100000000000000000000000000000000000000000000000000000000600052601160045260246000fd5b7f4e487b7100000000000000000000000000000000000000000000000000000000600052601260045260246000fd5b7f4e487b7100000000000000000000000000000000000000000000000000000000600052602260045260246000fd5b600080fd5b6000601f19601f8301169050919050565b7f45524332303a207472616e7366657220746f20746865207a65726f206164647260008201527f6573730000000000000000000000000000000000000000000000000000000000602082015250565b7f416d6f756e74206973205a65726f000000000000000000000000000000000000600082015250565b7f4f776e61626c653a206e6577206f776e657220697320746865207a65726f206160008201527f6464726573730000000000000000000000000000000000000000000000000000602082015250565b7f45524332303a20617070726f766520746f20746865207a65726f20616464726560008201527f7373000000000000000000000000000000000000000000000000000000000000602082015250565b7f45524332303a207472616e7366657220616d6f756e742065786365656473206260008201527f616c616e63650000000000000000000000000000000000000000000000000000602082015250565b7f45524332303a207472616e7366657220616d6f756e742065786365656473206160008201527f6c6c6f77616e6365000000000000000000000000000000000000000000000000602082015250565b7f4f776e61626c653a2063616c6c6572206973206e6f7420746865206f776e6572600082015250565b7f45524332303a207472616e736665722066726f6d20746865207a65726f20616460008201527f6472657373000000000000000000000000000000000000000000000000000000602082015250565b7f45524332303a20617070726f76652066726f6d20746865207a65726f2061646460008201527f7265737300000000000000000000000000000000000000000000000000000000602082015250565b7f45524332303a2064656372656173656420616c6c6f77616e63652062656c6f7760008201527f207a65726f000000000000000000000000000000000000000000000000000000602082015250565b7f45524332303a206d696e7420746f20746865207a65726f206164647265737300600082015250565b611bdd81611784565b8114611be857600080fd5b50565b611bf4816117c2565b8114611bff57600080fd5b5056fea26469706673582212208ba154743c7c7f82dd8744ffbe10ea6c75abbff2b83224e92f7f0816440babff64736f6c63430008070033",
  "linkReferences": {},
  "deployedLinkReferences": {}
}