{
  "_format": "hh-sol-artifact-1",
  "contractName": "SpaceCoin",
  "sourceName": "contracts/SpaceCoin.sol",
  "abi": [
    {
      "inputs": [
        {
          "internalType": "uint256",
          "name": "initialSupply",
          "type": "uint256"
        }
      ],
      "stateMutability": "nonpayable",
      "type": "constructor"
    },
    {
      "anonymous": false,
      "inputs": [
        {
          "indexed": false,
          "internalType": "string",
          "name": "message",
          "type": "string"
        },
        {
          "indexed": false,
          "internalType": "address",
          "name": "sender",
          "type": "address"
        }
      ],
      "name": "AddedToWhiteList",
      "type": "event"
    },
    {
      "anonymous": false,
      "inputs": [
        {
          "indexed": true,
          "internalType": "address",
          "name": "owner",
          "type": "address"
        },
        {
          "indexed": true,
          "internalType": "address",
          "name": "spender",
          "type": "address"
        },
        {
          "indexed": false,
          "internalType": "uint256",
          "name": "value",
          "type": "uint256"
        }
      ],
      "name": "Approval",
      "type": "event"
    },
    {
      "anonymous": false,
      "inputs": [
        {
          "indexed": false,
          "internalType": "string",
          "name": "message",
          "type": "string"
        },
        {
          "indexed": false,
          "internalType": "uint256",
          "name": "amount",
          "type": "uint256"
        }
      ],
      "name": "ContributionSuccess",
      "type": "event"
    },
    {
      "anonymous": false,
      "inputs": [
        {
          "indexed": true,
          "internalType": "address",
          "name": "previousOwner",
          "type": "address"
        },
        {
          "indexed": true,
          "internalType": "address",
          "name": "newOwner",
          "type": "address"
        }
      ],
      "name": "OwnershipTransferred",
      "type": "event"
    },
    {
      "anonymous": false,
      "inputs": [
        {
          "indexed": false,
          "internalType": "string",
          "name": "message",
          "type": "string"
        }
      ],
      "name": "TokenTransfered",
      "type": "event"
    },
    {
      "anonymous": false,
      "inputs": [
        {
          "indexed": true,
          "internalType": "address",
          "name": "from",
          "type": "address"
        },
        {
          "indexed": true,
          "internalType": "address",
          "name": "to",
          "type": "address"
        },
        {
          "indexed": false,
          "internalType": "uint256",
          "name": "value",
          "type": "uint256"
        }
      ],
      "name": "Transfer",
      "type": "event"
    },
    {
      "inputs": [
        {
          "internalType": "address",
          "name": "_address",
          "type": "address"
        }
      ],
      "name": "addWhitelisted",
      "outputs": [],
      "stateMutability": "nonpayable",
      "type": "function"
    },
    {
      "inputs": [
        {
          "internalType": "address",
          "name": "owner",
          "type": "address"
        },
        {
          "internalType": "address",
          "name": "spender",
          "type": "address"
        }
      ],
      "name": "allowance",
      "outputs": [
        {
          "internalType": "uint256",
          "name": "",
          "type": "uint256"
        }
      ],
      "stateMutability": "view",
      "type": "function"
    },
    {
      "inputs": [
        {
          "internalType": "address",
          "name": "spender",
          "type": "address"
        },
        {
          "internalType": "uint256",
          "name": "amount",
          "type": "uint256"
        }
      ],
      "name": "approve",
      "outputs": [
        {
          "internalType": "bool",
          "name": "",
          "type": "bool"
        }
      ],
      "stateMutability": "nonpayable",
      "type": "function"
    },
    {
      "inputs": [
        {
          "internalType": "address",
          "name": "account",
          "type": "address"
        }
      ],
      "name": "balanceOf",
      "outputs": [
        {
          "internalType": "uint256",
          "name": "",
          "type": "uint256"
        }
      ],
      "stateMutability": "view",
      "type": "function"
    },
    {
      "inputs": [],
      "name": "contribute",
      "outputs": [],
      "stateMutability": "payable",
      "type": "function"
    },
    {
      "inputs": [],
      "name": "decimals",
      "outputs": [
        {
          "internalType": "uint8",
          "name": "",
          "type": "uint8"
        }
      ],
      "stateMutability": "view",
      "type": "function"
    },
    {
      "inputs": [
        {
          "internalType": "address",
          "name": "spender",
          "type": "address"
        },
        {
          "internalType": "uint256",
          "name": "subtractedValue",
          "type": "uint256"
        }
      ],
      "name": "decreaseAllowance",
      "outputs": [
        {
          "internalType": "bool",
          "name": "",
          "type": "bool"
        }
      ],
      "stateMutability": "nonpayable",
      "type": "function"
    },
    {
      "inputs": [],
      "name": "getBalance",
      "outputs": [
        {
          "internalType": "uint256",
          "name": "",
          "type": "uint256"
        }
      ],
      "stateMutability": "view",
      "type": "function"
    },
    {
      "inputs": [],
      "name": "getContributionLimit",
      "outputs": [
        {
          "internalType": "uint256",
          "name": "",
          "type": "uint256"
        }
      ],
      "stateMutability": "view",
      "type": "function"
    },
    {
      "inputs": [],
      "name": "getPhase",
      "outputs": [
        {
          "internalType": "enum Phase",
          "name": "",
          "type": "uint8"
        }
      ],
      "stateMutability": "view",
      "type": "function"
    },
    {
      "inputs": [],
      "name": "getPhaseLimit",
      "outputs": [
        {
          "internalType": "uint256",
          "name": "",
          "type": "uint256"
        }
      ],
      "stateMutability": "view",
      "type": "function"
    },
    {
      "inputs": [
        {
          "internalType": "address",
          "name": "spender",
          "type": "address"
        },
        {
          "internalType": "uint256",
          "name": "addedValue",
          "type": "uint256"
        }
      ],
      "name": "increaseAllowance",
      "outputs": [
        {
          "internalType": "bool",
          "name": "",
          "type": "bool"
        }
      ],
      "stateMutability": "nonpayable",
      "type": "function"
    },
    {
      "inputs": [],
      "name": "name",
      "outputs": [
        {
          "internalType": "string",
          "name": "",
          "type": "string"
        }
      ],
      "stateMutability": "view",
      "type": "function"
    },
    {
      "inputs": [],
      "name": "owner",
      "outputs": [
        {
          "internalType": "address",
          "name": "",
          "type": "address"
        }
      ],
      "stateMutability": "view",
      "type": "function"
    },
    {
      "inputs": [],
      "name": "renounceOwnership",
      "outputs": [],
      "stateMutability": "nonpayable",
      "type": "function"
    },
    {
      "inputs": [
        {
          "internalType": "enum Phase",
          "name": "phase",
          "type": "uint8"
        }
      ],
      "name": "setPhase",
      "outputs": [],
      "stateMutability": "nonpayable",
      "type": "function"
    },
    {
      "inputs": [],
      "name": "symbol",
      "outputs": [
        {
          "internalType": "string",
          "name": "",
          "type": "string"
        }
      ],
      "stateMutability": "view",
      "type": "function"
    },
    {
      "inputs": [],
      "name": "tokenTransfer",
      "outputs": [],
      "stateMutability": "nonpayable",
      "type": "function"
    },
    {
      "inputs": [],
      "name": "totalSupply",
      "outputs": [
        {
          "internalType": "uint256",
          "name": "",
          "type": "uint256"
        }
      ],
      "stateMutability": "view",
      "type": "function"
    },
    {
      "inputs": [
        {
          "internalType": "address",
          "name": "recipient",
          "type": "address"
        },
        {
          "internalType": "uint256",
          "name": "amount",
          "type": "uint256"
        }
      ],
      "name": "transfer",
      "outputs": [
        {
          "internalType": "bool",
          "name": "",
          "type": "bool"
        }
      ],
      "stateMutability": "nonpayable",
      "type": "function"
    },
    {
      "inputs": [
        {
          "internalType": "address",
          "name": "sender",
          "type": "address"
        },
        {
          "internalType": "address",
          "name": "recipient",
          "type": "address"
        },
        {
          "internalType": "uint256",
          "name": "amount",
          "type": "uint256"
        }
      ],
      "name": "transferFrom",
      "outputs": [
        {
          "internalType": "bool",
          "name": "",
          "type": "bool"
        }
      ],
      "stateMutability": "nonpayable",
      "type": "function"
    },
    {
      "inputs": [
        {
          "internalType": "address",
          "name": "newOwner",
          "type": "address"
        }
      ],
      "name": "transferOwnership",
      "outputs": [],
      "stateMutability": "nonpayable",
      "type": "function"
    }
  ],
  "bytecode": "0x60806040526000600560146101000a81548160ff021916908315150217905550685150ae84a8cdf00000600655681043561a88293000006007556000600860006101000a81548160ff0219169083600281111562000062576200006162000611565b5b02179055503480156200007457600080fd5b5060405162002f1b38038062002f1b83398181016040528101906200009a91906200048b565b6040518060400160405280600981526020017f5370616365436f696e00000000000000000000000000000000000000000000008152506040518060400160405280600481526020017f575350430000000000000000000000000000000000000000000000000000000081525081600390805190602001906200011e929190620003c4565b50806004908051906020019062000137929190620003c4565b5050506200015a6200014e6200017360201b60201c565b6200017b60201b60201c565b6200016c33826200024160201b60201c565b50620006b7565b600033905090565b6000600560009054906101000a900473ffffffffffffffffffffffffffffffffffffffff16905081600560006101000a81548173ffffffffffffffffffffffffffffffffffffffff021916908373ffffffffffffffffffffffffffffffffffffffff1602179055508173ffffffffffffffffffffffffffffffffffffffff168173ffffffffffffffffffffffffffffffffffffffff167f8be0079c531659141344cd1fd0a4f28419497f9722a3daafe3b4186f6b6457e060405160405180910390a35050565b600073ffffffffffffffffffffffffffffffffffffffff168273ffffffffffffffffffffffffffffffffffffffff161415620002b4576040517f08c379a0000000000000000000000000000000000000000000000000000000008152600401620002ab90620004f5565b60405180910390fd5b620002c860008383620003ba60201b60201c565b8060026000828254620002dc919062000545565b92505081905550806000808473ffffffffffffffffffffffffffffffffffffffff1673ffffffffffffffffffffffffffffffffffffffff168152602001908152602001600020600082825462000333919062000545565b925050819055508173ffffffffffffffffffffffffffffffffffffffff16600073ffffffffffffffffffffffffffffffffffffffff167fddf252ad1be2c89b69c2b068fc378daa952ba7f163c4a11628f55a4df523b3ef836040516200039a919062000517565b60405180910390a3620003b660008383620003bf60201b60201c565b5050565b505050565b505050565b828054620003d290620005ac565b90600052602060002090601f016020900481019282620003f6576000855562000442565b82601f106200041157805160ff191683800117855562000442565b8280016001018555821562000442579182015b828111156200044157825182559160200191906001019062000424565b5b50905062000451919062000455565b5090565b5b808211156200047057600081600090555060010162000456565b5090565b60008151905062000485816200069d565b92915050565b600060208284031215620004a457620004a36200066f565b5b6000620004b48482850162000474565b91505092915050565b6000620004cc601f8362000534565b9150620004d98262000674565b602082019050919050565b620004ef81620005a2565b82525050565b600060208201905081810360008301526200051081620004bd565b9050919050565b60006020820190506200052e6000830184620004e4565b92915050565b600082825260208201905092915050565b60006200055282620005a2565b91506200055f83620005a2565b9250827fffffffffffffffffffffffffffffffffffffffffffffffffffffffffffffffff03821115620005975762000596620005e2565b5b828201905092915050565b6000819050919050565b60006002820490506001821680620005c557607f821691505b60208210811415620005dc57620005db62000640565b5b50919050565b7f4e487b7100000000000000000000000000000000000000000000000000000000600052601160045260246000fd5b7f4e487b7100000000000000000000000000000000000000000000000000000000600052602160045260246000fd5b7f4e487b7100000000000000000000000000000000000000000000000000000000600052602260045260246000fd5b600080fd5b7f45524332303a206d696e7420746f20746865207a65726f206164647265737300600082015250565b620006a881620005a2565b8114620006b457600080fd5b50565b61285480620006c76000396000f3fe6080604052600436106101355760003560e01c80638da5cb5b116100ab578063cdcb68401161006f578063cdcb68401461042a578063d7bb99ba14610455578063dd62ed3e1461045f578063eced02801461049c578063f2fde38b146104c7578063fa1e19e5146104f057610135565b80638da5cb5b1461033157806395d89b411461035c578063a457c2d714610387578063a9059cbb146103c4578063c03afb591461040157610135565b806323b872dd116100fd57806323b872dd14610221578063313ce5671461025e57806339509351146102895780636c4eca27146102c657806370a08231146102dd578063715018a61461031a57610135565b806306fdde031461013a578063095ea7b31461016557806310154bad146101a257806312065fe0146101cb57806318160ddd146101f6575b600080fd5b34801561014657600080fd5b5061014f61051b565b60405161015c9190611e20565b60405180910390f35b34801561017157600080fd5b5061018c60048036038101906101879190611a68565b6105ad565b6040516101999190611dea565b60405180910390f35b3480156101ae57600080fd5b506101c960048036038101906101c4919061197b565b6105cb565b005b3480156101d757600080fd5b506101e0610778565b6040516101ed919061209e565b60405180910390f35b34801561020257600080fd5b5061020b610780565b604051610218919061209e565b60405180910390f35b34801561022d57600080fd5b5061024860048036038101906102439190611a15565b61078a565b6040516102559190611dea565b60405180910390f35b34801561026a57600080fd5b50610273610882565b60405161028091906120b9565b60405180910390f35b34801561029557600080fd5b506102b060048036038101906102ab9190611a68565b61088b565b6040516102bd9190611dea565b60405180910390f35b3480156102d257600080fd5b506102db610937565b005b3480156102e957600080fd5b5061030460048036038101906102ff919061197b565b610c18565b604051610311919061209e565b60405180910390f35b34801561032657600080fd5b5061032f610c60565b005b34801561033d57600080fd5b50610346610ce8565b6040516103539190611dcf565b60405180910390f35b34801561036857600080fd5b50610371610d12565b60405161037e9190611e20565b60405180910390f35b34801561039357600080fd5b506103ae60048036038101906103a99190611a68565b610da4565b6040516103bb9190611dea565b60405180910390f35b3480156103d057600080fd5b506103eb60048036038101906103e69190611a68565b610e8f565b6040516103f89190611dea565b60405180910390f35b34801561040d57600080fd5b5061042860048036038101906104239190611aa8565b610ead565b005b34801561043657600080fd5b5061043f610feb565b60405161044c919061209e565b60405180910390f35b61045d610ff5565b005b34801561046b57600080fd5b50610486600480360381019061048191906119d5565b611263565b604051610493919061209e565b60405180910390f35b3480156104a857600080fd5b506104b16112ea565b6040516104be9190611e05565b60405180910390f35b3480156104d357600080fd5b506104ee60048036038101906104e9919061197b565b611301565b005b3480156104fc57600080fd5b506105056113f9565b604051610512919061209e565b60405180910390f35b60606003805461052a9061224d565b80601f01602080910402602001604051908101604052809291908181526020018280546105569061224d565b80156105a35780601f10610578576101008083540402835291602001916105a3565b820191906000526020600020905b81548152906001019060200180831161058657829003601f168201915b5050505050905090565b60006105c16105ba611403565b848461140b565b6001905092915050565b6105d3611403565b73ffffffffffffffffffffffffffffffffffffffff166105f1610ce8565b73ffffffffffffffffffffffffffffffffffffffff1614610647576040517f08c379a000000000000000000000000000000000000000000000000000000000815260040161063e90611f70565b60405180910390fd5b60001515600960008373ffffffffffffffffffffffffffffffffffffffff1673ffffffffffffffffffffffffffffffffffffffff16815260200190815260200160002060009054906101000a900460ff1615151415610775576001600960008373ffffffffffffffffffffffffffffffffffffffff1673ffffffffffffffffffffffffffffffffffffffff16815260200190815260200160002060006101000a81548160ff0219169083151502179055506000600a60008373ffffffffffffffffffffffffffffffffffffffff1673ffffffffffffffffffffffffffffffffffffffff168152602001908152602001600020819055507f951ed8e9cceab02d6836f83965f7a63e26ebc4eb93b8034a0c9c2a0f51a38fb93360405161076c9190611e62565b60405180910390a15b50565b600047905090565b6000600254905090565b60006107978484846115d6565b6000600160008673ffffffffffffffffffffffffffffffffffffffff1673ffffffffffffffffffffffffffffffffffffffff16815260200190815260200160002060006107e2611403565b73ffffffffffffffffffffffffffffffffffffffff1673ffffffffffffffffffffffffffffffffffffffff16815260200190815260200160002054905082811015610862576040517f08c379a000000000000000000000000000000000000000000000000000000000815260040161085990611f50565b60405180910390fd5b6108768561086e611403565b85840361140b565b60019150509392505050565b60006012905090565b600061092d610898611403565b8484600160006108a6611403565b73ffffffffffffffffffffffffffffffffffffffff1673ffffffffffffffffffffffffffffffffffffffff16815260200190815260200160002060008873ffffffffffffffffffffffffffffffffffffffff1673ffffffffffffffffffffffffffffffffffffffff1681526020019081526020016000205461092891906120f0565b61140b565b6001905092915050565b60028081111561094a576109496122ae565b5b600860009054906101000a900460ff16600281111561096c5761096b6122ae565b5b146109ac576040517f08c379a00000000000000000000000000000000000000000000000000000000081526004016109a390611fb0565b60405180910390fd5b6000600a60003373ffffffffffffffffffffffffffffffffffffffff1673ffffffffffffffffffffffffffffffffffffffff1681526020019081526020016000205411610a2e576040517f08c379a0000000000000000000000000000000000000000000000000000000008152600401610a2590611f90565b60405180910390fd5b6000600a60003373ffffffffffffffffffffffffffffffffffffffff1673ffffffffffffffffffffffffffffffffffffffff1681526020019081526020016000205490506000600a60003373ffffffffffffffffffffffffffffffffffffffff1673ffffffffffffffffffffffffffffffffffffffff16815260200190815260200160002081905550610b4b3073ffffffffffffffffffffffffffffffffffffffff16638da5cb5b6040518163ffffffff1660e01b815260040160206040518083038186803b158015610b0057600080fd5b505afa158015610b14573d6000803e3d6000fd5b505050506040513d601f19601f82011682018060405250810190610b3891906119a8565b33600584610b469190612146565b61140b565b610bdf3073ffffffffffffffffffffffffffffffffffffffff16638da5cb5b6040518163ffffffff1660e01b815260040160206040518083038186803b158015610b9457600080fd5b505afa158015610ba8573d6000803e3d6000fd5b505050506040513d601f19601f82011682018060405250810190610bcc91906119a8565b33600584610bda9190612146565b61078a565b507f1d5e86a50f279561809a2b76e4ba7ec1bb5f9540b9dae52a3205a6215ae8d22d604051610c0d90611f30565b60405180910390a150565b60008060008373ffffffffffffffffffffffffffffffffffffffff1673ffffffffffffffffffffffffffffffffffffffff168152602001908152602001600020549050919050565b610c68611403565b73ffffffffffffffffffffffffffffffffffffffff16610c86610ce8565b73ffffffffffffffffffffffffffffffffffffffff1614610cdc576040517f08c379a0000000000000000000000000000000000000000000000000000000008152600401610cd390611f70565b60405180910390fd5b610ce66000611857565b565b6000600560009054906101000a900473ffffffffffffffffffffffffffffffffffffffff16905090565b606060048054610d219061224d565b80601f0160208091040260200160405190810160405280929190818152602001828054610d4d9061224d565b8015610d9a5780601f10610d6f57610100808354040283529160200191610d9a565b820191906000526020600020905b815481529060010190602001808311610d7d57829003601f168201915b5050505050905090565b60008060016000610db3611403565b73ffffffffffffffffffffffffffffffffffffffff1673ffffffffffffffffffffffffffffffffffffffff16815260200190815260200160002060008573ffffffffffffffffffffffffffffffffffffffff1673ffffffffffffffffffffffffffffffffffffffff16815260200190815260200160002054905082811015610e70576040517f08c379a0000000000000000000000000000000000000000000000000000000008152600401610e679061207e565b60405180910390fd5b610e84610e7b611403565b8585840361140b565b600191505092915050565b6000610ea3610e9c611403565b84846115d6565b6001905092915050565b610eb5611403565b73ffffffffffffffffffffffffffffffffffffffff16610ed3610ce8565b73ffffffffffffffffffffffffffffffffffffffff1614610f29576040517f08c379a0000000000000000000000000000000000000000000000000000000008152600401610f2090611f70565b60405180910390fd5b600860009054906101000a900460ff166002811115610f4b57610f4a6122ae565b5b816002811115610f5e57610f5d6122ae565b5b11610f9e576040517f08c379a0000000000000000000000000000000000000000000000000000000008152600401610f9590611f10565b60405180910390fd5b80600860006101000a81548160ff02191690836002811115610fc357610fc26122ae565b5b021790555068a2a15d09519be00000600681905550682086ac35105260000060078190555050565b6000600654905090565b60006002811115611009576110086122ae565b5b600860009054906101000a900460ff16600281111561102b5761102a6122ae565b5b14156110be57600960003373ffffffffffffffffffffffffffffffffffffffff1673ffffffffffffffffffffffffffffffffffffffff16815260200190815260200160002060009054906101000a900460ff166110bd576040517f08c379a00000000000000000000000000000000000000000000000000000000081526004016110b490612030565b60405180910390fd5b5b6002808111156110d1576110d06122ae565b5b600860009054906101000a900460ff1660028111156110f3576110f26122ae565b5b146111885760075434600a60003373ffffffffffffffffffffffffffffffffffffffff1673ffffffffffffffffffffffffffffffffffffffff1681526020019081526020016000205461114691906120f0565b1115611187576040517f08c379a000000000000000000000000000000000000000000000000000000000815260040161117e90611ed0565b60405180910390fd5b5b600654611193610778565b11156111d4576040517f08c379a00000000000000000000000000000000000000000000000000000000081526004016111cb90611fd0565b60405180910390fd5b34600a60003373ffffffffffffffffffffffffffffffffffffffff1673ffffffffffffffffffffffffffffffffffffffff168152602001908152602001600020600082825461122391906120f0565b925050819055507fc2d052242c53b9291b212437369ea86f8da5aa682c9fba0227677b12d0e115bd346040516112599190612050565b60405180910390a1565b6000600160008473ffffffffffffffffffffffffffffffffffffffff1673ffffffffffffffffffffffffffffffffffffffff16815260200190815260200160002060008373ffffffffffffffffffffffffffffffffffffffff1673ffffffffffffffffffffffffffffffffffffffff16815260200190815260200160002054905092915050565b6000600860009054906101000a900460ff16905090565b611309611403565b73ffffffffffffffffffffffffffffffffffffffff16611327610ce8565b73ffffffffffffffffffffffffffffffffffffffff161461137d576040517f08c379a000000000000000000000000000000000000000000000000000000000815260040161137490611f70565b60405180910390fd5b600073ffffffffffffffffffffffffffffffffffffffff168173ffffffffffffffffffffffffffffffffffffffff1614156113ed576040517f08c379a00000000000000000000000000000000000000000000000000000000081526004016113e490611e90565b60405180910390fd5b6113f681611857565b50565b6000600754905090565b600033905090565b600073ffffffffffffffffffffffffffffffffffffffff168373ffffffffffffffffffffffffffffffffffffffff16141561147b576040517f08c379a000000000000000000000000000000000000000000000000000000000815260040161147290612010565b60405180910390fd5b600073ffffffffffffffffffffffffffffffffffffffff168273ffffffffffffffffffffffffffffffffffffffff1614156114eb576040517f08c379a00000000000000000000000000000000000000000000000000000000081526004016114e290611eb0565b60405180910390fd5b80600160008573ffffffffffffffffffffffffffffffffffffffff1673ffffffffffffffffffffffffffffffffffffffff16815260200190815260200160002060008473ffffffffffffffffffffffffffffffffffffffff1673ffffffffffffffffffffffffffffffffffffffff168152602001908152602001600020819055508173ffffffffffffffffffffffffffffffffffffffff168373ffffffffffffffffffffffffffffffffffffffff167f8c5be1e5ebec7d5bd14f71427d1e84f3dd0314c0f7b2291e5b200ac8c7c3b925836040516115c9919061209e565b60405180910390a3505050565b600073ffffffffffffffffffffffffffffffffffffffff168373ffffffffffffffffffffffffffffffffffffffff161415611646576040517f08c379a000000000000000000000000000000000000000000000000000000000815260040161163d90611ff0565b60405180910390fd5b600073ffffffffffffffffffffffffffffffffffffffff168273ffffffffffffffffffffffffffffffffffffffff1614156116b6576040517f08c379a00000000000000000000000000000000000000000000000000000000081526004016116ad90611e42565b60405180910390fd5b6116c183838361191d565b60008060008573ffffffffffffffffffffffffffffffffffffffff1673ffffffffffffffffffffffffffffffffffffffff16815260200190815260200160002054905081811015611747576040517f08c379a000000000000000000000000000000000000000000000000000000000815260040161173e90611ef0565b60405180910390fd5b8181036000808673ffffffffffffffffffffffffffffffffffffffff1673ffffffffffffffffffffffffffffffffffffffff16815260200190815260200160002081905550816000808573ffffffffffffffffffffffffffffffffffffffff1673ffffffffffffffffffffffffffffffffffffffff16815260200190815260200160002060008282546117da91906120f0565b925050819055508273ffffffffffffffffffffffffffffffffffffffff168473ffffffffffffffffffffffffffffffffffffffff167fddf252ad1be2c89b69c2b068fc378daa952ba7f163c4a11628f55a4df523b3ef8460405161183e919061209e565b60405180910390a3611851848484611922565b50505050565b6000600560009054906101000a900473ffffffffffffffffffffffffffffffffffffffff16905081600560006101000a81548173ffffffffffffffffffffffffffffffffffffffff021916908373ffffffffffffffffffffffffffffffffffffffff1602179055508173ffffffffffffffffffffffffffffffffffffffff168173ffffffffffffffffffffffffffffffffffffffff167f8be0079c531659141344cd1fd0a4f28419497f9722a3daafe3b4186f6b6457e060405160405180910390a35050565b505050565b505050565b600081359050611936816127e0565b92915050565b60008151905061194b816127e0565b92915050565b600081359050611960816127f7565b92915050565b60008135905061197581612807565b92915050565b6000602082840312156119915761199061230c565b5b600061199f84828501611927565b91505092915050565b6000602082840312156119be576119bd61230c565b5b60006119cc8482850161193c565b91505092915050565b600080604083850312156119ec576119eb61230c565b5b60006119fa85828601611927565b9250506020611a0b85828601611927565b9150509250929050565b600080600060608486031215611a2e57611a2d61230c565b5b6000611a3c86828701611927565b9350506020611a4d86828701611927565b9250506040611a5e86828701611966565b9150509250925092565b60008060408385031215611a7f57611a7e61230c565b5b6000611a8d85828601611927565b9250506020611a9e85828601611966565b9150509250929050565b600060208284031215611abe57611abd61230c565b5b6000611acc84828501611951565b91505092915050565b611ade816121a0565b82525050565b611aed816121b2565b82525050565b611afc81612208565b82525050565b6000611b0d826120d4565b611b1781856120df565b9350611b2781856020860161221a565b611b3081612311565b840191505092915050565b6000611b486023836120df565b9150611b5382612322565b604082019050919050565b6000611b6b6013836120df565b9150611b7682612371565b602082019050919050565b6000611b8e6026836120df565b9150611b998261239a565b604082019050919050565b6000611bb16022836120df565b9150611bbc826123e9565b604082019050919050565b6000611bd46023836120df565b9150611bdf82612438565b604082019050919050565b6000611bf76026836120df565b9150611c0282612487565b604082019050919050565b6000611c1a6024836120df565b9150611c25826124d6565b604082019050919050565b6000611c3d601a836120df565b9150611c4882612525565b602082019050919050565b6000611c606028836120df565b9150611c6b8261254e565b604082019050919050565b6000611c836020836120df565b9150611c8e8261259d565b602082019050919050565b6000611ca66039836120df565b9150611cb1826125c6565b604082019050919050565b6000611cc96025836120df565b9150611cd482612615565b604082019050919050565b6000611cec6017836120df565b9150611cf782612664565b602082019050919050565b6000611d0f6025836120df565b9150611d1a8261268d565b604082019050919050565b6000611d326024836120df565b9150611d3d826126dc565b604082019050919050565b6000611d55601f836120df565b9150611d608261272b565b602082019050919050565b6000611d786015836120df565b9150611d8382612754565b602082019050919050565b6000611d9b6025836120df565b9150611da68261277d565b604082019050919050565b611dba816121f1565b82525050565b611dc9816121fb565b82525050565b6000602082019050611de46000830184611ad5565b92915050565b6000602082019050611dff6000830184611ae4565b92915050565b6000602082019050611e1a6000830184611af3565b92915050565b60006020820190508181036000830152611e3a8184611b02565b905092915050565b60006020820190508181036000830152611e5b81611b3b565b9050919050565b60006040820190508181036000830152611e7b81611b5e565b9050611e8a6020830184611ad5565b92915050565b60006020820190508181036000830152611ea981611b81565b9050919050565b60006020820190508181036000830152611ec981611ba4565b9050919050565b60006020820190508181036000830152611ee981611bc7565b9050919050565b60006020820190508181036000830152611f0981611bea565b9050919050565b60006020820190508181036000830152611f2981611c0d565b9050919050565b60006020820190508181036000830152611f4981611c30565b9050919050565b60006020820190508181036000830152611f6981611c53565b9050919050565b60006020820190508181036000830152611f8981611c76565b9050919050565b60006020820190508181036000830152611fa981611c99565b9050919050565b60006020820190508181036000830152611fc981611cbc565b9050919050565b60006020820190508181036000830152611fe981611cdf565b9050919050565b6000602082019050818103600083015261200981611d02565b9050919050565b6000602082019050818103600083015261202981611d25565b9050919050565b6000602082019050818103600083015261204981611d48565b9050919050565b6000604082019050818103600083015261206981611d6b565b90506120786020830184611db1565b92915050565b6000602082019050818103600083015261209781611d8e565b9050919050565b60006020820190506120b36000830184611db1565b92915050565b60006020820190506120ce6000830184611dc0565b92915050565b600081519050919050565b600082825260208201905092915050565b60006120fb826121f1565b9150612106836121f1565b9250827fffffffffffffffffffffffffffffffffffffffffffffffffffffffffffffffff0382111561213b5761213a61227f565b5b828201905092915050565b6000612151826121f1565b915061215c836121f1565b9250817fffffffffffffffffffffffffffffffffffffffffffffffffffffffffffffffff04831182151516156121955761219461227f565b5b828202905092915050565b60006121ab826121d1565b9050919050565b60008115159050919050565b60008190506121cc826127cc565b919050565b600073ffffffffffffffffffffffffffffffffffffffff82169050919050565b6000819050919050565b600060ff82169050919050565b6000612213826121be565b9050919050565b60005b8381101561223857808201518184015260208101905061221d565b83811115612247576000848401525b50505050565b6000600282049050600182168061226557607f821691505b60208210811415612279576122786122dd565b5b50919050565b7f4e487b7100000000000000000000000000000000000000000000000000000000600052601160045260246000fd5b7f4e487b7100000000000000000000000000000000000000000000000000000000600052602160045260246000fd5b7f4e487b7100000000000000000000000000000000000000000000000000000000600052602260045260246000fd5b600080fd5b6000601f19601f8301169050919050565b7f45524332303a207472616e7366657220746f20746865207a65726f206164647260008201527f6573730000000000000000000000000000000000000000000000000000000000602082015250565b7f416464726573732057686974656c697374656400000000000000000000000000600082015250565b7f4f776e61626c653a206e6577206f776e657220697320746865207a65726f206160008201527f6464726573730000000000000000000000000000000000000000000000000000602082015250565b7f45524332303a20617070726f766520746f20746865207a65726f20616464726560008201527f7373000000000000000000000000000000000000000000000000000000000000602082015250565b7f4572726f723a204d6f7265207468616e20636f6e747269627574696f6e206c6960008201527f6d69740000000000000000000000000000000000000000000000000000000000602082015250565b7f45524332303a207472616e7366657220616d6f756e742065786365656473206260008201527f616c616e63650000000000000000000000000000000000000000000000000000602082015250565b7f4572726f723a204f6e6c7920466f727761726420506861736520697320616c6c60008201527f6f77656400000000000000000000000000000000000000000000000000000000602082015250565b7f546f6b656e20686173206265656e207472616e73666572726564000000000000600082015250565b7f45524332303a207472616e7366657220616d6f756e742065786365656473206160008201527f6c6c6f77616e6365000000000000000000000000000000000000000000000000602082015250565b7f4f776e61626c653a2063616c6c6572206973206e6f7420746865206f776e6572600082015250565b7f4572726f723a20496e76616c69642061646472657373206f722068617665206e60008201527f6f7420636f6e747269627574656420616e7920616d6f756e7400000000000000602082015250565b7f4572726f723a2043616e6e6f742072656465656d20696e2063757272656e742060008201527f5068617365000000000000000000000000000000000000000000000000000000602082015250565b7f4572726f723a205068617365206c696d6974206f766572000000000000000000600082015250565b7f45524332303a207472616e736665722066726f6d20746865207a65726f20616460008201527f6472657373000000000000000000000000000000000000000000000000000000602082015250565b7f45524332303a20617070726f76652066726f6d20746865207a65726f2061646460008201527f7265737300000000000000000000000000000000000000000000000000000000602082015250565b7f4572726f723a2041646472657373206e6f7420696e2077686974656c69737400600082015250565b7f436f6e747269627574696f6e2052656365697665640000000000000000000000600082015250565b7f45524332303a2064656372656173656420616c6c6f77616e63652062656c6f7760008201527f207a65726f000000000000000000000000000000000000000000000000000000602082015250565b600381106127dd576127dc6122ae565b5b50565b6127e9816121a0565b81146127f457600080fd5b50565b6003811061280457600080fd5b50565b612810816121f1565b811461281b57600080fd5b5056fea26469706673582212206ac17ef528251b3eb17288896502b4ee4920995559fea70c37526d8e616e35b564736f6c63430008070033",
  "linkReferences": {},
  "deployedLinkReferences": {}
}