{
  "_format": "hh-sol-artifact-1",
  "contractName": "Treasury",
  "sourceName": "contracts/Treasury.sol",
  "abi": [
    {
      "anonymous": false,
      "inputs": [
        {
          "indexed": true,
          "internalType": "address",
          "name": "previousOwner",
          "type": "address"
        },
        {
          "indexed": true,
          "internalType": "address",
          "name": "newOwner",
          "type": "address"
        }
      ],
      "name": "OwnershipTransferred",
      "type": "event"
    },
    {
      "inputs": [],
      "name": "getBalance",
      "outputs": [
        {
          "internalType": "uint256",
          "name": "",
          "type": "uint256"
        }
      ],
      "stateMutability": "view",
      "type": "function"
    },
    {
      "inputs": [],
      "name": "owner",
      "outputs": [
        {
          "internalType": "address",
          "name": "",
          "type": "address"
        }
      ],
      "stateMutability": "view",
      "type": "function"
    },
    {
      "inputs": [],
      "name": "renounceOwnership",
      "outputs": [],
      "stateMutability": "nonpayable",
      "type": "function"
    },
    {
      "inputs": [
        {
          "internalType": "address",
          "name": "ico",
          "type": "address"
        }
      ],
      "name": "setSpaceCoinICOAddress",
      "outputs": [],
      "stateMutability": "nonpayable",
      "type": "function"
    },
    {
      "inputs": [
        {
          "internalType": "address",
          "name": "spacePool",
          "type": "address"
        }
      ],
      "name": "setSpacePoolAddress",
      "outputs": [],
      "stateMutability": "nonpayable",
      "type": "function"
    },
    {
      "inputs": [
        {
          "internalType": "address",
          "name": "weth",
          "type": "address"
        }
      ],
      "name": "setWETHAddress",
      "outputs": [],
      "stateMutability": "nonpayable",
      "type": "function"
    },
    {
      "inputs": [
        {
          "internalType": "address",
          "name": "newOwner",
          "type": "address"
        }
      ],
      "name": "transferOwnership",
      "outputs": [],
      "stateMutability": "nonpayable",
      "type": "function"
    },
    {
      "inputs": [
        {
          "internalType": "address",
          "name": "_to",
          "type": "address"
        },
        {
          "internalType": "uint256",
          "name": "amount",
          "type": "uint256"
        }
      ],
      "name": "transferWETH",
      "outputs": [],
      "stateMutability": "nonpayable",
      "type": "function"
    },
    {
      "inputs": [],
      "name": "withdrawFromICO",
      "outputs": [],
      "stateMutability": "payable",
      "type": "function"
    },
    {
      "stateMutability": "payable",
      "type": "receive"
    }
  ],
  "bytecode": "0x608060405234801561001057600080fd5b5061002d61002261003260201b60201c565b61003a60201b60201c565b6100fe565b600033905090565b60008060009054906101000a900473ffffffffffffffffffffffffffffffffffffffff169050816000806101000a81548173ffffffffffffffffffffffffffffffffffffffff021916908373ffffffffffffffffffffffffffffffffffffffff1602179055508173ffffffffffffffffffffffffffffffffffffffff168173ffffffffffffffffffffffffffffffffffffffff167f8be0079c531659141344cd1fd0a4f28419497f9722a3daafe3b4186f6b6457e060405160405180910390a35050565b610a048061010d6000396000f3fe60806040526004361061008a5760003560e01c8063783b6c5411610059578063783b6c541461012a578063783e78e0146101535780638da5cb5b1461015d578063d6ce06d614610188578063f2fde38b146101b157610091565b806312065fe01461009657806345bc9787146100c15780636a4234eb146100ea578063715018a61461011357610091565b3661009157005b600080fd5b3480156100a257600080fd5b506100ab6101da565b6040516100b89190610898565b60405180910390f35b3480156100cd57600080fd5b506100e860048036038101906100e39190610716565b6101e2565b005b3480156100f657600080fd5b50610111600480360381019061010c9190610716565b610226565b005b34801561011f57600080fd5b5061012861026a565b005b34801561013657600080fd5b50610151600480360381019061014c9190610743565b6102f2565b005b61015b610422565b005b34801561016957600080fd5b506101726104a6565b60405161017f9190610814565b60405180910390f35b34801561019457600080fd5b506101af60048036038101906101aa9190610716565b6104cf565b005b3480156101bd57600080fd5b506101d860048036038101906101d39190610716565b610513565b005b600047905090565b80600360006101000a81548173ffffffffffffffffffffffffffffffffffffffff021916908373ffffffffffffffffffffffffffffffffffffffff16021790555050565b80600260006101000a81548173ffffffffffffffffffffffffffffffffffffffff021916908373ffffffffffffffffffffffffffffffffffffffff16021790555050565b61027261060b565b73ffffffffffffffffffffffffffffffffffffffff166102906104a6565b73ffffffffffffffffffffffffffffffffffffffff16146102e6576040517f08c379a00000000000000000000000000000000000000000000000000000000081526004016102dd90610878565b60405180910390fd5b6102f06000610613565b565b6102fa61060b565b73ffffffffffffffffffffffffffffffffffffffff166103186104a6565b73ffffffffffffffffffffffffffffffffffffffff161461036e576040517f08c379a000000000000000000000000000000000000000000000000000000000815260040161036590610878565b60405180910390fd5b600260009054906101000a900473ffffffffffffffffffffffffffffffffffffffff1673ffffffffffffffffffffffffffffffffffffffff1663a9059cbb83836040518363ffffffff1660e01b81526004016103cb92919061082f565b602060405180830381600087803b1580156103e557600080fd5b505af11580156103f9573d6000803e3d6000fd5b505050506040513d601f19601f8201168201806040525081019061041d9190610783565b505050565b600160009054906101000a900473ffffffffffffffffffffffffffffffffffffffff1673ffffffffffffffffffffffffffffffffffffffff16633ccfd60b6040518163ffffffff1660e01b8152600401600060405180830381600087803b15801561048c57600080fd5b505af11580156104a0573d6000803e3d6000fd5b50505050565b60008060009054906101000a900473ffffffffffffffffffffffffffffffffffffffff16905090565b80600160006101000a81548173ffffffffffffffffffffffffffffffffffffffff021916908373ffffffffffffffffffffffffffffffffffffffff16021790555050565b61051b61060b565b73ffffffffffffffffffffffffffffffffffffffff166105396104a6565b73ffffffffffffffffffffffffffffffffffffffff161461058f576040517f08c379a000000000000000000000000000000000000000000000000000000000815260040161058690610878565b60405180910390fd5b600073ffffffffffffffffffffffffffffffffffffffff168173ffffffffffffffffffffffffffffffffffffffff1614156105ff576040517f08c379a00000000000000000000000000000000000000000000000000000000081526004016105f690610858565b60405180910390fd5b61060881610613565b50565b600033905090565b60008060009054906101000a900473ffffffffffffffffffffffffffffffffffffffff169050816000806101000a81548173ffffffffffffffffffffffffffffffffffffffff021916908373ffffffffffffffffffffffffffffffffffffffff1602179055508173ffffffffffffffffffffffffffffffffffffffff168173ffffffffffffffffffffffffffffffffffffffff167f8be0079c531659141344cd1fd0a4f28419497f9722a3daafe3b4186f6b6457e060405160405180910390a35050565b6000813590506106e681610989565b92915050565b6000815190506106fb816109a0565b92915050565b600081359050610710816109b7565b92915050565b60006020828403121561072c5761072b61090c565b5b600061073a848285016106d7565b91505092915050565b6000806040838503121561075a5761075961090c565b5b6000610768858286016106d7565b925050602061077985828601610701565b9150509250929050565b6000602082840312156107995761079861090c565b5b60006107a7848285016106ec565b91505092915050565b6107b9816108c4565b82525050565b60006107cc6026836108b3565b91506107d782610911565b604082019050919050565b60006107ef6020836108b3565b91506107fa82610960565b602082019050919050565b61080e81610902565b82525050565b600060208201905061082960008301846107b0565b92915050565b600060408201905061084460008301856107b0565b6108516020830184610805565b9392505050565b60006020820190508181036000830152610871816107bf565b9050919050565b60006020820190508181036000830152610891816107e2565b9050919050565b60006020820190506108ad6000830184610805565b92915050565b600082825260208201905092915050565b60006108cf826108e2565b9050919050565b60008115159050919050565b600073ffffffffffffffffffffffffffffffffffffffff82169050919050565b6000819050919050565b600080fd5b7f4f776e61626c653a206e6577206f776e657220697320746865207a65726f206160008201527f6464726573730000000000000000000000000000000000000000000000000000602082015250565b7f4f776e61626c653a2063616c6c6572206973206e6f7420746865206f776e6572600082015250565b610992816108c4565b811461099d57600080fd5b50565b6109a9816108d6565b81146109b457600080fd5b50565b6109c081610902565b81146109cb57600080fd5b5056fea2646970667358221220229a01353a4b2f8f5e7d81dc431fc938be6008c627acaaf45e381c4b782c3bd464736f6c63430008070033",
  "linkReferences": {},
  "deployedLinkReferences": {}
}