{
  "_format": "hh-sol-artifact-1",
  "contractName": "Treasury",
  "sourceName": "contracts/Treasury.sol",
  "abi": [
    {
      "inputs": [],
      "name": "getBalance",
      "outputs": [
        {
          "internalType": "uint256",
          "name": "",
          "type": "uint256"
        }
      ],
      "stateMutability": "view",
      "type": "function"
    },
    {
      "inputs": [
        {
          "internalType": "address",
          "name": "ico",
          "type": "address"
        }
      ],
      "name": "setSpaceCoinICOAddress",
      "outputs": [],
      "stateMutability": "nonpayable",
      "type": "function"
    },
    {
      "inputs": [],
      "name": "withdrawFromICO",
      "outputs": [],
      "stateMutability": "payable",
      "type": "function"
    },
    {
      "stateMutability": "payable",
      "type": "receive"
    }
  ],
  "bytecode": "0x608060405234801561001057600080fd5b50610269806100206000396000f3fe6080604052600436106100385760003560e01c806312065fe014610044578063783e78e01461006f578063d6ce06d6146100795761003f565b3661003f57005b600080fd5b34801561005057600080fd5b506100596100a2565b60405161006691906101c0565b60405180910390f35b6100776100aa565b005b34801561008557600080fd5b506100a0600480360381019061009b9190610184565b61012c565b005b600047905090565b60008054906101000a900473ffffffffffffffffffffffffffffffffffffffff1673ffffffffffffffffffffffffffffffffffffffff16633ccfd60b6040518163ffffffff1660e01b8152600401600060405180830381600087803b15801561011257600080fd5b505af1158015610126573d6000803e3d6000fd5b50505050565b806000806101000a81548173ffffffffffffffffffffffffffffffffffffffff021916908373ffffffffffffffffffffffffffffffffffffffff16021790555050565b60008135905061017e8161021c565b92915050565b60006020828403121561019a57610199610217565b5b60006101a88482850161016f565b91505092915050565b6101ba8161020d565b82525050565b60006020820190506101d560008301846101b1565b92915050565b60006101e6826101ed565b9050919050565b600073ffffffffffffffffffffffffffffffffffffffff82169050919050565b6000819050919050565b600080fd5b610225816101db565b811461023057600080fd5b5056fea2646970667358221220831dd059252f5b1a3f7aca0f22bd23b0a2f296dc5d76baf6156f4e587a130cfe64736f6c63430008070033",
  "linkReferences": {},
  "deployedLinkReferences": {}
}