{
  "_format": "hh-sol-artifact-1",
  "contractName": "Treasury",
  "sourceName": "contracts/Treasury.sol",
  "abi": [
    {
      "anonymous": false,
      "inputs": [
        {
          "indexed": true,
          "internalType": "address",
          "name": "previousOwner",
          "type": "address"
        },
        {
          "indexed": true,
          "internalType": "address",
          "name": "newOwner",
          "type": "address"
        }
      ],
      "name": "OwnershipTransferred",
      "type": "event"
    },
    {
      "inputs": [],
      "name": "getBalance",
      "outputs": [
        {
          "internalType": "uint256",
          "name": "",
          "type": "uint256"
        }
      ],
      "stateMutability": "view",
      "type": "function"
    },
    {
      "inputs": [],
      "name": "owner",
      "outputs": [
        {
          "internalType": "address",
          "name": "",
          "type": "address"
        }
      ],
      "stateMutability": "view",
      "type": "function"
    },
    {
      "inputs": [],
      "name": "renounceOwnership",
      "outputs": [],
      "stateMutability": "nonpayable",
      "type": "function"
    },
    {
      "inputs": [
        {
          "internalType": "address",
          "name": "ico",
          "type": "address"
        }
      ],
      "name": "setSpaceCoinICOAddress",
      "outputs": [],
      "stateMutability": "nonpayable",
      "type": "function"
    },
    {
      "inputs": [
        {
          "internalType": "address",
          "name": "newOwner",
          "type": "address"
        }
      ],
      "name": "transferOwnership",
      "outputs": [],
      "stateMutability": "nonpayable",
      "type": "function"
    },
    {
      "stateMutability": "payable",
      "type": "receive"
    }
  ],
  "bytecode": "0x608060405234801561001057600080fd5b5061002d61002261003260201b60201c565b61003a60201b60201c565b6100fe565b600033905090565b60008060009054906101000a900473ffffffffffffffffffffffffffffffffffffffff169050816000806101000a81548173ffffffffffffffffffffffffffffffffffffffff021916908373ffffffffffffffffffffffffffffffffffffffff1602179055508173ffffffffffffffffffffffffffffffffffffffff168173ffffffffffffffffffffffffffffffffffffffff167f8be0079c531659141344cd1fd0a4f28419497f9722a3daafe3b4186f6b6457e060405160405180910390a35050565b61060d8061010d6000396000f3fe60806040526004361061004e5760003560e01c806312065fe01461005a578063715018a6146100855780638da5cb5b1461009c578063d6ce06d6146100c7578063f2fde38b146100f057610055565b3661005557005b600080fd5b34801561006657600080fd5b5061006f610119565b60405161007c91906104db565b60405180910390f35b34801561009157600080fd5b5061009a610121565b005b3480156100a857600080fd5b506100b16101a9565b6040516100be9190610480565b60405180910390f35b3480156100d357600080fd5b506100ee60048036038101906100e991906103ef565b6101d2565b005b3480156100fc57600080fd5b50610117600480360381019061011291906103ef565b610216565b005b600047905090565b61012961030e565b73ffffffffffffffffffffffffffffffffffffffff166101476101a9565b73ffffffffffffffffffffffffffffffffffffffff161461019d576040517f08c379a0000000000000000000000000000000000000000000000000000000008152600401610194906104bb565b60405180910390fd5b6101a76000610316565b565b60008060009054906101000a900473ffffffffffffffffffffffffffffffffffffffff16905090565b80600160006101000a81548173ffffffffffffffffffffffffffffffffffffffff021916908373ffffffffffffffffffffffffffffffffffffffff16021790555050565b61021e61030e565b73ffffffffffffffffffffffffffffffffffffffff1661023c6101a9565b73ffffffffffffffffffffffffffffffffffffffff1614610292576040517f08c379a0000000000000000000000000000000000000000000000000000000008152600401610289906104bb565b60405180910390fd5b600073ffffffffffffffffffffffffffffffffffffffff168173ffffffffffffffffffffffffffffffffffffffff161415610302576040517f08c379a00000000000000000000000000000000000000000000000000000000081526004016102f99061049b565b60405180910390fd5b61030b81610316565b50565b600033905090565b60008060009054906101000a900473ffffffffffffffffffffffffffffffffffffffff169050816000806101000a81548173ffffffffffffffffffffffffffffffffffffffff021916908373ffffffffffffffffffffffffffffffffffffffff1602179055508173ffffffffffffffffffffffffffffffffffffffff168173ffffffffffffffffffffffffffffffffffffffff167f8be0079c531659141344cd1fd0a4f28419497f9722a3daafe3b4186f6b6457e060405160405180910390a35050565b6000813590506103e9816105c0565b92915050565b60006020828403121561040557610404610543565b5b6000610413848285016103da565b91505092915050565b61042581610507565b82525050565b60006104386026836104f6565b915061044382610548565b604082019050919050565b600061045b6020836104f6565b915061046682610597565b602082019050919050565b61047a81610539565b82525050565b6000602082019050610495600083018461041c565b92915050565b600060208201905081810360008301526104b48161042b565b9050919050565b600060208201905081810360008301526104d48161044e565b9050919050565b60006020820190506104f06000830184610471565b92915050565b600082825260208201905092915050565b600061051282610519565b9050919050565b600073ffffffffffffffffffffffffffffffffffffffff82169050919050565b6000819050919050565b600080fd5b7f4f776e61626c653a206e6577206f776e657220697320746865207a65726f206160008201527f6464726573730000000000000000000000000000000000000000000000000000602082015250565b7f4f776e61626c653a2063616c6c6572206973206e6f7420746865206f776e6572600082015250565b6105c981610507565b81146105d457600080fd5b5056fea264697066735822122002af9196ac916dd80609b2f0c6ce60cee46e226b396dcd3874e778a40fe1ffe564736f6c63430008070033",
  "linkReferences": {},
  "deployedLinkReferences": {}
}